{
	"contracts/Marketplace.sol": {
		"GBMarketplace": {
			"abi": [
				{
					"inputs": [
						{
							"internalType": "address",
							"name": "initialOwner",
							"type": "address"
						}
					],
					"stateMutability": "nonpayable",
					"type": "constructor"
				},
				{
					"inputs": [
						{
							"internalType": "address",
							"name": "owner",
							"type": "address"
						}
					],
					"name": "OwnableInvalidOwner",
					"type": "error"
				},
				{
					"inputs": [
						{
							"internalType": "address",
							"name": "account",
							"type": "address"
						}
					],
					"name": "OwnableUnauthorizedAccount",
					"type": "error"
				},
				{
					"anonymous": false,
					"inputs": [
						{
							"indexed": false,
							"internalType": "address",
							"name": "sender",
							"type": "address"
						},
						{
							"indexed": false,
							"internalType": "uint256",
							"name": "amount",
							"type": "uint256"
						}
					],
					"name": "Deposit",
					"type": "event"
				},
				{
					"anonymous": false,
					"inputs": [
						{
							"indexed": false,
							"internalType": "address",
							"name": "_buyer",
							"type": "address"
						},
						{
							"indexed": false,
							"internalType": "uint256",
							"name": "_tokenId",
							"type": "uint256"
						},
						{
							"indexed": false,
							"internalType": "uint256",
							"name": "_price",
							"type": "uint256"
						}
					],
					"name": "NftBuy",
					"type": "event"
				},
				{
					"anonymous": false,
					"inputs": [
						{
							"indexed": false,
							"internalType": "address",
							"name": "_seller",
							"type": "address"
						},
						{
							"indexed": false,
							"internalType": "uint256",
							"name": "_tokenId",
							"type": "uint256"
						},
						{
							"indexed": false,
							"internalType": "uint256",
							"name": "_id",
							"type": "uint256"
						}
					],
					"name": "NftList",
					"type": "event"
				},
				{
					"anonymous": false,
					"inputs": [
						{
							"indexed": true,
							"internalType": "address",
							"name": "previousOwner",
							"type": "address"
						},
						{
							"indexed": true,
							"internalType": "address",
							"name": "newOwner",
							"type": "address"
						}
					],
					"name": "OwnershipTransferred",
					"type": "event"
				},
				{
					"anonymous": false,
					"inputs": [
						{
							"indexed": false,
							"internalType": "address",
							"name": "account",
							"type": "address"
						}
					],
					"name": "Paused",
					"type": "event"
				},
				{
					"anonymous": false,
					"inputs": [
						{
							"indexed": false,
							"internalType": "address",
							"name": "account",
							"type": "address"
						}
					],
					"name": "Unpaused",
					"type": "event"
				},
				{
					"anonymous": false,
					"inputs": [
						{
							"indexed": false,
							"internalType": "address",
							"name": "_buyer",
							"type": "address"
						},
						{
							"indexed": false,
							"internalType": "uint256",
							"name": "_tokenId",
							"type": "uint256"
						},
						{
							"indexed": false,
							"internalType": "uint256",
							"name": "_price",
							"type": "uint256"
						}
					],
					"name": "transferToBuyer",
					"type": "event"
				},
				{
					"anonymous": false,
					"inputs": [
						{
							"indexed": false,
							"internalType": "address",
							"name": "_buyer",
							"type": "address"
						},
						{
							"indexed": false,
							"internalType": "uint256",
							"name": "_tokenId",
							"type": "uint256"
						},
						{
							"indexed": false,
							"internalType": "uint256",
							"name": "_price",
							"type": "uint256"
						}
					],
					"name": "updateToBuyer",
					"type": "event"
				},
				{
					"inputs": [],
					"name": "ERC20",
					"outputs": [
						{
							"internalType": "contract IERC20",
							"name": "",
							"type": "address"
						}
					],
					"stateMutability": "view",
					"type": "function"
				},
				{
					"inputs": [],
					"name": "ERCNFT",
					"outputs": [
						{
							"internalType": "contract IERC721",
							"name": "",
							"type": "address"
						}
					],
					"stateMutability": "view",
					"type": "function"
				},
				{
					"inputs": [
						{
							"internalType": "contract ERC721",
							"name": "_nft",
							"type": "address"
						},
						{
							"internalType": "uint256",
							"name": "_Id",
							"type": "uint256"
						}
					],
					"name": "buyNFT",
					"outputs": [],
					"stateMutability": "payable",
					"type": "function"
				},
				{
					"inputs": [
						{
							"internalType": "contract ERC721",
							"name": "_nft",
							"type": "address"
						},
						{
							"internalType": "uint256",
							"name": "_Id",
							"type": "uint256"
						}
					],
					"name": "cancel",
					"outputs": [],
					"stateMutability": "payable",
					"type": "function"
				},
				{
					"inputs": [
						{
							"internalType": "contract ERC721",
							"name": "_nft",
							"type": "address"
						},
						{
							"internalType": "uint256",
							"name": "_tokenId",
							"type": "uint256"
						}
					],
					"name": "getAllIdListed",
					"outputs": [
						{
							"internalType": "uint256",
							"name": "",
							"type": "uint256"
						}
					],
					"stateMutability": "view",
					"type": "function"
				},
				{
					"inputs": [],
					"name": "getComissionPercentage",
					"outputs": [
						{
							"internalType": "uint256",
							"name": "",
							"type": "uint256"
						}
					],
					"stateMutability": "view",
					"type": "function"
				},
				{
					"inputs": [
						{
							"internalType": "contract ERC721",
							"name": "_nft",
							"type": "address"
						},
						{
							"internalType": "uint256",
							"name": "_tokenId",
							"type": "uint256"
						}
					],
					"name": "getIdListed",
					"outputs": [
						{
							"internalType": "uint256",
							"name": "",
							"type": "uint256"
						}
					],
					"stateMutability": "view",
					"type": "function"
				},
				{
					"inputs": [],
					"name": "getListinglength",
					"outputs": [
						{
							"internalType": "uint256",
							"name": "",
							"type": "uint256"
						}
					],
					"stateMutability": "view",
					"type": "function"
				},
				{
					"inputs": [
						{
							"internalType": "uint256",
							"name": "_Id",
							"type": "uint256"
						}
					],
					"name": "getNFTListing",
					"outputs": [
						{
							"components": [
								{
									"internalType": "contract ERC721",
									"name": "nft",
									"type": "address"
								},
								{
									"internalType": "uint256",
									"name": "tokenId",
									"type": "uint256"
								},
								{
									"internalType": "uint256",
									"name": "price",
									"type": "uint256"
								},
								{
									"internalType": "address",
									"name": "coin",
									"type": "address"
								},
								{
									"internalType": "address",
									"name": "seller",
									"type": "address"
								},
								{
									"internalType": "bool",
									"name": "forSale",
									"type": "bool"
								}
							],
							"internalType": "struct GBMarketplace.NFTListing",
							"name": "",
							"type": "tuple"
						}
					],
					"stateMutability": "view",
					"type": "function"
				},
				{
					"inputs": [
						{
							"internalType": "contract ERC721",
							"name": "_nft",
							"type": "address"
						},
						{
							"internalType": "uint256",
							"name": "_tokenId",
							"type": "uint256"
						},
						{
							"internalType": "uint256",
							"name": "_price",
							"type": "uint256"
						},
						{
							"internalType": "address",
							"name": "_coin",
							"type": "address"
						}
					],
					"name": "listNFT",
					"outputs": [],
					"stateMutability": "payable",
					"type": "function"
				},
				{
					"inputs": [
						{
							"internalType": "uint256",
							"name": "",
							"type": "uint256"
						}
					],
					"name": "listings",
					"outputs": [
						{
							"internalType": "contract ERC721",
							"name": "nft",
							"type": "address"
						},
						{
							"internalType": "uint256",
							"name": "tokenId",
							"type": "uint256"
						},
						{
							"internalType": "uint256",
							"name": "price",
							"type": "uint256"
						},
						{
							"internalType": "address",
							"name": "coin",
							"type": "address"
						},
						{
							"internalType": "address",
							"name": "seller",
							"type": "address"
						},
						{
							"internalType": "bool",
							"name": "forSale",
							"type": "bool"
						}
					],
					"stateMutability": "view",
					"type": "function"
				},
				{
					"inputs": [],
					"name": "owner",
					"outputs": [
						{
							"internalType": "address",
							"name": "",
							"type": "address"
						}
					],
					"stateMutability": "view",
					"type": "function"
				},
				{
					"inputs": [],
					"name": "pauseMarketplace",
					"outputs": [],
					"stateMutability": "nonpayable",
					"type": "function"
				},
				{
					"inputs": [],
					"name": "paused",
					"outputs": [
						{
							"internalType": "bool",
							"name": "",
							"type": "bool"
						}
					],
					"stateMutability": "view",
					"type": "function"
				},
				{
					"inputs": [],
					"name": "renounceOwnership",
					"outputs": [],
					"stateMutability": "nonpayable",
					"type": "function"
				},
				{
					"inputs": [
						{
							"internalType": "uint256",
							"name": "_listingId",
							"type": "uint256"
						}
					],
					"name": "transferNFT",
					"outputs": [],
					"stateMutability": "nonpayable",
					"type": "function"
				},
				{
					"inputs": [
						{
							"internalType": "uint256",
							"name": "_amount",
							"type": "uint256"
						},
						{
							"internalType": "address",
							"name": "_ERC20Address",
							"type": "address"
						}
					],
					"name": "transferOrWithdraw",
					"outputs": [],
					"stateMutability": "nonpayable",
					"type": "function"
				},
				{
					"inputs": [
						{
							"internalType": "address",
							"name": "newOwner",
							"type": "address"
						}
					],
					"name": "transferOwnership",
					"outputs": [],
					"stateMutability": "nonpayable",
					"type": "function"
				},
				{
					"inputs": [],
					"name": "unpauseMarketplace",
					"outputs": [],
					"stateMutability": "nonpayable",
					"type": "function"
				},
				{
					"inputs": [
						{
							"internalType": "uint256",
							"name": "_value",
							"type": "uint256"
						}
					],
					"name": "updateComissionPercentage",
					"outputs": [],
					"stateMutability": "nonpayable",
					"type": "function"
				},
				{
					"inputs": [
						{
							"internalType": "contract ERC721",
							"name": "_nft",
							"type": "address"
						},
						{
							"internalType": "uint256",
							"name": "_Id",
							"type": "uint256"
						},
						{
							"internalType": "address",
							"name": "_sender",
							"type": "address"
						}
					],
					"name": "updateNFT",
					"outputs": [],
					"stateMutability": "nonpayable",
					"type": "function"
				},
				{
					"stateMutability": "payable",
					"type": "receive"
				}
			],
			"devdoc": {
				"errors": {
					"OwnableInvalidOwner(address)": [
						{
							"details": "The owner is not a valid owner account. (eg. `address(0)`)"
						}
					],
					"OwnableUnauthorizedAccount(address)": [
						{
							"details": "The caller account is not authorized to perform an operation."
						}
					]
				},
				"events": {
					"Paused(address)": {
						"details": "Emitted when the pause is triggered by `account`."
					},
					"Unpaused(address)": {
						"details": "Emitted when the pause is lifted by `account`."
					}
				},
				"kind": "dev",
				"methods": {
					"owner()": {
						"details": "Returns the address of the current owner."
					},
					"paused()": {
						"details": "Returns true if the contract is paused, and false otherwise."
					},
					"renounceOwnership()": {
						"details": "Leaves the contract without owner. It will not be possible to call `onlyOwner` functions. Can only be called by the current owner. NOTE: Renouncing ownership will leave the contract without an owner, thereby disabling any functionality that is only available to the owner."
					},
					"transferOwnership(address)": {
						"details": "Transfers ownership of the contract to a new account (`newOwner`). Can only be called by the current owner."
					}
				},
				"version": 1
			},
			"evm": {
				"assembly": "    /* \"contracts/Marketplace.sol\":478:7956  contract GBMarketplace is Ownable, Pausable,  ReentrancyGuard  {... */\n  mstore(0x40, 0x80)\n    /* \"contracts/Marketplace.sol\":759:762  350 */\n  0x015e\n    /* \"contracts/Marketplace.sol\":730:762  uint  commissionPercentage = 350 */\n  0x05\n  sstore\n    /* \"contracts/Marketplace.sol\":1356:1419  constructor (address initialOwner)... */\n  callvalue\n  dup1\n  iszero\n  tag_1\n  jumpi\n  0x00\n  dup1\n  revert\ntag_1:\n  pop\n  mload(0x40)\n  sub(codesize, bytecodeSize)\n  dup1\n  bytecodeSize\n  dup4\n  codecopy\n  dup2\n  add\n  0x40\n  dup2\n  swap1\n  mstore\n  tag_2\n  swap2\n  tag_3\n  jump\t// in\ntag_2:\n    /* \"contracts/Marketplace.sol\":1404:1416  initialOwner */\n  dup1\n  sub(shl(0xa0, 0x01), 0x01)\n    /* \"@openzeppelin/contracts/access/Ownable.sol\":1273:1299  initialOwner == address(0) */\n  dup2\n  and\n    /* \"@openzeppelin/contracts/access/Ownable.sol\":1269:1364  if (initialOwner == address(0)) {... */\n  tag_9\n  jumpi\n    /* \"@openzeppelin/contracts/access/Ownable.sol\":1322:1353  OwnableInvalidOwner(address(0)) */\n  mload(0x40)\n  shl(0xe0, 0x1e4fbdf7)\n  dup2\n  mstore\n    /* \"@openzeppelin/contracts/access/Ownable.sol\":1350:1351  0 */\n  0x00\n    /* \"@openzeppelin/contracts/access/Ownable.sol\":1322:1353  OwnableInvalidOwner(address(0)) */\n  0x04\n  dup3\n  add\n    /* \"#utility.yul\":455:506   */\n  mstore\n    /* \"#utility.yul\":428:446   */\n  0x24\n  add\n    /* \"@openzeppelin/contracts/access/Ownable.sol\":1322:1353  OwnableInvalidOwner(address(0)) */\n  mload(0x40)\n  dup1\n  swap2\n  sub\n  swap1\n  revert\n    /* \"@openzeppelin/contracts/access/Ownable.sol\":1269:1364  if (initialOwner == address(0)) {... */\ntag_9:\n    /* \"@openzeppelin/contracts/access/Ownable.sol\":1373:1405  _transferOwnership(initialOwner) */\n  tag_12\n    /* \"@openzeppelin/contracts/access/Ownable.sol\":1392:1404  initialOwner */\n  dup2\n    /* \"@openzeppelin/contracts/access/Ownable.sol\":1373:1391  _transferOwnership */\n  tag_13\n    /* \"@openzeppelin/contracts/access/Ownable.sol\":1373:1405  _transferOwnership(initialOwner) */\n  jump\t// in\ntag_12:\n  pop\n  pop\n    /* \"@openzeppelin/contracts/security/Pausable.sol\":1006:1011  false */\n  0x00\n    /* \"@openzeppelin/contracts/security/Pausable.sol\":996:1011  _paused = false */\n  dup1\n  sload\n  not(shl(0xa0, 0xff))\n  and\n  swap1\n  sstore\n  0x01\n    /* \"@openzeppelin/contracts/security/ReentrancyGuard.sol\":1821:1843  _status = _NOT_ENTERED */\n  dup1\n  sstore\n    /* \"contracts/Marketplace.sol\":478:7956  contract GBMarketplace is Ownable, Pausable,  ReentrancyGuard  {... */\n  jump(tag_19)\n    /* \"@openzeppelin/contracts/access/Ownable.sol\":2912:3099  function _transferOwnership(address newOwner) internal virtual {... */\ntag_13:\n    /* \"@openzeppelin/contracts/access/Ownable.sol\":2985:3001  address oldOwner */\n  0x00\n    /* \"@openzeppelin/contracts/access/Ownable.sol\":3004:3010  _owner */\n  dup1\n  sload\n  sub(shl(0xa0, 0x01), 0x01)\n    /* \"@openzeppelin/contracts/access/Ownable.sol\":3020:3037  _owner = newOwner */\n  dup4\n  dup2\n  and\n  not(sub(shl(0xa0, 0x01), 0x01))\n  dup4\n  and\n  dup2\n  or\n  dup5\n  sstore\n    /* \"@openzeppelin/contracts/access/Ownable.sol\":3052:3092  OwnershipTransferred(oldOwner, newOwner) */\n  mload(0x40)\n    /* \"@openzeppelin/contracts/access/Ownable.sol\":3004:3010  _owner */\n  swap2\n  swap1\n  swap3\n  and\n  swap3\n  dup4\n  swap2\n    /* \"@openzeppelin/contracts/access/Ownable.sol\":3052:3092  OwnershipTransferred(oldOwner, newOwner) */\n  0x8be0079c531659141344cd1fd0a4f28419497f9722a3daafe3b4186f6b6457e0\n  swap2\n    /* \"@openzeppelin/contracts/access/Ownable.sol\":2985:3001  address oldOwner */\n  swap1\n    /* \"@openzeppelin/contracts/access/Ownable.sol\":3052:3092  OwnershipTransferred(oldOwner, newOwner) */\n  log3\n    /* \"@openzeppelin/contracts/access/Ownable.sol\":2975:3099  {... */\n  pop\n    /* \"@openzeppelin/contracts/access/Ownable.sol\":2912:3099  function _transferOwnership(address newOwner) internal virtual {... */\n  pop\n  jump\t// out\n    /* \"#utility.yul\":14:304   */\ntag_3:\n    /* \"#utility.yul\":84:90   */\n  0x00\n    /* \"#utility.yul\":137:139   */\n  0x20\n    /* \"#utility.yul\":125:134   */\n  dup3\n    /* \"#utility.yul\":116:123   */\n  dup5\n    /* \"#utility.yul\":112:135   */\n  sub\n    /* \"#utility.yul\":108:140   */\n  slt\n    /* \"#utility.yul\":105:157   */\n  iszero\n  tag_21\n  jumpi\n    /* \"#utility.yul\":153:154   */\n  0x00\n    /* \"#utility.yul\":150:151   */\n  dup1\n    /* \"#utility.yul\":143:155   */\n  revert\n    /* \"#utility.yul\":105:157   */\ntag_21:\n    /* \"#utility.yul\":179:195   */\n  dup2\n  mload\n  sub(shl(0xa0, 0x01), 0x01)\n    /* \"#utility.yul\":224:255   */\n  dup2\n  and\n    /* \"#utility.yul\":214:256   */\n  dup2\n  eq\n    /* \"#utility.yul\":204:274   */\n  tag_22\n  jumpi\n    /* \"#utility.yul\":270:271   */\n  0x00\n    /* \"#utility.yul\":267:268   */\n  dup1\n    /* \"#utility.yul\":260:272   */\n  revert\n    /* \"#utility.yul\":204:274   */\ntag_22:\n    /* \"#utility.yul\":293:298   */\n  swap4\n    /* \"#utility.yul\":14:304   */\n  swap3\n  pop\n  pop\n  pop\n  jump\t// out\n    /* \"#utility.yul\":309:512   */\ntag_19:\n    /* \"contracts/Marketplace.sol\":478:7956  contract GBMarketplace is Ownable, Pausable,  ReentrancyGuard  {... */\n  dataSize(sub_0)\n  dup1\n  dataOffset(sub_0)\n  0x00\n  codecopy\n  0x00\n  return\nstop\n\nsub_0: assembly {\n        /* \"contracts/Marketplace.sol\":478:7956  contract GBMarketplace is Ownable, Pausable,  ReentrancyGuard  {... */\n      mstore(0x40, 0x80)\n      jumpi(tag_1, lt(calldatasize, 0x04))\n      shr(0xe0, calldataload(0x00))\n      dup1\n      0x0ea59c4b\n      eq\n      tag_3\n      jumpi\n      dup1\n      0x21f67fbb\n      eq\n      tag_4\n      jumpi\n      dup1\n      0x249e10c5\n      eq\n      tag_5\n      jumpi\n      dup1\n      0x3ec62279\n      eq\n      tag_6\n      jumpi\n      dup1\n      0x5c975abb\n      eq\n      tag_7\n      jumpi\n      dup1\n      0x65a19c20\n      eq\n      tag_8\n      jumpi\n      dup1\n      0x6ee4c120\n      eq\n      tag_9\n      jumpi\n      dup1\n      0x715018a6\n      eq\n      tag_10\n      jumpi\n      dup1\n      0x8699fdf4\n      eq\n      tag_11\n      jumpi\n      dup1\n      0x8da5cb5b\n      eq\n      tag_12\n      jumpi\n      dup1\n      0x925a9953\n      eq\n      tag_13\n      jumpi\n      dup1\n      0x98590ef9\n      eq\n      tag_14\n      jumpi\n      dup1\n      0x9cefe029\n      eq\n      tag_15\n      jumpi\n      dup1\n      0xa82ba76f\n      eq\n      tag_16\n      jumpi\n      dup1\n      0xc85d5262\n      eq\n      tag_17\n      jumpi\n      dup1\n      0xcc4aa204\n      eq\n      tag_18\n      jumpi\n      dup1\n      0xcf02976f\n      eq\n      tag_19\n      jumpi\n      dup1\n      0xd68cdc52\n      eq\n      tag_20\n      jumpi\n      dup1\n      0xde74e57b\n      eq\n      tag_21\n      jumpi\n      dup1\n      0xdf706cbc\n      eq\n      tag_22\n      jumpi\n      dup1\n      0xf2fde38b\n      eq\n      tag_23\n      jumpi\n      0x00\n      dup1\n      revert\n    tag_1:\n      jumpi(tag_2, calldatasize)\n        /* \"contracts/Marketplace.sol\":6345:6375  Deposit(msg.sender, msg.value) */\n      0xe1fffcc4923d04b559f4d29a8bfc6cda04eb5b0d3c460751c2402c5c5cc9109c\n        /* \"contracts/Marketplace.sol\":6353:6363  msg.sender */\n      caller\n        /* \"contracts/Marketplace.sol\":6365:6374  msg.value */\n      callvalue\n        /* \"contracts/Marketplace.sol\":6345:6375  Deposit(msg.sender, msg.value) */\n      mload(0x40)\n      tag_26\n      swap3\n      swap2\n      swap1\n      tag_27\n      jump\t// in\n    tag_26:\n      mload(0x40)\n      dup1\n      swap2\n      sub\n      swap1\n      log1\n        /* \"contracts/Marketplace.sol\":478:7956  contract GBMarketplace is Ownable, Pausable,  ReentrancyGuard  {... */\n      stop\n    tag_2:\n      0x00\n      dup1\n      revert\n        /* \"contracts/Marketplace.sol\":6453:6565  function getNFTListing(uint _Id) public view returns (NFTListing memory) {... */\n    tag_3:\n      callvalue\n      dup1\n      iszero\n      tag_28\n      jumpi\n      0x00\n      dup1\n      revert\n    tag_28:\n      pop\n      tag_29\n      tag_30\n      calldatasize\n      0x04\n      tag_31\n      jump\t// in\n    tag_30:\n      0x40\n      dup1\n      mload\n      0xc0\n      dup2\n      add\n      dup3\n      mstore\n      0x00\n      dup1\n      dup3\n      mstore\n      0x20\n      dup3\n      add\n      dup2\n      swap1\n      mstore\n      swap2\n      dup2\n      add\n      dup3\n      swap1\n      mstore\n      0x60\n      dup2\n      add\n      dup3\n      swap1\n      mstore\n      0x80\n      dup2\n      add\n      dup3\n      swap1\n      mstore\n      0xa0\n      dup2\n      add\n      swap2\n      swap1\n      swap2\n      mstore\n      pop\n        /* \"contracts/Marketplace.sol\":6544:6557  listings[_Id] */\n      0x00\n      swap1\n      dup2\n      mstore\n        /* \"contracts/Marketplace.sol\":6544:6552  listings */\n      0x09\n        /* \"contracts/Marketplace.sol\":6544:6557  listings[_Id] */\n      0x20\n      swap1\n      dup2\n      mstore\n      0x40\n      swap2\n      dup3\n      swap1\n      keccak256\n        /* \"contracts/Marketplace.sol\":6537:6557  return listings[_Id] */\n      dup3\n      mload\n      0xc0\n      dup2\n      add\n      dup5\n      mstore\n      dup2\n      sload\n      sub(shl(0xa0, 0x01), 0x01)\n      swap1\n      dup2\n      and\n      dup3\n      mstore\n      0x01\n      dup4\n      add\n      sload\n      swap4\n      dup3\n      add\n      swap4\n      swap1\n      swap4\n      mstore\n      0x02\n      dup3\n      add\n      sload\n      swap4\n      dup2\n      add\n      swap4\n      swap1\n      swap4\n      mstore\n      0x03\n      dup2\n      add\n      sload\n      dup3\n      and\n      0x60\n      dup5\n      add\n      mstore\n      0x04\n      add\n      sload\n      swap1\n      dup2\n      and\n      0x80\n      dup4\n      add\n      mstore\n      shl(0xa0, 0x01)\n      swap1\n      div\n      0xff\n      and\n      iszero\n      iszero\n      0xa0\n      dup3\n      add\n      mstore\n      swap1\n        /* \"contracts/Marketplace.sol\":6453:6565  function getNFTListing(uint _Id) public view returns (NFTListing memory) {... */\n      jump\n    tag_29:\n      mload(0x40)\n      tag_33\n      swap2\n      swap1\n        /* \"#utility.yul\":741:754   */\n      dup2\n      mload\n      sub(shl(0xa0, 0x01), 0x01)\n        /* \"#utility.yul\":737:759   */\n      swap1\n      dup2\n      and\n        /* \"#utility.yul\":719:760   */\n      dup3\n      mstore\n        /* \"#utility.yul\":816:820   */\n      0x20\n        /* \"#utility.yul\":804:821   */\n      dup1\n      dup5\n      add\n        /* \"#utility.yul\":798:822   */\n      mload\n        /* \"#utility.yul\":776:796   */\n      swap1\n      dup4\n      add\n        /* \"#utility.yul\":769:823   */\n      mstore\n        /* \"#utility.yul\":879:883   */\n      0x40\n        /* \"#utility.yul\":867:884   */\n      dup1\n      dup5\n      add\n        /* \"#utility.yul\":861:885   */\n      mload\n        /* \"#utility.yul\":839:859   */\n      swap1\n      dup4\n      add\n        /* \"#utility.yul\":832:886   */\n      mstore\n        /* \"#utility.yul\":946:950   */\n      0x60\n        /* \"#utility.yul\":934:951   */\n      dup1\n      dup5\n      add\n        /* \"#utility.yul\":928:952   */\n      mload\n        /* \"#utility.yul\":924:957   */\n      dup3\n      and\n        /* \"#utility.yul\":902:922   */\n      swap1\n      dup4\n      add\n        /* \"#utility.yul\":895:958   */\n      mstore\n        /* \"#utility.yul\":1018:1022   */\n      0x80\n        /* \"#utility.yul\":1006:1023   */\n      dup1\n      dup5\n      add\n        /* \"#utility.yul\":1000:1024   */\n      mload\n        /* \"#utility.yul\":996:1029   */\n      swap1\n      swap2\n      and\n        /* \"#utility.yul\":974:994   */\n      swap1\n      dup3\n      add\n        /* \"#utility.yul\":967:1030   */\n      mstore\n        /* \"#utility.yul\":699:702   */\n      0xa0\n        /* \"#utility.yul\":1088:1105   */\n      swap2\n      dup3\n      add\n        /* \"#utility.yul\":1082:1106   */\n      mload\n        /* \"#utility.yul\":1075:1107   */\n      iszero\n        /* \"#utility.yul\":1068:1108   */\n      iszero\n        /* \"#utility.yul\":1046:1066   */\n      swap2\n      dup2\n      add\n        /* \"#utility.yul\":1039:1109   */\n      swap2\n      swap1\n      swap2\n      mstore\n        /* \"#utility.yul\":668:671   */\n      0xc0\n        /* \"#utility.yul\":653:672   */\n      add\n      swap1\n        /* \"#utility.yul\":478:1115   */\n      jump\n        /* \"contracts/Marketplace.sol\":6453:6565  function getNFTListing(uint _Id) public view returns (NFTListing memory) {... */\n    tag_33:\n      mload(0x40)\n      dup1\n      swap2\n      sub\n      swap1\n      return\n        /* \"contracts/Marketplace.sol\":1683:1759  function unpauseMarketplace() public onlyOwner {... */\n    tag_4:\n      callvalue\n      dup1\n      iszero\n      tag_35\n      jumpi\n      0x00\n      dup1\n      revert\n    tag_35:\n      pop\n      tag_36\n      tag_37\n      jump\t// in\n    tag_36:\n      stop\n        /* \"contracts/Marketplace.sol\":4132:4968  function transferNFT(uint256 _listingId) public whenNotPaused nonReentrant {... */\n    tag_5:\n      callvalue\n      dup1\n      iszero\n      tag_38\n      jumpi\n      0x00\n      dup1\n      revert\n    tag_38:\n      pop\n      tag_36\n      tag_40\n      calldatasize\n      0x04\n      tag_31\n      jump\t// in\n    tag_40:\n      tag_41\n      jump\t// in\n        /* \"contracts/Marketplace.sol\":1603:1675  function pauseMarketplace() public onlyOwner {... */\n    tag_6:\n      callvalue\n      dup1\n      iszero\n      tag_42\n      jumpi\n      0x00\n      dup1\n      revert\n    tag_42:\n      pop\n      tag_36\n      tag_44\n      jump\t// in\n        /* \"@openzeppelin/contracts/security/Pausable.sol\":1615:1699  function paused() public view virtual returns (bool) {... */\n    tag_7:\n      callvalue\n      dup1\n      iszero\n      tag_45\n      jumpi\n      0x00\n      dup1\n      revert\n    tag_45:\n      pop\n      tag_46\n      tag_47\n      jump\t// in\n    tag_46:\n      mload(0x40)\n        /* \"#utility.yul\":1285:1299   */\n      swap1\n      iszero\n        /* \"#utility.yul\":1278:1300   */\n      iszero\n        /* \"#utility.yul\":1260:1301   */\n      dup2\n      mstore\n        /* \"#utility.yul\":1248:1250   */\n      0x20\n        /* \"#utility.yul\":1233:1251   */\n      add\n        /* \"@openzeppelin/contracts/security/Pausable.sol\":1615:1699  function paused() public view virtual returns (bool) {... */\n      tag_33\n        /* \"#utility.yul\":1120:1307   */\n      jump\n        /* \"contracts/Marketplace.sol\":6752:6859  function getComissionPercentage() public view returns (uint256){... */\n    tag_8:\n      callvalue\n      dup1\n      iszero\n      tag_50\n      jumpi\n      0x00\n      dup1\n      revert\n    tag_50:\n      pop\n        /* \"contracts/Marketplace.sol\":6831:6851  commissionPercentage */\n      sload(0x05)\n        /* \"contracts/Marketplace.sol\":6752:6859  function getComissionPercentage() public view returns (uint256){... */\n    tag_51:\n      mload(0x40)\n        /* \"#utility.yul\":1458:1483   */\n      swap1\n      dup2\n      mstore\n        /* \"#utility.yul\":1446:1448   */\n      0x20\n        /* \"#utility.yul\":1431:1449   */\n      add\n        /* \"contracts/Marketplace.sol\":6752:6859  function getComissionPercentage() public view returns (uint256){... */\n      tag_33\n        /* \"#utility.yul\":1312:1489   */\n      jump\n        /* \"contracts/Marketplace.sol\":5708:6141  function transferOrWithdraw (uint _amount, address _ERC20Address) public whenNotPaused nonReentrant onlyOwner {... */\n    tag_9:\n      callvalue\n      dup1\n      iszero\n      tag_55\n      jumpi\n      0x00\n      dup1\n      revert\n    tag_55:\n      pop\n      tag_36\n      tag_57\n      calldatasize\n      0x04\n      tag_58\n      jump\t// in\n    tag_57:\n      tag_59\n      jump\t// in\n        /* \"@openzeppelin/contracts/access/Ownable.sol\":2293:2394  function renounceOwnership() public virtual onlyOwner {... */\n    tag_10:\n      callvalue\n      dup1\n      iszero\n      tag_60\n      jumpi\n      0x00\n      dup1\n      revert\n    tag_60:\n      pop\n      tag_36\n      tag_62\n      jump\t// in\n        /* \"contracts/Marketplace.sol\":7633:7953  function getAllIdListed (ERC721 _nft, uint256 _tokenId) public view returns (uint){... */\n    tag_11:\n      callvalue\n      dup1\n      iszero\n      tag_63\n      jumpi\n      0x00\n      dup1\n      revert\n    tag_63:\n      pop\n      tag_51\n      tag_65\n      calldatasize\n      0x04\n      tag_66\n      jump\t// in\n    tag_65:\n      tag_67\n      jump\t// in\n        /* \"@openzeppelin/contracts/access/Ownable.sol\":1638:1723  function owner() public view virtual returns (address) {... */\n    tag_12:\n      callvalue\n      dup1\n      iszero\n      tag_69\n      jumpi\n      0x00\n      dup1\n      revert\n    tag_69:\n      pop\n      tag_70\n      tag_71\n      jump\t// in\n    tag_70:\n      mload(0x40)\n      tag_33\n      swap2\n      swap1\n      tag_73\n      jump\t// in\n        /* \"contracts/Marketplace.sol\":5037:5646  function updateNFT(ERC721 _nft, uint _Id, address _sender) public whenNotPaused nonReentrant onlyOwner {... */\n    tag_13:\n      callvalue\n      dup1\n      iszero\n      tag_74\n      jumpi\n      0x00\n      dup1\n      revert\n    tag_74:\n      pop\n      tag_36\n      tag_76\n      calldatasize\n      0x04\n      tag_77\n      jump\t// in\n    tag_76:\n      tag_78\n      jump\t// in\n        /* \"contracts/Marketplace.sol\":2594:2970  function cancel(ERC721 _nft, uint _Id) public payable onlyNftOwner(_nft, _Id) {... */\n    tag_14:\n      tag_36\n      tag_80\n      calldatasize\n      0x04\n      tag_66\n      jump\t// in\n    tag_80:\n      tag_81\n      jump\t// in\n        /* \"contracts/Marketplace.sol\":6181:6294  function updateComissionPercentage(uint256 _value) public onlyOwner{... */\n    tag_15:\n      callvalue\n      dup1\n      iszero\n      tag_82\n      jumpi\n      0x00\n      dup1\n      revert\n    tag_82:\n      pop\n      tag_36\n      tag_84\n      calldatasize\n      0x04\n      tag_31\n      jump\t// in\n    tag_84:\n      tag_85\n      jump\t// in\n        /* \"contracts/Marketplace.sol\":3044:4065  function buyNFT(ERC721 _nft, uint _Id) public payable whenNotPaused nonReentrant {... */\n    tag_16:\n      tag_36\n      tag_87\n      calldatasize\n      0x04\n      tag_66\n      jump\t// in\n    tag_87:\n      tag_88\n      jump\t// in\n        /* \"contracts/Marketplace.sol\":6605:6708  function getListinglength() public view returns (uint) {... */\n    tag_17:\n      callvalue\n      dup1\n      iszero\n      tag_89\n      jumpi\n      0x00\n      dup1\n      revert\n    tag_89:\n      pop\n      tag_51\n      tag_91\n      jump\t// in\n        /* \"contracts/Marketplace.sol\":548:567  IERC20 public ERC20 */\n    tag_18:\n      callvalue\n      dup1\n      iszero\n      tag_93\n      jumpi\n      0x00\n      dup1\n      revert\n    tag_93:\n      pop\n      sload(0x02)\n      tag_70\n      swap1\n      sub(shl(0xa0, 0x01), 0x01)\n      and\n      dup2\n      jump\n        /* \"contracts/Marketplace.sol\":6896:7594  function getIdListed(ERC721 _nft, uint256 _tokenId) public view returns (uint256) {... */\n    tag_19:\n      callvalue\n      dup1\n      iszero\n      tag_98\n      jumpi\n      0x00\n      dup1\n      revert\n    tag_98:\n      pop\n      tag_51\n      tag_100\n      calldatasize\n      0x04\n      tag_66\n      jump\t// in\n    tag_100:\n      tag_101\n      jump\t// in\n        /* \"contracts/Marketplace.sol\":1765:2432  function listNFT(ERC721 _nft, uint256 _tokenId, uint _price, address _coin) public payable {... */\n    tag_20:\n      tag_36\n      tag_104\n      calldatasize\n      0x04\n      tag_105\n      jump\t// in\n    tag_104:\n      tag_106\n      jump\t// in\n        /* \"contracts/Marketplace.sol\":1303:1349  mapping(uint256 => NFTListing) public listings */\n    tag_21:\n      callvalue\n      dup1\n      iszero\n      tag_107\n      jumpi\n      0x00\n      dup1\n      revert\n    tag_107:\n      pop\n      tag_108\n      tag_109\n      calldatasize\n      0x04\n      tag_31\n      jump\t// in\n    tag_109:\n      mstore(0x20, 0x09)\n      0x00\n      swap1\n      dup2\n      mstore\n      0x40\n      swap1\n      keccak256\n      dup1\n      sload\n      0x01\n      dup3\n      add\n      sload\n      0x02\n      dup4\n      add\n      sload\n      0x03\n      dup5\n      add\n      sload\n      0x04\n      swap1\n      swap5\n      add\n      sload\n      sub(shl(0xa0, 0x01), 0x01)\n      swap4\n      dup5\n      and\n      swap5\n      swap3\n      swap4\n      swap2\n      swap3\n      dup3\n      and\n      swap2\n      dup2\n      and\n      swap1\n      shl(0xa0, 0x01)\n      swap1\n      div\n      0xff\n      and\n      dup7\n      jump\n    tag_108:\n      0x40\n      dup1\n      mload\n      sub(shl(0xa0, 0x01), 0x01)\n        /* \"#utility.yul\":4088:4103   */\n      swap8\n      dup9\n      and\n        /* \"#utility.yul\":4070:4104   */\n      dup2\n      mstore\n        /* \"#utility.yul\":4135:4137   */\n      0x20\n        /* \"#utility.yul\":4120:4138   */\n      dup2\n      add\n        /* \"#utility.yul\":4113:4147   */\n      swap7\n      swap1\n      swap7\n      mstore\n        /* \"#utility.yul\":4163:4181   */\n      dup6\n      add\n        /* \"#utility.yul\":4156:4190   */\n      swap4\n      swap1\n      swap4\n      mstore\n        /* \"#utility.yul\":4226:4241   */\n      swap1\n      dup5\n      and\n        /* \"#utility.yul\":4221:4223   */\n      0x60\n        /* \"#utility.yul\":4206:4224   */\n      dup5\n      add\n        /* \"#utility.yul\":4199:4242   */\n      mstore\n        /* \"#utility.yul\":4279:4294   */\n      swap1\n      swap3\n      and\n        /* \"#utility.yul\":4273:4276   */\n      0x80\n        /* \"#utility.yul\":4258:4277   */\n      dup3\n      add\n        /* \"#utility.yul\":4251:4295   */\n      mstore\n        /* \"#utility.yul\":4339:4353   */\n      swap1\n      iszero\n        /* \"#utility.yul\":4332:4354   */\n      iszero\n        /* \"#utility.yul\":4050:4053   */\n      0xa0\n        /* \"#utility.yul\":4311:4330   */\n      dup3\n      add\n        /* \"#utility.yul\":4304:4355   */\n      mstore\n        /* \"#utility.yul\":4019:4022   */\n      0xc0\n        /* \"#utility.yul\":4004:4023   */\n      add\n        /* \"contracts/Marketplace.sol\":1303:1349  mapping(uint256 => NFTListing) public listings */\n      tag_33\n        /* \"#utility.yul\":3736:4361   */\n      jump\n        /* \"contracts/Marketplace.sol\":574:595  IERC721 public ERCNFT */\n    tag_22:\n      callvalue\n      dup1\n      iszero\n      tag_113\n      jumpi\n      0x00\n      dup1\n      revert\n    tag_113:\n      pop\n      sload(0x03)\n      tag_70\n      swap1\n      sub(shl(0xa0, 0x01), 0x01)\n      and\n      dup2\n      jump\n        /* \"@openzeppelin/contracts/access/Ownable.sol\":2543:2758  function transferOwnership(address newOwner) public virtual onlyOwner {... */\n    tag_23:\n      callvalue\n      dup1\n      iszero\n      tag_118\n      jumpi\n      0x00\n      dup1\n      revert\n    tag_118:\n      pop\n      tag_36\n      tag_120\n      calldatasize\n      0x04\n      tag_121\n      jump\t// in\n    tag_120:\n      tag_122\n      jump\t// in\n        /* \"contracts/Marketplace.sol\":1683:1759  function unpauseMarketplace() public onlyOwner {... */\n    tag_37:\n        /* \"@openzeppelin/contracts/access/Ownable.sol\":1531:1544  _checkOwner() */\n      tag_127\n        /* \"@openzeppelin/contracts/access/Ownable.sol\":1531:1542  _checkOwner */\n      tag_128\n        /* \"@openzeppelin/contracts/access/Ownable.sol\":1531:1544  _checkOwner() */\n      jump\t// in\n    tag_127:\n        /* \"contracts/Marketplace.sol\":1741:1751  _unpause() */\n      tag_130\n        /* \"contracts/Marketplace.sol\":1741:1749  _unpause */\n      tag_131\n        /* \"contracts/Marketplace.sol\":1741:1751  _unpause() */\n      jump\t// in\n    tag_130:\n        /* \"contracts/Marketplace.sol\":1683:1759  function unpauseMarketplace() public onlyOwner {... */\n      jump\t// out\n        /* \"contracts/Marketplace.sol\":4132:4968  function transferNFT(uint256 _listingId) public whenNotPaused nonReentrant {... */\n    tag_41:\n        /* \"@openzeppelin/contracts/security/Pausable.sol\":1239:1258  _requireNotPaused() */\n      tag_133\n        /* \"@openzeppelin/contracts/security/Pausable.sol\":1239:1256  _requireNotPaused */\n      tag_134\n        /* \"@openzeppelin/contracts/security/Pausable.sol\":1239:1258  _requireNotPaused() */\n      jump\t// in\n    tag_133:\n        /* \"@openzeppelin/contracts/security/ReentrancyGuard.sol\":2261:2282  _nonReentrantBefore() */\n      tag_136\n        /* \"@openzeppelin/contracts/security/ReentrancyGuard.sol\":2261:2280  _nonReentrantBefore */\n      tag_137\n        /* \"@openzeppelin/contracts/security/ReentrancyGuard.sol\":2261:2282  _nonReentrantBefore() */\n      jump\t// in\n    tag_136:\n        /* \"contracts/Marketplace.sol\":4218:4244  NFTListing storage listing */\n      0x00\n        /* \"contracts/Marketplace.sol\":4247:4267  listings[_listingId] */\n      dup2\n      dup2\n      mstore\n        /* \"contracts/Marketplace.sol\":4247:4255  listings */\n      0x09\n        /* \"contracts/Marketplace.sol\":4247:4267  listings[_listingId] */\n      0x20\n      mstore\n      0x40\n      swap1\n      keccak256\n        /* \"contracts/Marketplace.sol\":4286:4300  _listingId > 0 */\n      dup2\n      iszero\n      dup1\n      iszero\n      swap1\n        /* \"contracts/Marketplace.sol\":4286:4340  _listingId > 0 && _listingId <= numOfListing.current() */\n      tag_139\n      jumpi\n      pop\n        /* \"contracts/Marketplace.sol\":4318:4330  numOfListing */\n      0x04\n        /* \"@openzeppelin/contracts/utils/Counters.sol\":918:932  counter._value */\n      sload\n        /* \"contracts/Marketplace.sol\":4304:4314  _listingId */\n      dup3\n        /* \"contracts/Marketplace.sol\":4304:4340  _listingId <= numOfListing.current() */\n      gt\n      iszero\n        /* \"contracts/Marketplace.sol\":4286:4340  _listingId > 0 && _listingId <= numOfListing.current() */\n    tag_139:\n        /* \"contracts/Marketplace.sol\":4278:4363  require(_listingId > 0 && _listingId <= numOfListing.current(), \"item doesn't exist\") */\n      tag_142\n      jumpi\n      mload(0x40)\n      shl(0xe5, 0x461bcd)\n      dup2\n      mstore\n      0x04\n      add\n      tag_143\n      swap1\n      tag_144\n      jump\t// in\n    tag_143:\n      mload(0x40)\n      dup1\n      swap2\n      sub\n      swap1\n      revert\n    tag_142:\n        /* \"contracts/Marketplace.sol\":4382:4397  listing.forSale */\n      0x04\n      dup2\n      add\n      sload\n      shl(0xa0, 0x01)\n      swap1\n      div\n      0xff\n      and\n        /* \"contracts/Marketplace.sol\":4382:4406  listing.forSale != false */\n      iszero\n      iszero\n        /* \"contracts/Marketplace.sol\":4401:4406  false */\n      0x00\n        /* \"contracts/Marketplace.sol\":4382:4406  listing.forSale != false */\n      sub\n        /* \"contracts/Marketplace.sol\":4374:4431  require(listing.forSale != false, \"item is not for sell\") */\n      tag_145\n      jumpi\n      mload(0x40)\n      shl(0xe5, 0x461bcd)\n      dup2\n      mstore\n      0x04\n      add\n      tag_143\n      swap1\n      tag_147\n      jump\t// in\n    tag_145:\n        /* \"contracts/Marketplace.sol\":4450:4464  listing.seller */\n      0x04\n      dup2\n      add\n      sload\n        /* \"contracts/Marketplace.sol\":4468:4478  msg.sender */\n      caller\n      sub(shl(0xa0, 0x01), 0x01)\n        /* \"contracts/Marketplace.sol\":4450:4464  listing.seller */\n      swap1\n      swap2\n      and\n        /* \"contracts/Marketplace.sol\":4450:4478  listing.seller != msg.sender */\n      sub\n        /* \"contracts/Marketplace.sol\":4442:4510  require(listing.seller != msg.sender, \"You cannot buy your own nft\") */\n      tag_148\n      jumpi\n      mload(0x40)\n      shl(0xe5, 0x461bcd)\n      dup2\n      mstore\n      0x04\n      add\n      tag_143\n      swap1\n      tag_150\n      jump\t// in\n    tag_148:\n        /* \"contracts/Marketplace.sol\":4538:4551  listing.price */\n      0x02\n      dup2\n      add\n      sload\n        /* \"contracts/Marketplace.sol\":4523:4535  amountListed */\n      0x08\n        /* \"contracts/Marketplace.sol\":4523:4551  amountListed = listing.price */\n      dup2\n      swap1\n      sstore\n        /* \"contracts/Marketplace.sol\":4597:4617  commissionPercentage */\n      sload(0x05)\n        /* \"contracts/Marketplace.sol\":4580:4629  amountListed.mul(commissionPercentage).div(10000) */\n      tag_151\n      swap2\n        /* \"contracts/Marketplace.sol\":4623:4628  10000 */\n      0x2710\n      swap2\n        /* \"contracts/Marketplace.sol\":4580:4618  amountListed.mul(commissionPercentage) */\n      tag_152\n      swap2\n        /* \"contracts/Marketplace.sol\":4538:4551  listing.price */\n      swap1\n        /* \"contracts/Marketplace.sol\":4580:4596  amountListed.mul */\n      tag_153\n        /* \"contracts/Marketplace.sol\":4580:4618  amountListed.mul(commissionPercentage) */\n      jump\t// in\n    tag_152:\n        /* \"contracts/Marketplace.sol\":4580:4622  amountListed.mul(commissionPercentage).div */\n      swap1\n      tag_154\n        /* \"contracts/Marketplace.sol\":4580:4629  amountListed.mul(commissionPercentage).div(10000) */\n      jump\t// in\n    tag_151:\n        /* \"contracts/Marketplace.sol\":4562:4577  comissionAmount */\n      0x06\n        /* \"contracts/Marketplace.sol\":4562:4629  comissionAmount = amountListed.mul(commissionPercentage).div(10000) */\n      dup2\n      swap1\n      sstore\n        /* \"contracts/Marketplace.sol\":4655:4667  amountListed */\n      sload(0x08)\n        /* \"contracts/Marketplace.sol\":4655:4688  amountListed.sub(comissionAmount) */\n      tag_155\n      swap2\n        /* \"contracts/Marketplace.sol\":4655:4671  amountListed.sub */\n      tag_156\n        /* \"contracts/Marketplace.sol\":4655:4688  amountListed.sub(comissionAmount) */\n      jump\t// in\n    tag_155:\n        /* \"contracts/Marketplace.sol\":4640:4652  sellerAmount */\n      0x07\n        /* \"contracts/Marketplace.sol\":4640:4688  sellerAmount = amountListed.sub(comissionAmount) */\n      dup2\n      swap1\n      sstore\n        /* \"contracts/Marketplace.sol\":4716:4728  listing.coin */\n      0x03\n      dup3\n      add\n      sload\n        /* \"contracts/Marketplace.sol\":4701:4706  ERC20 */\n      0x02\n        /* \"contracts/Marketplace.sol\":4701:4729  ERC20 = IERC20(listing.coin) */\n      dup1\n      sload\n      not(sub(shl(0xa0, 0x01), 0x01))\n      and\n      sub(shl(0xa0, 0x01), 0x01)\n        /* \"contracts/Marketplace.sol\":4716:4728  listing.coin */\n      swap3\n      dup4\n      and\n        /* \"contracts/Marketplace.sol\":4701:4729  ERC20 = IERC20(listing.coin) */\n      swap1\n      dup2\n      or\n      swap1\n      swap2\n      sstore\n        /* \"contracts/Marketplace.sol\":4755:4769  listing.seller */\n      0x04\n      dup1\n      dup6\n      add\n      sload\n        /* \"contracts/Marketplace.sol\":4740:4784  ERC20.transfer(listing.seller, sellerAmount) */\n      mload(0x40)\n      shl(0xe0, 0xa9059cbb)\n      dup2\n      mstore\n        /* \"contracts/Marketplace.sol\":4716:4728  listing.coin */\n      swap3\n      swap5\n        /* \"contracts/Marketplace.sol\":4740:4754  ERC20.transfer */\n      0xa9059cbb\n      swap5\n        /* \"contracts/Marketplace.sol\":4740:4784  ERC20.transfer(listing.seller, sellerAmount) */\n      tag_157\n      swap5\n        /* \"contracts/Marketplace.sol\":4755:4769  listing.seller */\n      swap3\n      and\n      swap3\n        /* \"contracts/Marketplace.sol\":4640:4688  sellerAmount = amountListed.sub(comissionAmount) */\n      swap1\n      swap2\n        /* \"contracts/Marketplace.sol\":4740:4784  ERC20.transfer(listing.seller, sellerAmount) */\n      add\n      tag_27\n      jump\t// in\n    tag_157:\n      0x20\n      mload(0x40)\n      dup1\n      dup4\n      sub\n      dup2\n      0x00\n      dup8\n      gas\n      call\n      iszero\n      dup1\n      iszero\n      tag_159\n      jumpi\n      returndatasize\n      0x00\n      dup1\n      returndatacopy\n      revert(0x00, returndatasize)\n    tag_159:\n      pop\n      pop\n      pop\n      pop\n      mload(0x40)\n      returndatasize\n      not(0x1f)\n      0x1f\n      dup3\n      add\n      and\n      dup3\n      add\n      dup1\n      0x40\n      mstore\n      pop\n      dup2\n      add\n      swap1\n      tag_160\n      swap2\n      swap1\n      tag_161\n      jump\t// in\n    tag_160:\n      pop\n        /* \"contracts/Marketplace.sol\":4795:4800  ERC20 */\n      sload(0x02)\n        /* \"contracts/Marketplace.sol\":4822:4834  sellerAmount */\n      sload(0x07)\n        /* \"contracts/Marketplace.sol\":4795:4835  ERC20.transfer(msg.sender, sellerAmount) */\n      mload(0x40)\n      shl(0xe0, 0xa9059cbb)\n      dup2\n      mstore\n      sub(shl(0xa0, 0x01), 0x01)\n        /* \"contracts/Marketplace.sol\":4795:4800  ERC20 */\n      swap1\n      swap3\n      and\n      swap2\n        /* \"contracts/Marketplace.sol\":4795:4809  ERC20.transfer */\n      0xa9059cbb\n      swap2\n        /* \"contracts/Marketplace.sol\":4795:4835  ERC20.transfer(msg.sender, sellerAmount) */\n      tag_162\n      swap2\n        /* \"contracts/Marketplace.sol\":4810:4820  msg.sender */\n      caller\n      swap2\n        /* \"contracts/Marketplace.sol\":4822:4834  sellerAmount */\n      swap1\n        /* \"contracts/Marketplace.sol\":4795:4835  ERC20.transfer(msg.sender, sellerAmount) */\n      0x04\n      add\n      tag_27\n      jump\t// in\n    tag_162:\n      0x20\n      mload(0x40)\n      dup1\n      dup4\n      sub\n      dup2\n      0x00\n      dup8\n      gas\n      call\n      iszero\n      dup1\n      iszero\n      tag_164\n      jumpi\n      returndatasize\n      0x00\n      dup1\n      returndatacopy\n      revert(0x00, returndatasize)\n    tag_164:\n      pop\n      pop\n      pop\n      pop\n      mload(0x40)\n      returndatasize\n      not(0x1f)\n      0x1f\n      dup3\n      add\n      and\n      dup3\n      add\n      dup1\n      0x40\n      mstore\n      pop\n      dup2\n      add\n      swap1\n      tag_165\n      swap2\n      swap1\n      tag_161\n      jump\t// in\n    tag_165:\n      pop\n        /* \"contracts/Marketplace.sol\":4872:4887  listing.forSale */\n      0x04\n      dup2\n      add\n        /* \"contracts/Marketplace.sol\":4872:4895  listing.forSale = false */\n      dup1\n      sload\n      not(shl(0xa0, 0xff))\n      and\n      swap1\n      sstore\n      0x01\n        /* \"contracts/Marketplace.sol\":4930:4945  listing.tokenId */\n      dup2\n      add\n      sload\n        /* \"contracts/Marketplace.sol\":4947:4959  sellerAmount */\n      sload(0x07)\n        /* \"contracts/Marketplace.sol\":4911:4960  NftBuy(msg.sender, listing.tokenId, sellerAmount) */\n      mload(0x40)\n      0x00\n      dup1\n      mload\n      0x20\n      data_d383beb25c8dcb48ce04c640c5a5202214f67e90fe02e7f1b7e1e411739928ed\n      dup4\n      codecopy\n      dup2\n      mload\n      swap2\n      mstore\n      swap3\n      tag_166\n      swap3\n        /* \"contracts/Marketplace.sol\":4918:4928  msg.sender */\n      caller\n      swap3\n        /* \"contracts/Marketplace.sol\":4911:4960  NftBuy(msg.sender, listing.tokenId, sellerAmount) */\n      tag_167\n      jump\t// in\n    tag_166:\n      mload(0x40)\n      dup1\n      swap2\n      sub\n      swap1\n      log1\n        /* \"contracts/Marketplace.sol\":4207:4968  {... */\n      pop\n        /* \"@openzeppelin/contracts/security/ReentrancyGuard.sol\":2303:2323  _nonReentrantAfter() */\n      tag_168\n        /* \"@openzeppelin/contracts/security/ReentrancyGuard.sol\":1716:1717  1 */\n      0x01\n        /* \"@openzeppelin/contracts/security/ReentrancyGuard.sol\":2809:2831  _status = _NOT_ENTERED */\n      dup1\n      sstore\n        /* \"@openzeppelin/contracts/security/ReentrancyGuard.sol\":2629:2838  function _nonReentrantAfter() private {... */\n      jump\n        /* \"@openzeppelin/contracts/security/ReentrancyGuard.sol\":2303:2323  _nonReentrantAfter() */\n    tag_168:\n        /* \"contracts/Marketplace.sol\":4132:4968  function transferNFT(uint256 _listingId) public whenNotPaused nonReentrant {... */\n      pop\n      jump\t// out\n        /* \"contracts/Marketplace.sol\":1603:1675  function pauseMarketplace() public onlyOwner {... */\n    tag_44:\n        /* \"@openzeppelin/contracts/access/Ownable.sol\":1531:1544  _checkOwner() */\n      tag_171\n        /* \"@openzeppelin/contracts/access/Ownable.sol\":1531:1542  _checkOwner */\n      tag_128\n        /* \"@openzeppelin/contracts/access/Ownable.sol\":1531:1544  _checkOwner() */\n      jump\t// in\n    tag_171:\n        /* \"contracts/Marketplace.sol\":1659:1667  _pause() */\n      tag_130\n        /* \"contracts/Marketplace.sol\":1659:1665  _pause */\n      tag_174\n        /* \"contracts/Marketplace.sol\":1659:1667  _pause() */\n      jump\t// in\n        /* \"@openzeppelin/contracts/security/Pausable.sol\":1615:1699  function paused() public view virtual returns (bool) {... */\n    tag_47:\n        /* \"@openzeppelin/contracts/security/Pausable.sol\":1662:1666  bool */\n      0x00\n        /* \"@openzeppelin/contracts/security/Pausable.sol\":1685:1692  _paused */\n      sload\n      shl(0xa0, 0x01)\n      swap1\n      div\n      0xff\n      and\n      swap1\n        /* \"@openzeppelin/contracts/security/Pausable.sol\":1615:1699  function paused() public view virtual returns (bool) {... */\n      jump\t// out\n        /* \"contracts/Marketplace.sol\":5708:6141  function transferOrWithdraw (uint _amount, address _ERC20Address) public whenNotPaused nonReentrant onlyOwner {... */\n    tag_59:\n        /* \"@openzeppelin/contracts/security/Pausable.sol\":1239:1258  _requireNotPaused() */\n      tag_178\n        /* \"@openzeppelin/contracts/security/Pausable.sol\":1239:1256  _requireNotPaused */\n      tag_134\n        /* \"@openzeppelin/contracts/security/Pausable.sol\":1239:1258  _requireNotPaused() */\n      jump\t// in\n    tag_178:\n        /* \"@openzeppelin/contracts/security/ReentrancyGuard.sol\":2261:2282  _nonReentrantBefore() */\n      tag_180\n        /* \"@openzeppelin/contracts/security/ReentrancyGuard.sol\":2261:2280  _nonReentrantBefore */\n      tag_137\n        /* \"@openzeppelin/contracts/security/ReentrancyGuard.sol\":2261:2282  _nonReentrantBefore() */\n      jump\t// in\n    tag_180:\n        /* \"@openzeppelin/contracts/access/Ownable.sol\":1531:1544  _checkOwner() */\n      tag_182\n        /* \"@openzeppelin/contracts/access/Ownable.sol\":1531:1542  _checkOwner */\n      tag_128\n        /* \"@openzeppelin/contracts/access/Ownable.sol\":1531:1544  _checkOwner() */\n      jump\t// in\n    tag_182:\n        /* \"contracts/Marketplace.sol\":5837:5844  _amount */\n      dup2\n        /* \"contracts/Marketplace.sol\":5848:5849  0 */\n      0x00\n        /* \"contracts/Marketplace.sol\":5837:5849  _amount != 0 */\n      sub\n        /* \"contracts/Marketplace.sol\":5829:5875  require(_amount != 0, \"Amount cannot be zero\") */\n      tag_184\n      jumpi\n      mload(0x40)\n      shl(0xe5, 0x461bcd)\n      dup2\n      mstore\n        /* \"#utility.yul\":6728:6730   */\n      0x20\n        /* \"contracts/Marketplace.sol\":5829:5875  require(_amount != 0, \"Amount cannot be zero\") */\n      0x04\n      dup3\n      add\n        /* \"#utility.yul\":6710:6731   */\n      mstore\n        /* \"#utility.yul\":6767:6769   */\n      0x15\n        /* \"#utility.yul\":6747:6765   */\n      0x24\n      dup3\n      add\n        /* \"#utility.yul\":6740:6770   */\n      mstore\n      shl(0x58, 0x416d6f756e742063616e6e6f74206265207a65726f)\n        /* \"#utility.yul\":6786:6804   */\n      0x44\n      dup3\n      add\n        /* \"#utility.yul\":6779:6830   */\n      mstore\n        /* \"#utility.yul\":6847:6865   */\n      0x64\n      add\n        /* \"contracts/Marketplace.sol\":5829:5875  require(_amount != 0, \"Amount cannot be zero\") */\n      tag_143\n        /* \"#utility.yul\":6526:6871   */\n      jump\n        /* \"contracts/Marketplace.sol\":5829:5875  require(_amount != 0, \"Amount cannot be zero\") */\n    tag_184:\n      sub(shl(0xa0, 0x01), 0x01)\n        /* \"contracts/Marketplace.sol\":5894:5921  _ERC20Address != address(0) */\n      dup2\n      and\n        /* \"contracts/Marketplace.sol\":5886:5962  require(_ERC20Address != address(0), \"ERC20 address cannot be zero address\") */\n      tag_187\n      jumpi\n      mload(0x40)\n      shl(0xe5, 0x461bcd)\n      dup2\n      mstore\n        /* \"#utility.yul\":7078:7080   */\n      0x20\n        /* \"contracts/Marketplace.sol\":5886:5962  require(_ERC20Address != address(0), \"ERC20 address cannot be zero address\") */\n      0x04\n      dup3\n      add\n        /* \"#utility.yul\":7060:7081   */\n      mstore\n        /* \"#utility.yul\":7117:7119   */\n      0x24\n        /* \"#utility.yul\":7097:7115   */\n      dup1\n      dup3\n      add\n        /* \"#utility.yul\":7090:7120   */\n      mstore\n        /* \"#utility.yul\":7156:7190   */\n      0x455243323020616464726573732063616e6e6f74206265207a65726f20616464\n        /* \"#utility.yul\":7136:7154   */\n      0x44\n      dup3\n      add\n        /* \"#utility.yul\":7129:7191   */\n      mstore\n      shl(0xe0, 0x72657373)\n        /* \"#utility.yul\":7207:7225   */\n      0x64\n      dup3\n      add\n        /* \"#utility.yul\":7200:7234   */\n      mstore\n        /* \"#utility.yul\":7251:7270   */\n      0x84\n      add\n        /* \"contracts/Marketplace.sol\":5886:5962  require(_ERC20Address != address(0), \"ERC20 address cannot be zero address\") */\n      tag_143\n        /* \"#utility.yul\":6876:7276   */\n      jump\n        /* \"contracts/Marketplace.sol\":5886:5962  require(_ERC20Address != address(0), \"ERC20 address cannot be zero address\") */\n    tag_187:\n        /* \"contracts/Marketplace.sol\":5973:5978  ERC20 */\n      0x02\n        /* \"contracts/Marketplace.sol\":5973:6002  ERC20 = IERC20(_ERC20Address) */\n      dup1\n      sload\n      not(sub(shl(0xa0, 0x01), 0x01))\n      and\n      sub(shl(0xa0, 0x01), 0x01)\n      dup4\n      and\n      swap1\n      dup2\n      or\n      swap1\n      swap2\n      sstore\n        /* \"contracts/Marketplace.sol\":6032:6062  ERC20.balanceOf(address(this)) */\n      mload(0x40)\n      shl(0xe0, 0x70a08231)\n      dup2\n      mstore\n        /* \"contracts/Marketplace.sol\":6032:6047  ERC20.balanceOf */\n      0x70a08231\n      swap1\n        /* \"contracts/Marketplace.sol\":6032:6062  ERC20.balanceOf(address(this)) */\n      tag_190\n      swap1\n        /* \"contracts/Marketplace.sol\":6056:6060  this */\n      address\n      swap1\n        /* \"contracts/Marketplace.sol\":6032:6062  ERC20.balanceOf(address(this)) */\n      0x04\n      add\n      tag_73\n      jump\t// in\n    tag_190:\n      0x20\n      mload(0x40)\n      dup1\n      dup4\n      sub\n      dup2\n      dup7\n      gas\n      staticcall\n      iszero\n      dup1\n      iszero\n      tag_192\n      jumpi\n      returndatasize\n      0x00\n      dup1\n      returndatacopy\n      revert(0x00, returndatasize)\n    tag_192:\n      pop\n      pop\n      pop\n      pop\n      mload(0x40)\n      returndatasize\n      not(0x1f)\n      0x1f\n      dup3\n      add\n      and\n      dup3\n      add\n      dup1\n      0x40\n      mstore\n      pop\n      dup2\n      add\n      swap1\n      tag_193\n      swap2\n      swap1\n      tag_194\n      jump\t// in\n    tag_193:\n        /* \"contracts/Marketplace.sol\":6021:6028  _amount */\n      dup3\n        /* \"contracts/Marketplace.sol\":6021:6062  _amount <= ERC20.balanceOf(address(this)) */\n      gt\n      iszero\n        /* \"contracts/Marketplace.sol\":6013:6086  require(_amount <= ERC20.balanceOf(address(this)), \"Insufficient funds.\") */\n      tag_195\n      jumpi\n      mload(0x40)\n      shl(0xe5, 0x461bcd)\n      dup2\n      mstore\n        /* \"#utility.yul\":7672:7674   */\n      0x20\n        /* \"contracts/Marketplace.sol\":6013:6086  require(_amount <= ERC20.balanceOf(address(this)), \"Insufficient funds.\") */\n      0x04\n      dup3\n      add\n        /* \"#utility.yul\":7654:7675   */\n      mstore\n        /* \"#utility.yul\":7711:7713   */\n      0x13\n        /* \"#utility.yul\":7691:7709   */\n      0x24\n      dup3\n      add\n        /* \"#utility.yul\":7684:7714   */\n      mstore\n      shl(0x69, 0x24b739bab33334b1b4b2b73a10333ab7323997)\n        /* \"#utility.yul\":7730:7748   */\n      0x44\n      dup3\n      add\n        /* \"#utility.yul\":7723:7772   */\n      mstore\n        /* \"#utility.yul\":7789:7807   */\n      0x64\n      add\n        /* \"contracts/Marketplace.sol\":6013:6086  require(_amount <= ERC20.balanceOf(address(this)), \"Insufficient funds.\") */\n      tag_143\n        /* \"#utility.yul\":7470:7813   */\n      jump\n        /* \"contracts/Marketplace.sol\":6013:6086  require(_amount <= ERC20.balanceOf(address(this)), \"Insufficient funds.\") */\n    tag_195:\n        /* \"contracts/Marketplace.sol\":6097:6102  ERC20 */\n      sload(0x02)\n        /* \"contracts/Marketplace.sol\":6097:6133  ERC20.transfer(msg.sender , _amount) */\n      mload(0x40)\n      shl(0xe0, 0xa9059cbb)\n      dup2\n      mstore\n      sub(shl(0xa0, 0x01), 0x01)\n        /* \"contracts/Marketplace.sol\":6097:6102  ERC20 */\n      swap1\n      swap2\n      and\n      swap1\n        /* \"contracts/Marketplace.sol\":6097:6111  ERC20.transfer */\n      0xa9059cbb\n      swap1\n        /* \"contracts/Marketplace.sol\":6097:6133  ERC20.transfer(msg.sender , _amount) */\n      tag_198\n      swap1\n        /* \"contracts/Marketplace.sol\":6112:6122  msg.sender */\n      caller\n      swap1\n        /* \"contracts/Marketplace.sol\":6125:6132  _amount */\n      dup7\n      swap1\n        /* \"contracts/Marketplace.sol\":6097:6133  ERC20.transfer(msg.sender , _amount) */\n      0x04\n      add\n      tag_27\n      jump\t// in\n    tag_198:\n      0x20\n      mload(0x40)\n      dup1\n      dup4\n      sub\n      dup2\n      0x00\n      dup8\n      gas\n      call\n      iszero\n      dup1\n      iszero\n      tag_200\n      jumpi\n      returndatasize\n      0x00\n      dup1\n      returndatacopy\n      revert(0x00, returndatasize)\n    tag_200:\n      pop\n      pop\n      pop\n      pop\n      mload(0x40)\n      returndatasize\n      not(0x1f)\n      0x1f\n      dup3\n      add\n      and\n      dup3\n      add\n      dup1\n      0x40\n      mstore\n      pop\n      dup2\n      add\n      swap1\n      tag_201\n      swap2\n      swap1\n      tag_161\n      jump\t// in\n    tag_201:\n      pop\n        /* \"@openzeppelin/contracts/security/ReentrancyGuard.sol\":2303:2323  _nonReentrantAfter() */\n      tag_202\n        /* \"@openzeppelin/contracts/security/ReentrancyGuard.sol\":1716:1717  1 */\n      0x01\n        /* \"@openzeppelin/contracts/security/ReentrancyGuard.sol\":2809:2831  _status = _NOT_ENTERED */\n      dup1\n      sstore\n        /* \"@openzeppelin/contracts/security/ReentrancyGuard.sol\":2629:2838  function _nonReentrantAfter() private {... */\n      jump\n        /* \"@openzeppelin/contracts/security/ReentrancyGuard.sol\":2303:2323  _nonReentrantAfter() */\n    tag_202:\n        /* \"contracts/Marketplace.sol\":5708:6141  function transferOrWithdraw (uint _amount, address _ERC20Address) public whenNotPaused nonReentrant onlyOwner {... */\n      pop\n      pop\n      jump\t// out\n        /* \"@openzeppelin/contracts/access/Ownable.sol\":2293:2394  function renounceOwnership() public virtual onlyOwner {... */\n    tag_62:\n        /* \"@openzeppelin/contracts/access/Ownable.sol\":1531:1544  _checkOwner() */\n      tag_204\n        /* \"@openzeppelin/contracts/access/Ownable.sol\":1531:1542  _checkOwner */\n      tag_128\n        /* \"@openzeppelin/contracts/access/Ownable.sol\":1531:1544  _checkOwner() */\n      jump\t// in\n    tag_204:\n        /* \"@openzeppelin/contracts/access/Ownable.sol\":2357:2387  _transferOwnership(address(0)) */\n      tag_130\n        /* \"@openzeppelin/contracts/access/Ownable.sol\":2384:2385  0 */\n      0x00\n        /* \"@openzeppelin/contracts/access/Ownable.sol\":2357:2375  _transferOwnership */\n      tag_207\n        /* \"@openzeppelin/contracts/access/Ownable.sol\":2357:2387  _transferOwnership(address(0)) */\n      jump\t// in\n        /* \"contracts/Marketplace.sol\":7633:7953  function getAllIdListed (ERC721 _nft, uint256 _tokenId) public view returns (uint){... */\n    tag_67:\n        /* \"contracts/Marketplace.sol\":7710:7714  uint */\n      0x00\n        /* \"contracts/Marketplace.sol\":7736:7737  1 */\n      0x01\n        /* \"contracts/Marketplace.sol\":7722:7933  for (uint i = 1; i <= numOfListing.current(); i++) {... */\n    tag_209:\n        /* \"contracts/Marketplace.sol\":7744:7756  numOfListing */\n      0x04\n        /* \"@openzeppelin/contracts/utils/Counters.sol\":918:932  counter._value */\n      sload\n        /* \"contracts/Marketplace.sol\":7739:7740  i */\n      dup2\n        /* \"contracts/Marketplace.sol\":7739:7766  i <= numOfListing.current() */\n      gt\n        /* \"contracts/Marketplace.sol\":7722:7933  for (uint i = 1; i <= numOfListing.current(); i++) {... */\n      tag_210\n      jumpi\n        /* \"contracts/Marketplace.sol\":7784:7810  NFTListing storage listing */\n      0x00\n        /* \"contracts/Marketplace.sol\":7813:7824  listings[i] */\n      dup2\n      dup2\n      mstore\n        /* \"contracts/Marketplace.sol\":7813:7821  listings */\n      0x09\n        /* \"contracts/Marketplace.sol\":7813:7824  listings[i] */\n      0x20\n      mstore\n      0x40\n      swap1\n      keccak256\n        /* \"contracts/Marketplace.sol\":7839:7850  listing.nft */\n      dup1\n      sload\n      sub(shl(0xa0, 0x01), 0x01)\n        /* \"contracts/Marketplace.sol\":7839:7858  listing.nft == _nft */\n      dup7\n      dup2\n      and\n        /* \"contracts/Marketplace.sol\":7839:7850  listing.nft */\n      swap2\n      and\n        /* \"contracts/Marketplace.sol\":7839:7858  listing.nft == _nft */\n      eq\n        /* \"contracts/Marketplace.sol\":7839:7889  listing.nft == _nft && listing.tokenId == _tokenId */\n      dup1\n      iszero\n      tag_213\n      jumpi\n      pop\n        /* \"contracts/Marketplace.sol\":7881:7889  _tokenId */\n      dup4\n        /* \"contracts/Marketplace.sol\":7862:7869  listing */\n      dup2\n        /* \"contracts/Marketplace.sol\":7862:7877  listing.tokenId */\n      0x01\n      add\n      sload\n        /* \"contracts/Marketplace.sol\":7862:7889  listing.tokenId == _tokenId */\n      eq\n        /* \"contracts/Marketplace.sol\":7839:7889  listing.nft == _nft && listing.tokenId == _tokenId */\n    tag_213:\n        /* \"contracts/Marketplace.sol\":7835:7926  if (listing.nft == _nft && listing.tokenId == _tokenId) {... */\n      iszero\n      tag_214\n      jumpi\n      pop\n        /* \"contracts/Marketplace.sol\":7913:7914  i */\n      swap1\n      pop\n        /* \"contracts/Marketplace.sol\":7906:7914  return i */\n      jump(tag_208)\n        /* \"contracts/Marketplace.sol\":7835:7926  if (listing.nft == _nft && listing.tokenId == _tokenId) {... */\n    tag_214:\n      pop\n        /* \"contracts/Marketplace.sol\":7768:7771  i++ */\n      dup1\n      tag_215\n      dup2\n      tag_216\n      jump\t// in\n    tag_215:\n      swap2\n      pop\n      pop\n        /* \"contracts/Marketplace.sol\":7722:7933  for (uint i = 1; i <= numOfListing.current(); i++) {... */\n      jump(tag_209)\n    tag_210:\n      pop\n        /* \"contracts/Marketplace.sol\":7946:7947  0 */\n      0x00\n        /* \"contracts/Marketplace.sol\":7939:7947  return 0 */\n      swap1\n      pop\n        /* \"contracts/Marketplace.sol\":7633:7953  function getAllIdListed (ERC721 _nft, uint256 _tokenId) public view returns (uint){... */\n    tag_208:\n      swap3\n      swap2\n      pop\n      pop\n      jump\t// out\n        /* \"@openzeppelin/contracts/access/Ownable.sol\":1638:1723  function owner() public view virtual returns (address) {... */\n    tag_71:\n        /* \"@openzeppelin/contracts/access/Ownable.sol\":1684:1691  address */\n      0x00\n        /* \"@openzeppelin/contracts/access/Ownable.sol\":1710:1716  _owner */\n      sload\n      sub(shl(0xa0, 0x01), 0x01)\n      and\n      swap1\n        /* \"@openzeppelin/contracts/access/Ownable.sol\":1638:1723  function owner() public view virtual returns (address) {... */\n      jump\t// out\n        /* \"contracts/Marketplace.sol\":5037:5646  function updateNFT(ERC721 _nft, uint _Id, address _sender) public whenNotPaused nonReentrant onlyOwner {... */\n    tag_78:\n        /* \"@openzeppelin/contracts/security/Pausable.sol\":1239:1258  _requireNotPaused() */\n      tag_219\n        /* \"@openzeppelin/contracts/security/Pausable.sol\":1239:1256  _requireNotPaused */\n      tag_134\n        /* \"@openzeppelin/contracts/security/Pausable.sol\":1239:1258  _requireNotPaused() */\n      jump\t// in\n    tag_219:\n        /* \"@openzeppelin/contracts/security/ReentrancyGuard.sol\":2261:2282  _nonReentrantBefore() */\n      tag_221\n        /* \"@openzeppelin/contracts/security/ReentrancyGuard.sol\":2261:2280  _nonReentrantBefore */\n      tag_137\n        /* \"@openzeppelin/contracts/security/ReentrancyGuard.sol\":2261:2282  _nonReentrantBefore() */\n      jump\t// in\n    tag_221:\n        /* \"@openzeppelin/contracts/access/Ownable.sol\":1531:1544  _checkOwner() */\n      tag_223\n        /* \"@openzeppelin/contracts/access/Ownable.sol\":1531:1542  _checkOwner */\n      tag_128\n        /* \"@openzeppelin/contracts/access/Ownable.sol\":1531:1544  _checkOwner() */\n      jump\t// in\n    tag_223:\n        /* \"contracts/Marketplace.sol\":5151:5177  NFTListing storage listing */\n      0x00\n        /* \"contracts/Marketplace.sol\":5180:5193  listings[_Id] */\n      dup3\n      dup2\n      mstore\n        /* \"contracts/Marketplace.sol\":5180:5188  listings */\n      0x09\n        /* \"contracts/Marketplace.sol\":5180:5193  listings[_Id] */\n      0x20\n      mstore\n      0x40\n      swap1\n      keccak256\n        /* \"contracts/Marketplace.sol\":5212:5219  _Id > 0 */\n      dup3\n      iszero\n      dup1\n      iszero\n      swap1\n        /* \"contracts/Marketplace.sol\":5212:5252  _Id > 0 && _Id <= numOfListing.current() */\n      tag_225\n      jumpi\n      pop\n        /* \"contracts/Marketplace.sol\":5230:5242  numOfListing */\n      0x04\n        /* \"@openzeppelin/contracts/utils/Counters.sol\":918:932  counter._value */\n      sload\n        /* \"contracts/Marketplace.sol\":5223:5226  _Id */\n      dup4\n        /* \"contracts/Marketplace.sol\":5223:5252  _Id <= numOfListing.current() */\n      gt\n      iszero\n        /* \"contracts/Marketplace.sol\":5212:5252  _Id > 0 && _Id <= numOfListing.current() */\n    tag_225:\n        /* \"contracts/Marketplace.sol\":5204:5275  require(_Id > 0 && _Id <= numOfListing.current(), \"item doesn't exist\") */\n      tag_227\n      jumpi\n      mload(0x40)\n      shl(0xe5, 0x461bcd)\n      dup2\n      mstore\n      0x04\n      add\n      tag_143\n      swap1\n      tag_144\n      jump\t// in\n    tag_227:\n        /* \"contracts/Marketplace.sol\":5294:5309  listing.forSale */\n      0x04\n      dup2\n      add\n      sload\n      shl(0xa0, 0x01)\n      swap1\n      div\n      0xff\n      and\n        /* \"contracts/Marketplace.sol\":5294:5318  listing.forSale != false */\n      iszero\n      iszero\n        /* \"contracts/Marketplace.sol\":5313:5318  false */\n      0x00\n        /* \"contracts/Marketplace.sol\":5294:5318  listing.forSale != false */\n      sub\n        /* \"contracts/Marketplace.sol\":5286:5343  require(listing.forSale != false, \"item is not for sell\") */\n      tag_229\n      jumpi\n      mload(0x40)\n      shl(0xe5, 0x461bcd)\n      dup2\n      mstore\n      0x04\n      add\n      tag_143\n      swap1\n      tag_147\n      jump\t// in\n    tag_229:\n        /* \"contracts/Marketplace.sol\":5362:5376  listing.seller */\n      0x04\n      dup2\n      add\n      sload\n      sub(shl(0xa0, 0x01), 0x01)\n        /* \"contracts/Marketplace.sol\":5362:5387  listing.seller != _sender */\n      dup1\n      dup5\n      and\n        /* \"contracts/Marketplace.sol\":5362:5376  listing.seller */\n      swap2\n      and\n        /* \"contracts/Marketplace.sol\":5362:5387  listing.seller != _sender */\n      sub\n        /* \"contracts/Marketplace.sol\":5354:5419  require(listing.seller != _sender, \"You cannot buy your own nft\") */\n      tag_231\n      jumpi\n      mload(0x40)\n      shl(0xe5, 0x461bcd)\n      dup2\n      mstore\n      0x04\n      add\n      tag_143\n      swap1\n      tag_150\n      jump\t// in\n    tag_231:\n        /* \"contracts/Marketplace.sol\":5438:5449  listing.nft */\n      dup1\n      sload\n      sub(shl(0xa0, 0x01), 0x01)\n        /* \"contracts/Marketplace.sol\":5438:5457  listing.nft == _nft */\n      dup6\n      dup2\n      and\n        /* \"contracts/Marketplace.sol\":5438:5449  listing.nft */\n      swap2\n      and\n        /* \"contracts/Marketplace.sol\":5438:5457  listing.nft == _nft */\n      eq\n        /* \"contracts/Marketplace.sol\":5430:5499  require(listing.nft == _nft, \"item is not the same contract address\") */\n      tag_233\n      jumpi\n      mload(0x40)\n      shl(0xe5, 0x461bcd)\n      dup2\n      mstore\n      0x04\n      add\n      tag_143\n      swap1\n      tag_235\n      jump\t// in\n    tag_233:\n        /* \"contracts/Marketplace.sol\":5510:5524  listing.seller */\n      0x04\n      dup2\n      add\n        /* \"contracts/Marketplace.sol\":5510:5534  listing.seller = _sender */\n      dup1\n      sload\n      not(sub(shl(0xa8, 0x01), 0x01))\n        /* \"contracts/Marketplace.sol\":5545:5568  listing.forSale = false */\n      and\n      sub(shl(0xa0, 0x01), 0x01)\n        /* \"contracts/Marketplace.sol\":5510:5534  listing.seller = _sender */\n      dup5\n      and\n        /* \"contracts/Marketplace.sol\":5545:5568  listing.forSale = false */\n      or\n      swap1\n      sstore\n        /* \"contracts/Marketplace.sol\":5510:5534  listing.seller = _sender */\n      0x01\n        /* \"contracts/Marketplace.sol\":5607:5622  listing.tokenId */\n      dup2\n      add\n      sload\n        /* \"contracts/Marketplace.sol\":5624:5637  listing.price */\n      0x02\n      dup3\n      add\n      sload\n        /* \"contracts/Marketplace.sol\":5584:5638  updateToBuyer(_sender, listing.tokenId, listing.price) */\n      mload(0x40)\n      0xfc2e01ec8c4c53e02ee1fa8816c1692687966e0daef195be5b64c88d8e58e3ee\n      swap3\n      tag_236\n      swap3\n        /* \"contracts/Marketplace.sol\":5527:5534  _sender */\n      dup7\n      swap3\n        /* \"contracts/Marketplace.sol\":5584:5638  updateToBuyer(_sender, listing.tokenId, listing.price) */\n      tag_167\n      jump\t// in\n    tag_236:\n      mload(0x40)\n      dup1\n      swap2\n      sub\n      swap1\n      log1\n        /* \"contracts/Marketplace.sol\":5140:5646  {... */\n      pop\n        /* \"@openzeppelin/contracts/security/ReentrancyGuard.sol\":2303:2323  _nonReentrantAfter() */\n      tag_237\n        /* \"@openzeppelin/contracts/security/ReentrancyGuard.sol\":1716:1717  1 */\n      0x01\n        /* \"@openzeppelin/contracts/security/ReentrancyGuard.sol\":2809:2831  _status = _NOT_ENTERED */\n      dup1\n      sstore\n        /* \"@openzeppelin/contracts/security/ReentrancyGuard.sol\":2629:2838  function _nonReentrantAfter() private {... */\n      jump\n        /* \"@openzeppelin/contracts/security/ReentrancyGuard.sol\":2303:2323  _nonReentrantAfter() */\n    tag_237:\n        /* \"contracts/Marketplace.sol\":5037:5646  function updateNFT(ERC721 _nft, uint _Id, address _sender) public whenNotPaused nonReentrant onlyOwner {... */\n      pop\n      pop\n      pop\n      jump\t// out\n        /* \"contracts/Marketplace.sol\":2594:2970  function cancel(ERC721 _nft, uint _Id) public payable onlyNftOwner(_nft, _Id) {... */\n    tag_81:\n        /* \"contracts/Marketplace.sol\":1507:1520  listings[_Id] */\n      0x00\n      dup2\n      dup2\n      mstore\n        /* \"contracts/Marketplace.sol\":1507:1515  listings */\n      0x09\n        /* \"contracts/Marketplace.sol\":1507:1520  listings[_Id] */\n      0x20\n      mstore\n      0x40\n      swap1\n      keccak256\n        /* \"contracts/Marketplace.sol\":1507:1527  listings[_Id].seller */\n      0x04\n      add\n      sload\n        /* \"contracts/Marketplace.sol\":2661:2665  _nft */\n      dup3\n      swap1\n        /* \"contracts/Marketplace.sol\":1507:1520  listings[_Id] */\n      dup3\n      swap1\n      sub(shl(0xa0, 0x01), 0x01)\n        /* \"contracts/Marketplace.sol\":1507:1527  listings[_Id].seller */\n      and\n        /* \"contracts/Marketplace.sol\":1493:1503  msg.sender */\n      caller\n        /* \"contracts/Marketplace.sol\":1493:1527  msg.sender == listings[_Id].seller */\n      eq\n        /* \"contracts/Marketplace.sol\":1485:1528  require(msg.sender == listings[_Id].seller) */\n      tag_239\n      jumpi\n      0x00\n      dup1\n      revert\n    tag_239:\n        /* \"contracts/Marketplace.sol\":1555:1568  listings[_Id] */\n      0x00\n      dup2\n      dup2\n      mstore\n        /* \"contracts/Marketplace.sol\":1555:1563  listings */\n      0x09\n        /* \"contracts/Marketplace.sol\":1555:1568  listings[_Id] */\n      0x20\n      mstore\n      0x40\n      swap1\n      keccak256\n        /* \"contracts/Marketplace.sol\":1555:1572  listings[_Id].nft */\n      sload\n      sub(shl(0xa0, 0x01), 0x01)\n        /* \"contracts/Marketplace.sol\":1547:1572  _nft == listings[_Id].nft */\n      dup4\n      dup2\n      and\n        /* \"contracts/Marketplace.sol\":1555:1572  listings[_Id].nft */\n      swap2\n      and\n        /* \"contracts/Marketplace.sol\":1547:1572  _nft == listings[_Id].nft */\n      eq\n        /* \"contracts/Marketplace.sol\":1539:1573  require(_nft == listings[_Id].nft) */\n      tag_240\n      jumpi\n      0x00\n      dup1\n      revert\n    tag_240:\n        /* \"contracts/Marketplace.sol\":2683:2709  NFTListing storage listing */\n      0x00\n        /* \"contracts/Marketplace.sol\":2712:2725  listings[_Id] */\n      dup4\n      dup2\n      mstore\n        /* \"contracts/Marketplace.sol\":2712:2720  listings */\n      0x09\n        /* \"contracts/Marketplace.sol\":2712:2725  listings[_Id] */\n      0x20\n      mstore\n      0x40\n      swap1\n      keccak256\n        /* \"contracts/Marketplace.sol\":2744:2758  listing.seller */\n      0x04\n      dup2\n      add\n      sload\n      sub(shl(0xa0, 0x01), 0x01)\n      and\n        /* \"contracts/Marketplace.sol\":2762:2772  msg.sender */\n      caller\n        /* \"contracts/Marketplace.sol\":2744:2772  listing.seller == msg.sender */\n      eq\n        /* \"contracts/Marketplace.sol\":2736:2794  require(listing.seller == msg.sender, \"is not the seller\") */\n      tag_242\n      jumpi\n      mload(0x40)\n      shl(0xe5, 0x461bcd)\n      dup2\n      mstore\n        /* \"#utility.yul\":8698:8700   */\n      0x20\n        /* \"contracts/Marketplace.sol\":2736:2794  require(listing.seller == msg.sender, \"is not the seller\") */\n      0x04\n      dup3\n      add\n        /* \"#utility.yul\":8680:8701   */\n      mstore\n        /* \"#utility.yul\":8737:8739   */\n      0x11\n        /* \"#utility.yul\":8717:8735   */\n      0x24\n      dup3\n      add\n        /* \"#utility.yul\":8710:8740   */\n      mstore\n      shl(0x79, 0x34b9903737ba103a34329039b2b63632b9)\n        /* \"#utility.yul\":8756:8774   */\n      0x44\n      dup3\n      add\n        /* \"#utility.yul\":8749:8796   */\n      mstore\n        /* \"#utility.yul\":8813:8831   */\n      0x64\n      add\n        /* \"contracts/Marketplace.sol\":2736:2794  require(listing.seller == msg.sender, \"is not the seller\") */\n      tag_143\n        /* \"#utility.yul\":8496:8837   */\n      jump\n        /* \"contracts/Marketplace.sol\":2736:2794  require(listing.seller == msg.sender, \"is not the seller\") */\n    tag_242:\n        /* \"contracts/Marketplace.sol\":2813:2828  listing.forSale */\n      0x04\n      dup2\n      add\n      sload\n      shl(0xa0, 0x01)\n      swap1\n      div\n      0xff\n      and\n        /* \"contracts/Marketplace.sol\":2813:2836  listing.forSale == true */\n      iszero\n      iszero\n        /* \"contracts/Marketplace.sol\":2832:2836  true */\n      0x01\n        /* \"contracts/Marketplace.sol\":2813:2836  listing.forSale == true */\n      eq\n        /* \"contracts/Marketplace.sol\":2805:2856  require(listing.forSale == true, \"is not listened\") */\n      tag_245\n      jumpi\n      mload(0x40)\n      shl(0xe5, 0x461bcd)\n      dup2\n      mstore\n        /* \"#utility.yul\":9044:9046   */\n      0x20\n        /* \"contracts/Marketplace.sol\":2805:2856  require(listing.forSale == true, \"is not listened\") */\n      0x04\n      dup3\n      add\n        /* \"#utility.yul\":9026:9047   */\n      mstore\n        /* \"#utility.yul\":9083:9085   */\n      0x0f\n        /* \"#utility.yul\":9063:9081   */\n      0x24\n      dup3\n      add\n        /* \"#utility.yul\":9056:9086   */\n      mstore\n      shl(0x8a, 0x1a5cc81b9bdd081b1a5cdd195b9959)\n        /* \"#utility.yul\":9102:9120   */\n      0x44\n      dup3\n      add\n        /* \"#utility.yul\":9095:9140   */\n      mstore\n        /* \"#utility.yul\":9157:9175   */\n      0x64\n      add\n        /* \"contracts/Marketplace.sol\":2805:2856  require(listing.forSale == true, \"is not listened\") */\n      tag_143\n        /* \"#utility.yul\":8842:9181   */\n      jump\n        /* \"contracts/Marketplace.sol\":2805:2856  require(listing.forSale == true, \"is not listened\") */\n    tag_245:\n        /* \"contracts/Marketplace.sol\":2912:2927  listing.tokenId */\n      0x01\n      dup2\n      add\n      sload\n        /* \"contracts/Marketplace.sol\":2867:2928  _nft.transferFrom(address(this), msg.sender, listing.tokenId) */\n      mload(0x40)\n      shl(0xe0, 0x23b872dd)\n      dup2\n      mstore\n      sub(shl(0xa0, 0x01), 0x01)\n        /* \"contracts/Marketplace.sol\":2867:2884  _nft.transferFrom */\n      dup8\n      and\n      swap2\n      0x23b872dd\n      swap2\n        /* \"contracts/Marketplace.sol\":2867:2928  _nft.transferFrom(address(this), msg.sender, listing.tokenId) */\n      tag_248\n      swap2\n        /* \"contracts/Marketplace.sol\":2893:2897  this */\n      address\n      swap2\n        /* \"contracts/Marketplace.sol\":2900:2910  msg.sender */\n      caller\n      swap2\n        /* \"contracts/Marketplace.sol\":2912:2927  listing.tokenId */\n      swap1\n        /* \"contracts/Marketplace.sol\":2867:2928  _nft.transferFrom(address(this), msg.sender, listing.tokenId) */\n      0x04\n      add\n      tag_249\n      jump\t// in\n    tag_248:\n      0x00\n      mload(0x40)\n      dup1\n      dup4\n      sub\n      dup2\n      0x00\n      dup8\n      dup1\n      extcodesize\n      iszero\n      dup1\n      iszero\n      tag_250\n      jumpi\n      0x00\n      dup1\n      revert\n    tag_250:\n      pop\n      gas\n      call\n      iszero\n      dup1\n      iszero\n      tag_252\n      jumpi\n      returndatasize\n      0x00\n      dup1\n      returndatacopy\n      revert(0x00, returndatasize)\n    tag_252:\n      pop\n      pop\n      pop\n      pop\n        /* \"contracts/Marketplace.sol\":2939:2954  listing.forSale */\n      0x04\n      add\n        /* \"contracts/Marketplace.sol\":2939:2962  listing.forSale = false */\n      dup1\n      sload\n      not(shl(0xa0, 0xff))\n      and\n      swap1\n      sstore\n      pop\n      pop\n      pop\n      pop\n        /* \"contracts/Marketplace.sol\":2594:2970  function cancel(ERC721 _nft, uint _Id) public payable onlyNftOwner(_nft, _Id) {... */\n      jump\t// out\n        /* \"contracts/Marketplace.sol\":6181:6294  function updateComissionPercentage(uint256 _value) public onlyOwner{... */\n    tag_85:\n        /* \"@openzeppelin/contracts/access/Ownable.sol\":1531:1544  _checkOwner() */\n      tag_254\n        /* \"@openzeppelin/contracts/access/Ownable.sol\":1531:1542  _checkOwner */\n      tag_128\n        /* \"@openzeppelin/contracts/access/Ownable.sol\":1531:1544  _checkOwner() */\n      jump\t// in\n    tag_254:\n        /* \"contracts/Marketplace.sol\":6259:6279  commissionPercentage */\n      0x05\n        /* \"contracts/Marketplace.sol\":6259:6288  commissionPercentage = _value */\n      sstore\n        /* \"contracts/Marketplace.sol\":6181:6294  function updateComissionPercentage(uint256 _value) public onlyOwner{... */\n      jump\t// out\n        /* \"contracts/Marketplace.sol\":3044:4065  function buyNFT(ERC721 _nft, uint _Id) public payable whenNotPaused nonReentrant {... */\n    tag_88:\n        /* \"@openzeppelin/contracts/security/Pausable.sol\":1239:1258  _requireNotPaused() */\n      tag_257\n        /* \"@openzeppelin/contracts/security/Pausable.sol\":1239:1256  _requireNotPaused */\n      tag_134\n        /* \"@openzeppelin/contracts/security/Pausable.sol\":1239:1258  _requireNotPaused() */\n      jump\t// in\n    tag_257:\n        /* \"@openzeppelin/contracts/security/ReentrancyGuard.sol\":2261:2282  _nonReentrantBefore() */\n      tag_259\n        /* \"@openzeppelin/contracts/security/ReentrancyGuard.sol\":2261:2280  _nonReentrantBefore */\n      tag_137\n        /* \"@openzeppelin/contracts/security/ReentrancyGuard.sol\":2261:2282  _nonReentrantBefore() */\n      jump\t// in\n    tag_259:\n        /* \"contracts/Marketplace.sol\":3136:3162  NFTListing storage listing */\n      0x00\n        /* \"contracts/Marketplace.sol\":3165:3178  listings[_Id] */\n      dup2\n      dup2\n      mstore\n        /* \"contracts/Marketplace.sol\":3165:3173  listings */\n      0x09\n        /* \"contracts/Marketplace.sol\":3165:3178  listings[_Id] */\n      0x20\n      mstore\n      0x40\n      swap1\n      keccak256\n        /* \"contracts/Marketplace.sol\":3197:3204  _Id > 0 */\n      dup2\n      iszero\n      dup1\n      iszero\n      swap1\n        /* \"contracts/Marketplace.sol\":3197:3237  _Id > 0 && _Id <= numOfListing.current() */\n      tag_261\n      jumpi\n      pop\n        /* \"contracts/Marketplace.sol\":3215:3227  numOfListing */\n      0x04\n        /* \"@openzeppelin/contracts/utils/Counters.sol\":918:932  counter._value */\n      sload\n        /* \"contracts/Marketplace.sol\":3208:3211  _Id */\n      dup3\n        /* \"contracts/Marketplace.sol\":3208:3237  _Id <= numOfListing.current() */\n      gt\n      iszero\n        /* \"contracts/Marketplace.sol\":3197:3237  _Id > 0 && _Id <= numOfListing.current() */\n    tag_261:\n        /* \"contracts/Marketplace.sol\":3189:3260  require(_Id > 0 && _Id <= numOfListing.current(), \"item doesn't exist\") */\n      tag_263\n      jumpi\n      mload(0x40)\n      shl(0xe5, 0x461bcd)\n      dup2\n      mstore\n      0x04\n      add\n      tag_143\n      swap1\n      tag_144\n      jump\t// in\n    tag_263:\n        /* \"contracts/Marketplace.sol\":3279:3294  listing.forSale */\n      0x04\n      dup2\n      add\n      sload\n      shl(0xa0, 0x01)\n      swap1\n      div\n      0xff\n      and\n        /* \"contracts/Marketplace.sol\":3279:3303  listing.forSale != false */\n      iszero\n      iszero\n        /* \"contracts/Marketplace.sol\":3298:3303  false */\n      0x00\n        /* \"contracts/Marketplace.sol\":3279:3303  listing.forSale != false */\n      sub\n        /* \"contracts/Marketplace.sol\":3271:3328  require(listing.forSale != false, \"item is not for sell\") */\n      tag_265\n      jumpi\n      mload(0x40)\n      shl(0xe5, 0x461bcd)\n      dup2\n      mstore\n      0x04\n      add\n      tag_143\n      swap1\n      tag_147\n      jump\t// in\n    tag_265:\n        /* \"contracts/Marketplace.sol\":3347:3361  listing.seller */\n      0x04\n      dup2\n      add\n      sload\n        /* \"contracts/Marketplace.sol\":3365:3375  msg.sender */\n      caller\n      sub(shl(0xa0, 0x01), 0x01)\n        /* \"contracts/Marketplace.sol\":3347:3361  listing.seller */\n      swap1\n      swap2\n      and\n        /* \"contracts/Marketplace.sol\":3347:3375  listing.seller != msg.sender */\n      sub\n        /* \"contracts/Marketplace.sol\":3339:3407  require(listing.seller != msg.sender, \"You cannot buy your own nft\") */\n      tag_267\n      jumpi\n      mload(0x40)\n      shl(0xe5, 0x461bcd)\n      dup2\n      mstore\n      0x04\n      add\n      tag_143\n      swap1\n      tag_150\n      jump\t// in\n    tag_267:\n        /* \"contracts/Marketplace.sol\":3426:3437  listing.nft */\n      dup1\n      sload\n      sub(shl(0xa0, 0x01), 0x01)\n        /* \"contracts/Marketplace.sol\":3426:3445  listing.nft == _nft */\n      dup5\n      dup2\n      and\n        /* \"contracts/Marketplace.sol\":3426:3437  listing.nft */\n      swap2\n      and\n        /* \"contracts/Marketplace.sol\":3426:3445  listing.nft == _nft */\n      eq\n        /* \"contracts/Marketplace.sol\":3418:3487  require(listing.nft == _nft, \"item is not the same contract address\") */\n      tag_269\n      jumpi\n      mload(0x40)\n      shl(0xe5, 0x461bcd)\n      dup2\n      mstore\n      0x04\n      add\n      tag_143\n      swap1\n      tag_235\n      jump\t// in\n    tag_269:\n        /* \"contracts/Marketplace.sol\":3519:3526  listing */\n      dup1\n        /* \"contracts/Marketplace.sol\":3519:3532  listing.price */\n      0x02\n      add\n      sload\n        /* \"contracts/Marketplace.sol\":3506:3515  msg.value */\n      callvalue\n        /* \"contracts/Marketplace.sol\":3506:3532  msg.value >= listing.price */\n      lt\n      iszero\n        /* \"contracts/Marketplace.sol\":3498:3576  require(msg.value >= listing.price, \"not enough balance for this transaction\") */\n      tag_271\n      jumpi\n      mload(0x40)\n      shl(0xe5, 0x461bcd)\n      dup2\n      mstore\n        /* \"#utility.yul\":9768:9770   */\n      0x20\n        /* \"contracts/Marketplace.sol\":3498:3576  require(msg.value >= listing.price, \"not enough balance for this transaction\") */\n      0x04\n      dup3\n      add\n        /* \"#utility.yul\":9750:9771   */\n      mstore\n        /* \"#utility.yul\":9807:9809   */\n      0x27\n        /* \"#utility.yul\":9787:9805   */\n      0x24\n      dup3\n      add\n        /* \"#utility.yul\":9780:9810   */\n      mstore\n        /* \"#utility.yul\":9846:9880   */\n      0x6e6f7420656e6f7567682062616c616e636520666f722074686973207472616e\n        /* \"#utility.yul\":9826:9844   */\n      0x44\n      dup3\n      add\n        /* \"#utility.yul\":9819:9881   */\n      mstore\n      shl(0xc9, 0x39b0b1ba34b7b7)\n        /* \"#utility.yul\":9897:9915   */\n      0x64\n      dup3\n      add\n        /* \"#utility.yul\":9890:9927   */\n      mstore\n        /* \"#utility.yul\":9944:9963   */\n      0x84\n      add\n        /* \"contracts/Marketplace.sol\":3498:3576  require(msg.value >= listing.price, \"not enough balance for this transaction\") */\n      tag_143\n        /* \"#utility.yul\":9566:9969   */\n      jump\n        /* \"contracts/Marketplace.sol\":3498:3576  require(msg.value >= listing.price, \"not enough balance for this transaction\") */\n    tag_271:\n        /* \"contracts/Marketplace.sol\":3602:3615  listing.price */\n      0x02\n      dup2\n      add\n      sload\n        /* \"contracts/Marketplace.sol\":3587:3599  amountListed */\n      0x08\n        /* \"contracts/Marketplace.sol\":3587:3615  amountListed = listing.price */\n      dup2\n      swap1\n      sstore\n        /* \"contracts/Marketplace.sol\":3661:3681  commissionPercentage */\n      sload(0x05)\n        /* \"contracts/Marketplace.sol\":3644:3693  amountListed.mul(commissionPercentage).div(10000) */\n      tag_274\n      swap2\n        /* \"contracts/Marketplace.sol\":3687:3692  10000 */\n      0x2710\n      swap2\n        /* \"contracts/Marketplace.sol\":3644:3682  amountListed.mul(commissionPercentage) */\n      tag_152\n      swap2\n        /* \"contracts/Marketplace.sol\":3602:3615  listing.price */\n      swap1\n        /* \"contracts/Marketplace.sol\":3644:3660  amountListed.mul */\n      tag_153\n        /* \"contracts/Marketplace.sol\":3644:3682  amountListed.mul(commissionPercentage) */\n      jump\t// in\n        /* \"contracts/Marketplace.sol\":3644:3693  amountListed.mul(commissionPercentage).div(10000) */\n    tag_274:\n        /* \"contracts/Marketplace.sol\":3626:3641  comissionAmount */\n      0x06\n        /* \"contracts/Marketplace.sol\":3626:3693  comissionAmount = amountListed.mul(commissionPercentage).div(10000) */\n      dup2\n      swap1\n      sstore\n        /* \"contracts/Marketplace.sol\":3719:3731  amountListed */\n      sload(0x08)\n        /* \"contracts/Marketplace.sol\":3719:3752  amountListed.sub(comissionAmount) */\n      tag_276\n      swap2\n        /* \"contracts/Marketplace.sol\":3719:3735  amountListed.sub */\n      tag_156\n        /* \"contracts/Marketplace.sol\":3719:3752  amountListed.sub(comissionAmount) */\n      jump\t// in\n    tag_276:\n        /* \"contracts/Marketplace.sol\":3704:3716  sellerAmount */\n      0x07\n        /* \"contracts/Marketplace.sol\":3704:3752  sellerAmount = amountListed.sub(comissionAmount) */\n      dup2\n      swap1\n      sstore\n        /* \"contracts/Marketplace.sol\":3778:3790  listing.coin */\n      0x03\n      dup3\n      add\n      sload\n        /* \"contracts/Marketplace.sol\":3763:3768  ERC20 */\n      0x02\n        /* \"contracts/Marketplace.sol\":3763:3791  ERC20 = IERC20(listing.coin) */\n      dup1\n      sload\n      not(sub(shl(0xa0, 0x01), 0x01))\n      and\n      sub(shl(0xa0, 0x01), 0x01)\n        /* \"contracts/Marketplace.sol\":3778:3790  listing.coin */\n      swap3\n      dup4\n      and\n        /* \"contracts/Marketplace.sol\":3763:3791  ERC20 = IERC20(listing.coin) */\n      swap1\n      dup2\n      or\n      swap1\n      swap2\n      sstore\n        /* \"contracts/Marketplace.sol\":3817:3831  listing.seller */\n      0x04\n      dup1\n      dup6\n      add\n      sload\n        /* \"contracts/Marketplace.sol\":3802:3846  ERC20.transfer(listing.seller, sellerAmount) */\n      mload(0x40)\n      shl(0xe0, 0xa9059cbb)\n      dup2\n      mstore\n        /* \"contracts/Marketplace.sol\":3778:3790  listing.coin */\n      swap3\n      swap5\n        /* \"contracts/Marketplace.sol\":3802:3816  ERC20.transfer */\n      0xa9059cbb\n      swap5\n        /* \"contracts/Marketplace.sol\":3802:3846  ERC20.transfer(listing.seller, sellerAmount) */\n      tag_277\n      swap5\n        /* \"contracts/Marketplace.sol\":3817:3831  listing.seller */\n      swap3\n      and\n      swap3\n        /* \"contracts/Marketplace.sol\":3704:3752  sellerAmount = amountListed.sub(comissionAmount) */\n      swap1\n      swap2\n        /* \"contracts/Marketplace.sol\":3802:3846  ERC20.transfer(listing.seller, sellerAmount) */\n      add\n      tag_27\n      jump\t// in\n    tag_277:\n      0x20\n      mload(0x40)\n      dup1\n      dup4\n      sub\n      dup2\n      0x00\n      dup8\n      gas\n      call\n      iszero\n      dup1\n      iszero\n      tag_279\n      jumpi\n      returndatasize\n      0x00\n      dup1\n      returndatacopy\n      revert(0x00, returndatasize)\n    tag_279:\n      pop\n      pop\n      pop\n      pop\n      mload(0x40)\n      returndatasize\n      not(0x1f)\n      0x1f\n      dup3\n      add\n      and\n      dup3\n      add\n      dup1\n      0x40\n      mstore\n      pop\n      dup2\n      add\n      swap1\n      tag_280\n      swap2\n      swap1\n      tag_161\n      jump\t// in\n    tag_280:\n      pop\n        /* \"contracts/Marketplace.sol\":3904:3919  listing.tokenId */\n      0x01\n      dup2\n      add\n      sload\n        /* \"contracts/Marketplace.sol\":3859:3920  _nft.transferFrom(address(this), msg.sender, listing.tokenId) */\n      mload(0x40)\n      shl(0xe0, 0x23b872dd)\n      dup2\n      mstore\n      sub(shl(0xa0, 0x01), 0x01)\n        /* \"contracts/Marketplace.sol\":3859:3876  _nft.transferFrom */\n      dup6\n      and\n      swap2\n      0x23b872dd\n      swap2\n        /* \"contracts/Marketplace.sol\":3859:3920  _nft.transferFrom(address(this), msg.sender, listing.tokenId) */\n      tag_281\n      swap2\n        /* \"contracts/Marketplace.sol\":3885:3889  this */\n      address\n      swap2\n        /* \"contracts/Marketplace.sol\":3892:3902  msg.sender */\n      caller\n      swap2\n        /* \"contracts/Marketplace.sol\":3904:3919  listing.tokenId */\n      swap1\n        /* \"contracts/Marketplace.sol\":3859:3920  _nft.transferFrom(address(this), msg.sender, listing.tokenId) */\n      0x04\n      add\n      tag_249\n      jump\t// in\n    tag_281:\n      0x00\n      mload(0x40)\n      dup1\n      dup4\n      sub\n      dup2\n      0x00\n      dup8\n      dup1\n      extcodesize\n      iszero\n      dup1\n      iszero\n      tag_282\n      jumpi\n      0x00\n      dup1\n      revert\n    tag_282:\n      pop\n      gas\n      call\n      iszero\n      dup1\n      iszero\n      tag_284\n      jumpi\n      returndatasize\n      0x00\n      dup1\n      returndatacopy\n      revert(0x00, returndatasize)\n    tag_284:\n      pop\n      pop\n      pop\n      pop\n        /* \"contracts/Marketplace.sol\":3931:3945  listing.seller */\n      0x04\n      dup2\n      add\n        /* \"contracts/Marketplace.sol\":3931:3958  listing.seller = msg.sender */\n      dup1\n      sload\n      not(sub(shl(0xa8, 0x01), 0x01))\n        /* \"contracts/Marketplace.sol\":3969:3992  listing.forSale = false */\n      and\n        /* \"contracts/Marketplace.sol\":3948:3958  msg.sender */\n      caller\n      not(shl(0xa0, 0xff))\n        /* \"contracts/Marketplace.sol\":3969:3992  listing.forSale = false */\n      dup2\n      and\n      swap2\n      swap1\n      swap2\n      or\n      swap1\n      swap2\n      sstore\n      0x01\n        /* \"contracts/Marketplace.sol\":4027:4042  listing.tokenId */\n      dup3\n      add\n      sload\n        /* \"contracts/Marketplace.sol\":4044:4056  sellerAmount */\n      sload(0x07)\n        /* \"contracts/Marketplace.sol\":4008:4057  NftBuy(msg.sender, listing.tokenId, sellerAmount) */\n      mload(0x40)\n      0x00\n      dup1\n      mload\n      0x20\n      data_d383beb25c8dcb48ce04c640c5a5202214f67e90fe02e7f1b7e1e411739928ed\n      dup4\n      codecopy\n      dup2\n      mload\n      swap2\n      mstore\n      swap4\n      tag_285\n      swap4\n        /* \"contracts/Marketplace.sol\":3948:3958  msg.sender */\n      swap1\n      swap3\n        /* \"contracts/Marketplace.sol\":4027:4042  listing.tokenId */\n      swap1\n      swap2\n        /* \"contracts/Marketplace.sol\":4008:4057  NftBuy(msg.sender, listing.tokenId, sellerAmount) */\n      tag_167\n      jump\t// in\n    tag_285:\n      mload(0x40)\n      dup1\n      swap2\n      sub\n      swap1\n      log1\n        /* \"contracts/Marketplace.sol\":3125:4065  {... */\n      pop\n        /* \"@openzeppelin/contracts/security/ReentrancyGuard.sol\":2303:2323  _nonReentrantAfter() */\n      tag_202\n        /* \"@openzeppelin/contracts/security/ReentrancyGuard.sol\":1716:1717  1 */\n      0x01\n        /* \"@openzeppelin/contracts/security/ReentrancyGuard.sol\":2809:2831  _status = _NOT_ENTERED */\n      dup1\n      sstore\n        /* \"@openzeppelin/contracts/security/ReentrancyGuard.sol\":2629:2838  function _nonReentrantAfter() private {... */\n      jump\n        /* \"contracts/Marketplace.sol\":6605:6708  function getListinglength() public view returns (uint) {... */\n    tag_91:\n        /* \"contracts/Marketplace.sol\":6654:6658  uint */\n      0x00\n        /* \"contracts/Marketplace.sol\":6678:6700  numOfListing.current() */\n      tag_288\n        /* \"contracts/Marketplace.sol\":6678:6690  numOfListing */\n      0x04\n        /* \"@openzeppelin/contracts/utils/Counters.sol\":918:932  counter._value */\n      sload\n      swap1\n        /* \"@openzeppelin/contracts/utils/Counters.sol\":827:939  function current(Counter storage counter) internal view returns (uint256) {... */\n      jump\n        /* \"contracts/Marketplace.sol\":6678:6700  numOfListing.current() */\n    tag_288:\n        /* \"contracts/Marketplace.sol\":6671:6700  return numOfListing.current() */\n      swap1\n      pop\n        /* \"contracts/Marketplace.sol\":6605:6708  function getListinglength() public view returns (uint) {... */\n      swap1\n      jump\t// out\n        /* \"contracts/Marketplace.sol\":6896:7594  function getIdListed(ERC721 _nft, uint256 _tokenId) public view returns (uint256) {... */\n    tag_101:\n        /* \"contracts/Marketplace.sol\":6969:6976  uint256 */\n      0x00\n      dup1\n        /* \"contracts/Marketplace.sol\":7139:7140  1 */\n      0x01\n        /* \"contracts/Marketplace.sol\":7130:7403  for (i = 1; i <= numOfListing.current(); i++) {... */\n    tag_290:\n        /* \"contracts/Marketplace.sol\":7147:7159  numOfListing */\n      0x04\n        /* \"@openzeppelin/contracts/utils/Counters.sol\":918:932  counter._value */\n      sload\n        /* \"contracts/Marketplace.sol\":7142:7143  i */\n      dup2\n        /* \"contracts/Marketplace.sol\":7142:7169  i <= numOfListing.current() */\n      gt\n        /* \"contracts/Marketplace.sol\":7130:7403  for (i = 1; i <= numOfListing.current(); i++) {... */\n      tag_291\n      jumpi\n        /* \"contracts/Marketplace.sol\":7191:7202  listings[i] */\n      0x00\n      dup2\n      dup2\n      mstore\n        /* \"contracts/Marketplace.sol\":7191:7199  listings */\n      0x09\n        /* \"contracts/Marketplace.sol\":7191:7202  listings[i] */\n      0x20\n      mstore\n      0x40\n      swap1\n      keccak256\n        /* \"contracts/Marketplace.sol\":7191:7206  listings[i].nft */\n      sload\n      sub(shl(0xa0, 0x01), 0x01)\n        /* \"contracts/Marketplace.sol\":7191:7214  listings[i].nft == _nft */\n      dup7\n      dup2\n      and\n        /* \"contracts/Marketplace.sol\":7191:7206  listings[i].nft */\n      swap2\n      and\n        /* \"contracts/Marketplace.sol\":7191:7214  listings[i].nft == _nft */\n      eq\n        /* \"contracts/Marketplace.sol\":7191:7249  listings[i].nft == _nft && listings[i].tokenId == _tokenId */\n      dup1\n      iszero\n      tag_294\n      jumpi\n      pop\n        /* \"contracts/Marketplace.sol\":7218:7229  listings[i] */\n      0x00\n      dup2\n      dup2\n      mstore\n        /* \"contracts/Marketplace.sol\":7218:7226  listings */\n      0x09\n        /* \"contracts/Marketplace.sol\":7218:7229  listings[i] */\n      0x20\n      mstore\n      0x40\n      swap1\n      keccak256\n        /* \"contracts/Marketplace.sol\":7218:7237  listings[i].tokenId */\n      0x01\n      add\n      sload\n        /* \"contracts/Marketplace.sol\":7218:7249  listings[i].tokenId == _tokenId */\n      dup5\n      eq\n        /* \"contracts/Marketplace.sol\":7191:7249  listings[i].nft == _nft && listings[i].tokenId == _tokenId */\n    tag_294:\n        /* \"contracts/Marketplace.sol\":7191:7272  listings[i].nft == _nft && listings[i].tokenId == _tokenId && listings[i].forSale */\n      dup1\n      iszero\n      tag_295\n      jumpi\n      pop\n        /* \"contracts/Marketplace.sol\":7253:7264  listings[i] */\n      0x00\n      dup2\n      dup2\n      mstore\n        /* \"contracts/Marketplace.sol\":7253:7261  listings */\n      0x09\n        /* \"contracts/Marketplace.sol\":7253:7264  listings[i] */\n      0x20\n      mstore\n      0x40\n      swap1\n      keccak256\n        /* \"contracts/Marketplace.sol\":7253:7272  listings[i].forSale */\n      0x04\n      add\n      sload\n      shl(0xa0, 0x01)\n      swap1\n      div\n      0xff\n      and\n        /* \"contracts/Marketplace.sol\":7191:7272  listings[i].nft == _nft && listings[i].tokenId == _tokenId && listings[i].forSale */\n    tag_295:\n        /* \"contracts/Marketplace.sol\":7187:7396  if (listings[i].nft == _nft && listings[i].tokenId == _tokenId && listings[i].forSale) {... */\n      iszero\n      tag_296\n      jumpi\n        /* \"contracts/Marketplace.sol\":7297:7301  true */\n      0x01\n        /* \"contracts/Marketplace.sol\":7289:7301  found = true */\n      swap2\n      pop\n        /* \"contracts/Marketplace.sol\":7361:7366  break */\n      jump(tag_291)\n        /* \"contracts/Marketplace.sol\":7187:7396  if (listings[i].nft == _nft && listings[i].tokenId == _tokenId && listings[i].forSale) {... */\n    tag_296:\n        /* \"contracts/Marketplace.sol\":7171:7174  i++ */\n      dup1\n      tag_297\n      dup2\n      tag_216\n      jump\t// in\n    tag_297:\n      swap2\n      pop\n      pop\n        /* \"contracts/Marketplace.sol\":7130:7403  for (i = 1; i <= numOfListing.current(); i++) {... */\n      jump(tag_290)\n    tag_291:\n        /* \"contracts/Marketplace.sol\":7500:7505  found */\n      dup2\n        /* \"contracts/Marketplace.sol\":7495:7534  if (!found) {... */\n      tag_298\n      jumpi\n        /* \"contracts/Marketplace.sol\":7525:7526  0 */\n      0x00\n        /* \"contracts/Marketplace.sol\":7518:7526  return 0 */\n      swap3\n      pop\n      pop\n      pop\n      jump(tag_208)\n        /* \"contracts/Marketplace.sol\":7495:7534  if (!found) {... */\n    tag_298:\n        /* \"contracts/Marketplace.sol\":7549:7550  i */\n      swap5\n        /* \"contracts/Marketplace.sol\":6896:7594  function getIdListed(ERC721 _nft, uint256 _tokenId) public view returns (uint256) {... */\n      swap4\n      pop\n      pop\n      pop\n      pop\n      jump\t// out\n        /* \"contracts/Marketplace.sol\":1765:2432  function listNFT(ERC721 _nft, uint256 _tokenId, uint _price, address _coin) public payable {... */\n    tag_106:\n        /* \"contracts/Marketplace.sol\":1871:1893  _nft.ownerOf(_tokenId) */\n      mload(0x40)\n      shl(0xe1, 0x31a9108f)\n      dup2\n      mstore\n      0x04\n      dup2\n      add\n        /* \"#utility.yul\":1458:1483   */\n      dup5\n      swap1\n      mstore\n        /* \"contracts/Marketplace.sol\":1897:1907  msg.sender */\n      caller\n      swap1\n      sub(shl(0xa0, 0x01), 0x01)\n        /* \"contracts/Marketplace.sol\":1871:1883  _nft.ownerOf */\n      dup7\n      and\n      swap1\n      0x6352211e\n      swap1\n        /* \"#utility.yul\":1431:1449   */\n      0x24\n      add\n        /* \"contracts/Marketplace.sol\":1871:1893  _nft.ownerOf(_tokenId) */\n      0x20\n      mload(0x40)\n      dup1\n      dup4\n      sub\n      dup2\n      dup7\n      gas\n      staticcall\n      iszero\n      dup1\n      iszero\n      tag_302\n      jumpi\n      returndatasize\n      0x00\n      dup1\n      returndatacopy\n      revert(0x00, returndatasize)\n    tag_302:\n      pop\n      pop\n      pop\n      pop\n      mload(0x40)\n      returndatasize\n      not(0x1f)\n      0x1f\n      dup3\n      add\n      and\n      dup3\n      add\n      dup1\n      0x40\n      mstore\n      pop\n      dup2\n      add\n      swap1\n      tag_303\n      swap2\n      swap1\n      tag_304\n      jump\t// in\n    tag_303:\n      sub(shl(0xa0, 0x01), 0x01)\n        /* \"contracts/Marketplace.sol\":1871:1907  _nft.ownerOf(_tokenId) == msg.sender */\n      and\n      eq\n        /* \"contracts/Marketplace.sol\":1863:1933  require(_nft.ownerOf(_tokenId) == msg.sender, \"You are not the owner\") */\n      tag_305\n      jumpi\n      mload(0x40)\n      shl(0xe5, 0x461bcd)\n      dup2\n      mstore\n        /* \"#utility.yul\":10432:10434   */\n      0x20\n        /* \"contracts/Marketplace.sol\":1863:1933  require(_nft.ownerOf(_tokenId) == msg.sender, \"You are not the owner\") */\n      0x04\n      dup3\n      add\n        /* \"#utility.yul\":10414:10435   */\n      mstore\n        /* \"#utility.yul\":10471:10473   */\n      0x15\n        /* \"#utility.yul\":10451:10469   */\n      0x24\n      dup3\n      add\n        /* \"#utility.yul\":10444:10474   */\n      mstore\n      shl(0x59, 0x2cb7ba9030b932903737ba103a34329037bbb732b9)\n        /* \"#utility.yul\":10490:10508   */\n      0x44\n      dup3\n      add\n        /* \"#utility.yul\":10483:10534   */\n      mstore\n        /* \"#utility.yul\":10551:10569   */\n      0x64\n      add\n        /* \"contracts/Marketplace.sol\":1863:1933  require(_nft.ownerOf(_tokenId) == msg.sender, \"You are not the owner\") */\n      tag_143\n        /* \"#utility.yul\":10230:10575   */\n      jump\n        /* \"contracts/Marketplace.sol\":1863:1933  require(_nft.ownerOf(_tokenId) == msg.sender, \"You are not the owner\") */\n    tag_305:\n        /* \"contracts/Marketplace.sol\":1957:1958  0 */\n      0x00\n        /* \"contracts/Marketplace.sol\":1948:1954  _price */\n      dup3\n        /* \"contracts/Marketplace.sol\":1948:1958  _price > 0 */\n      gt\n        /* \"contracts/Marketplace.sol\":1940:2002  require(_price > 0, \"NFTMarket: price must be greater than 0\") */\n      tag_308\n      jumpi\n      mload(0x40)\n      shl(0xe5, 0x461bcd)\n      dup2\n      mstore\n        /* \"#utility.yul\":10782:10784   */\n      0x20\n        /* \"contracts/Marketplace.sol\":1940:2002  require(_price > 0, \"NFTMarket: price must be greater than 0\") */\n      0x04\n      dup3\n      add\n        /* \"#utility.yul\":10764:10785   */\n      mstore\n        /* \"#utility.yul\":10821:10823   */\n      0x27\n        /* \"#utility.yul\":10801:10819   */\n      0x24\n      dup3\n      add\n        /* \"#utility.yul\":10794:10824   */\n      mstore\n        /* \"#utility.yul\":10860:10894   */\n      0x4e46544d61726b65743a207072696365206d7573742062652067726561746572\n        /* \"#utility.yul\":10840:10858   */\n      0x44\n      dup3\n      add\n        /* \"#utility.yul\":10833:10895   */\n      mstore\n      shl(0xcc, 0x0207468616e203)\n        /* \"#utility.yul\":10911:10929   */\n      0x64\n      dup3\n      add\n        /* \"#utility.yul\":10904:10941   */\n      mstore\n        /* \"#utility.yul\":10958:10977   */\n      0x84\n      add\n        /* \"contracts/Marketplace.sol\":1940:2002  require(_price > 0, \"NFTMarket: price must be greater than 0\") */\n      tag_143\n        /* \"#utility.yul\":10580:10983   */\n      jump\n        /* \"contracts/Marketplace.sol\":1940:2002  require(_price > 0, \"NFTMarket: price must be greater than 0\") */\n    tag_308:\n        /* \"contracts/Marketplace.sol\":2009:2033  numOfListing.increment() */\n      tag_311\n        /* \"contracts/Marketplace.sol\":2009:2021  numOfListing */\n      0x04\n        /* \"@openzeppelin/contracts/utils/Counters.sol\":1032:1051  counter._value += 1 */\n      dup1\n      sload\n        /* \"@openzeppelin/contracts/utils/Counters.sol\":1050:1051  1 */\n      0x01\n        /* \"@openzeppelin/contracts/utils/Counters.sol\":1032:1051  counter._value += 1 */\n      add\n      swap1\n      sstore\n        /* \"@openzeppelin/contracts/utils/Counters.sol\":945:1068  function increment(Counter storage counter) internal {... */\n      jump\n        /* \"contracts/Marketplace.sol\":2009:2033  numOfListing.increment() */\n    tag_311:\n        /* \"contracts/Marketplace.sol\":2075:2205  NFTListing(... */\n      mload(0x40)\n      dup1\n      0xc0\n      add\n      0x40\n      mstore\n      dup1\n        /* \"contracts/Marketplace.sol\":2096:2100  _nft */\n      dup6\n      sub(shl(0xa0, 0x01), 0x01)\n        /* \"contracts/Marketplace.sol\":2075:2205  NFTListing(... */\n      and\n      dup2\n      mstore\n      0x20\n      add\n        /* \"contracts/Marketplace.sol\":2111:2119  _tokenId */\n      dup5\n        /* \"contracts/Marketplace.sol\":2075:2205  NFTListing(... */\n      dup2\n      mstore\n      0x20\n      add\n        /* \"contracts/Marketplace.sol\":2130:2136  _price */\n      dup4\n        /* \"contracts/Marketplace.sol\":2075:2205  NFTListing(... */\n      dup2\n      mstore\n      0x20\n      add\n        /* \"contracts/Marketplace.sol\":2147:2152  _coin */\n      dup3\n      sub(shl(0xa0, 0x01), 0x01)\n        /* \"contracts/Marketplace.sol\":2075:2205  NFTListing(... */\n      and\n      dup2\n      mstore\n      0x20\n      add\n        /* \"contracts/Marketplace.sol\":2171:2181  msg.sender */\n      caller\n      sub(shl(0xa0, 0x01), 0x01)\n        /* \"contracts/Marketplace.sol\":2075:2205  NFTListing(... */\n      and\n      dup2\n      mstore\n      0x20\n      add\n        /* \"contracts/Marketplace.sol\":2193:2198  false */\n      0x00\n        /* \"contracts/Marketplace.sol\":2075:2205  NFTListing(... */\n      iszero\n      iszero\n      dup2\n      mstore\n      pop\n        /* \"contracts/Marketplace.sol\":2040:2048  listings */\n      0x09\n        /* \"contracts/Marketplace.sol\":2040:2072  listings[numOfListing.current()] */\n      0x00\n        /* \"contracts/Marketplace.sol\":2049:2071  numOfListing.current() */\n      tag_313\n        /* \"contracts/Marketplace.sol\":2049:2061  numOfListing */\n      0x04\n        /* \"@openzeppelin/contracts/utils/Counters.sol\":918:932  counter._value */\n      sload\n      swap1\n        /* \"@openzeppelin/contracts/utils/Counters.sol\":827:939  function current(Counter storage counter) internal view returns (uint256) {... */\n      jump\n        /* \"contracts/Marketplace.sol\":2049:2071  numOfListing.current() */\n    tag_313:\n        /* \"contracts/Marketplace.sol\":2040:2072  listings[numOfListing.current()] */\n      dup2\n      mstore\n      0x20\n      dup1\n      dup3\n      add\n      swap3\n      swap1\n      swap3\n      mstore\n      0x40\n      swap1\n      dup2\n      add\n      0x00\n      swap1\n      dup2\n      keccak256\n        /* \"contracts/Marketplace.sol\":2040:2205  listings[numOfListing.current()] = NFTListing(... */\n      dup5\n      mload\n      dup2\n      sload\n      sub(shl(0xa0, 0x01), 0x01)\n      swap2\n      dup3\n      and\n      not(sub(shl(0xa0, 0x01), 0x01))\n      swap2\n      dup3\n      and\n      or\n      dup4\n      sstore\n      swap5\n      dup7\n      add\n      mload\n      0x01\n      dup4\n      add\n      sstore\n      swap3\n      dup6\n      add\n      mload\n      0x02\n      dup3\n      add\n      sstore\n      0x60\n      dup6\n      add\n      mload\n      0x03\n      dup3\n      add\n      dup1\n      sload\n      swap2\n      dup6\n      and\n      swap2\n      swap1\n      swap6\n      and\n      or\n      swap1\n      swap4\n      sstore\n      0x80\n      dup5\n      add\n      mload\n      0x04\n      swap4\n      dup5\n      add\n      dup1\n      sload\n      0xa0\n      swap1\n      swap7\n      add\n      mload\n      iszero\n      iszero\n      shl(0xa0, 0x01)\n      mul\n      not(sub(shl(0xa8, 0x01), 0x01))\n      swap1\n      swap7\n      and\n      swap2\n      swap1\n      swap4\n      and\n      or\n      swap4\n      swap1\n      swap4\n      or\n      swap1\n      sstore\n        /* \"contracts/Marketplace.sol\":2241:2249  listings */\n      0x09\n      swap1\n      dup3\n      swap1\n        /* \"contracts/Marketplace.sol\":2250:2272  numOfListing.current() */\n      tag_314\n      swap1\n        /* \"@openzeppelin/contracts/utils/Counters.sol\":918:932  counter._value */\n      sload\n      swap1\n        /* \"@openzeppelin/contracts/utils/Counters.sol\":827:939  function current(Counter storage counter) internal view returns (uint256) {... */\n      jump\n        /* \"contracts/Marketplace.sol\":2250:2272  numOfListing.current() */\n    tag_314:\n        /* \"contracts/Marketplace.sol\":2241:2273  listings[numOfListing.current()] */\n      dup2\n      mstore\n      0x20\n      add\n      swap1\n      dup2\n      mstore\n      0x20\n      add\n      0x00\n      keccak256\n        /* \"contracts/Marketplace.sol\":2212:2273  NFTListing storage listing = listings[numOfListing.current()] */\n      swap1\n      pop\n        /* \"contracts/Marketplace.sol\":2280:2284  _nft */\n      dup5\n      sub(shl(0xa0, 0x01), 0x01)\n        /* \"contracts/Marketplace.sol\":2280:2297  _nft.transferFrom */\n      and\n      0x23b872dd\n        /* \"contracts/Marketplace.sol\":2298:2308  msg.sender */\n      caller\n        /* \"contracts/Marketplace.sol\":2318:2322  this */\n      address\n        /* \"contracts/Marketplace.sol\":2325:2333  _tokenId */\n      dup8\n        /* \"contracts/Marketplace.sol\":2280:2334  _nft.transferFrom(msg.sender, address(this), _tokenId) */\n      mload(0x40)\n      dup5\n      0xffffffff\n      and\n      0xe0\n      shl\n      dup2\n      mstore\n      0x04\n      add\n      tag_315\n      swap4\n      swap3\n      swap2\n      swap1\n      tag_249\n      jump\t// in\n    tag_315:\n      0x00\n      mload(0x40)\n      dup1\n      dup4\n      sub\n      dup2\n      0x00\n      dup8\n      dup1\n      extcodesize\n      iszero\n      dup1\n      iszero\n      tag_316\n      jumpi\n      0x00\n      dup1\n      revert\n    tag_316:\n      pop\n      gas\n      call\n      iszero\n      dup1\n      iszero\n      tag_318\n      jumpi\n      returndatasize\n      0x00\n      dup1\n      returndatacopy\n      revert(0x00, returndatasize)\n    tag_318:\n      pop\n      pop\n      pop\n        /* \"contracts/Marketplace.sol\":2341:2356  listing.forSale */\n      0x04\n      dup1\n      dup4\n      add\n        /* \"contracts/Marketplace.sol\":2341:2363  listing.forSale = true */\n      dup1\n      sload\n      not(shl(0xa0, 0xff))\n      and\n      shl(0xa0, 0x01)\n      or\n      swap1\n      sstore\n        /* \"contracts/Marketplace.sol\":2375:2428  NftList(msg.sender, _tokenId, numOfListing.current()) */\n      0x21149a5778ddc1afca837b00fd70c0fc0a6d1d25d1bd15bff4a84bab1eeb9a92\n      swap2\n      pop\n        /* \"contracts/Marketplace.sol\":2383:2393  msg.sender */\n      caller\n      swap1\n        /* \"contracts/Marketplace.sol\":2395:2403  _tokenId */\n      dup7\n      swap1\n        /* \"contracts/Marketplace.sol\":2405:2427  numOfListing.current() */\n      tag_319\n      swap1\n        /* \"@openzeppelin/contracts/utils/Counters.sol\":918:932  counter._value */\n      sload\n      swap1\n        /* \"@openzeppelin/contracts/utils/Counters.sol\":827:939  function current(Counter storage counter) internal view returns (uint256) {... */\n      jump\n        /* \"contracts/Marketplace.sol\":2405:2427  numOfListing.current() */\n    tag_319:\n        /* \"contracts/Marketplace.sol\":2375:2428  NftList(msg.sender, _tokenId, numOfListing.current()) */\n      mload(0x40)\n      tag_320\n      swap4\n      swap3\n      swap2\n      swap1\n      tag_167\n      jump\t// in\n    tag_320:\n      mload(0x40)\n      dup1\n      swap2\n      sub\n      swap1\n      log1\n        /* \"contracts/Marketplace.sol\":1856:2432  {... */\n      pop\n        /* \"contracts/Marketplace.sol\":1765:2432  function listNFT(ERC721 _nft, uint256 _tokenId, uint _price, address _coin) public payable {... */\n      pop\n      pop\n      pop\n      pop\n      jump\t// out\n        /* \"@openzeppelin/contracts/access/Ownable.sol\":2543:2758  function transferOwnership(address newOwner) public virtual onlyOwner {... */\n    tag_122:\n        /* \"@openzeppelin/contracts/access/Ownable.sol\":1531:1544  _checkOwner() */\n      tag_322\n        /* \"@openzeppelin/contracts/access/Ownable.sol\":1531:1542  _checkOwner */\n      tag_128\n        /* \"@openzeppelin/contracts/access/Ownable.sol\":1531:1544  _checkOwner() */\n      jump\t// in\n    tag_322:\n      sub(shl(0xa0, 0x01), 0x01)\n        /* \"@openzeppelin/contracts/access/Ownable.sol\":2627:2649  newOwner == address(0) */\n      dup2\n      and\n        /* \"@openzeppelin/contracts/access/Ownable.sol\":2623:2714  if (newOwner == address(0)) {... */\n      tag_324\n      jumpi\n        /* \"@openzeppelin/contracts/access/Ownable.sol\":2700:2701  0 */\n      0x00\n        /* \"@openzeppelin/contracts/access/Ownable.sol\":2672:2703  OwnableInvalidOwner(address(0)) */\n      mload(0x40)\n      shl(0xe0, 0x1e4fbdf7)\n      dup2\n      mstore\n      0x04\n      add\n      tag_143\n      swap2\n      swap1\n      tag_73\n      jump\t// in\n        /* \"@openzeppelin/contracts/access/Ownable.sol\":2623:2714  if (newOwner == address(0)) {... */\n    tag_324:\n        /* \"@openzeppelin/contracts/access/Ownable.sol\":2723:2751  _transferOwnership(newOwner) */\n      tag_168\n        /* \"@openzeppelin/contracts/access/Ownable.sol\":2742:2750  newOwner */\n      dup2\n        /* \"@openzeppelin/contracts/access/Ownable.sol\":2723:2741  _transferOwnership */\n      tag_207\n        /* \"@openzeppelin/contracts/access/Ownable.sol\":2723:2751  _transferOwnership(newOwner) */\n      jump\t// in\n        /* \"@openzeppelin/contracts/access/Ownable.sol\":1796:1958  function _checkOwner() internal view virtual {... */\n    tag_128:\n        /* \"@openzeppelin/contracts/utils/Context.sol\":735:745  msg.sender */\n      caller\n        /* \"@openzeppelin/contracts/access/Ownable.sol\":1855:1862  owner() */\n      tag_330\n        /* \"@openzeppelin/contracts/access/Ownable.sol\":1855:1860  owner */\n      tag_71\n        /* \"@openzeppelin/contracts/access/Ownable.sol\":1855:1862  owner() */\n      jump\t// in\n    tag_330:\n      sub(shl(0xa0, 0x01), 0x01)\n        /* \"@openzeppelin/contracts/access/Ownable.sol\":1855:1878  owner() != _msgSender() */\n      and\n      eq\n        /* \"@openzeppelin/contracts/access/Ownable.sol\":1851:1952  if (owner() != _msgSender()) {... */\n      tag_130\n      jumpi\n        /* \"@openzeppelin/contracts/utils/Context.sol\":735:745  msg.sender */\n      caller\n        /* \"@openzeppelin/contracts/access/Ownable.sol\":1901:1941  OwnableUnauthorizedAccount(_msgSender()) */\n      mload(0x40)\n      shl(0xe0, 0x118cdaa7)\n      dup2\n      mstore\n      0x04\n      add\n      tag_143\n      swap2\n      swap1\n      tag_73\n      jump\t// in\n        /* \"@openzeppelin/contracts/security/Pausable.sol\":2433:2550  function _unpause() internal virtual whenPaused {... */\n    tag_131:\n        /* \"@openzeppelin/contracts/security/Pausable.sol\":1486:1502  _requirePaused() */\n      tag_335\n        /* \"@openzeppelin/contracts/security/Pausable.sol\":1486:1500  _requirePaused */\n      tag_336\n        /* \"@openzeppelin/contracts/security/Pausable.sol\":1486:1502  _requirePaused() */\n      jump\t// in\n    tag_335:\n        /* \"@openzeppelin/contracts/security/Pausable.sol\":2501:2506  false */\n      0x00\n        /* \"@openzeppelin/contracts/security/Pausable.sol\":2491:2506  _paused = false */\n      dup1\n      sload\n      not(shl(0xa0, 0xff))\n      and\n      swap1\n      sstore\n        /* \"@openzeppelin/contracts/security/Pausable.sol\":2521:2543  Unpaused(_msgSender()) */\n      0x5db9ee0a495bf2e6ff9c91a7834c1ba4fdd244a5e8aa4e537bd38aeae4b073aa\n        /* \"@openzeppelin/contracts/utils/Context.sol\":735:745  msg.sender */\n      caller\n        /* \"@openzeppelin/contracts/security/Pausable.sol\":2530:2542  _msgSender() */\n    tag_338:\n        /* \"@openzeppelin/contracts/security/Pausable.sol\":2521:2543  Unpaused(_msgSender()) */\n      mload(0x40)\n      tag_339\n      swap2\n      swap1\n      tag_73\n      jump\t// in\n    tag_339:\n      mload(0x40)\n      dup1\n      swap2\n      sub\n      swap1\n      log1\n        /* \"@openzeppelin/contracts/security/Pausable.sol\":2433:2550  function _unpause() internal virtual whenPaused {... */\n      jump\t// out\n        /* \"@openzeppelin/contracts/security/Pausable.sol\":1767:1873  function _requireNotPaused() internal view virtual {... */\n    tag_134:\n        /* \"@openzeppelin/contracts/security/Pausable.sol\":1837:1845  paused() */\n      tag_341\n        /* \"@openzeppelin/contracts/security/Pausable.sol\":1837:1843  paused */\n      tag_47\n        /* \"@openzeppelin/contracts/security/Pausable.sol\":1837:1845  paused() */\n      jump\t// in\n    tag_341:\n        /* \"@openzeppelin/contracts/security/Pausable.sol\":1836:1845  !paused() */\n      iszero\n        /* \"@openzeppelin/contracts/security/Pausable.sol\":1828:1866  require(!paused(), \"Pausable: paused\") */\n      tag_130\n      jumpi\n      mload(0x40)\n      shl(0xe5, 0x461bcd)\n      dup2\n      mstore\n        /* \"#utility.yul\":11190:11192   */\n      0x20\n        /* \"@openzeppelin/contracts/security/Pausable.sol\":1828:1866  require(!paused(), \"Pausable: paused\") */\n      0x04\n      dup3\n      add\n        /* \"#utility.yul\":11172:11193   */\n      mstore\n        /* \"#utility.yul\":11229:11231   */\n      0x10\n        /* \"#utility.yul\":11209:11227   */\n      0x24\n      dup3\n      add\n        /* \"#utility.yul\":11202:11232   */\n      mstore\n      shl(0x82, 0x14185d5cd8589b194e881c185d5cd959)\n        /* \"#utility.yul\":11248:11266   */\n      0x44\n      dup3\n      add\n        /* \"#utility.yul\":11241:11287   */\n      mstore\n        /* \"#utility.yul\":11304:11322   */\n      0x64\n      add\n        /* \"@openzeppelin/contracts/security/Pausable.sol\":1828:1866  require(!paused(), \"Pausable: paused\") */\n      tag_143\n        /* \"#utility.yul\":10988:11328   */\n      jump\n        /* \"@openzeppelin/contracts/security/ReentrancyGuard.sol\":2336:2623  function _nonReentrantBefore() private {... */\n    tag_137:\n        /* \"@openzeppelin/contracts/security/ReentrancyGuard.sol\":1759:1760  2 */\n      0x02\n        /* \"@openzeppelin/contracts/security/ReentrancyGuard.sol\":2468:2475  _status */\n      sload(0x01)\n        /* \"@openzeppelin/contracts/security/ReentrancyGuard.sol\":2468:2487  _status != _ENTERED */\n      sub\n        /* \"@openzeppelin/contracts/security/ReentrancyGuard.sol\":2460:2523  require(_status != _ENTERED, \"ReentrancyGuard: reentrant call\") */\n      tag_346\n      jumpi\n      mload(0x40)\n      shl(0xe5, 0x461bcd)\n      dup2\n      mstore\n        /* \"#utility.yul\":11535:11537   */\n      0x20\n        /* \"@openzeppelin/contracts/security/ReentrancyGuard.sol\":2460:2523  require(_status != _ENTERED, \"ReentrancyGuard: reentrant call\") */\n      0x04\n      dup3\n      add\n        /* \"#utility.yul\":11517:11538   */\n      mstore\n        /* \"#utility.yul\":11574:11576   */\n      0x1f\n        /* \"#utility.yul\":11554:11572   */\n      0x24\n      dup3\n      add\n        /* \"#utility.yul\":11547:11577   */\n      mstore\n        /* \"#utility.yul\":11613:11646   */\n      0x5265656e7472616e637947756172643a207265656e7472616e742063616c6c00\n        /* \"#utility.yul\":11593:11611   */\n      0x44\n      dup3\n      add\n        /* \"#utility.yul\":11586:11647   */\n      mstore\n        /* \"#utility.yul\":11664:11682   */\n      0x64\n      add\n        /* \"@openzeppelin/contracts/security/ReentrancyGuard.sol\":2460:2523  require(_status != _ENTERED, \"ReentrancyGuard: reentrant call\") */\n      tag_143\n        /* \"#utility.yul\":11333:11688   */\n      jump\n        /* \"@openzeppelin/contracts/security/ReentrancyGuard.sol\":2460:2523  require(_status != _ENTERED, \"ReentrancyGuard: reentrant call\") */\n    tag_346:\n        /* \"@openzeppelin/contracts/security/ReentrancyGuard.sol\":1759:1760  2 */\n      0x02\n        /* \"@openzeppelin/contracts/security/ReentrancyGuard.sol\":2598:2605  _status */\n      0x01\n        /* \"@openzeppelin/contracts/security/ReentrancyGuard.sol\":2598:2616  _status = _ENTERED */\n      sstore\n        /* \"@openzeppelin/contracts/security/ReentrancyGuard.sol\":2336:2623  function _nonReentrantBefore() private {... */\n      jump\t// out\n        /* \"@openzeppelin/contracts/utils/math/SafeMath.sol\":3465:3561  function mul(uint256 a, uint256 b) internal pure returns (uint256) {... */\n    tag_153:\n        /* \"@openzeppelin/contracts/utils/math/SafeMath.sol\":3523:3530  uint256 */\n      0x00\n        /* \"@openzeppelin/contracts/utils/math/SafeMath.sol\":3549:3554  a * b */\n      tag_351\n        /* \"@openzeppelin/contracts/utils/math/SafeMath.sol\":3553:3554  b */\n      dup3\n        /* \"@openzeppelin/contracts/utils/math/SafeMath.sol\":3549:3550  a */\n      dup5\n        /* \"@openzeppelin/contracts/utils/math/SafeMath.sol\":3549:3554  a * b */\n      tag_352\n      jump\t// in\n    tag_351:\n        /* \"@openzeppelin/contracts/utils/math/SafeMath.sol\":3542:3554  return a * b */\n      swap4\n        /* \"@openzeppelin/contracts/utils/math/SafeMath.sol\":3465:3561  function mul(uint256 a, uint256 b) internal pure returns (uint256) {... */\n      swap3\n      pop\n      pop\n      pop\n      jump\t// out\n        /* \"@openzeppelin/contracts/utils/math/SafeMath.sol\":3850:3946  function div(uint256 a, uint256 b) internal pure returns (uint256) {... */\n    tag_154:\n        /* \"@openzeppelin/contracts/utils/math/SafeMath.sol\":3908:3915  uint256 */\n      0x00\n        /* \"@openzeppelin/contracts/utils/math/SafeMath.sol\":3934:3939  a / b */\n      tag_351\n        /* \"@openzeppelin/contracts/utils/math/SafeMath.sol\":3938:3939  b */\n      dup3\n        /* \"@openzeppelin/contracts/utils/math/SafeMath.sol\":3934:3935  a */\n      dup5\n        /* \"@openzeppelin/contracts/utils/math/SafeMath.sol\":3934:3939  a / b */\n      tag_355\n      jump\t// in\n        /* \"@openzeppelin/contracts/utils/math/SafeMath.sol\":3122:3218  function sub(uint256 a, uint256 b) internal pure returns (uint256) {... */\n    tag_156:\n        /* \"@openzeppelin/contracts/utils/math/SafeMath.sol\":3180:3187  uint256 */\n      0x00\n        /* \"@openzeppelin/contracts/utils/math/SafeMath.sol\":3206:3211  a - b */\n      tag_351\n        /* \"@openzeppelin/contracts/utils/math/SafeMath.sol\":3210:3211  b */\n      dup3\n        /* \"@openzeppelin/contracts/utils/math/SafeMath.sol\":3206:3207  a */\n      dup5\n        /* \"@openzeppelin/contracts/utils/math/SafeMath.sol\":3206:3211  a - b */\n      tag_358\n      jump\t// in\n        /* \"@openzeppelin/contracts/security/Pausable.sol\":2186:2301  function _pause() internal virtual whenNotPaused {... */\n    tag_174:\n        /* \"@openzeppelin/contracts/security/Pausable.sol\":1239:1258  _requireNotPaused() */\n      tag_361\n        /* \"@openzeppelin/contracts/security/Pausable.sol\":1239:1256  _requireNotPaused */\n      tag_134\n        /* \"@openzeppelin/contracts/security/Pausable.sol\":1239:1258  _requireNotPaused() */\n      jump\t// in\n    tag_361:\n        /* \"@openzeppelin/contracts/security/Pausable.sol\":2245:2252  _paused */\n      0x00\n        /* \"@openzeppelin/contracts/security/Pausable.sol\":2245:2259  _paused = true */\n      dup1\n      sload\n      not(shl(0xa0, 0xff))\n      and\n      shl(0xa0, 0x01)\n      or\n      swap1\n      sstore\n        /* \"@openzeppelin/contracts/security/Pausable.sol\":2274:2294  Paused(_msgSender()) */\n      0x62e78cea01bee320cd4e420270b5ea74000d11b0c9f74754ebdbfc544b05a258\n        /* \"@openzeppelin/contracts/security/Pausable.sol\":2281:2293  _msgSender() */\n      tag_338\n        /* \"@openzeppelin/contracts/utils/Context.sol\":735:745  msg.sender */\n      caller\n      swap1\n        /* \"@openzeppelin/contracts/utils/Context.sol\":656:752  function _msgSender() internal view virtual returns (address) {... */\n      jump\n        /* \"@openzeppelin/contracts/access/Ownable.sol\":2912:3099  function _transferOwnership(address newOwner) internal virtual {... */\n    tag_207:\n        /* \"@openzeppelin/contracts/access/Ownable.sol\":2985:3001  address oldOwner */\n      0x00\n        /* \"@openzeppelin/contracts/access/Ownable.sol\":3004:3010  _owner */\n      dup1\n      sload\n      sub(shl(0xa0, 0x01), 0x01)\n        /* \"@openzeppelin/contracts/access/Ownable.sol\":3020:3037  _owner = newOwner */\n      dup4\n      dup2\n      and\n      not(sub(shl(0xa0, 0x01), 0x01))\n      dup4\n      and\n      dup2\n      or\n      dup5\n      sstore\n        /* \"@openzeppelin/contracts/access/Ownable.sol\":3052:3092  OwnershipTransferred(oldOwner, newOwner) */\n      mload(0x40)\n        /* \"@openzeppelin/contracts/access/Ownable.sol\":3004:3010  _owner */\n      swap2\n      swap1\n      swap3\n      and\n      swap3\n      dup4\n      swap2\n        /* \"@openzeppelin/contracts/access/Ownable.sol\":3052:3092  OwnershipTransferred(oldOwner, newOwner) */\n      0x8be0079c531659141344cd1fd0a4f28419497f9722a3daafe3b4186f6b6457e0\n      swap2\n        /* \"@openzeppelin/contracts/access/Ownable.sol\":2985:3001  address oldOwner */\n      swap1\n        /* \"@openzeppelin/contracts/access/Ownable.sol\":3052:3092  OwnershipTransferred(oldOwner, newOwner) */\n      log3\n        /* \"@openzeppelin/contracts/access/Ownable.sol\":2975:3099  {... */\n      pop\n        /* \"@openzeppelin/contracts/access/Ownable.sol\":2912:3099  function _transferOwnership(address newOwner) internal virtual {... */\n      pop\n      jump\t// out\n        /* \"@openzeppelin/contracts/security/Pausable.sol\":1945:2051  function _requirePaused() internal view virtual {... */\n    tag_336:\n        /* \"@openzeppelin/contracts/security/Pausable.sol\":2011:2019  paused() */\n      tag_369\n        /* \"@openzeppelin/contracts/security/Pausable.sol\":2011:2017  paused */\n      tag_47\n        /* \"@openzeppelin/contracts/security/Pausable.sol\":2011:2019  paused() */\n      jump\t// in\n    tag_369:\n        /* \"@openzeppelin/contracts/security/Pausable.sol\":2003:2044  require(paused(), \"Pausable: not paused\") */\n      tag_130\n      jumpi\n      mload(0x40)\n      shl(0xe5, 0x461bcd)\n      dup2\n      mstore\n        /* \"#utility.yul\":12423:12425   */\n      0x20\n        /* \"@openzeppelin/contracts/security/Pausable.sol\":2003:2044  require(paused(), \"Pausable: not paused\") */\n      0x04\n      dup3\n      add\n        /* \"#utility.yul\":12405:12426   */\n      mstore\n        /* \"#utility.yul\":12462:12464   */\n      0x14\n        /* \"#utility.yul\":12442:12460   */\n      0x24\n      dup3\n      add\n        /* \"#utility.yul\":12435:12465   */\n      mstore\n      shl(0x62, 0x14185d5cd8589b194e881b9bdd081c185d5cd959)\n        /* \"#utility.yul\":12481:12499   */\n      0x44\n      dup3\n      add\n        /* \"#utility.yul\":12474:12524   */\n      mstore\n        /* \"#utility.yul\":12541:12559   */\n      0x64\n      add\n        /* \"@openzeppelin/contracts/security/Pausable.sol\":2003:2044  require(paused(), \"Pausable: not paused\") */\n      tag_143\n        /* \"#utility.yul\":12221:12565   */\n      jump\n        /* \"#utility.yul\":14:288   */\n    tag_27:\n      sub(shl(0xa0, 0x01), 0x01)\n        /* \"#utility.yul\":206:238   */\n      swap3\n      swap1\n      swap3\n      and\n        /* \"#utility.yul\":188:239   */\n      dup3\n      mstore\n        /* \"#utility.yul\":270:272   */\n      0x20\n        /* \"#utility.yul\":255:273   */\n      dup3\n      add\n        /* \"#utility.yul\":248:282   */\n      mstore\n        /* \"#utility.yul\":176:178   */\n      0x40\n        /* \"#utility.yul\":161:179   */\n      add\n      swap1\n        /* \"#utility.yul\":14:288   */\n      jump\t// out\n        /* \"#utility.yul\":293:473   */\n    tag_31:\n        /* \"#utility.yul\":352:358   */\n      0x00\n        /* \"#utility.yul\":405:407   */\n      0x20\n        /* \"#utility.yul\":393:402   */\n      dup3\n        /* \"#utility.yul\":384:391   */\n      dup5\n        /* \"#utility.yul\":380:403   */\n      sub\n        /* \"#utility.yul\":376:408   */\n      slt\n        /* \"#utility.yul\":373:425   */\n      iszero\n      tag_378\n      jumpi\n        /* \"#utility.yul\":421:422   */\n      0x00\n        /* \"#utility.yul\":418:419   */\n      dup1\n        /* \"#utility.yul\":411:423   */\n      revert\n        /* \"#utility.yul\":373:425   */\n    tag_378:\n      pop\n        /* \"#utility.yul\":444:467   */\n      calldataload\n      swap2\n        /* \"#utility.yul\":293:473   */\n      swap1\n      pop\n      jump\t// out\n        /* \"#utility.yul\":1494:1625   */\n    tag_373:\n      sub(shl(0xa0, 0x01), 0x01)\n        /* \"#utility.yul\":1569:1600   */\n      dup2\n      and\n        /* \"#utility.yul\":1559:1601   */\n      dup2\n      eq\n        /* \"#utility.yul\":1549:1619   */\n      tag_168\n      jumpi\n        /* \"#utility.yul\":1615:1616   */\n      0x00\n        /* \"#utility.yul\":1612:1613   */\n      dup1\n        /* \"#utility.yul\":1605:1617   */\n      revert\n        /* \"#utility.yul\":1630:1945   */\n    tag_58:\n        /* \"#utility.yul\":1698:1704   */\n      0x00\n        /* \"#utility.yul\":1706:1712   */\n      dup1\n        /* \"#utility.yul\":1759:1761   */\n      0x40\n        /* \"#utility.yul\":1747:1756   */\n      dup4\n        /* \"#utility.yul\":1738:1745   */\n      dup6\n        /* \"#utility.yul\":1734:1757   */\n      sub\n        /* \"#utility.yul\":1730:1762   */\n      slt\n        /* \"#utility.yul\":1727:1779   */\n      iszero\n      tag_385\n      jumpi\n        /* \"#utility.yul\":1775:1776   */\n      0x00\n        /* \"#utility.yul\":1772:1773   */\n      dup1\n        /* \"#utility.yul\":1765:1777   */\n      revert\n        /* \"#utility.yul\":1727:1779   */\n    tag_385:\n        /* \"#utility.yul\":1811:1820   */\n      dup3\n        /* \"#utility.yul\":1798:1821   */\n      calldataload\n        /* \"#utility.yul\":1788:1821   */\n      swap2\n      pop\n        /* \"#utility.yul\":1871:1873   */\n      0x20\n        /* \"#utility.yul\":1860:1869   */\n      dup4\n        /* \"#utility.yul\":1856:1874   */\n      add\n        /* \"#utility.yul\":1843:1875   */\n      calldataload\n        /* \"#utility.yul\":1884:1915   */\n      tag_386\n        /* \"#utility.yul\":1909:1914   */\n      dup2\n        /* \"#utility.yul\":1884:1915   */\n      tag_373\n      jump\t// in\n    tag_386:\n        /* \"#utility.yul\":1934:1939   */\n      dup1\n        /* \"#utility.yul\":1924:1939   */\n      swap2\n      pop\n      pop\n        /* \"#utility.yul\":1630:1945   */\n      swap3\n      pop\n      swap3\n      swap1\n      pop\n      jump\t// out\n        /* \"#utility.yul\":1950:2280   */\n    tag_66:\n        /* \"#utility.yul\":2033:2039   */\n      0x00\n        /* \"#utility.yul\":2041:2047   */\n      dup1\n        /* \"#utility.yul\":2094:2096   */\n      0x40\n        /* \"#utility.yul\":2082:2091   */\n      dup4\n        /* \"#utility.yul\":2073:2080   */\n      dup6\n        /* \"#utility.yul\":2069:2092   */\n      sub\n        /* \"#utility.yul\":2065:2097   */\n      slt\n        /* \"#utility.yul\":2062:2114   */\n      iszero\n      tag_388\n      jumpi\n        /* \"#utility.yul\":2110:2111   */\n      0x00\n        /* \"#utility.yul\":2107:2108   */\n      dup1\n        /* \"#utility.yul\":2100:2112   */\n      revert\n        /* \"#utility.yul\":2062:2114   */\n    tag_388:\n        /* \"#utility.yul\":2149:2158   */\n      dup3\n        /* \"#utility.yul\":2136:2159   */\n      calldataload\n        /* \"#utility.yul\":2168:2199   */\n      tag_389\n        /* \"#utility.yul\":2193:2198   */\n      dup2\n        /* \"#utility.yul\":2168:2199   */\n      tag_373\n      jump\t// in\n    tag_389:\n        /* \"#utility.yul\":2218:2223   */\n      swap5\n        /* \"#utility.yul\":2270:2272   */\n      0x20\n        /* \"#utility.yul\":2255:2273   */\n      swap4\n      swap1\n      swap4\n      add\n        /* \"#utility.yul\":2242:2274   */\n      calldataload\n      swap4\n      pop\n      pop\n      pop\n        /* \"#utility.yul\":1950:2280   */\n      jump\t// out\n        /* \"#utility.yul\":2285:2488   */\n    tag_73:\n      sub(shl(0xa0, 0x01), 0x01)\n        /* \"#utility.yul\":2449:2481   */\n      swap2\n      swap1\n      swap2\n      and\n        /* \"#utility.yul\":2431:2482   */\n      dup2\n      mstore\n        /* \"#utility.yul\":2419:2421   */\n      0x20\n        /* \"#utility.yul\":2404:2422   */\n      add\n      swap1\n        /* \"#utility.yul\":2285:2488   */\n      jump\t// out\n        /* \"#utility.yul\":2493:2964   */\n    tag_77:\n        /* \"#utility.yul\":2585:2591   */\n      0x00\n        /* \"#utility.yul\":2593:2599   */\n      dup1\n        /* \"#utility.yul\":2601:2607   */\n      0x00\n        /* \"#utility.yul\":2654:2656   */\n      0x60\n        /* \"#utility.yul\":2642:2651   */\n      dup5\n        /* \"#utility.yul\":2633:2640   */\n      dup7\n        /* \"#utility.yul\":2629:2652   */\n      sub\n        /* \"#utility.yul\":2625:2657   */\n      slt\n        /* \"#utility.yul\":2622:2674   */\n      iszero\n      tag_392\n      jumpi\n        /* \"#utility.yul\":2670:2671   */\n      0x00\n        /* \"#utility.yul\":2667:2668   */\n      dup1\n        /* \"#utility.yul\":2660:2672   */\n      revert\n        /* \"#utility.yul\":2622:2674   */\n    tag_392:\n        /* \"#utility.yul\":2709:2718   */\n      dup4\n        /* \"#utility.yul\":2696:2719   */\n      calldataload\n        /* \"#utility.yul\":2728:2759   */\n      tag_393\n        /* \"#utility.yul\":2753:2758   */\n      dup2\n        /* \"#utility.yul\":2728:2759   */\n      tag_373\n      jump\t// in\n    tag_393:\n        /* \"#utility.yul\":2778:2783   */\n      swap3\n      pop\n        /* \"#utility.yul\":2830:2832   */\n      0x20\n        /* \"#utility.yul\":2815:2833   */\n      dup5\n      add\n        /* \"#utility.yul\":2802:2834   */\n      calldataload\n      swap2\n      pop\n        /* \"#utility.yul\":2886:2888   */\n      0x40\n        /* \"#utility.yul\":2871:2889   */\n      dup5\n      add\n        /* \"#utility.yul\":2858:2890   */\n      calldataload\n        /* \"#utility.yul\":2899:2932   */\n      tag_394\n        /* \"#utility.yul\":2858:2890   */\n      dup2\n        /* \"#utility.yul\":2899:2932   */\n      tag_373\n      jump\t// in\n    tag_394:\n        /* \"#utility.yul\":2951:2958   */\n      dup1\n        /* \"#utility.yul\":2941:2958   */\n      swap2\n      pop\n      pop\n        /* \"#utility.yul\":2493:2964   */\n      swap3\n      pop\n      swap3\n      pop\n      swap3\n      jump\t// out\n        /* \"#utility.yul\":3191:3731   */\n    tag_105:\n        /* \"#utility.yul\":3292:3298   */\n      0x00\n        /* \"#utility.yul\":3300:3306   */\n      dup1\n        /* \"#utility.yul\":3308:3314   */\n      0x00\n        /* \"#utility.yul\":3316:3322   */\n      dup1\n        /* \"#utility.yul\":3369:3372   */\n      0x80\n        /* \"#utility.yul\":3357:3366   */\n      dup6\n        /* \"#utility.yul\":3348:3355   */\n      dup8\n        /* \"#utility.yul\":3344:3367   */\n      sub\n        /* \"#utility.yul\":3340:3373   */\n      slt\n        /* \"#utility.yul\":3337:3390   */\n      iszero\n      tag_397\n      jumpi\n        /* \"#utility.yul\":3386:3387   */\n      0x00\n        /* \"#utility.yul\":3383:3384   */\n      dup1\n        /* \"#utility.yul\":3376:3388   */\n      revert\n        /* \"#utility.yul\":3337:3390   */\n    tag_397:\n        /* \"#utility.yul\":3425:3434   */\n      dup5\n        /* \"#utility.yul\":3412:3435   */\n      calldataload\n        /* \"#utility.yul\":3444:3475   */\n      tag_398\n        /* \"#utility.yul\":3469:3474   */\n      dup2\n        /* \"#utility.yul\":3444:3475   */\n      tag_373\n      jump\t// in\n    tag_398:\n        /* \"#utility.yul\":3494:3499   */\n      swap4\n      pop\n        /* \"#utility.yul\":3546:3548   */\n      0x20\n        /* \"#utility.yul\":3531:3549   */\n      dup6\n      add\n        /* \"#utility.yul\":3518:3550   */\n      calldataload\n      swap3\n      pop\n        /* \"#utility.yul\":3597:3599   */\n      0x40\n        /* \"#utility.yul\":3582:3600   */\n      dup6\n      add\n        /* \"#utility.yul\":3569:3601   */\n      calldataload\n      swap2\n      pop\n        /* \"#utility.yul\":3653:3655   */\n      0x60\n        /* \"#utility.yul\":3638:3656   */\n      dup6\n      add\n        /* \"#utility.yul\":3625:3657   */\n      calldataload\n        /* \"#utility.yul\":3666:3699   */\n      tag_399\n        /* \"#utility.yul\":3625:3657   */\n      dup2\n        /* \"#utility.yul\":3666:3699   */\n      tag_373\n      jump\t// in\n    tag_399:\n        /* \"#utility.yul\":3191:3731   */\n      swap4\n      swap7\n      swap3\n      swap6\n      pop\n      swap1\n      swap4\n      pop\n      pop\n      jump\t// out\n        /* \"#utility.yul\":4590:4837   */\n    tag_121:\n        /* \"#utility.yul\":4649:4655   */\n      0x00\n        /* \"#utility.yul\":4702:4704   */\n      0x20\n        /* \"#utility.yul\":4690:4699   */\n      dup3\n        /* \"#utility.yul\":4681:4688   */\n      dup5\n        /* \"#utility.yul\":4677:4700   */\n      sub\n        /* \"#utility.yul\":4673:4705   */\n      slt\n        /* \"#utility.yul\":4670:4722   */\n      iszero\n      tag_403\n      jumpi\n        /* \"#utility.yul\":4718:4719   */\n      0x00\n        /* \"#utility.yul\":4715:4716   */\n      dup1\n        /* \"#utility.yul\":4708:4720   */\n      revert\n        /* \"#utility.yul\":4670:4722   */\n    tag_403:\n        /* \"#utility.yul\":4757:4766   */\n      dup2\n        /* \"#utility.yul\":4744:4767   */\n      calldataload\n        /* \"#utility.yul\":4776:4807   */\n      tag_351\n        /* \"#utility.yul\":4801:4806   */\n      dup2\n        /* \"#utility.yul\":4776:4807   */\n      tag_373\n      jump\t// in\n        /* \"#utility.yul\":4842:5184   */\n    tag_144:\n        /* \"#utility.yul\":5044:5046   */\n      0x20\n        /* \"#utility.yul\":5026:5047   */\n      dup1\n      dup3\n      mstore\n        /* \"#utility.yul\":5083:5085   */\n      0x12\n        /* \"#utility.yul\":5063:5081   */\n      swap1\n      dup3\n      add\n        /* \"#utility.yul\":5056:5086   */\n      mstore\n      shl(0x72, 0x1a5d195b48191bd95cdb89dd08195e1a5cdd)\n        /* \"#utility.yul\":5117:5119   */\n      0x40\n        /* \"#utility.yul\":5102:5120   */\n      dup3\n      add\n        /* \"#utility.yul\":5095:5143   */\n      mstore\n        /* \"#utility.yul\":5175:5177   */\n      0x60\n        /* \"#utility.yul\":5160:5178   */\n      add\n      swap1\n        /* \"#utility.yul\":4842:5184   */\n      jump\t// out\n        /* \"#utility.yul\":5189:5533   */\n    tag_147:\n        /* \"#utility.yul\":5391:5393   */\n      0x20\n        /* \"#utility.yul\":5373:5394   */\n      dup1\n      dup3\n      mstore\n        /* \"#utility.yul\":5430:5432   */\n      0x14\n        /* \"#utility.yul\":5410:5428   */\n      swap1\n      dup3\n      add\n        /* \"#utility.yul\":5403:5433   */\n      mstore\n      shl(0x62, 0x1a5d195b481a5cc81b9bdd08199bdc881cd95b1b)\n        /* \"#utility.yul\":5464:5466   */\n      0x40\n        /* \"#utility.yul\":5449:5467   */\n      dup3\n      add\n        /* \"#utility.yul\":5442:5492   */\n      mstore\n        /* \"#utility.yul\":5524:5526   */\n      0x60\n        /* \"#utility.yul\":5509:5527   */\n      add\n      swap1\n        /* \"#utility.yul\":5189:5533   */\n      jump\t// out\n        /* \"#utility.yul\":5538:5889   */\n    tag_150:\n        /* \"#utility.yul\":5740:5742   */\n      0x20\n        /* \"#utility.yul\":5722:5743   */\n      dup1\n      dup3\n      mstore\n        /* \"#utility.yul\":5779:5781   */\n      0x1b\n        /* \"#utility.yul\":5759:5777   */\n      swap1\n      dup3\n      add\n        /* \"#utility.yul\":5752:5782   */\n      mstore\n      shl(0x2a, 0x165bdd4818d85b9b9bdd08189d5e481e5bdd5c881bdddb881b999d)\n        /* \"#utility.yul\":5813:5815   */\n      0x40\n        /* \"#utility.yul\":5798:5816   */\n      dup3\n      add\n        /* \"#utility.yul\":5791:5848   */\n      mstore\n        /* \"#utility.yul\":5880:5882   */\n      0x60\n        /* \"#utility.yul\":5865:5883   */\n      add\n      swap1\n        /* \"#utility.yul\":5538:5889   */\n      jump\t// out\n        /* \"#utility.yul\":5894:6171   */\n    tag_161:\n        /* \"#utility.yul\":5961:5967   */\n      0x00\n        /* \"#utility.yul\":6014:6016   */\n      0x20\n        /* \"#utility.yul\":6002:6011   */\n      dup3\n        /* \"#utility.yul\":5993:6000   */\n      dup5\n        /* \"#utility.yul\":5989:6012   */\n      sub\n        /* \"#utility.yul\":5985:6017   */\n      slt\n        /* \"#utility.yul\":5982:6034   */\n      iszero\n      tag_409\n      jumpi\n        /* \"#utility.yul\":6030:6031   */\n      0x00\n        /* \"#utility.yul\":6027:6028   */\n      dup1\n        /* \"#utility.yul\":6020:6032   */\n      revert\n        /* \"#utility.yul\":5982:6034   */\n    tag_409:\n        /* \"#utility.yul\":6062:6071   */\n      dup2\n        /* \"#utility.yul\":6056:6072   */\n      mload\n        /* \"#utility.yul\":6115:6120   */\n      dup1\n        /* \"#utility.yul\":6108:6121   */\n      iszero\n        /* \"#utility.yul\":6101:6122   */\n      iszero\n        /* \"#utility.yul\":6094:6099   */\n      dup2\n        /* \"#utility.yul\":6091:6123   */\n      eq\n        /* \"#utility.yul\":6081:6141   */\n      tag_351\n      jumpi\n        /* \"#utility.yul\":6137:6138   */\n      0x00\n        /* \"#utility.yul\":6134:6135   */\n      dup1\n        /* \"#utility.yul\":6127:6139   */\n      revert\n        /* \"#utility.yul\":6176:6521   */\n    tag_167:\n      sub(shl(0xa0, 0x01), 0x01)\n        /* \"#utility.yul\":6396:6428   */\n      swap4\n      swap1\n      swap4\n      and\n        /* \"#utility.yul\":6378:6429   */\n      dup4\n      mstore\n        /* \"#utility.yul\":6460:6462   */\n      0x20\n        /* \"#utility.yul\":6445:6463   */\n      dup4\n      add\n        /* \"#utility.yul\":6438:6472   */\n      swap2\n      swap1\n      swap2\n      mstore\n        /* \"#utility.yul\":6503:6505   */\n      0x40\n        /* \"#utility.yul\":6488:6506   */\n      dup3\n      add\n        /* \"#utility.yul\":6481:6515   */\n      mstore\n        /* \"#utility.yul\":6366:6368   */\n      0x60\n        /* \"#utility.yul\":6351:6369   */\n      add\n      swap1\n        /* \"#utility.yul\":6176:6521   */\n      jump\t// out\n        /* \"#utility.yul\":7281:7465   */\n    tag_194:\n        /* \"#utility.yul\":7351:7357   */\n      0x00\n        /* \"#utility.yul\":7404:7406   */\n      0x20\n        /* \"#utility.yul\":7392:7401   */\n      dup3\n        /* \"#utility.yul\":7383:7390   */\n      dup5\n        /* \"#utility.yul\":7379:7402   */\n      sub\n        /* \"#utility.yul\":7375:7407   */\n      slt\n        /* \"#utility.yul\":7372:7424   */\n      iszero\n      tag_415\n      jumpi\n        /* \"#utility.yul\":7420:7421   */\n      0x00\n        /* \"#utility.yul\":7417:7418   */\n      dup1\n        /* \"#utility.yul\":7410:7422   */\n      revert\n        /* \"#utility.yul\":7372:7424   */\n    tag_415:\n      pop\n        /* \"#utility.yul\":7443:7459   */\n      mload\n      swap2\n        /* \"#utility.yul\":7281:7465   */\n      swap1\n      pop\n      jump\t// out\n        /* \"#utility.yul\":7818:7945   */\n    tag_374:\n        /* \"#utility.yul\":7879:7889   */\n      0x4e487b71\n        /* \"#utility.yul\":7874:7877   */\n      0xe0\n        /* \"#utility.yul\":7870:7890   */\n      shl\n        /* \"#utility.yul\":7867:7868   */\n      0x00\n        /* \"#utility.yul\":7860:7891   */\n      mstore\n        /* \"#utility.yul\":7910:7914   */\n      0x11\n        /* \"#utility.yul\":7907:7908   */\n      0x04\n        /* \"#utility.yul\":7900:7915   */\n      mstore\n        /* \"#utility.yul\":7934:7938   */\n      0x24\n        /* \"#utility.yul\":7931:7932   */\n      0x00\n        /* \"#utility.yul\":7924:7939   */\n      revert\n        /* \"#utility.yul\":7950:8085   */\n    tag_216:\n        /* \"#utility.yul\":7989:7992   */\n      0x00\n        /* \"#utility.yul\":8010:8027   */\n      0x01\n      dup3\n      add\n        /* \"#utility.yul\":8007:8050   */\n      tag_420\n      jumpi\n        /* \"#utility.yul\":8030:8048   */\n      tag_420\n      tag_374\n      jump\t// in\n    tag_420:\n      pop\n        /* \"#utility.yul\":8077:8078   */\n      0x01\n        /* \"#utility.yul\":8066:8079   */\n      add\n      swap1\n        /* \"#utility.yul\":7950:8085   */\n      jump\t// out\n        /* \"#utility.yul\":8090:8491   */\n    tag_235:\n        /* \"#utility.yul\":8292:8294   */\n      0x20\n        /* \"#utility.yul\":8274:8295   */\n      dup1\n      dup3\n      mstore\n        /* \"#utility.yul\":8331:8333   */\n      0x25\n        /* \"#utility.yul\":8311:8329   */\n      swap1\n      dup3\n      add\n        /* \"#utility.yul\":8304:8334   */\n      mstore\n        /* \"#utility.yul\":8370:8404   */\n      0x6974656d206973206e6f74207468652073616d6520636f6e7472616374206164\n        /* \"#utility.yul\":8365:8367   */\n      0x40\n        /* \"#utility.yul\":8350:8368   */\n      dup3\n      add\n        /* \"#utility.yul\":8343:8405   */\n      mstore\n      shl(0xd8, 0x6472657373)\n        /* \"#utility.yul\":8436:8438   */\n      0x60\n        /* \"#utility.yul\":8421:8439   */\n      dup3\n      add\n        /* \"#utility.yul\":8414:8449   */\n      mstore\n        /* \"#utility.yul\":8481:8484   */\n      0x80\n        /* \"#utility.yul\":8466:8485   */\n      add\n      swap1\n        /* \"#utility.yul\":8090:8491   */\n      jump\t// out\n        /* \"#utility.yul\":9186:9561   */\n    tag_249:\n      sub(shl(0xa0, 0x01), 0x01)\n        /* \"#utility.yul\":9444:9459   */\n      swap4\n      dup5\n      and\n        /* \"#utility.yul\":9426:9460   */\n      dup2\n      mstore\n        /* \"#utility.yul\":9496:9511   */\n      swap2\n      swap1\n      swap3\n      and\n        /* \"#utility.yul\":9491:9493   */\n      0x20\n        /* \"#utility.yul\":9476:9494   */\n      dup3\n      add\n        /* \"#utility.yul\":9469:9512   */\n      mstore\n        /* \"#utility.yul\":9543:9545   */\n      0x40\n        /* \"#utility.yul\":9528:9546   */\n      dup2\n      add\n        /* \"#utility.yul\":9521:9555   */\n      swap2\n      swap1\n      swap2\n      mstore\n        /* \"#utility.yul\":9376:9378   */\n      0x60\n        /* \"#utility.yul\":9361:9379   */\n      add\n      swap1\n        /* \"#utility.yul\":9186:9561   */\n      jump\t// out\n        /* \"#utility.yul\":9974:10225   */\n    tag_304:\n        /* \"#utility.yul\":10044:10050   */\n      0x00\n        /* \"#utility.yul\":10097:10099   */\n      0x20\n        /* \"#utility.yul\":10085:10094   */\n      dup3\n        /* \"#utility.yul\":10076:10083   */\n      dup5\n        /* \"#utility.yul\":10072:10095   */\n      sub\n        /* \"#utility.yul\":10068:10100   */\n      slt\n        /* \"#utility.yul\":10065:10117   */\n      iszero\n      tag_427\n      jumpi\n        /* \"#utility.yul\":10113:10114   */\n      0x00\n        /* \"#utility.yul\":10110:10111   */\n      dup1\n        /* \"#utility.yul\":10103:10115   */\n      revert\n        /* \"#utility.yul\":10065:10117   */\n    tag_427:\n        /* \"#utility.yul\":10145:10154   */\n      dup2\n        /* \"#utility.yul\":10139:10155   */\n      mload\n        /* \"#utility.yul\":10164:10195   */\n      tag_351\n        /* \"#utility.yul\":10189:10194   */\n      dup2\n        /* \"#utility.yul\":10164:10195   */\n      tag_373\n      jump\t// in\n        /* \"#utility.yul\":11693:11861   */\n    tag_352:\n        /* \"#utility.yul\":11766:11775   */\n      dup1\n      dup3\n      mul\n        /* \"#utility.yul\":11797:11806   */\n      dup2\n      iszero\n        /* \"#utility.yul\":11814:11829   */\n      dup3\n      dup3\n      div\n        /* \"#utility.yul\":11808:11830   */\n      dup5\n      eq\n        /* \"#utility.yul\":11794:11831   */\n      or\n        /* \"#utility.yul\":11784:11855   */\n      tag_208\n      jumpi\n        /* \"#utility.yul\":11835:11853   */\n      tag_208\n      tag_374\n      jump\t// in\n        /* \"#utility.yul\":11866:12083   */\n    tag_355:\n        /* \"#utility.yul\":11906:11907   */\n      0x00\n        /* \"#utility.yul\":11932:11933   */\n      dup3\n        /* \"#utility.yul\":11922:12054   */\n      tag_437\n      jumpi\n        /* \"#utility.yul\":11976:11986   */\n      0x4e487b71\n        /* \"#utility.yul\":11971:11974   */\n      0xe0\n        /* \"#utility.yul\":11967:11987   */\n      shl\n        /* \"#utility.yul\":11964:11965   */\n      0x00\n        /* \"#utility.yul\":11957:11988   */\n      mstore\n        /* \"#utility.yul\":12011:12015   */\n      0x12\n        /* \"#utility.yul\":12008:12009   */\n      0x04\n        /* \"#utility.yul\":12001:12016   */\n      mstore\n        /* \"#utility.yul\":12039:12043   */\n      0x24\n        /* \"#utility.yul\":12036:12037   */\n      0x00\n        /* \"#utility.yul\":12029:12044   */\n      revert\n        /* \"#utility.yul\":11922:12054   */\n    tag_437:\n      pop\n        /* \"#utility.yul\":12068:12077   */\n      div\n      swap1\n        /* \"#utility.yul\":11866:12083   */\n      jump\t// out\n        /* \"#utility.yul\":12088:12216   */\n    tag_358:\n        /* \"#utility.yul\":12155:12164   */\n      dup2\n      dup2\n      sub\n        /* \"#utility.yul\":12176:12187   */\n      dup2\n      dup2\n      gt\n        /* \"#utility.yul\":12173:12210   */\n      iszero\n      tag_208\n      jumpi\n        /* \"#utility.yul\":12190:12208   */\n      tag_208\n      tag_374\n      jump\t// in\n    stop\n    data_d383beb25c8dcb48ce04c640c5a5202214f67e90fe02e7f1b7e1e411739928ed c0790eb4899023169be51dd7074a99a15959464f9a0e6b19767d8d61539b8726\n\n    auxdata: 0xa264697066735822122027f33e3f5d92613e775dd3c40a953879ec884c2fb06e222ff5dfa9036032143e64736f6c63430008160033\n}\n",
				"bytecode": {
					"linkReferences": {},
					"object": "608060405261015e600555348015610015575f80fd5b50604051620019ec380380620019ec833981016040819052610036916100d3565b806001600160a01b03811661006457604051631e4fbdf760e01b81525f600482015260240160405180910390fd5b61006d81610084565b50505f805460ff60a01b1916905560018055610100565b5f80546001600160a01b038381166001600160a01b0319831681178455604051919092169283917f8be0079c531659141344cd1fd0a4f28419497f9722a3daafe3b4186f6b6457e09190a35050565b5f602082840312156100e3575f80fd5b81516001600160a01b03811681146100f9575f80fd5b9392505050565b6118de806200010e5f395ff3fe6080604052600436106100fc575f3560e01c80630ea59c4b1461014057806321f67fbb1461025a578063249e10c5146102705780633ec622791461028f5780635c975abb146102a357806365a19c20146102c75780636ee4c120146102e5578063715018a6146103045780638699fdf4146103185780638da5cb5b14610337578063925a99531461035857806398590ef9146103775780639cefe0291461038a578063a82ba76f146103a9578063c85d5262146103bc578063cc4aa204146103d0578063cf02976f146103ef578063d68cdc521461040e578063de74e57b14610421578063df706cbc146104c1578063f2fde38b146104e0575f80fd5b3661013c577fe1fffcc4923d04b559f4d29a8bfc6cda04eb5b0d3c460751c2402c5c5cc9109c3334604051610132929190611558565b60405180910390a1005b5f80fd5b34801561014b575f80fd5b506101f861015a366004611571565b6040805160c0810182525f80825260208201819052918101829052606081018290526080810182905260a0810191909152505f90815260096020908152604091829020825160c08101845281546001600160a01b039081168252600183015493820193909352600282015493810193909352600381015482166060840152600401549081166080830152600160a01b900460ff16151560a082015290565b604051610251919081516001600160a01b03908116825260208084015190830152604080840151908301526060808401518216908301526080808401519091169082015260a09182015115159181019190915260c00190565b60405180910390f35b348015610265575f80fd5b5061026e6104ff565b005b34801561027b575f80fd5b5061026e61028a366004611571565b610511565b34801561029a575f80fd5b5061026e610749565b3480156102ae575f80fd5b506102b7610759565b6040519015158152602001610251565b3480156102d2575f80fd5b506005545b604051908152602001610251565b3480156102f0575f80fd5b5061026e6102ff36600461159c565b610768565b34801561030f575f80fd5b5061026e61096c565b348015610323575f80fd5b506102d76103323660046115ca565b61097d565b348015610342575f80fd5b5061034b6109e1565b60405161025191906115f4565b348015610363575f80fd5b5061026e610372366004611608565b6109ef565b61026e6103853660046115ca565b610b39565b348015610395575f80fd5b5061026e6103a4366004611571565b610ca9565b61026e6103b73660046115ca565b610cb6565b3480156103c7575f80fd5b506102d7610f6b565b3480156103db575f80fd5b5060025461034b906001600160a01b031681565b3480156103fa575f80fd5b506102d76104093660046115ca565b610f7a565b61026e61041c366004611647565b611019565b34801561042c575f80fd5b5061048261043b366004611571565b60096020525f9081526040902080546001820154600283015460038401546004909401546001600160a01b039384169492939192821691811690600160a01b900460ff1686565b604080516001600160a01b03978816815260208101969096528501939093529084166060840152909216608082015290151560a082015260c001610251565b3480156104cc575f80fd5b5060035461034b906001600160a01b031681565b3480156104eb575f80fd5b5061026e6104fa36600461168e565b6112f9565b610507611333565b61050f611365565b565b6105196113b3565b6105216113fb565b5f818152600960205260409020811580159061053f57506004548211155b6105645760405162461bcd60e51b815260040161055b906116a9565b60405180910390fd5b6004810154600160a01b900460ff1615155f036105935760405162461bcd60e51b815260040161055b906116d5565b6004810154336001600160a01b03909116036105c15760405162461bcd60e51b815260040161055b90611703565b600281015460088190556005546105e691612710916105e09190611454565b90611466565b60068190556008546105f791611471565b60078190556003820154600280546001600160a01b0319166001600160a01b0392831690811790915560048085015460405163a9059cbb60e01b8152929463a9059cbb9461064a94921692909101611558565b6020604051808303815f875af1158015610666573d5f803e3d5ffd5b505050506040513d601f19601f8201168201806040525081019061068a9190611738565b5060025460075460405163a9059cbb60e01b81526001600160a01b039092169163a9059cbb916106bf91339190600401611558565b6020604051808303815f875af11580156106db573d5f803e3d5ffd5b505050506040513d601f19601f820116820180604052508101906106ff9190611738565b5060048101805460ff60a01b1916905560018101546007546040515f8051602061188983398151915292610734923392611757565b60405180910390a15061074660018055565b50565b610751611333565b61050f61147c565b5f54600160a01b900460ff1690565b6107706113b3565b6107786113fb565b610780611333565b815f036107c75760405162461bcd60e51b8152602060048201526015602482015274416d6f756e742063616e6e6f74206265207a65726f60581b604482015260640161055b565b6001600160a01b0381166108295760405162461bcd60e51b8152602060048201526024808201527f455243323020616464726573732063616e6e6f74206265207a65726f206164646044820152637265737360e01b606482015260840161055b565b600280546001600160a01b0319166001600160a01b0383169081179091556040516370a0823160e01b81526370a08231906108689030906004016115f4565b602060405180830381865afa158015610883573d5f803e3d5ffd5b505050506040513d601f19601f820116820180604052508101906108a79190611778565b8211156108ec5760405162461bcd60e51b815260206004820152601360248201527224b739bab33334b1b4b2b73a10333ab732399760691b604482015260640161055b565b60025460405163a9059cbb60e01b81526001600160a01b039091169063a9059cbb9061091e9033908690600401611558565b6020604051808303815f875af115801561093a573d5f803e3d5ffd5b505050506040513d601f19601f8201168201806040525081019061095e9190611738565b5061096860018055565b5050565b610974611333565b61050f5f6114be565b5f60015b60045481116109d6575f81815260096020526040902080546001600160a01b0386811691161480156109b65750838160010154145b156109c3575090506109db565b50806109ce816117a3565b915050610981565b505f90505b92915050565b5f546001600160a01b031690565b6109f76113b3565b6109ff6113fb565b610a07611333565b5f8281526009602052604090208215801590610a2557506004548311155b610a415760405162461bcd60e51b815260040161055b906116a9565b6004810154600160a01b900460ff1615155f03610a705760405162461bcd60e51b815260040161055b906116d5565b60048101546001600160a01b03808416911603610a9f5760405162461bcd60e51b815260040161055b90611703565b80546001600160a01b03858116911614610acb5760405162461bcd60e51b815260040161055b906117bb565b6004810180546001600160a81b0319166001600160a01b038416179055600181015460028201546040517ffc2e01ec8c4c53e02ee1fa8816c1692687966e0daef195be5b64c88d8e58e3ee92610b22928692611757565b60405180910390a150610b3460018055565b505050565b5f81815260096020526040902060040154829082906001600160a01b03163314610b61575f80fd5b5f818152600960205260409020546001600160a01b03838116911614610b85575f80fd5b5f83815260096020526040902060048101546001600160a01b03163314610be25760405162461bcd60e51b815260206004820152601160248201527034b9903737ba103a34329039b2b63632b960791b604482015260640161055b565b6004810154600160a01b900460ff161515600114610c345760405162461bcd60e51b815260206004820152600f60248201526e1a5cc81b9bdd081b1a5cdd195b9959608a1b604482015260640161055b565b60018101546040516323b872dd60e01b81526001600160a01b038716916323b872dd91610c68913091339190600401611800565b5f604051808303815f87803b158015610c7f575f80fd5b505af1158015610c91573d5f803e3d5ffd5b50505050600401805460ff60a01b1916905550505050565b610cb1611333565b600555565b610cbe6113b3565b610cc66113fb565b5f8181526009602052604090208115801590610ce457506004548211155b610d005760405162461bcd60e51b815260040161055b906116a9565b6004810154600160a01b900460ff1615155f03610d2f5760405162461bcd60e51b815260040161055b906116d5565b6004810154336001600160a01b0390911603610d5d5760405162461bcd60e51b815260040161055b90611703565b80546001600160a01b03848116911614610d895760405162461bcd60e51b815260040161055b906117bb565b8060020154341015610ded5760405162461bcd60e51b815260206004820152602760248201527f6e6f7420656e6f7567682062616c616e636520666f722074686973207472616e60448201526639b0b1ba34b7b760c91b606482015260840161055b565b60028101546008819055600554610e0c91612710916105e09190611454565b6006819055600854610e1d91611471565b60078190556003820154600280546001600160a01b0319166001600160a01b0392831690811790915560048085015460405163a9059cbb60e01b8152929463a9059cbb94610e7094921692909101611558565b6020604051808303815f875af1158015610e8c573d5f803e3d5ffd5b505050506040513d601f19601f82011682018060405250810190610eb09190611738565b5060018101546040516323b872dd60e01b81526001600160a01b038516916323b872dd91610ee5913091339190600401611800565b5f604051808303815f87803b158015610efc575f80fd5b505af1158015610f0e573d5f803e3d5ffd5b505050506004810180546001600160a81b0319163360ff60a01b1981169190911790915560018201546007546040515f8051602061188983398151915293610f599390929091611757565b60405180910390a15061096860018055565b5f610f7560045490565b905090565b5f8060015b6004548111611002575f818152600960205260409020546001600160a01b038681169116148015610fbf57505f8181526009602052604090206001015484145b8015610fe257505f81815260096020526040902060040154600160a01b900460ff165b15610ff05760019150611002565b80610ffa816117a3565b915050610f7f565b81611011575f925050506109db565b949350505050565b6040516331a9108f60e11b81526004810184905233906001600160a01b03861690636352211e90602401602060405180830381865afa15801561105e573d5f803e3d5ffd5b505050506040513d601f19601f820116820180604052508101906110829190611824565b6001600160a01b0316146110d05760405162461bcd60e51b81526020600482015260156024820152742cb7ba9030b932903737ba103a34329037bbb732b960591b604482015260640161055b565b5f821161112f5760405162461bcd60e51b815260206004820152602760248201527f4e46544d61726b65743a207072696365206d75737420626520677265617465726044820152660207468616e20360cc1b606482015260840161055b565b61113d600480546001019055565b6040518060c00160405280856001600160a01b03168152602001848152602001838152602001826001600160a01b03168152602001336001600160a01b031681526020015f151581525060095f61119360045490565b815260208082019290925260409081015f908120845181546001600160a01b039182166001600160a01b03199182161783559486015160018301559285015160028201556060850151600382018054918516919095161790935560808401516004938401805460a0909601511515600160a01b026001600160a81b03199096169190931617939093179055600990829061122b905490565b81526020019081526020015f209050846001600160a01b03166323b872dd3330876040518463ffffffff1660e01b815260040161126a93929190611800565b5f604051808303815f87803b158015611281575f80fd5b505af1158015611293573d5f803e3d5ffd5b5050506004808301805460ff60a01b1916600160a01b1790557f21149a5778ddc1afca837b00fd70c0fc0a6d1d25d1bd15bff4a84bab1eeb9a929150339086906112db905490565b6040516112ea93929190611757565b60405180910390a15050505050565b611301611333565b6001600160a01b03811661132a575f604051631e4fbdf760e01b815260040161055b91906115f4565b610746816114be565b3361133c6109e1565b6001600160a01b03161461050f573360405163118cdaa760e01b815260040161055b91906115f4565b61136d61150d565b5f805460ff60a01b191690557f5db9ee0a495bf2e6ff9c91a7834c1ba4fdd244a5e8aa4e537bd38aeae4b073aa335b6040516113a991906115f4565b60405180910390a1565b6113bb610759565b1561050f5760405162461bcd60e51b815260206004820152601060248201526f14185d5cd8589b194e881c185d5cd95960821b604482015260640161055b565b60026001540361144d5760405162461bcd60e51b815260206004820152601f60248201527f5265656e7472616e637947756172643a207265656e7472616e742063616c6c00604482015260640161055b565b6002600155565b5f61145f828461183f565b9392505050565b5f61145f8284611856565b5f61145f8284611875565b6114846113b3565b5f805460ff60a01b1916600160a01b1790557f62e78cea01bee320cd4e420270b5ea74000d11b0c9f74754ebdbfc544b05a25861139c3390565b5f80546001600160a01b038381166001600160a01b0319831681178455604051919092169283917f8be0079c531659141344cd1fd0a4f28419497f9722a3daafe3b4186f6b6457e09190a35050565b611515610759565b61050f5760405162461bcd60e51b815260206004820152601460248201527314185d5cd8589b194e881b9bdd081c185d5cd95960621b604482015260640161055b565b6001600160a01b03929092168252602082015260400190565b5f60208284031215611581575f80fd5b5035919050565b6001600160a01b0381168114610746575f80fd5b5f80604083850312156115ad575f80fd5b8235915060208301356115bf81611588565b809150509250929050565b5f80604083850312156115db575f80fd5b82356115e681611588565b946020939093013593505050565b6001600160a01b0391909116815260200190565b5f805f6060848603121561161a575f80fd5b833561162581611588565b925060208401359150604084013561163c81611588565b809150509250925092565b5f805f806080858703121561165a575f80fd5b843561166581611588565b93506020850135925060408501359150606085013561168381611588565b939692955090935050565b5f6020828403121561169e575f80fd5b813561145f81611588565b6020808252601290820152711a5d195b48191bd95cdb89dd08195e1a5cdd60721b604082015260600190565b6020808252601490820152731a5d195b481a5cc81b9bdd08199bdc881cd95b1b60621b604082015260600190565b6020808252601b908201527a165bdd4818d85b9b9bdd08189d5e481e5bdd5c881bdddb881b999d602a1b604082015260600190565b5f60208284031215611748575f80fd5b8151801515811461145f575f80fd5b6001600160a01b039390931683526020830191909152604082015260600190565b5f60208284031215611788575f80fd5b5051919050565b634e487b7160e01b5f52601160045260245ffd5b5f600182016117b4576117b461178f565b5060010190565b60208082526025908201527f6974656d206973206e6f74207468652073616d6520636f6e7472616374206164604082015264647265737360d81b606082015260800190565b6001600160a01b039384168152919092166020820152604081019190915260600190565b5f60208284031215611834575f80fd5b815161145f81611588565b80820281158282048414176109db576109db61178f565b5f8261187057634e487b7160e01b5f52601260045260245ffd5b500490565b818103818111156109db576109db61178f56fec0790eb4899023169be51dd7074a99a15959464f9a0e6b19767d8d61539b8726a264697066735822122027f33e3f5d92613e775dd3c40a953879ec884c2fb06e222ff5dfa9036032143e64736f6c63430008160033",
					"opcodes": "PUSH1 0x80 PUSH1 0x40 MSTORE PUSH2 0x15E PUSH1 0x5 SSTORE CALLVALUE DUP1 ISZERO PUSH2 0x15 JUMPI PUSH0 DUP1 REVERT JUMPDEST POP PUSH1 0x40 MLOAD PUSH3 0x19EC CODESIZE SUB DUP1 PUSH3 0x19EC DUP4 CODECOPY DUP2 ADD PUSH1 0x40 DUP2 SWAP1 MSTORE PUSH2 0x36 SWAP2 PUSH2 0xD3 JUMP JUMPDEST DUP1 PUSH1 0x1 PUSH1 0x1 PUSH1 0xA0 SHL SUB DUP2 AND PUSH2 0x64 JUMPI PUSH1 0x40 MLOAD PUSH4 0x1E4FBDF7 PUSH1 0xE0 SHL DUP2 MSTORE PUSH0 PUSH1 0x4 DUP3 ADD MSTORE PUSH1 0x24 ADD PUSH1 0x40 MLOAD DUP1 SWAP2 SUB SWAP1 REVERT JUMPDEST PUSH2 0x6D DUP2 PUSH2 0x84 JUMP JUMPDEST POP POP PUSH0 DUP1 SLOAD PUSH1 0xFF PUSH1 0xA0 SHL NOT AND SWAP1 SSTORE PUSH1 0x1 DUP1 SSTORE PUSH2 0x100 JUMP JUMPDEST PUSH0 DUP1 SLOAD PUSH1 0x1 PUSH1 0x1 PUSH1 0xA0 SHL SUB DUP4 DUP2 AND PUSH1 0x1 PUSH1 0x1 PUSH1 0xA0 SHL SUB NOT DUP4 AND DUP2 OR DUP5 SSTORE PUSH1 0x40 MLOAD SWAP2 SWAP1 SWAP3 AND SWAP3 DUP4 SWAP2 PUSH32 0x8BE0079C531659141344CD1FD0A4F28419497F9722A3DAAFE3B4186F6B6457E0 SWAP2 SWAP1 LOG3 POP POP JUMP JUMPDEST PUSH0 PUSH1 0x20 DUP3 DUP5 SUB SLT ISZERO PUSH2 0xE3 JUMPI PUSH0 DUP1 REVERT JUMPDEST DUP2 MLOAD PUSH1 0x1 PUSH1 0x1 PUSH1 0xA0 SHL SUB DUP2 AND DUP2 EQ PUSH2 0xF9 JUMPI PUSH0 DUP1 REVERT JUMPDEST SWAP4 SWAP3 POP POP POP JUMP JUMPDEST PUSH2 0x18DE DUP1 PUSH3 0x10E PUSH0 CODECOPY PUSH0 RETURN INVALID PUSH1 0x80 PUSH1 0x40 MSTORE PUSH1 0x4 CALLDATASIZE LT PUSH2 0xFC JUMPI PUSH0 CALLDATALOAD PUSH1 0xE0 SHR DUP1 PUSH4 0xEA59C4B EQ PUSH2 0x140 JUMPI DUP1 PUSH4 0x21F67FBB EQ PUSH2 0x25A JUMPI DUP1 PUSH4 0x249E10C5 EQ PUSH2 0x270 JUMPI DUP1 PUSH4 0x3EC62279 EQ PUSH2 0x28F JUMPI DUP1 PUSH4 0x5C975ABB EQ PUSH2 0x2A3 JUMPI DUP1 PUSH4 0x65A19C20 EQ PUSH2 0x2C7 JUMPI DUP1 PUSH4 0x6EE4C120 EQ PUSH2 0x2E5 JUMPI DUP1 PUSH4 0x715018A6 EQ PUSH2 0x304 JUMPI DUP1 PUSH4 0x8699FDF4 EQ PUSH2 0x318 JUMPI DUP1 PUSH4 0x8DA5CB5B EQ PUSH2 0x337 JUMPI DUP1 PUSH4 0x925A9953 EQ PUSH2 0x358 JUMPI DUP1 PUSH4 0x98590EF9 EQ PUSH2 0x377 JUMPI DUP1 PUSH4 0x9CEFE029 EQ PUSH2 0x38A JUMPI DUP1 PUSH4 0xA82BA76F EQ PUSH2 0x3A9 JUMPI DUP1 PUSH4 0xC85D5262 EQ PUSH2 0x3BC JUMPI DUP1 PUSH4 0xCC4AA204 EQ PUSH2 0x3D0 JUMPI DUP1 PUSH4 0xCF02976F EQ PUSH2 0x3EF JUMPI DUP1 PUSH4 0xD68CDC52 EQ PUSH2 0x40E JUMPI DUP1 PUSH4 0xDE74E57B EQ PUSH2 0x421 JUMPI DUP1 PUSH4 0xDF706CBC EQ PUSH2 0x4C1 JUMPI DUP1 PUSH4 0xF2FDE38B EQ PUSH2 0x4E0 JUMPI PUSH0 DUP1 REVERT JUMPDEST CALLDATASIZE PUSH2 0x13C JUMPI PUSH32 0xE1FFFCC4923D04B559F4D29A8BFC6CDA04EB5B0D3C460751C2402C5C5CC9109C CALLER CALLVALUE PUSH1 0x40 MLOAD PUSH2 0x132 SWAP3 SWAP2 SWAP1 PUSH2 0x1558 JUMP JUMPDEST PUSH1 0x40 MLOAD DUP1 SWAP2 SUB SWAP1 LOG1 STOP JUMPDEST PUSH0 DUP1 REVERT JUMPDEST CALLVALUE DUP1 ISZERO PUSH2 0x14B JUMPI PUSH0 DUP1 REVERT JUMPDEST POP PUSH2 0x1F8 PUSH2 0x15A CALLDATASIZE PUSH1 0x4 PUSH2 0x1571 JUMP JUMPDEST PUSH1 0x40 DUP1 MLOAD PUSH1 0xC0 DUP2 ADD DUP3 MSTORE PUSH0 DUP1 DUP3 MSTORE PUSH1 0x20 DUP3 ADD DUP2 SWAP1 MSTORE SWAP2 DUP2 ADD DUP3 SWAP1 MSTORE PUSH1 0x60 DUP2 ADD DUP3 SWAP1 MSTORE PUSH1 0x80 DUP2 ADD DUP3 SWAP1 MSTORE PUSH1 0xA0 DUP2 ADD SWAP2 SWAP1 SWAP2 MSTORE POP PUSH0 SWAP1 DUP2 MSTORE PUSH1 0x9 PUSH1 0x20 SWAP1 DUP2 MSTORE PUSH1 0x40 SWAP2 DUP3 SWAP1 KECCAK256 DUP3 MLOAD PUSH1 0xC0 DUP2 ADD DUP5 MSTORE DUP2 SLOAD PUSH1 0x1 PUSH1 0x1 PUSH1 0xA0 SHL SUB SWAP1 DUP2 AND DUP3 MSTORE PUSH1 0x1 DUP4 ADD SLOAD SWAP4 DUP3 ADD SWAP4 SWAP1 SWAP4 MSTORE PUSH1 0x2 DUP3 ADD SLOAD SWAP4 DUP2 ADD SWAP4 SWAP1 SWAP4 MSTORE PUSH1 0x3 DUP2 ADD SLOAD DUP3 AND PUSH1 0x60 DUP5 ADD MSTORE PUSH1 0x4 ADD SLOAD SWAP1 DUP2 AND PUSH1 0x80 DUP4 ADD MSTORE PUSH1 0x1 PUSH1 0xA0 SHL SWAP1 DIV PUSH1 0xFF AND ISZERO ISZERO PUSH1 0xA0 DUP3 ADD MSTORE SWAP1 JUMP JUMPDEST PUSH1 0x40 MLOAD PUSH2 0x251 SWAP2 SWAP1 DUP2 MLOAD PUSH1 0x1 PUSH1 0x1 PUSH1 0xA0 SHL SUB SWAP1 DUP2 AND DUP3 MSTORE PUSH1 0x20 DUP1 DUP5 ADD MLOAD SWAP1 DUP4 ADD MSTORE PUSH1 0x40 DUP1 DUP5 ADD MLOAD SWAP1 DUP4 ADD MSTORE PUSH1 0x60 DUP1 DUP5 ADD MLOAD DUP3 AND SWAP1 DUP4 ADD MSTORE PUSH1 0x80 DUP1 DUP5 ADD MLOAD SWAP1 SWAP2 AND SWAP1 DUP3 ADD MSTORE PUSH1 0xA0 SWAP2 DUP3 ADD MLOAD ISZERO ISZERO SWAP2 DUP2 ADD SWAP2 SWAP1 SWAP2 MSTORE PUSH1 0xC0 ADD SWAP1 JUMP JUMPDEST PUSH1 0x40 MLOAD DUP1 SWAP2 SUB SWAP1 RETURN JUMPDEST CALLVALUE DUP1 ISZERO PUSH2 0x265 JUMPI PUSH0 DUP1 REVERT JUMPDEST POP PUSH2 0x26E PUSH2 0x4FF JUMP JUMPDEST STOP JUMPDEST CALLVALUE DUP1 ISZERO PUSH2 0x27B JUMPI PUSH0 DUP1 REVERT JUMPDEST POP PUSH2 0x26E PUSH2 0x28A CALLDATASIZE PUSH1 0x4 PUSH2 0x1571 JUMP JUMPDEST PUSH2 0x511 JUMP JUMPDEST CALLVALUE DUP1 ISZERO PUSH2 0x29A JUMPI PUSH0 DUP1 REVERT JUMPDEST POP PUSH2 0x26E PUSH2 0x749 JUMP JUMPDEST CALLVALUE DUP1 ISZERO PUSH2 0x2AE JUMPI PUSH0 DUP1 REVERT JUMPDEST POP PUSH2 0x2B7 PUSH2 0x759 JUMP JUMPDEST PUSH1 0x40 MLOAD SWAP1 ISZERO ISZERO DUP2 MSTORE PUSH1 0x20 ADD PUSH2 0x251 JUMP JUMPDEST CALLVALUE DUP1 ISZERO PUSH2 0x2D2 JUMPI PUSH0 DUP1 REVERT JUMPDEST POP PUSH1 0x5 SLOAD JUMPDEST PUSH1 0x40 MLOAD SWAP1 DUP2 MSTORE PUSH1 0x20 ADD PUSH2 0x251 JUMP JUMPDEST CALLVALUE DUP1 ISZERO PUSH2 0x2F0 JUMPI PUSH0 DUP1 REVERT JUMPDEST POP PUSH2 0x26E PUSH2 0x2FF CALLDATASIZE PUSH1 0x4 PUSH2 0x159C JUMP JUMPDEST PUSH2 0x768 JUMP JUMPDEST CALLVALUE DUP1 ISZERO PUSH2 0x30F JUMPI PUSH0 DUP1 REVERT JUMPDEST POP PUSH2 0x26E PUSH2 0x96C JUMP JUMPDEST CALLVALUE DUP1 ISZERO PUSH2 0x323 JUMPI PUSH0 DUP1 REVERT JUMPDEST POP PUSH2 0x2D7 PUSH2 0x332 CALLDATASIZE PUSH1 0x4 PUSH2 0x15CA JUMP JUMPDEST PUSH2 0x97D JUMP JUMPDEST CALLVALUE DUP1 ISZERO PUSH2 0x342 JUMPI PUSH0 DUP1 REVERT JUMPDEST POP PUSH2 0x34B PUSH2 0x9E1 JUMP JUMPDEST PUSH1 0x40 MLOAD PUSH2 0x251 SWAP2 SWAP1 PUSH2 0x15F4 JUMP JUMPDEST CALLVALUE DUP1 ISZERO PUSH2 0x363 JUMPI PUSH0 DUP1 REVERT JUMPDEST POP PUSH2 0x26E PUSH2 0x372 CALLDATASIZE PUSH1 0x4 PUSH2 0x1608 JUMP JUMPDEST PUSH2 0x9EF JUMP JUMPDEST PUSH2 0x26E PUSH2 0x385 CALLDATASIZE PUSH1 0x4 PUSH2 0x15CA JUMP JUMPDEST PUSH2 0xB39 JUMP JUMPDEST CALLVALUE DUP1 ISZERO PUSH2 0x395 JUMPI PUSH0 DUP1 REVERT JUMPDEST POP PUSH2 0x26E PUSH2 0x3A4 CALLDATASIZE PUSH1 0x4 PUSH2 0x1571 JUMP JUMPDEST PUSH2 0xCA9 JUMP JUMPDEST PUSH2 0x26E PUSH2 0x3B7 CALLDATASIZE PUSH1 0x4 PUSH2 0x15CA JUMP JUMPDEST PUSH2 0xCB6 JUMP JUMPDEST CALLVALUE DUP1 ISZERO PUSH2 0x3C7 JUMPI PUSH0 DUP1 REVERT JUMPDEST POP PUSH2 0x2D7 PUSH2 0xF6B JUMP JUMPDEST CALLVALUE DUP1 ISZERO PUSH2 0x3DB JUMPI PUSH0 DUP1 REVERT JUMPDEST POP PUSH1 0x2 SLOAD PUSH2 0x34B SWAP1 PUSH1 0x1 PUSH1 0x1 PUSH1 0xA0 SHL SUB AND DUP2 JUMP JUMPDEST CALLVALUE DUP1 ISZERO PUSH2 0x3FA JUMPI PUSH0 DUP1 REVERT JUMPDEST POP PUSH2 0x2D7 PUSH2 0x409 CALLDATASIZE PUSH1 0x4 PUSH2 0x15CA JUMP JUMPDEST PUSH2 0xF7A JUMP JUMPDEST PUSH2 0x26E PUSH2 0x41C CALLDATASIZE PUSH1 0x4 PUSH2 0x1647 JUMP JUMPDEST PUSH2 0x1019 JUMP JUMPDEST CALLVALUE DUP1 ISZERO PUSH2 0x42C JUMPI PUSH0 DUP1 REVERT JUMPDEST POP PUSH2 0x482 PUSH2 0x43B CALLDATASIZE PUSH1 0x4 PUSH2 0x1571 JUMP JUMPDEST PUSH1 0x9 PUSH1 0x20 MSTORE PUSH0 SWAP1 DUP2 MSTORE PUSH1 0x40 SWAP1 KECCAK256 DUP1 SLOAD PUSH1 0x1 DUP3 ADD SLOAD PUSH1 0x2 DUP4 ADD SLOAD PUSH1 0x3 DUP5 ADD SLOAD PUSH1 0x4 SWAP1 SWAP5 ADD SLOAD PUSH1 0x1 PUSH1 0x1 PUSH1 0xA0 SHL SUB SWAP4 DUP5 AND SWAP5 SWAP3 SWAP4 SWAP2 SWAP3 DUP3 AND SWAP2 DUP2 AND SWAP1 PUSH1 0x1 PUSH1 0xA0 SHL SWAP1 DIV PUSH1 0xFF AND DUP7 JUMP JUMPDEST PUSH1 0x40 DUP1 MLOAD PUSH1 0x1 PUSH1 0x1 PUSH1 0xA0 SHL SUB SWAP8 DUP9 AND DUP2 MSTORE PUSH1 0x20 DUP2 ADD SWAP7 SWAP1 SWAP7 MSTORE DUP6 ADD SWAP4 SWAP1 SWAP4 MSTORE SWAP1 DUP5 AND PUSH1 0x60 DUP5 ADD MSTORE SWAP1 SWAP3 AND PUSH1 0x80 DUP3 ADD MSTORE SWAP1 ISZERO ISZERO PUSH1 0xA0 DUP3 ADD MSTORE PUSH1 0xC0 ADD PUSH2 0x251 JUMP JUMPDEST CALLVALUE DUP1 ISZERO PUSH2 0x4CC JUMPI PUSH0 DUP1 REVERT JUMPDEST POP PUSH1 0x3 SLOAD PUSH2 0x34B SWAP1 PUSH1 0x1 PUSH1 0x1 PUSH1 0xA0 SHL SUB AND DUP2 JUMP JUMPDEST CALLVALUE DUP1 ISZERO PUSH2 0x4EB JUMPI PUSH0 DUP1 REVERT JUMPDEST POP PUSH2 0x26E PUSH2 0x4FA CALLDATASIZE PUSH1 0x4 PUSH2 0x168E JUMP JUMPDEST PUSH2 0x12F9 JUMP JUMPDEST PUSH2 0x507 PUSH2 0x1333 JUMP JUMPDEST PUSH2 0x50F PUSH2 0x1365 JUMP JUMPDEST JUMP JUMPDEST PUSH2 0x519 PUSH2 0x13B3 JUMP JUMPDEST PUSH2 0x521 PUSH2 0x13FB JUMP JUMPDEST PUSH0 DUP2 DUP2 MSTORE PUSH1 0x9 PUSH1 0x20 MSTORE PUSH1 0x40 SWAP1 KECCAK256 DUP2 ISZERO DUP1 ISZERO SWAP1 PUSH2 0x53F JUMPI POP PUSH1 0x4 SLOAD DUP3 GT ISZERO JUMPDEST PUSH2 0x564 JUMPI PUSH1 0x40 MLOAD PUSH3 0x461BCD PUSH1 0xE5 SHL DUP2 MSTORE PUSH1 0x4 ADD PUSH2 0x55B SWAP1 PUSH2 0x16A9 JUMP JUMPDEST PUSH1 0x40 MLOAD DUP1 SWAP2 SUB SWAP1 REVERT JUMPDEST PUSH1 0x4 DUP2 ADD SLOAD PUSH1 0x1 PUSH1 0xA0 SHL SWAP1 DIV PUSH1 0xFF AND ISZERO ISZERO PUSH0 SUB PUSH2 0x593 JUMPI PUSH1 0x40 MLOAD PUSH3 0x461BCD PUSH1 0xE5 SHL DUP2 MSTORE PUSH1 0x4 ADD PUSH2 0x55B SWAP1 PUSH2 0x16D5 JUMP JUMPDEST PUSH1 0x4 DUP2 ADD SLOAD CALLER PUSH1 0x1 PUSH1 0x1 PUSH1 0xA0 SHL SUB SWAP1 SWAP2 AND SUB PUSH2 0x5C1 JUMPI PUSH1 0x40 MLOAD PUSH3 0x461BCD PUSH1 0xE5 SHL DUP2 MSTORE PUSH1 0x4 ADD PUSH2 0x55B SWAP1 PUSH2 0x1703 JUMP JUMPDEST PUSH1 0x2 DUP2 ADD SLOAD PUSH1 0x8 DUP2 SWAP1 SSTORE PUSH1 0x5 SLOAD PUSH2 0x5E6 SWAP2 PUSH2 0x2710 SWAP2 PUSH2 0x5E0 SWAP2 SWAP1 PUSH2 0x1454 JUMP JUMPDEST SWAP1 PUSH2 0x1466 JUMP JUMPDEST PUSH1 0x6 DUP2 SWAP1 SSTORE PUSH1 0x8 SLOAD PUSH2 0x5F7 SWAP2 PUSH2 0x1471 JUMP JUMPDEST PUSH1 0x7 DUP2 SWAP1 SSTORE PUSH1 0x3 DUP3 ADD SLOAD PUSH1 0x2 DUP1 SLOAD PUSH1 0x1 PUSH1 0x1 PUSH1 0xA0 SHL SUB NOT AND PUSH1 0x1 PUSH1 0x1 PUSH1 0xA0 SHL SUB SWAP3 DUP4 AND SWAP1 DUP2 OR SWAP1 SWAP2 SSTORE PUSH1 0x4 DUP1 DUP6 ADD SLOAD PUSH1 0x40 MLOAD PUSH4 0xA9059CBB PUSH1 0xE0 SHL DUP2 MSTORE SWAP3 SWAP5 PUSH4 0xA9059CBB SWAP5 PUSH2 0x64A SWAP5 SWAP3 AND SWAP3 SWAP1 SWAP2 ADD PUSH2 0x1558 JUMP JUMPDEST PUSH1 0x20 PUSH1 0x40 MLOAD DUP1 DUP4 SUB DUP2 PUSH0 DUP8 GAS CALL ISZERO DUP1 ISZERO PUSH2 0x666 JUMPI RETURNDATASIZE PUSH0 DUP1 RETURNDATACOPY RETURNDATASIZE PUSH0 REVERT JUMPDEST POP POP POP POP PUSH1 0x40 MLOAD RETURNDATASIZE PUSH1 0x1F NOT PUSH1 0x1F DUP3 ADD AND DUP3 ADD DUP1 PUSH1 0x40 MSTORE POP DUP2 ADD SWAP1 PUSH2 0x68A SWAP2 SWAP1 PUSH2 0x1738 JUMP JUMPDEST POP PUSH1 0x2 SLOAD PUSH1 0x7 SLOAD PUSH1 0x40 MLOAD PUSH4 0xA9059CBB PUSH1 0xE0 SHL DUP2 MSTORE PUSH1 0x1 PUSH1 0x1 PUSH1 0xA0 SHL SUB SWAP1 SWAP3 AND SWAP2 PUSH4 0xA9059CBB SWAP2 PUSH2 0x6BF SWAP2 CALLER SWAP2 SWAP1 PUSH1 0x4 ADD PUSH2 0x1558 JUMP JUMPDEST PUSH1 0x20 PUSH1 0x40 MLOAD DUP1 DUP4 SUB DUP2 PUSH0 DUP8 GAS CALL ISZERO DUP1 ISZERO PUSH2 0x6DB JUMPI RETURNDATASIZE PUSH0 DUP1 RETURNDATACOPY RETURNDATASIZE PUSH0 REVERT JUMPDEST POP POP POP POP PUSH1 0x40 MLOAD RETURNDATASIZE PUSH1 0x1F NOT PUSH1 0x1F DUP3 ADD AND DUP3 ADD DUP1 PUSH1 0x40 MSTORE POP DUP2 ADD SWAP1 PUSH2 0x6FF SWAP2 SWAP1 PUSH2 0x1738 JUMP JUMPDEST POP PUSH1 0x4 DUP2 ADD DUP1 SLOAD PUSH1 0xFF PUSH1 0xA0 SHL NOT AND SWAP1 SSTORE PUSH1 0x1 DUP2 ADD SLOAD PUSH1 0x7 SLOAD PUSH1 0x40 MLOAD PUSH0 DUP1 MLOAD PUSH1 0x20 PUSH2 0x1889 DUP4 CODECOPY DUP2 MLOAD SWAP2 MSTORE SWAP3 PUSH2 0x734 SWAP3 CALLER SWAP3 PUSH2 0x1757 JUMP JUMPDEST PUSH1 0x40 MLOAD DUP1 SWAP2 SUB SWAP1 LOG1 POP PUSH2 0x746 PUSH1 0x1 DUP1 SSTORE JUMP JUMPDEST POP JUMP JUMPDEST PUSH2 0x751 PUSH2 0x1333 JUMP JUMPDEST PUSH2 0x50F PUSH2 0x147C JUMP JUMPDEST PUSH0 SLOAD PUSH1 0x1 PUSH1 0xA0 SHL SWAP1 DIV PUSH1 0xFF AND SWAP1 JUMP JUMPDEST PUSH2 0x770 PUSH2 0x13B3 JUMP JUMPDEST PUSH2 0x778 PUSH2 0x13FB JUMP JUMPDEST PUSH2 0x780 PUSH2 0x1333 JUMP JUMPDEST DUP2 PUSH0 SUB PUSH2 0x7C7 JUMPI PUSH1 0x40 MLOAD PUSH3 0x461BCD PUSH1 0xE5 SHL DUP2 MSTORE PUSH1 0x20 PUSH1 0x4 DUP3 ADD MSTORE PUSH1 0x15 PUSH1 0x24 DUP3 ADD MSTORE PUSH21 0x416D6F756E742063616E6E6F74206265207A65726F PUSH1 0x58 SHL PUSH1 0x44 DUP3 ADD MSTORE PUSH1 0x64 ADD PUSH2 0x55B JUMP JUMPDEST PUSH1 0x1 PUSH1 0x1 PUSH1 0xA0 SHL SUB DUP2 AND PUSH2 0x829 JUMPI PUSH1 0x40 MLOAD PUSH3 0x461BCD PUSH1 0xE5 SHL DUP2 MSTORE PUSH1 0x20 PUSH1 0x4 DUP3 ADD MSTORE PUSH1 0x24 DUP1 DUP3 ADD MSTORE PUSH32 0x455243323020616464726573732063616E6E6F74206265207A65726F20616464 PUSH1 0x44 DUP3 ADD MSTORE PUSH4 0x72657373 PUSH1 0xE0 SHL PUSH1 0x64 DUP3 ADD MSTORE PUSH1 0x84 ADD PUSH2 0x55B JUMP JUMPDEST PUSH1 0x2 DUP1 SLOAD PUSH1 0x1 PUSH1 0x1 PUSH1 0xA0 SHL SUB NOT AND PUSH1 0x1 PUSH1 0x1 PUSH1 0xA0 SHL SUB DUP4 AND SWAP1 DUP2 OR SWAP1 SWAP2 SSTORE PUSH1 0x40 MLOAD PUSH4 0x70A08231 PUSH1 0xE0 SHL DUP2 MSTORE PUSH4 0x70A08231 SWAP1 PUSH2 0x868 SWAP1 ADDRESS SWAP1 PUSH1 0x4 ADD PUSH2 0x15F4 JUMP JUMPDEST PUSH1 0x20 PUSH1 0x40 MLOAD DUP1 DUP4 SUB DUP2 DUP7 GAS STATICCALL ISZERO DUP1 ISZERO PUSH2 0x883 JUMPI RETURNDATASIZE PUSH0 DUP1 RETURNDATACOPY RETURNDATASIZE PUSH0 REVERT JUMPDEST POP POP POP POP PUSH1 0x40 MLOAD RETURNDATASIZE PUSH1 0x1F NOT PUSH1 0x1F DUP3 ADD AND DUP3 ADD DUP1 PUSH1 0x40 MSTORE POP DUP2 ADD SWAP1 PUSH2 0x8A7 SWAP2 SWAP1 PUSH2 0x1778 JUMP JUMPDEST DUP3 GT ISZERO PUSH2 0x8EC JUMPI PUSH1 0x40 MLOAD PUSH3 0x461BCD PUSH1 0xE5 SHL DUP2 MSTORE PUSH1 0x20 PUSH1 0x4 DUP3 ADD MSTORE PUSH1 0x13 PUSH1 0x24 DUP3 ADD MSTORE PUSH19 0x24B739BAB33334B1B4B2B73A10333AB7323997 PUSH1 0x69 SHL PUSH1 0x44 DUP3 ADD MSTORE PUSH1 0x64 ADD PUSH2 0x55B JUMP JUMPDEST PUSH1 0x2 SLOAD PUSH1 0x40 MLOAD PUSH4 0xA9059CBB PUSH1 0xE0 SHL DUP2 MSTORE PUSH1 0x1 PUSH1 0x1 PUSH1 0xA0 SHL SUB SWAP1 SWAP2 AND SWAP1 PUSH4 0xA9059CBB SWAP1 PUSH2 0x91E SWAP1 CALLER SWAP1 DUP7 SWAP1 PUSH1 0x4 ADD PUSH2 0x1558 JUMP JUMPDEST PUSH1 0x20 PUSH1 0x40 MLOAD DUP1 DUP4 SUB DUP2 PUSH0 DUP8 GAS CALL ISZERO DUP1 ISZERO PUSH2 0x93A JUMPI RETURNDATASIZE PUSH0 DUP1 RETURNDATACOPY RETURNDATASIZE PUSH0 REVERT JUMPDEST POP POP POP POP PUSH1 0x40 MLOAD RETURNDATASIZE PUSH1 0x1F NOT PUSH1 0x1F DUP3 ADD AND DUP3 ADD DUP1 PUSH1 0x40 MSTORE POP DUP2 ADD SWAP1 PUSH2 0x95E SWAP2 SWAP1 PUSH2 0x1738 JUMP JUMPDEST POP PUSH2 0x968 PUSH1 0x1 DUP1 SSTORE JUMP JUMPDEST POP POP JUMP JUMPDEST PUSH2 0x974 PUSH2 0x1333 JUMP JUMPDEST PUSH2 0x50F PUSH0 PUSH2 0x14BE JUMP JUMPDEST PUSH0 PUSH1 0x1 JUMPDEST PUSH1 0x4 SLOAD DUP2 GT PUSH2 0x9D6 JUMPI PUSH0 DUP2 DUP2 MSTORE PUSH1 0x9 PUSH1 0x20 MSTORE PUSH1 0x40 SWAP1 KECCAK256 DUP1 SLOAD PUSH1 0x1 PUSH1 0x1 PUSH1 0xA0 SHL SUB DUP7 DUP2 AND SWAP2 AND EQ DUP1 ISZERO PUSH2 0x9B6 JUMPI POP DUP4 DUP2 PUSH1 0x1 ADD SLOAD EQ JUMPDEST ISZERO PUSH2 0x9C3 JUMPI POP SWAP1 POP PUSH2 0x9DB JUMP JUMPDEST POP DUP1 PUSH2 0x9CE DUP2 PUSH2 0x17A3 JUMP JUMPDEST SWAP2 POP POP PUSH2 0x981 JUMP JUMPDEST POP PUSH0 SWAP1 POP JUMPDEST SWAP3 SWAP2 POP POP JUMP JUMPDEST PUSH0 SLOAD PUSH1 0x1 PUSH1 0x1 PUSH1 0xA0 SHL SUB AND SWAP1 JUMP JUMPDEST PUSH2 0x9F7 PUSH2 0x13B3 JUMP JUMPDEST PUSH2 0x9FF PUSH2 0x13FB JUMP JUMPDEST PUSH2 0xA07 PUSH2 0x1333 JUMP JUMPDEST PUSH0 DUP3 DUP2 MSTORE PUSH1 0x9 PUSH1 0x20 MSTORE PUSH1 0x40 SWAP1 KECCAK256 DUP3 ISZERO DUP1 ISZERO SWAP1 PUSH2 0xA25 JUMPI POP PUSH1 0x4 SLOAD DUP4 GT ISZERO JUMPDEST PUSH2 0xA41 JUMPI PUSH1 0x40 MLOAD PUSH3 0x461BCD PUSH1 0xE5 SHL DUP2 MSTORE PUSH1 0x4 ADD PUSH2 0x55B SWAP1 PUSH2 0x16A9 JUMP JUMPDEST PUSH1 0x4 DUP2 ADD SLOAD PUSH1 0x1 PUSH1 0xA0 SHL SWAP1 DIV PUSH1 0xFF AND ISZERO ISZERO PUSH0 SUB PUSH2 0xA70 JUMPI PUSH1 0x40 MLOAD PUSH3 0x461BCD PUSH1 0xE5 SHL DUP2 MSTORE PUSH1 0x4 ADD PUSH2 0x55B SWAP1 PUSH2 0x16D5 JUMP JUMPDEST PUSH1 0x4 DUP2 ADD SLOAD PUSH1 0x1 PUSH1 0x1 PUSH1 0xA0 SHL SUB DUP1 DUP5 AND SWAP2 AND SUB PUSH2 0xA9F JUMPI PUSH1 0x40 MLOAD PUSH3 0x461BCD PUSH1 0xE5 SHL DUP2 MSTORE PUSH1 0x4 ADD PUSH2 0x55B SWAP1 PUSH2 0x1703 JUMP JUMPDEST DUP1 SLOAD PUSH1 0x1 PUSH1 0x1 PUSH1 0xA0 SHL SUB DUP6 DUP2 AND SWAP2 AND EQ PUSH2 0xACB JUMPI PUSH1 0x40 MLOAD PUSH3 0x461BCD PUSH1 0xE5 SHL DUP2 MSTORE PUSH1 0x4 ADD PUSH2 0x55B SWAP1 PUSH2 0x17BB JUMP JUMPDEST PUSH1 0x4 DUP2 ADD DUP1 SLOAD PUSH1 0x1 PUSH1 0x1 PUSH1 0xA8 SHL SUB NOT AND PUSH1 0x1 PUSH1 0x1 PUSH1 0xA0 SHL SUB DUP5 AND OR SWAP1 SSTORE PUSH1 0x1 DUP2 ADD SLOAD PUSH1 0x2 DUP3 ADD SLOAD PUSH1 0x40 MLOAD PUSH32 0xFC2E01EC8C4C53E02EE1FA8816C1692687966E0DAEF195BE5B64C88D8E58E3EE SWAP3 PUSH2 0xB22 SWAP3 DUP7 SWAP3 PUSH2 0x1757 JUMP JUMPDEST PUSH1 0x40 MLOAD DUP1 SWAP2 SUB SWAP1 LOG1 POP PUSH2 0xB34 PUSH1 0x1 DUP1 SSTORE JUMP JUMPDEST POP POP POP JUMP JUMPDEST PUSH0 DUP2 DUP2 MSTORE PUSH1 0x9 PUSH1 0x20 MSTORE PUSH1 0x40 SWAP1 KECCAK256 PUSH1 0x4 ADD SLOAD DUP3 SWAP1 DUP3 SWAP1 PUSH1 0x1 PUSH1 0x1 PUSH1 0xA0 SHL SUB AND CALLER EQ PUSH2 0xB61 JUMPI PUSH0 DUP1 REVERT JUMPDEST PUSH0 DUP2 DUP2 MSTORE PUSH1 0x9 PUSH1 0x20 MSTORE PUSH1 0x40 SWAP1 KECCAK256 SLOAD PUSH1 0x1 PUSH1 0x1 PUSH1 0xA0 SHL SUB DUP4 DUP2 AND SWAP2 AND EQ PUSH2 0xB85 JUMPI PUSH0 DUP1 REVERT JUMPDEST PUSH0 DUP4 DUP2 MSTORE PUSH1 0x9 PUSH1 0x20 MSTORE PUSH1 0x40 SWAP1 KECCAK256 PUSH1 0x4 DUP2 ADD SLOAD PUSH1 0x1 PUSH1 0x1 PUSH1 0xA0 SHL SUB AND CALLER EQ PUSH2 0xBE2 JUMPI PUSH1 0x40 MLOAD PUSH3 0x461BCD PUSH1 0xE5 SHL DUP2 MSTORE PUSH1 0x20 PUSH1 0x4 DUP3 ADD MSTORE PUSH1 0x11 PUSH1 0x24 DUP3 ADD MSTORE PUSH17 0x34B9903737BA103A34329039B2B63632B9 PUSH1 0x79 SHL PUSH1 0x44 DUP3 ADD MSTORE PUSH1 0x64 ADD PUSH2 0x55B JUMP JUMPDEST PUSH1 0x4 DUP2 ADD SLOAD PUSH1 0x1 PUSH1 0xA0 SHL SWAP1 DIV PUSH1 0xFF AND ISZERO ISZERO PUSH1 0x1 EQ PUSH2 0xC34 JUMPI PUSH1 0x40 MLOAD PUSH3 0x461BCD PUSH1 0xE5 SHL DUP2 MSTORE PUSH1 0x20 PUSH1 0x4 DUP3 ADD MSTORE PUSH1 0xF PUSH1 0x24 DUP3 ADD MSTORE PUSH15 0x1A5CC81B9BDD081B1A5CDD195B9959 PUSH1 0x8A SHL PUSH1 0x44 DUP3 ADD MSTORE PUSH1 0x64 ADD PUSH2 0x55B JUMP JUMPDEST PUSH1 0x1 DUP2 ADD SLOAD PUSH1 0x40 MLOAD PUSH4 0x23B872DD PUSH1 0xE0 SHL DUP2 MSTORE PUSH1 0x1 PUSH1 0x1 PUSH1 0xA0 SHL SUB DUP8 AND SWAP2 PUSH4 0x23B872DD SWAP2 PUSH2 0xC68 SWAP2 ADDRESS SWAP2 CALLER SWAP2 SWAP1 PUSH1 0x4 ADD PUSH2 0x1800 JUMP JUMPDEST PUSH0 PUSH1 0x40 MLOAD DUP1 DUP4 SUB DUP2 PUSH0 DUP8 DUP1 EXTCODESIZE ISZERO DUP1 ISZERO PUSH2 0xC7F JUMPI PUSH0 DUP1 REVERT JUMPDEST POP GAS CALL ISZERO DUP1 ISZERO PUSH2 0xC91 JUMPI RETURNDATASIZE PUSH0 DUP1 RETURNDATACOPY RETURNDATASIZE PUSH0 REVERT JUMPDEST POP POP POP POP PUSH1 0x4 ADD DUP1 SLOAD PUSH1 0xFF PUSH1 0xA0 SHL NOT AND SWAP1 SSTORE POP POP POP POP JUMP JUMPDEST PUSH2 0xCB1 PUSH2 0x1333 JUMP JUMPDEST PUSH1 0x5 SSTORE JUMP JUMPDEST PUSH2 0xCBE PUSH2 0x13B3 JUMP JUMPDEST PUSH2 0xCC6 PUSH2 0x13FB JUMP JUMPDEST PUSH0 DUP2 DUP2 MSTORE PUSH1 0x9 PUSH1 0x20 MSTORE PUSH1 0x40 SWAP1 KECCAK256 DUP2 ISZERO DUP1 ISZERO SWAP1 PUSH2 0xCE4 JUMPI POP PUSH1 0x4 SLOAD DUP3 GT ISZERO JUMPDEST PUSH2 0xD00 JUMPI PUSH1 0x40 MLOAD PUSH3 0x461BCD PUSH1 0xE5 SHL DUP2 MSTORE PUSH1 0x4 ADD PUSH2 0x55B SWAP1 PUSH2 0x16A9 JUMP JUMPDEST PUSH1 0x4 DUP2 ADD SLOAD PUSH1 0x1 PUSH1 0xA0 SHL SWAP1 DIV PUSH1 0xFF AND ISZERO ISZERO PUSH0 SUB PUSH2 0xD2F JUMPI PUSH1 0x40 MLOAD PUSH3 0x461BCD PUSH1 0xE5 SHL DUP2 MSTORE PUSH1 0x4 ADD PUSH2 0x55B SWAP1 PUSH2 0x16D5 JUMP JUMPDEST PUSH1 0x4 DUP2 ADD SLOAD CALLER PUSH1 0x1 PUSH1 0x1 PUSH1 0xA0 SHL SUB SWAP1 SWAP2 AND SUB PUSH2 0xD5D JUMPI PUSH1 0x40 MLOAD PUSH3 0x461BCD PUSH1 0xE5 SHL DUP2 MSTORE PUSH1 0x4 ADD PUSH2 0x55B SWAP1 PUSH2 0x1703 JUMP JUMPDEST DUP1 SLOAD PUSH1 0x1 PUSH1 0x1 PUSH1 0xA0 SHL SUB DUP5 DUP2 AND SWAP2 AND EQ PUSH2 0xD89 JUMPI PUSH1 0x40 MLOAD PUSH3 0x461BCD PUSH1 0xE5 SHL DUP2 MSTORE PUSH1 0x4 ADD PUSH2 0x55B SWAP1 PUSH2 0x17BB JUMP JUMPDEST DUP1 PUSH1 0x2 ADD SLOAD CALLVALUE LT ISZERO PUSH2 0xDED JUMPI PUSH1 0x40 MLOAD PUSH3 0x461BCD PUSH1 0xE5 SHL DUP2 MSTORE PUSH1 0x20 PUSH1 0x4 DUP3 ADD MSTORE PUSH1 0x27 PUSH1 0x24 DUP3 ADD MSTORE PUSH32 0x6E6F7420656E6F7567682062616C616E636520666F722074686973207472616E PUSH1 0x44 DUP3 ADD MSTORE PUSH7 0x39B0B1BA34B7B7 PUSH1 0xC9 SHL PUSH1 0x64 DUP3 ADD MSTORE PUSH1 0x84 ADD PUSH2 0x55B JUMP JUMPDEST PUSH1 0x2 DUP2 ADD SLOAD PUSH1 0x8 DUP2 SWAP1 SSTORE PUSH1 0x5 SLOAD PUSH2 0xE0C SWAP2 PUSH2 0x2710 SWAP2 PUSH2 0x5E0 SWAP2 SWAP1 PUSH2 0x1454 JUMP JUMPDEST PUSH1 0x6 DUP2 SWAP1 SSTORE PUSH1 0x8 SLOAD PUSH2 0xE1D SWAP2 PUSH2 0x1471 JUMP JUMPDEST PUSH1 0x7 DUP2 SWAP1 SSTORE PUSH1 0x3 DUP3 ADD SLOAD PUSH1 0x2 DUP1 SLOAD PUSH1 0x1 PUSH1 0x1 PUSH1 0xA0 SHL SUB NOT AND PUSH1 0x1 PUSH1 0x1 PUSH1 0xA0 SHL SUB SWAP3 DUP4 AND SWAP1 DUP2 OR SWAP1 SWAP2 SSTORE PUSH1 0x4 DUP1 DUP6 ADD SLOAD PUSH1 0x40 MLOAD PUSH4 0xA9059CBB PUSH1 0xE0 SHL DUP2 MSTORE SWAP3 SWAP5 PUSH4 0xA9059CBB SWAP5 PUSH2 0xE70 SWAP5 SWAP3 AND SWAP3 SWAP1 SWAP2 ADD PUSH2 0x1558 JUMP JUMPDEST PUSH1 0x20 PUSH1 0x40 MLOAD DUP1 DUP4 SUB DUP2 PUSH0 DUP8 GAS CALL ISZERO DUP1 ISZERO PUSH2 0xE8C JUMPI RETURNDATASIZE PUSH0 DUP1 RETURNDATACOPY RETURNDATASIZE PUSH0 REVERT JUMPDEST POP POP POP POP PUSH1 0x40 MLOAD RETURNDATASIZE PUSH1 0x1F NOT PUSH1 0x1F DUP3 ADD AND DUP3 ADD DUP1 PUSH1 0x40 MSTORE POP DUP2 ADD SWAP1 PUSH2 0xEB0 SWAP2 SWAP1 PUSH2 0x1738 JUMP JUMPDEST POP PUSH1 0x1 DUP2 ADD SLOAD PUSH1 0x40 MLOAD PUSH4 0x23B872DD PUSH1 0xE0 SHL DUP2 MSTORE PUSH1 0x1 PUSH1 0x1 PUSH1 0xA0 SHL SUB DUP6 AND SWAP2 PUSH4 0x23B872DD SWAP2 PUSH2 0xEE5 SWAP2 ADDRESS SWAP2 CALLER SWAP2 SWAP1 PUSH1 0x4 ADD PUSH2 0x1800 JUMP JUMPDEST PUSH0 PUSH1 0x40 MLOAD DUP1 DUP4 SUB DUP2 PUSH0 DUP8 DUP1 EXTCODESIZE ISZERO DUP1 ISZERO PUSH2 0xEFC JUMPI PUSH0 DUP1 REVERT JUMPDEST POP GAS CALL ISZERO DUP1 ISZERO PUSH2 0xF0E JUMPI RETURNDATASIZE PUSH0 DUP1 RETURNDATACOPY RETURNDATASIZE PUSH0 REVERT JUMPDEST POP POP POP POP PUSH1 0x4 DUP2 ADD DUP1 SLOAD PUSH1 0x1 PUSH1 0x1 PUSH1 0xA8 SHL SUB NOT AND CALLER PUSH1 0xFF PUSH1 0xA0 SHL NOT DUP2 AND SWAP2 SWAP1 SWAP2 OR SWAP1 SWAP2 SSTORE PUSH1 0x1 DUP3 ADD SLOAD PUSH1 0x7 SLOAD PUSH1 0x40 MLOAD PUSH0 DUP1 MLOAD PUSH1 0x20 PUSH2 0x1889 DUP4 CODECOPY DUP2 MLOAD SWAP2 MSTORE SWAP4 PUSH2 0xF59 SWAP4 SWAP1 SWAP3 SWAP1 SWAP2 PUSH2 0x1757 JUMP JUMPDEST PUSH1 0x40 MLOAD DUP1 SWAP2 SUB SWAP1 LOG1 POP PUSH2 0x968 PUSH1 0x1 DUP1 SSTORE JUMP JUMPDEST PUSH0 PUSH2 0xF75 PUSH1 0x4 SLOAD SWAP1 JUMP JUMPDEST SWAP1 POP SWAP1 JUMP JUMPDEST PUSH0 DUP1 PUSH1 0x1 JUMPDEST PUSH1 0x4 SLOAD DUP2 GT PUSH2 0x1002 JUMPI PUSH0 DUP2 DUP2 MSTORE PUSH1 0x9 PUSH1 0x20 MSTORE PUSH1 0x40 SWAP1 KECCAK256 SLOAD PUSH1 0x1 PUSH1 0x1 PUSH1 0xA0 SHL SUB DUP7 DUP2 AND SWAP2 AND EQ DUP1 ISZERO PUSH2 0xFBF JUMPI POP PUSH0 DUP2 DUP2 MSTORE PUSH1 0x9 PUSH1 0x20 MSTORE PUSH1 0x40 SWAP1 KECCAK256 PUSH1 0x1 ADD SLOAD DUP5 EQ JUMPDEST DUP1 ISZERO PUSH2 0xFE2 JUMPI POP PUSH0 DUP2 DUP2 MSTORE PUSH1 0x9 PUSH1 0x20 MSTORE PUSH1 0x40 SWAP1 KECCAK256 PUSH1 0x4 ADD SLOAD PUSH1 0x1 PUSH1 0xA0 SHL SWAP1 DIV PUSH1 0xFF AND JUMPDEST ISZERO PUSH2 0xFF0 JUMPI PUSH1 0x1 SWAP2 POP PUSH2 0x1002 JUMP JUMPDEST DUP1 PUSH2 0xFFA DUP2 PUSH2 0x17A3 JUMP JUMPDEST SWAP2 POP POP PUSH2 0xF7F JUMP JUMPDEST DUP2 PUSH2 0x1011 JUMPI PUSH0 SWAP3 POP POP POP PUSH2 0x9DB JUMP JUMPDEST SWAP5 SWAP4 POP POP POP POP JUMP JUMPDEST PUSH1 0x40 MLOAD PUSH4 0x31A9108F PUSH1 0xE1 SHL DUP2 MSTORE PUSH1 0x4 DUP2 ADD DUP5 SWAP1 MSTORE CALLER SWAP1 PUSH1 0x1 PUSH1 0x1 PUSH1 0xA0 SHL SUB DUP7 AND SWAP1 PUSH4 0x6352211E SWAP1 PUSH1 0x24 ADD PUSH1 0x20 PUSH1 0x40 MLOAD DUP1 DUP4 SUB DUP2 DUP7 GAS STATICCALL ISZERO DUP1 ISZERO PUSH2 0x105E JUMPI RETURNDATASIZE PUSH0 DUP1 RETURNDATACOPY RETURNDATASIZE PUSH0 REVERT JUMPDEST POP POP POP POP PUSH1 0x40 MLOAD RETURNDATASIZE PUSH1 0x1F NOT PUSH1 0x1F DUP3 ADD AND DUP3 ADD DUP1 PUSH1 0x40 MSTORE POP DUP2 ADD SWAP1 PUSH2 0x1082 SWAP2 SWAP1 PUSH2 0x1824 JUMP JUMPDEST PUSH1 0x1 PUSH1 0x1 PUSH1 0xA0 SHL SUB AND EQ PUSH2 0x10D0 JUMPI PUSH1 0x40 MLOAD PUSH3 0x461BCD PUSH1 0xE5 SHL DUP2 MSTORE PUSH1 0x20 PUSH1 0x4 DUP3 ADD MSTORE PUSH1 0x15 PUSH1 0x24 DUP3 ADD MSTORE PUSH21 0x2CB7BA9030B932903737BA103A34329037BBB732B9 PUSH1 0x59 SHL PUSH1 0x44 DUP3 ADD MSTORE PUSH1 0x64 ADD PUSH2 0x55B JUMP JUMPDEST PUSH0 DUP3 GT PUSH2 0x112F JUMPI PUSH1 0x40 MLOAD PUSH3 0x461BCD PUSH1 0xE5 SHL DUP2 MSTORE PUSH1 0x20 PUSH1 0x4 DUP3 ADD MSTORE PUSH1 0x27 PUSH1 0x24 DUP3 ADD MSTORE PUSH32 0x4E46544D61726B65743A207072696365206D7573742062652067726561746572 PUSH1 0x44 DUP3 ADD MSTORE PUSH7 0x207468616E203 PUSH1 0xCC SHL PUSH1 0x64 DUP3 ADD MSTORE PUSH1 0x84 ADD PUSH2 0x55B JUMP JUMPDEST PUSH2 0x113D PUSH1 0x4 DUP1 SLOAD PUSH1 0x1 ADD SWAP1 SSTORE JUMP JUMPDEST PUSH1 0x40 MLOAD DUP1 PUSH1 0xC0 ADD PUSH1 0x40 MSTORE DUP1 DUP6 PUSH1 0x1 PUSH1 0x1 PUSH1 0xA0 SHL SUB AND DUP2 MSTORE PUSH1 0x20 ADD DUP5 DUP2 MSTORE PUSH1 0x20 ADD DUP4 DUP2 MSTORE PUSH1 0x20 ADD DUP3 PUSH1 0x1 PUSH1 0x1 PUSH1 0xA0 SHL SUB AND DUP2 MSTORE PUSH1 0x20 ADD CALLER PUSH1 0x1 PUSH1 0x1 PUSH1 0xA0 SHL SUB AND DUP2 MSTORE PUSH1 0x20 ADD PUSH0 ISZERO ISZERO DUP2 MSTORE POP PUSH1 0x9 PUSH0 PUSH2 0x1193 PUSH1 0x4 SLOAD SWAP1 JUMP JUMPDEST DUP2 MSTORE PUSH1 0x20 DUP1 DUP3 ADD SWAP3 SWAP1 SWAP3 MSTORE PUSH1 0x40 SWAP1 DUP2 ADD PUSH0 SWAP1 DUP2 KECCAK256 DUP5 MLOAD DUP2 SLOAD PUSH1 0x1 PUSH1 0x1 PUSH1 0xA0 SHL SUB SWAP2 DUP3 AND PUSH1 0x1 PUSH1 0x1 PUSH1 0xA0 SHL SUB NOT SWAP2 DUP3 AND OR DUP4 SSTORE SWAP5 DUP7 ADD MLOAD PUSH1 0x1 DUP4 ADD SSTORE SWAP3 DUP6 ADD MLOAD PUSH1 0x2 DUP3 ADD SSTORE PUSH1 0x60 DUP6 ADD MLOAD PUSH1 0x3 DUP3 ADD DUP1 SLOAD SWAP2 DUP6 AND SWAP2 SWAP1 SWAP6 AND OR SWAP1 SWAP4 SSTORE PUSH1 0x80 DUP5 ADD MLOAD PUSH1 0x4 SWAP4 DUP5 ADD DUP1 SLOAD PUSH1 0xA0 SWAP1 SWAP7 ADD MLOAD ISZERO ISZERO PUSH1 0x1 PUSH1 0xA0 SHL MUL PUSH1 0x1 PUSH1 0x1 PUSH1 0xA8 SHL SUB NOT SWAP1 SWAP7 AND SWAP2 SWAP1 SWAP4 AND OR SWAP4 SWAP1 SWAP4 OR SWAP1 SSTORE PUSH1 0x9 SWAP1 DUP3 SWAP1 PUSH2 0x122B SWAP1 SLOAD SWAP1 JUMP JUMPDEST DUP2 MSTORE PUSH1 0x20 ADD SWAP1 DUP2 MSTORE PUSH1 0x20 ADD PUSH0 KECCAK256 SWAP1 POP DUP5 PUSH1 0x1 PUSH1 0x1 PUSH1 0xA0 SHL SUB AND PUSH4 0x23B872DD CALLER ADDRESS DUP8 PUSH1 0x40 MLOAD DUP5 PUSH4 0xFFFFFFFF AND PUSH1 0xE0 SHL DUP2 MSTORE PUSH1 0x4 ADD PUSH2 0x126A SWAP4 SWAP3 SWAP2 SWAP1 PUSH2 0x1800 JUMP JUMPDEST PUSH0 PUSH1 0x40 MLOAD DUP1 DUP4 SUB DUP2 PUSH0 DUP8 DUP1 EXTCODESIZE ISZERO DUP1 ISZERO PUSH2 0x1281 JUMPI PUSH0 DUP1 REVERT JUMPDEST POP GAS CALL ISZERO DUP1 ISZERO PUSH2 0x1293 JUMPI RETURNDATASIZE PUSH0 DUP1 RETURNDATACOPY RETURNDATASIZE PUSH0 REVERT JUMPDEST POP POP POP PUSH1 0x4 DUP1 DUP4 ADD DUP1 SLOAD PUSH1 0xFF PUSH1 0xA0 SHL NOT AND PUSH1 0x1 PUSH1 0xA0 SHL OR SWAP1 SSTORE PUSH32 0x21149A5778DDC1AFCA837B00FD70C0FC0A6D1D25D1BD15BFF4A84BAB1EEB9A92 SWAP2 POP CALLER SWAP1 DUP7 SWAP1 PUSH2 0x12DB SWAP1 SLOAD SWAP1 JUMP JUMPDEST PUSH1 0x40 MLOAD PUSH2 0x12EA SWAP4 SWAP3 SWAP2 SWAP1 PUSH2 0x1757 JUMP JUMPDEST PUSH1 0x40 MLOAD DUP1 SWAP2 SUB SWAP1 LOG1 POP POP POP POP POP JUMP JUMPDEST PUSH2 0x1301 PUSH2 0x1333 JUMP JUMPDEST PUSH1 0x1 PUSH1 0x1 PUSH1 0xA0 SHL SUB DUP2 AND PUSH2 0x132A JUMPI PUSH0 PUSH1 0x40 MLOAD PUSH4 0x1E4FBDF7 PUSH1 0xE0 SHL DUP2 MSTORE PUSH1 0x4 ADD PUSH2 0x55B SWAP2 SWAP1 PUSH2 0x15F4 JUMP JUMPDEST PUSH2 0x746 DUP2 PUSH2 0x14BE JUMP JUMPDEST CALLER PUSH2 0x133C PUSH2 0x9E1 JUMP JUMPDEST PUSH1 0x1 PUSH1 0x1 PUSH1 0xA0 SHL SUB AND EQ PUSH2 0x50F JUMPI CALLER PUSH1 0x40 MLOAD PUSH4 0x118CDAA7 PUSH1 0xE0 SHL DUP2 MSTORE PUSH1 0x4 ADD PUSH2 0x55B SWAP2 SWAP1 PUSH2 0x15F4 JUMP JUMPDEST PUSH2 0x136D PUSH2 0x150D JUMP JUMPDEST PUSH0 DUP1 SLOAD PUSH1 0xFF PUSH1 0xA0 SHL NOT AND SWAP1 SSTORE PUSH32 0x5DB9EE0A495BF2E6FF9C91A7834C1BA4FDD244A5E8AA4E537BD38AEAE4B073AA CALLER JUMPDEST PUSH1 0x40 MLOAD PUSH2 0x13A9 SWAP2 SWAP1 PUSH2 0x15F4 JUMP JUMPDEST PUSH1 0x40 MLOAD DUP1 SWAP2 SUB SWAP1 LOG1 JUMP JUMPDEST PUSH2 0x13BB PUSH2 0x759 JUMP JUMPDEST ISZERO PUSH2 0x50F JUMPI PUSH1 0x40 MLOAD PUSH3 0x461BCD PUSH1 0xE5 SHL DUP2 MSTORE PUSH1 0x20 PUSH1 0x4 DUP3 ADD MSTORE PUSH1 0x10 PUSH1 0x24 DUP3 ADD MSTORE PUSH16 0x14185D5CD8589B194E881C185D5CD959 PUSH1 0x82 SHL PUSH1 0x44 DUP3 ADD MSTORE PUSH1 0x64 ADD PUSH2 0x55B JUMP JUMPDEST PUSH1 0x2 PUSH1 0x1 SLOAD SUB PUSH2 0x144D JUMPI PUSH1 0x40 MLOAD PUSH3 0x461BCD PUSH1 0xE5 SHL DUP2 MSTORE PUSH1 0x20 PUSH1 0x4 DUP3 ADD MSTORE PUSH1 0x1F PUSH1 0x24 DUP3 ADD MSTORE PUSH32 0x5265656E7472616E637947756172643A207265656E7472616E742063616C6C00 PUSH1 0x44 DUP3 ADD MSTORE PUSH1 0x64 ADD PUSH2 0x55B JUMP JUMPDEST PUSH1 0x2 PUSH1 0x1 SSTORE JUMP JUMPDEST PUSH0 PUSH2 0x145F DUP3 DUP5 PUSH2 0x183F JUMP JUMPDEST SWAP4 SWAP3 POP POP POP JUMP JUMPDEST PUSH0 PUSH2 0x145F DUP3 DUP5 PUSH2 0x1856 JUMP JUMPDEST PUSH0 PUSH2 0x145F DUP3 DUP5 PUSH2 0x1875 JUMP JUMPDEST PUSH2 0x1484 PUSH2 0x13B3 JUMP JUMPDEST PUSH0 DUP1 SLOAD PUSH1 0xFF PUSH1 0xA0 SHL NOT AND PUSH1 0x1 PUSH1 0xA0 SHL OR SWAP1 SSTORE PUSH32 0x62E78CEA01BEE320CD4E420270B5EA74000D11B0C9F74754EBDBFC544B05A258 PUSH2 0x139C CALLER SWAP1 JUMP JUMPDEST PUSH0 DUP1 SLOAD PUSH1 0x1 PUSH1 0x1 PUSH1 0xA0 SHL SUB DUP4 DUP2 AND PUSH1 0x1 PUSH1 0x1 PUSH1 0xA0 SHL SUB NOT DUP4 AND DUP2 OR DUP5 SSTORE PUSH1 0x40 MLOAD SWAP2 SWAP1 SWAP3 AND SWAP3 DUP4 SWAP2 PUSH32 0x8BE0079C531659141344CD1FD0A4F28419497F9722A3DAAFE3B4186F6B6457E0 SWAP2 SWAP1 LOG3 POP POP JUMP JUMPDEST PUSH2 0x1515 PUSH2 0x759 JUMP JUMPDEST PUSH2 0x50F JUMPI PUSH1 0x40 MLOAD PUSH3 0x461BCD PUSH1 0xE5 SHL DUP2 MSTORE PUSH1 0x20 PUSH1 0x4 DUP3 ADD MSTORE PUSH1 0x14 PUSH1 0x24 DUP3 ADD MSTORE PUSH20 0x14185D5CD8589B194E881B9BDD081C185D5CD959 PUSH1 0x62 SHL PUSH1 0x44 DUP3 ADD MSTORE PUSH1 0x64 ADD PUSH2 0x55B JUMP JUMPDEST PUSH1 0x1 PUSH1 0x1 PUSH1 0xA0 SHL SUB SWAP3 SWAP1 SWAP3 AND DUP3 MSTORE PUSH1 0x20 DUP3 ADD MSTORE PUSH1 0x40 ADD SWAP1 JUMP JUMPDEST PUSH0 PUSH1 0x20 DUP3 DUP5 SUB SLT ISZERO PUSH2 0x1581 JUMPI PUSH0 DUP1 REVERT JUMPDEST POP CALLDATALOAD SWAP2 SWAP1 POP JUMP JUMPDEST PUSH1 0x1 PUSH1 0x1 PUSH1 0xA0 SHL SUB DUP2 AND DUP2 EQ PUSH2 0x746 JUMPI PUSH0 DUP1 REVERT JUMPDEST PUSH0 DUP1 PUSH1 0x40 DUP4 DUP6 SUB SLT ISZERO PUSH2 0x15AD JUMPI PUSH0 DUP1 REVERT JUMPDEST DUP3 CALLDATALOAD SWAP2 POP PUSH1 0x20 DUP4 ADD CALLDATALOAD PUSH2 0x15BF DUP2 PUSH2 0x1588 JUMP JUMPDEST DUP1 SWAP2 POP POP SWAP3 POP SWAP3 SWAP1 POP JUMP JUMPDEST PUSH0 DUP1 PUSH1 0x40 DUP4 DUP6 SUB SLT ISZERO PUSH2 0x15DB JUMPI PUSH0 DUP1 REVERT JUMPDEST DUP3 CALLDATALOAD PUSH2 0x15E6 DUP2 PUSH2 0x1588 JUMP JUMPDEST SWAP5 PUSH1 0x20 SWAP4 SWAP1 SWAP4 ADD CALLDATALOAD SWAP4 POP POP POP JUMP JUMPDEST PUSH1 0x1 PUSH1 0x1 PUSH1 0xA0 SHL SUB SWAP2 SWAP1 SWAP2 AND DUP2 MSTORE PUSH1 0x20 ADD SWAP1 JUMP JUMPDEST PUSH0 DUP1 PUSH0 PUSH1 0x60 DUP5 DUP7 SUB SLT ISZERO PUSH2 0x161A JUMPI PUSH0 DUP1 REVERT JUMPDEST DUP4 CALLDATALOAD PUSH2 0x1625 DUP2 PUSH2 0x1588 JUMP JUMPDEST SWAP3 POP PUSH1 0x20 DUP5 ADD CALLDATALOAD SWAP2 POP PUSH1 0x40 DUP5 ADD CALLDATALOAD PUSH2 0x163C DUP2 PUSH2 0x1588 JUMP JUMPDEST DUP1 SWAP2 POP POP SWAP3 POP SWAP3 POP SWAP3 JUMP JUMPDEST PUSH0 DUP1 PUSH0 DUP1 PUSH1 0x80 DUP6 DUP8 SUB SLT ISZERO PUSH2 0x165A JUMPI PUSH0 DUP1 REVERT JUMPDEST DUP5 CALLDATALOAD PUSH2 0x1665 DUP2 PUSH2 0x1588 JUMP JUMPDEST SWAP4 POP PUSH1 0x20 DUP6 ADD CALLDATALOAD SWAP3 POP PUSH1 0x40 DUP6 ADD CALLDATALOAD SWAP2 POP PUSH1 0x60 DUP6 ADD CALLDATALOAD PUSH2 0x1683 DUP2 PUSH2 0x1588 JUMP JUMPDEST SWAP4 SWAP7 SWAP3 SWAP6 POP SWAP1 SWAP4 POP POP JUMP JUMPDEST PUSH0 PUSH1 0x20 DUP3 DUP5 SUB SLT ISZERO PUSH2 0x169E JUMPI PUSH0 DUP1 REVERT JUMPDEST DUP2 CALLDATALOAD PUSH2 0x145F DUP2 PUSH2 0x1588 JUMP JUMPDEST PUSH1 0x20 DUP1 DUP3 MSTORE PUSH1 0x12 SWAP1 DUP3 ADD MSTORE PUSH18 0x1A5D195B48191BD95CDB89DD08195E1A5CDD PUSH1 0x72 SHL PUSH1 0x40 DUP3 ADD MSTORE PUSH1 0x60 ADD SWAP1 JUMP JUMPDEST PUSH1 0x20 DUP1 DUP3 MSTORE PUSH1 0x14 SWAP1 DUP3 ADD MSTORE PUSH20 0x1A5D195B481A5CC81B9BDD08199BDC881CD95B1B PUSH1 0x62 SHL PUSH1 0x40 DUP3 ADD MSTORE PUSH1 0x60 ADD SWAP1 JUMP JUMPDEST PUSH1 0x20 DUP1 DUP3 MSTORE PUSH1 0x1B SWAP1 DUP3 ADD MSTORE PUSH27 0x165BDD4818D85B9B9BDD08189D5E481E5BDD5C881BDDDB881B999D PUSH1 0x2A SHL PUSH1 0x40 DUP3 ADD MSTORE PUSH1 0x60 ADD SWAP1 JUMP JUMPDEST PUSH0 PUSH1 0x20 DUP3 DUP5 SUB SLT ISZERO PUSH2 0x1748 JUMPI PUSH0 DUP1 REVERT JUMPDEST DUP2 MLOAD DUP1 ISZERO ISZERO DUP2 EQ PUSH2 0x145F JUMPI PUSH0 DUP1 REVERT JUMPDEST PUSH1 0x1 PUSH1 0x1 PUSH1 0xA0 SHL SUB SWAP4 SWAP1 SWAP4 AND DUP4 MSTORE PUSH1 0x20 DUP4 ADD SWAP2 SWAP1 SWAP2 MSTORE PUSH1 0x40 DUP3 ADD MSTORE PUSH1 0x60 ADD SWAP1 JUMP JUMPDEST PUSH0 PUSH1 0x20 DUP3 DUP5 SUB SLT ISZERO PUSH2 0x1788 JUMPI PUSH0 DUP1 REVERT JUMPDEST POP MLOAD SWAP2 SWAP1 POP JUMP JUMPDEST PUSH4 0x4E487B71 PUSH1 0xE0 SHL PUSH0 MSTORE PUSH1 0x11 PUSH1 0x4 MSTORE PUSH1 0x24 PUSH0 REVERT JUMPDEST PUSH0 PUSH1 0x1 DUP3 ADD PUSH2 0x17B4 JUMPI PUSH2 0x17B4 PUSH2 0x178F JUMP JUMPDEST POP PUSH1 0x1 ADD SWAP1 JUMP JUMPDEST PUSH1 0x20 DUP1 DUP3 MSTORE PUSH1 0x25 SWAP1 DUP3 ADD MSTORE PUSH32 0x6974656D206973206E6F74207468652073616D6520636F6E7472616374206164 PUSH1 0x40 DUP3 ADD MSTORE PUSH5 0x6472657373 PUSH1 0xD8 SHL PUSH1 0x60 DUP3 ADD MSTORE PUSH1 0x80 ADD SWAP1 JUMP JUMPDEST PUSH1 0x1 PUSH1 0x1 PUSH1 0xA0 SHL SUB SWAP4 DUP5 AND DUP2 MSTORE SWAP2 SWAP1 SWAP3 AND PUSH1 0x20 DUP3 ADD MSTORE PUSH1 0x40 DUP2 ADD SWAP2 SWAP1 SWAP2 MSTORE PUSH1 0x60 ADD SWAP1 JUMP JUMPDEST PUSH0 PUSH1 0x20 DUP3 DUP5 SUB SLT ISZERO PUSH2 0x1834 JUMPI PUSH0 DUP1 REVERT JUMPDEST DUP2 MLOAD PUSH2 0x145F DUP2 PUSH2 0x1588 JUMP JUMPDEST DUP1 DUP3 MUL DUP2 ISZERO DUP3 DUP3 DIV DUP5 EQ OR PUSH2 0x9DB JUMPI PUSH2 0x9DB PUSH2 0x178F JUMP JUMPDEST PUSH0 DUP3 PUSH2 0x1870 JUMPI PUSH4 0x4E487B71 PUSH1 0xE0 SHL PUSH0 MSTORE PUSH1 0x12 PUSH1 0x4 MSTORE PUSH1 0x24 PUSH0 REVERT JUMPDEST POP DIV SWAP1 JUMP JUMPDEST DUP2 DUP2 SUB DUP2 DUP2 GT ISZERO PUSH2 0x9DB JUMPI PUSH2 0x9DB PUSH2 0x178F JUMP INVALID 0xC0 PUSH26 0xEB4899023169BE51DD7074A99A15959464F9A0E6B19767D8D61 MSTORE8 SWAP12 DUP8 0x26 LOG2 PUSH5 0x6970667358 0x22 SLT KECCAK256 0x27 RETURN RETURNDATACOPY EXTCODEHASH 0x5D SWAP3 PUSH2 0x3E77 0x5D 0xD3 0xC4 EXP SWAP6 CODESIZE PUSH26 0xEC884C2FB06E222FF5DFA9036032143E64736F6C634300081600 CALLER "
				},
				"gasEstimates": {
					"creation": {
						"codeDepositCost": "1273200",
						"executionCost": "infinite",
						"totalCost": "infinite"
					},
					"external": {
						"ERC20()": "2668",
						"ERCNFT()": "2756",
						"buyNFT(address,uint256)": "infinite",
						"cancel(address,uint256)": "infinite",
						"getAllIdListed(address,uint256)": "infinite",
						"getComissionPercentage()": "2368",
						"getIdListed(address,uint256)": "infinite",
						"getListinglength()": "2614",
						"getNFTListing(uint256)": "11416",
						"listNFT(address,uint256,uint256,address)": "infinite",
						"listings(uint256)": "11472",
						"owner()": "2544",
						"pauseMarketplace()": "infinite",
						"paused()": "2400",
						"renounceOwnership()": "infinite",
						"transferNFT(uint256)": "infinite",
						"transferOrWithdraw(uint256,address)": "infinite",
						"transferOwnership(address)": "infinite",
						"unpauseMarketplace()": "infinite",
						"updateComissionPercentage(uint256)": "24772",
						"updateNFT(address,uint256,address)": "infinite"
					}
				},
				"methodIdentifiers": {
					"ERC20()": "cc4aa204",
					"ERCNFT()": "df706cbc",
					"buyNFT(address,uint256)": "a82ba76f",
					"cancel(address,uint256)": "98590ef9",
					"getAllIdListed(address,uint256)": "8699fdf4",
					"getComissionPercentage()": "65a19c20",
					"getIdListed(address,uint256)": "cf02976f",
					"getListinglength()": "c85d5262",
					"getNFTListing(uint256)": "0ea59c4b",
					"listNFT(address,uint256,uint256,address)": "d68cdc52",
					"listings(uint256)": "de74e57b",
					"owner()": "8da5cb5b",
					"pauseMarketplace()": "3ec62279",
					"paused()": "5c975abb",
					"renounceOwnership()": "715018a6",
					"transferNFT(uint256)": "249e10c5",
					"transferOrWithdraw(uint256,address)": "6ee4c120",
					"transferOwnership(address)": "f2fde38b",
					"unpauseMarketplace()": "21f67fbb",
					"updateComissionPercentage(uint256)": "9cefe029",
					"updateNFT(address,uint256,address)": "925a9953"
				}
			},
			"storageLayout": {
				"storage": [
					{
						"astId": 8,
						"contract": "contracts/Marketplace.sol:GBMarketplace",
						"label": "_owner",
						"offset": 0,
						"slot": "0",
						"type": "t_address"
					},
					{
						"astId": 302,
						"contract": "contracts/Marketplace.sol:GBMarketplace",
						"label": "_paused",
						"offset": 20,
						"slot": "0",
						"type": "t_bool"
					},
					{
						"astId": 403,
						"contract": "contracts/Marketplace.sol:GBMarketplace",
						"label": "_status",
						"offset": 0,
						"slot": "1",
						"type": "t_uint256"
					},
					{
						"astId": 4162,
						"contract": "contracts/Marketplace.sol:GBMarketplace",
						"label": "ERC20",
						"offset": 0,
						"slot": "2",
						"type": "t_contract(IERC20)535"
					},
					{
						"astId": 4165,
						"contract": "contracts/Marketplace.sol:GBMarketplace",
						"label": "ERCNFT",
						"offset": 0,
						"slot": "3",
						"type": "t_contract(IERC721)1987"
					},
					{
						"astId": 4172,
						"contract": "contracts/Marketplace.sol:GBMarketplace",
						"label": "numOfListing",
						"offset": 0,
						"slot": "4",
						"type": "t_struct(Counter)2314_storage"
					},
					{
						"astId": 4178,
						"contract": "contracts/Marketplace.sol:GBMarketplace",
						"label": "commissionPercentage",
						"offset": 0,
						"slot": "5",
						"type": "t_uint256"
					},
					{
						"astId": 4180,
						"contract": "contracts/Marketplace.sol:GBMarketplace",
						"label": "comissionAmount",
						"offset": 0,
						"slot": "6",
						"type": "t_uint256"
					},
					{
						"astId": 4182,
						"contract": "contracts/Marketplace.sol:GBMarketplace",
						"label": "sellerAmount",
						"offset": 0,
						"slot": "7",
						"type": "t_uint256"
					},
					{
						"astId": 4184,
						"contract": "contracts/Marketplace.sol:GBMarketplace",
						"label": "amountListed",
						"offset": 0,
						"slot": "8",
						"type": "t_uint256"
					},
					{
						"astId": 4241,
						"contract": "contracts/Marketplace.sol:GBMarketplace",
						"label": "listings",
						"offset": 0,
						"slot": "9",
						"type": "t_mapping(t_uint256,t_struct(NFTListing)4198_storage)"
					}
				],
				"types": {
					"t_address": {
						"encoding": "inplace",
						"label": "address",
						"numberOfBytes": "20"
					},
					"t_bool": {
						"encoding": "inplace",
						"label": "bool",
						"numberOfBytes": "1"
					},
					"t_contract(ERC721)1870": {
						"encoding": "inplace",
						"label": "contract ERC721",
						"numberOfBytes": "20"
					},
					"t_contract(IERC20)535": {
						"encoding": "inplace",
						"label": "contract IERC20",
						"numberOfBytes": "20"
					},
					"t_contract(IERC721)1987": {
						"encoding": "inplace",
						"label": "contract IERC721",
						"numberOfBytes": "20"
					},
					"t_mapping(t_uint256,t_struct(NFTListing)4198_storage)": {
						"encoding": "mapping",
						"key": "t_uint256",
						"label": "mapping(uint256 => struct GBMarketplace.NFTListing)",
						"numberOfBytes": "32",
						"value": "t_struct(NFTListing)4198_storage"
					},
					"t_struct(Counter)2314_storage": {
						"encoding": "inplace",
						"label": "struct Counters.Counter",
						"members": [
							{
								"astId": 2313,
								"contract": "contracts/Marketplace.sol:GBMarketplace",
								"label": "_value",
								"offset": 0,
								"slot": "0",
								"type": "t_uint256"
							}
						],
						"numberOfBytes": "32"
					},
					"t_struct(NFTListing)4198_storage": {
						"encoding": "inplace",
						"label": "struct GBMarketplace.NFTListing",
						"members": [
							{
								"astId": 4187,
								"contract": "contracts/Marketplace.sol:GBMarketplace",
								"label": "nft",
								"offset": 0,
								"slot": "0",
								"type": "t_contract(ERC721)1870"
							},
							{
								"astId": 4189,
								"contract": "contracts/Marketplace.sol:GBMarketplace",
								"label": "tokenId",
								"offset": 0,
								"slot": "1",
								"type": "t_uint256"
							},
							{
								"astId": 4191,
								"contract": "contracts/Marketplace.sol:GBMarketplace",
								"label": "price",
								"offset": 0,
								"slot": "2",
								"type": "t_uint256"
							},
							{
								"astId": 4193,
								"contract": "contracts/Marketplace.sol:GBMarketplace",
								"label": "coin",
								"offset": 0,
								"slot": "3",
								"type": "t_address"
							},
							{
								"astId": 4195,
								"contract": "contracts/Marketplace.sol:GBMarketplace",
								"label": "seller",
								"offset": 0,
								"slot": "4",
								"type": "t_address"
							},
							{
								"astId": 4197,
								"contract": "contracts/Marketplace.sol:GBMarketplace",
								"label": "forSale",
								"offset": 20,
								"slot": "4",
								"type": "t_bool"
							}
						],
						"numberOfBytes": "160"
					},
					"t_uint256": {
						"encoding": "inplace",
						"label": "uint256",
						"numberOfBytes": "32"
					}
				}
			},
			"userdoc": {
				"kind": "user",
				"methods": {},
				"version": 1
			}
		}
	}
}