{
	"contracts/Marketplace.sol": {
		"GBMarketplace": {
			"abi": [
				{
					"inputs": [
						{
							"internalType": "address",
							"name": "initialOwner",
							"type": "address"
						}
					],
					"stateMutability": "nonpayable",
					"type": "constructor"
				},
				{
					"inputs": [
						{
							"internalType": "address",
							"name": "owner",
							"type": "address"
						}
					],
					"name": "OwnableInvalidOwner",
					"type": "error"
				},
				{
					"inputs": [
						{
							"internalType": "address",
							"name": "account",
							"type": "address"
						}
					],
					"name": "OwnableUnauthorizedAccount",
					"type": "error"
				},
				{
					"anonymous": false,
					"inputs": [
						{
							"indexed": false,
							"internalType": "address",
							"name": "sender",
							"type": "address"
						},
						{
							"indexed": false,
							"internalType": "uint256",
							"name": "amount",
							"type": "uint256"
						}
					],
					"name": "Deposit",
					"type": "event"
				},
				{
					"anonymous": false,
					"inputs": [
						{
							"indexed": false,
							"internalType": "address",
							"name": "_buyer",
							"type": "address"
						},
						{
							"indexed": false,
							"internalType": "uint256",
							"name": "_tokenId",
							"type": "uint256"
						},
						{
							"indexed": false,
							"internalType": "uint256",
							"name": "_price",
							"type": "uint256"
						}
					],
					"name": "NftBuy",
					"type": "event"
				},
				{
					"anonymous": false,
					"inputs": [
						{
							"indexed": false,
							"internalType": "address",
							"name": "_seller",
							"type": "address"
						},
						{
							"indexed": false,
							"internalType": "uint256",
							"name": "_tokenId",
							"type": "uint256"
						},
						{
							"indexed": false,
							"internalType": "uint256",
							"name": "_id",
							"type": "uint256"
						}
					],
					"name": "NftList",
					"type": "event"
				},
				{
					"anonymous": false,
					"inputs": [
						{
							"indexed": true,
							"internalType": "address",
							"name": "previousOwner",
							"type": "address"
						},
						{
							"indexed": true,
							"internalType": "address",
							"name": "newOwner",
							"type": "address"
						}
					],
					"name": "OwnershipTransferred",
					"type": "event"
				},
				{
					"anonymous": false,
					"inputs": [
						{
							"indexed": false,
							"internalType": "address",
							"name": "account",
							"type": "address"
						}
					],
					"name": "Paused",
					"type": "event"
				},
				{
					"anonymous": false,
					"inputs": [
						{
							"indexed": false,
							"internalType": "address",
							"name": "account",
							"type": "address"
						}
					],
					"name": "Unpaused",
					"type": "event"
				},
				{
					"anonymous": false,
					"inputs": [
						{
							"indexed": false,
							"internalType": "address",
							"name": "_buyer",
							"type": "address"
						},
						{
							"indexed": false,
							"internalType": "uint256",
							"name": "_tokenId",
							"type": "uint256"
						},
						{
							"indexed": false,
							"internalType": "uint256",
							"name": "_price",
							"type": "uint256"
						}
					],
					"name": "transferToBuyer",
					"type": "event"
				},
				{
					"anonymous": false,
					"inputs": [
						{
							"indexed": false,
							"internalType": "address",
							"name": "_buyer",
							"type": "address"
						},
						{
							"indexed": false,
							"internalType": "uint256",
							"name": "_tokenId",
							"type": "uint256"
						},
						{
							"indexed": false,
							"internalType": "uint256",
							"name": "_price",
							"type": "uint256"
						}
					],
					"name": "updateToBuyer",
					"type": "event"
				},
				{
					"inputs": [],
					"name": "ERC20",
					"outputs": [
						{
							"internalType": "contract IERC20",
							"name": "",
							"type": "address"
						}
					],
					"stateMutability": "view",
					"type": "function"
				},
				{
					"inputs": [],
					"name": "ERCNFT",
					"outputs": [
						{
							"internalType": "contract IERC721",
							"name": "",
							"type": "address"
						}
					],
					"stateMutability": "view",
					"type": "function"
				},
				{
					"inputs": [
						{
							"internalType": "contract ERC721",
							"name": "_nft",
							"type": "address"
						},
						{
							"internalType": "uint256",
							"name": "_Id",
							"type": "uint256"
						}
					],
					"name": "buyNFT",
					"outputs": [],
					"stateMutability": "payable",
					"type": "function"
				},
				{
					"inputs": [
						{
							"internalType": "contract ERC721",
							"name": "_nft",
							"type": "address"
						},
						{
							"internalType": "uint256",
							"name": "_Id",
							"type": "uint256"
						}
					],
					"name": "cancel",
					"outputs": [],
					"stateMutability": "payable",
					"type": "function"
				},
				{
					"inputs": [
						{
							"internalType": "contract ERC721",
							"name": "_nft",
							"type": "address"
						},
						{
							"internalType": "uint256",
							"name": "_tokenId",
							"type": "uint256"
						}
					],
					"name": "getAllIdListed",
					"outputs": [
						{
							"internalType": "uint256",
							"name": "",
							"type": "uint256"
						}
					],
					"stateMutability": "view",
					"type": "function"
				},
				{
					"inputs": [],
					"name": "getComissionPercentage",
					"outputs": [
						{
							"internalType": "uint256",
							"name": "",
							"type": "uint256"
						}
					],
					"stateMutability": "view",
					"type": "function"
				},
				{
					"inputs": [
						{
							"internalType": "contract ERC721",
							"name": "_nft",
							"type": "address"
						},
						{
							"internalType": "uint256",
							"name": "_tokenId",
							"type": "uint256"
						}
					],
					"name": "getIdListed",
					"outputs": [
						{
							"internalType": "uint256",
							"name": "",
							"type": "uint256"
						}
					],
					"stateMutability": "view",
					"type": "function"
				},
				{
					"inputs": [],
					"name": "getListinglength",
					"outputs": [
						{
							"internalType": "uint256",
							"name": "",
							"type": "uint256"
						}
					],
					"stateMutability": "view",
					"type": "function"
				},
				{
					"inputs": [
						{
							"internalType": "uint256",
							"name": "_Id",
							"type": "uint256"
						}
					],
					"name": "getNFTListing",
					"outputs": [
						{
							"components": [
								{
									"internalType": "contract ERC721",
									"name": "nft",
									"type": "address"
								},
								{
									"internalType": "uint256",
									"name": "tokenId",
									"type": "uint256"
								},
								{
									"internalType": "uint256",
									"name": "price",
									"type": "uint256"
								},
								{
									"internalType": "address",
									"name": "coin",
									"type": "address"
								},
								{
									"internalType": "address",
									"name": "seller",
									"type": "address"
								},
								{
									"internalType": "bool",
									"name": "forSale",
									"type": "bool"
								}
							],
							"internalType": "struct GBMarketplace.NFTListing",
							"name": "",
							"type": "tuple"
						}
					],
					"stateMutability": "view",
					"type": "function"
				},
				{
					"inputs": [
						{
							"internalType": "contract ERC721",
							"name": "_nft",
							"type": "address"
						},
						{
							"internalType": "uint256",
							"name": "_tokenId",
							"type": "uint256"
						},
						{
							"internalType": "uint256",
							"name": "_price",
							"type": "uint256"
						},
						{
							"internalType": "address",
							"name": "_coin",
							"type": "address"
						}
					],
					"name": "listNFT",
					"outputs": [],
					"stateMutability": "payable",
					"type": "function"
				},
				{
					"inputs": [
						{
							"internalType": "uint256",
							"name": "",
							"type": "uint256"
						}
					],
					"name": "listings",
					"outputs": [
						{
							"internalType": "contract ERC721",
							"name": "nft",
							"type": "address"
						},
						{
							"internalType": "uint256",
							"name": "tokenId",
							"type": "uint256"
						},
						{
							"internalType": "uint256",
							"name": "price",
							"type": "uint256"
						},
						{
							"internalType": "address",
							"name": "coin",
							"type": "address"
						},
						{
							"internalType": "address",
							"name": "seller",
							"type": "address"
						},
						{
							"internalType": "bool",
							"name": "forSale",
							"type": "bool"
						}
					],
					"stateMutability": "view",
					"type": "function"
				},
				{
					"inputs": [],
					"name": "owner",
					"outputs": [
						{
							"internalType": "address",
							"name": "",
							"type": "address"
						}
					],
					"stateMutability": "view",
					"type": "function"
				},
				{
					"inputs": [],
					"name": "pauseMarketplace",
					"outputs": [],
					"stateMutability": "nonpayable",
					"type": "function"
				},
				{
					"inputs": [],
					"name": "paused",
					"outputs": [
						{
							"internalType": "bool",
							"name": "",
							"type": "bool"
						}
					],
					"stateMutability": "view",
					"type": "function"
				},
				{
					"inputs": [],
					"name": "renounceOwnership",
					"outputs": [],
					"stateMutability": "nonpayable",
					"type": "function"
				},
				{
					"inputs": [
						{
							"internalType": "uint256",
							"name": "_listingId",
							"type": "uint256"
						}
					],
					"name": "transferNFT",
					"outputs": [],
					"stateMutability": "nonpayable",
					"type": "function"
				},
				{
					"inputs": [
						{
							"internalType": "uint256",
							"name": "_amount",
							"type": "uint256"
						},
						{
							"internalType": "address",
							"name": "_ERC20Address",
							"type": "address"
						}
					],
					"name": "transferOrWithdraw",
					"outputs": [],
					"stateMutability": "nonpayable",
					"type": "function"
				},
				{
					"inputs": [
						{
							"internalType": "address",
							"name": "newOwner",
							"type": "address"
						}
					],
					"name": "transferOwnership",
					"outputs": [],
					"stateMutability": "nonpayable",
					"type": "function"
				},
				{
					"inputs": [],
					"name": "unpauseMarketplace",
					"outputs": [],
					"stateMutability": "nonpayable",
					"type": "function"
				},
				{
					"inputs": [
						{
							"internalType": "uint256",
							"name": "_value",
							"type": "uint256"
						}
					],
					"name": "updateComissionPercentage",
					"outputs": [],
					"stateMutability": "nonpayable",
					"type": "function"
				},
				{
					"inputs": [
						{
							"internalType": "contract ERC721",
							"name": "_nft",
							"type": "address"
						},
						{
							"internalType": "uint256",
							"name": "_Id",
							"type": "uint256"
						},
						{
							"internalType": "address",
							"name": "_sender",
							"type": "address"
						}
					],
					"name": "updateNFT",
					"outputs": [],
					"stateMutability": "nonpayable",
					"type": "function"
				},
				{
					"stateMutability": "payable",
					"type": "receive"
				}
			],
			"devdoc": {
				"errors": {
					"OwnableInvalidOwner(address)": [
						{
							"details": "The owner is not a valid owner account. (eg. `address(0)`)"
						}
					],
					"OwnableUnauthorizedAccount(address)": [
						{
							"details": "The caller account is not authorized to perform an operation."
						}
					]
				},
				"events": {
					"Paused(address)": {
						"details": "Emitted when the pause is triggered by `account`."
					},
					"Unpaused(address)": {
						"details": "Emitted when the pause is lifted by `account`."
					}
				},
				"kind": "dev",
				"methods": {
					"owner()": {
						"details": "Returns the address of the current owner."
					},
					"paused()": {
						"details": "Returns true if the contract is paused, and false otherwise."
					},
					"renounceOwnership()": {
						"details": "Leaves the contract without owner. It will not be possible to call `onlyOwner` functions. Can only be called by the current owner. NOTE: Renouncing ownership will leave the contract without an owner, thereby disabling any functionality that is only available to the owner."
					},
					"transferOwnership(address)": {
						"details": "Transfers ownership of the contract to a new account (`newOwner`). Can only be called by the current owner."
					}
				},
				"version": 1
			},
			"evm": {
				"assembly": "    /* \"contracts/Marketplace.sol\":478:7956  contract GBMarketplace is Ownable, Pausable,  ReentrancyGuard  {... */\n  mstore(0x40, 0x80)\n    /* \"contracts/Marketplace.sol\":759:762  350 */\n  0x015e\n    /* \"contracts/Marketplace.sol\":730:762  uint  commissionPercentage = 350 */\n  0x05\n  sstore\n    /* \"contracts/Marketplace.sol\":1356:1419  constructor (address initialOwner)... */\n  callvalue\n  dup1\n  iszero\n  tag_1\n  jumpi\n  0x00\n  dup1\n  revert\ntag_1:\n  pop\n  mload(0x40)\n  sub(codesize, bytecodeSize)\n  dup1\n  bytecodeSize\n  dup4\n  codecopy\n  dup2\n  add\n  0x40\n  dup2\n  swap1\n  mstore\n  tag_2\n  swap2\n  tag_3\n  jump\t// in\ntag_2:\n    /* \"contracts/Marketplace.sol\":1404:1416  initialOwner */\n  dup1\n  sub(shl(0xa0, 0x01), 0x01)\n    /* \"@openzeppelin/contracts/access/Ownable.sol\":1273:1299  initialOwner == address(0) */\n  dup2\n  and\n    /* \"@openzeppelin/contracts/access/Ownable.sol\":1269:1364  if (initialOwner == address(0)) {... */\n  tag_9\n  jumpi\n    /* \"@openzeppelin/contracts/access/Ownable.sol\":1322:1353  OwnableInvalidOwner(address(0)) */\n  mload(0x40)\n  shl(0xe0, 0x1e4fbdf7)\n  dup2\n  mstore\n    /* \"@openzeppelin/contracts/access/Ownable.sol\":1350:1351  0 */\n  0x00\n    /* \"@openzeppelin/contracts/access/Ownable.sol\":1322:1353  OwnableInvalidOwner(address(0)) */\n  0x04\n  dup3\n  add\n    /* \"#utility.yul\":455:506   */\n  mstore\n    /* \"#utility.yul\":428:446   */\n  0x24\n  add\n    /* \"@openzeppelin/contracts/access/Ownable.sol\":1322:1353  OwnableInvalidOwner(address(0)) */\n  mload(0x40)\n  dup1\n  swap2\n  sub\n  swap1\n  revert\n    /* \"@openzeppelin/contracts/access/Ownable.sol\":1269:1364  if (initialOwner == address(0)) {... */\ntag_9:\n    /* \"@openzeppelin/contracts/access/Ownable.sol\":1373:1405  _transferOwnership(initialOwner) */\n  tag_12\n    /* \"@openzeppelin/contracts/access/Ownable.sol\":1392:1404  initialOwner */\n  dup2\n    /* \"@openzeppelin/contracts/access/Ownable.sol\":1373:1391  _transferOwnership */\n  tag_13\n    /* \"@openzeppelin/contracts/access/Ownable.sol\":1373:1405  _transferOwnership(initialOwner) */\n  jump\t// in\ntag_12:\n  pop\n  pop\n    /* \"@openzeppelin/contracts/security/Pausable.sol\":1006:1011  false */\n  0x00\n    /* \"@openzeppelin/contracts/security/Pausable.sol\":996:1011  _paused = false */\n  dup1\n  sload\n  not(shl(0xa0, 0xff))\n  and\n  swap1\n  sstore\n  0x01\n    /* \"@openzeppelin/contracts/security/ReentrancyGuard.sol\":1821:1843  _status = _NOT_ENTERED */\n  dup1\n  sstore\n    /* \"contracts/Marketplace.sol\":478:7956  contract GBMarketplace is Ownable, Pausable,  ReentrancyGuard  {... */\n  jump(tag_19)\n    /* \"@openzeppelin/contracts/access/Ownable.sol\":2912:3099  function _transferOwnership(address newOwner) internal virtual {... */\ntag_13:\n    /* \"@openzeppelin/contracts/access/Ownable.sol\":2985:3001  address oldOwner */\n  0x00\n    /* \"@openzeppelin/contracts/access/Ownable.sol\":3004:3010  _owner */\n  dup1\n  sload\n  sub(shl(0xa0, 0x01), 0x01)\n    /* \"@openzeppelin/contracts/access/Ownable.sol\":3020:3037  _owner = newOwner */\n  dup4\n  dup2\n  and\n  not(sub(shl(0xa0, 0x01), 0x01))\n  dup4\n  and\n  dup2\n  or\n  dup5\n  sstore\n    /* \"@openzeppelin/contracts/access/Ownable.sol\":3052:3092  OwnershipTransferred(oldOwner, newOwner) */\n  mload(0x40)\n    /* \"@openzeppelin/contracts/access/Ownable.sol\":3004:3010  _owner */\n  swap2\n  swap1\n  swap3\n  and\n  swap3\n  dup4\n  swap2\n    /* \"@openzeppelin/contracts/access/Ownable.sol\":3052:3092  OwnershipTransferred(oldOwner, newOwner) */\n  0x8be0079c531659141344cd1fd0a4f28419497f9722a3daafe3b4186f6b6457e0\n  swap2\n    /* \"@openzeppelin/contracts/access/Ownable.sol\":2985:3001  address oldOwner */\n  swap1\n    /* \"@openzeppelin/contracts/access/Ownable.sol\":3052:3092  OwnershipTransferred(oldOwner, newOwner) */\n  log3\n    /* \"@openzeppelin/contracts/access/Ownable.sol\":2975:3099  {... */\n  pop\n    /* \"@openzeppelin/contracts/access/Ownable.sol\":2912:3099  function _transferOwnership(address newOwner) internal virtual {... */\n  pop\n  jump\t// out\n    /* \"#utility.yul\":14:304   */\ntag_3:\n    /* \"#utility.yul\":84:90   */\n  0x00\n    /* \"#utility.yul\":137:139   */\n  0x20\n    /* \"#utility.yul\":125:134   */\n  dup3\n    /* \"#utility.yul\":116:123   */\n  dup5\n    /* \"#utility.yul\":112:135   */\n  sub\n    /* \"#utility.yul\":108:140   */\n  slt\n    /* \"#utility.yul\":105:157   */\n  iszero\n  tag_21\n  jumpi\n    /* \"#utility.yul\":153:154   */\n  0x00\n    /* \"#utility.yul\":150:151   */\n  dup1\n    /* \"#utility.yul\":143:155   */\n  revert\n    /* \"#utility.yul\":105:157   */\ntag_21:\n    /* \"#utility.yul\":179:195   */\n  dup2\n  mload\n  sub(shl(0xa0, 0x01), 0x01)\n    /* \"#utility.yul\":224:255   */\n  dup2\n  and\n    /* \"#utility.yul\":214:256   */\n  dup2\n  eq\n    /* \"#utility.yul\":204:274   */\n  tag_22\n  jumpi\n    /* \"#utility.yul\":270:271   */\n  0x00\n    /* \"#utility.yul\":267:268   */\n  dup1\n    /* \"#utility.yul\":260:272   */\n  revert\n    /* \"#utility.yul\":204:274   */\ntag_22:\n    /* \"#utility.yul\":293:298   */\n  swap4\n    /* \"#utility.yul\":14:304   */\n  swap3\n  pop\n  pop\n  pop\n  jump\t// out\n    /* \"#utility.yul\":309:512   */\ntag_19:\n    /* \"contracts/Marketplace.sol\":478:7956  contract GBMarketplace is Ownable, Pausable,  ReentrancyGuard  {... */\n  dataSize(sub_0)\n  dup1\n  dataOffset(sub_0)\n  0x00\n  codecopy\n  0x00\n  return\nstop\n\nsub_0: assembly {\n        /* \"contracts/Marketplace.sol\":478:7956  contract GBMarketplace is Ownable, Pausable,  ReentrancyGuard  {... */\n      mstore(0x40, 0x80)\n      jumpi(tag_1, lt(calldatasize, 0x04))\n      shr(0xe0, calldataload(0x00))\n      dup1\n      0x925a9953\n      gt\n      tag_24\n      jumpi\n      dup1\n      0xcc4aa204\n      gt\n      tag_25\n      jumpi\n      dup1\n      0xde74e57b\n      gt\n      tag_26\n      jumpi\n      dup1\n      0xde74e57b\n      eq\n      tag_21\n      jumpi\n      dup1\n      0xdf706cbc\n      eq\n      tag_22\n      jumpi\n      dup1\n      0xf2fde38b\n      eq\n      tag_23\n      jumpi\n      0x00\n      dup1\n      revert\n    tag_26:\n      dup1\n      0xcc4aa204\n      eq\n      tag_18\n      jumpi\n      dup1\n      0xcf02976f\n      eq\n      tag_19\n      jumpi\n      dup1\n      0xd68cdc52\n      eq\n      tag_20\n      jumpi\n      0x00\n      dup1\n      revert\n    tag_25:\n      dup1\n      0x9cefe029\n      gt\n      tag_27\n      jumpi\n      dup1\n      0x9cefe029\n      eq\n      tag_15\n      jumpi\n      dup1\n      0xa82ba76f\n      eq\n      tag_16\n      jumpi\n      dup1\n      0xc85d5262\n      eq\n      tag_17\n      jumpi\n      0x00\n      dup1\n      revert\n    tag_27:\n      dup1\n      0x925a9953\n      eq\n      tag_13\n      jumpi\n      dup1\n      0x98590ef9\n      eq\n      tag_14\n      jumpi\n      0x00\n      dup1\n      revert\n    tag_24:\n      dup1\n      0x65a19c20\n      gt\n      tag_28\n      jumpi\n      dup1\n      0x715018a6\n      gt\n      tag_29\n      jumpi\n      dup1\n      0x715018a6\n      eq\n      tag_10\n      jumpi\n      dup1\n      0x8699fdf4\n      eq\n      tag_11\n      jumpi\n      dup1\n      0x8da5cb5b\n      eq\n      tag_12\n      jumpi\n      0x00\n      dup1\n      revert\n    tag_29:\n      dup1\n      0x65a19c20\n      eq\n      tag_8\n      jumpi\n      dup1\n      0x6ee4c120\n      eq\n      tag_9\n      jumpi\n      0x00\n      dup1\n      revert\n    tag_28:\n      dup1\n      0x249e10c5\n      gt\n      tag_30\n      jumpi\n      dup1\n      0x249e10c5\n      eq\n      tag_5\n      jumpi\n      dup1\n      0x3ec62279\n      eq\n      tag_6\n      jumpi\n      dup1\n      0x5c975abb\n      eq\n      tag_7\n      jumpi\n      0x00\n      dup1\n      revert\n    tag_30:\n      dup1\n      0x0ea59c4b\n      eq\n      tag_3\n      jumpi\n      dup1\n      0x21f67fbb\n      eq\n      tag_4\n      jumpi\n      0x00\n      dup1\n      revert\n    tag_1:\n      jumpi(tag_2, calldatasize)\n        /* \"contracts/Marketplace.sol\":6345:6375  Deposit(msg.sender, msg.value) */\n      0x40\n      dup1\n      mload\n        /* \"contracts/Marketplace.sol\":6353:6363  msg.sender */\n      caller\n        /* \"#utility.yul\":188:262   */\n      dup2\n      mstore\n        /* \"contracts/Marketplace.sol\":6365:6374  msg.value */\n      callvalue\n        /* \"#utility.yul\":293:295   */\n      0x20\n        /* \"#utility.yul\":278:296   */\n      dup3\n      add\n        /* \"#utility.yul\":271:305   */\n      mstore\n        /* \"contracts/Marketplace.sol\":6345:6375  Deposit(msg.sender, msg.value) */\n      0xe1fffcc4923d04b559f4d29a8bfc6cda04eb5b0d3c460751c2402c5c5cc9109c\n      swap2\n        /* \"#utility.yul\":161:179   */\n      add\n        /* \"contracts/Marketplace.sol\":6345:6375  Deposit(msg.sender, msg.value) */\n      mload(0x40)\n      dup1\n      swap2\n      sub\n      swap1\n      log1\n        /* \"contracts/Marketplace.sol\":478:7956  contract GBMarketplace is Ownable, Pausable,  ReentrancyGuard  {... */\n      stop\n    tag_2:\n      0x00\n      dup1\n      revert\n        /* \"contracts/Marketplace.sol\":6453:6565  function getNFTListing(uint _Id) public view returns (NFTListing memory) {... */\n    tag_3:\n      callvalue\n      dup1\n      iszero\n      tag_35\n      jumpi\n      0x00\n      dup1\n      revert\n    tag_35:\n      pop\n      tag_36\n      tag_37\n      calldatasize\n      0x04\n      tag_38\n      jump\t// in\n    tag_37:\n      0x40\n      dup1\n      mload\n      0xc0\n      dup2\n      add\n      dup3\n      mstore\n      0x00\n      dup1\n      dup3\n      mstore\n      0x20\n      dup3\n      add\n      dup2\n      swap1\n      mstore\n      swap2\n      dup2\n      add\n      dup3\n      swap1\n      mstore\n      0x60\n      dup2\n      add\n      dup3\n      swap1\n      mstore\n      0x80\n      dup2\n      add\n      dup3\n      swap1\n      mstore\n      0xa0\n      dup2\n      add\n      swap2\n      swap1\n      swap2\n      mstore\n      pop\n        /* \"contracts/Marketplace.sol\":6544:6557  listings[_Id] */\n      0x00\n      swap1\n      dup2\n      mstore\n        /* \"contracts/Marketplace.sol\":6544:6552  listings */\n      0x09\n        /* \"contracts/Marketplace.sol\":6544:6557  listings[_Id] */\n      0x20\n      swap1\n      dup2\n      mstore\n      0x40\n      swap2\n      dup3\n      swap1\n      keccak256\n        /* \"contracts/Marketplace.sol\":6537:6557  return listings[_Id] */\n      dup3\n      mload\n      0xc0\n      dup2\n      add\n      dup5\n      mstore\n      dup2\n      sload\n      0xffffffffffffffffffffffffffffffffffffffff\n      swap1\n      dup2\n      and\n      dup3\n      mstore\n      0x01\n      dup4\n      add\n      sload\n      swap4\n      dup3\n      add\n      swap4\n      swap1\n      swap4\n      mstore\n      0x02\n      dup3\n      add\n      sload\n      swap4\n      dup2\n      add\n      swap4\n      swap1\n      swap4\n      mstore\n      0x03\n      dup2\n      add\n      sload\n      dup3\n      and\n      0x60\n      dup5\n      add\n      mstore\n      0x04\n      add\n      sload\n      swap1\n      dup2\n      and\n      0x80\n      dup4\n      add\n      mstore\n      0x010000000000000000000000000000000000000000\n      swap1\n      div\n      0xff\n      and\n      iszero\n      iszero\n      0xa0\n      dup3\n      add\n      mstore\n      swap1\n        /* \"contracts/Marketplace.sol\":6453:6565  function getNFTListing(uint _Id) public view returns (NFTListing memory) {... */\n      jump\n    tag_36:\n      mload(0x40)\n      tag_40\n      swap2\n      swap1\n        /* \"#utility.yul\":649:653   */\n      0x00\n        /* \"#utility.yul\":691:694   */\n      0xc0\n        /* \"#utility.yul\":680:689   */\n      dup3\n        /* \"#utility.yul\":676:695   */\n      add\n        /* \"#utility.yul\":668:695   */\n      swap1\n      pop\n        /* \"#utility.yul\":714:756   */\n      0xffffffffffffffffffffffffffffffffffffffff\n        /* \"#utility.yul\":802:804   */\n      dup1\n        /* \"#utility.yul\":793:799   */\n      dup5\n        /* \"#utility.yul\":787:800   */\n      mload\n        /* \"#utility.yul\":783:805   */\n      and\n        /* \"#utility.yul\":772:781   */\n      dup4\n        /* \"#utility.yul\":765:806   */\n      mstore\n        /* \"#utility.yul\":862:866   */\n      0x20\n        /* \"#utility.yul\":854:860   */\n      dup5\n        /* \"#utility.yul\":850:867   */\n      add\n        /* \"#utility.yul\":844:868   */\n      mload\n        /* \"#utility.yul\":837:841   */\n      0x20\n        /* \"#utility.yul\":826:835   */\n      dup5\n        /* \"#utility.yul\":822:842   */\n      add\n        /* \"#utility.yul\":815:869   */\n      mstore\n        /* \"#utility.yul\":925:929   */\n      0x40\n        /* \"#utility.yul\":917:923   */\n      dup5\n        /* \"#utility.yul\":913:930   */\n      add\n        /* \"#utility.yul\":907:931   */\n      mload\n        /* \"#utility.yul\":900:904   */\n      0x40\n        /* \"#utility.yul\":889:898   */\n      dup5\n        /* \"#utility.yul\":885:905   */\n      add\n        /* \"#utility.yul\":878:932   */\n      mstore\n        /* \"#utility.yul\":1000:1002   */\n      dup1\n        /* \"#utility.yul\":992:996   */\n      0x60\n        /* \"#utility.yul\":984:990   */\n      dup6\n        /* \"#utility.yul\":980:997   */\n      add\n        /* \"#utility.yul\":974:998   */\n      mload\n        /* \"#utility.yul\":970:1003   */\n      and\n        /* \"#utility.yul\":963:967   */\n      0x60\n        /* \"#utility.yul\":952:961   */\n      dup5\n        /* \"#utility.yul\":948:968   */\n      add\n        /* \"#utility.yul\":941:1004   */\n      mstore\n        /* \"#utility.yul\":1072:1074   */\n      dup1\n        /* \"#utility.yul\":1064:1068   */\n      0x80\n        /* \"#utility.yul\":1056:1062   */\n      dup6\n        /* \"#utility.yul\":1052:1069   */\n      add\n        /* \"#utility.yul\":1046:1070   */\n      mload\n        /* \"#utility.yul\":1042:1075   */\n      and\n        /* \"#utility.yul\":1035:1039   */\n      0x80\n        /* \"#utility.yul\":1024:1033   */\n      dup5\n        /* \"#utility.yul\":1020:1040   */\n      add\n        /* \"#utility.yul\":1013:1076   */\n      mstore\n      pop\n        /* \"#utility.yul\":1146:1150   */\n      0xa0\n        /* \"#utility.yul\":1138:1144   */\n      dup4\n        /* \"#utility.yul\":1134:1151   */\n      add\n        /* \"#utility.yul\":1128:1152   */\n      mload\n        /* \"#utility.yul\":1121:1153   */\n      iszero\n        /* \"#utility.yul\":1114:1154   */\n      iszero\n        /* \"#utility.yul\":1107:1111   */\n      0xa0\n        /* \"#utility.yul\":1096:1105   */\n      dup4\n        /* \"#utility.yul\":1092:1112   */\n      add\n        /* \"#utility.yul\":1085:1155   */\n      mstore\n        /* \"#utility.yul\":501:1161   */\n      swap3\n      swap2\n      pop\n      pop\n      jump\n        /* \"contracts/Marketplace.sol\":6453:6565  function getNFTListing(uint _Id) public view returns (NFTListing memory) {... */\n    tag_40:\n      mload(0x40)\n      dup1\n      swap2\n      sub\n      swap1\n      return\n        /* \"contracts/Marketplace.sol\":1683:1759  function unpauseMarketplace() public onlyOwner {... */\n    tag_4:\n      callvalue\n      dup1\n      iszero\n      tag_42\n      jumpi\n      0x00\n      dup1\n      revert\n    tag_42:\n      pop\n      tag_43\n      tag_44\n      jump\t// in\n    tag_43:\n      stop\n        /* \"contracts/Marketplace.sol\":4132:4968  function transferNFT(uint256 _listingId) public whenNotPaused nonReentrant {... */\n    tag_5:\n      callvalue\n      dup1\n      iszero\n      tag_45\n      jumpi\n      0x00\n      dup1\n      revert\n    tag_45:\n      pop\n      tag_43\n      tag_47\n      calldatasize\n      0x04\n      tag_38\n      jump\t// in\n    tag_47:\n      tag_48\n      jump\t// in\n        /* \"contracts/Marketplace.sol\":1603:1675  function pauseMarketplace() public onlyOwner {... */\n    tag_6:\n      callvalue\n      dup1\n      iszero\n      tag_49\n      jumpi\n      0x00\n      dup1\n      revert\n    tag_49:\n      pop\n      tag_43\n      tag_51\n      jump\t// in\n        /* \"@openzeppelin/contracts/security/Pausable.sol\":1615:1699  function paused() public view virtual returns (bool) {... */\n    tag_7:\n      callvalue\n      dup1\n      iszero\n      tag_52\n      jumpi\n      0x00\n      dup1\n      revert\n    tag_52:\n      pop\n        /* \"@openzeppelin/contracts/security/Pausable.sol\":1662:1666  bool */\n      0x00\n        /* \"@openzeppelin/contracts/security/Pausable.sol\":1685:1692  _paused */\n      sload\n      0x010000000000000000000000000000000000000000\n      swap1\n      div\n      0xff\n      and\n        /* \"@openzeppelin/contracts/security/Pausable.sol\":1615:1699  function paused() public view virtual returns (bool) {... */\n      mload(0x40)\n        /* \"#utility.yul\":1331:1345   */\n      swap1\n      iszero\n        /* \"#utility.yul\":1324:1346   */\n      iszero\n        /* \"#utility.yul\":1306:1347   */\n      dup2\n      mstore\n        /* \"#utility.yul\":1294:1296   */\n      0x20\n        /* \"#utility.yul\":1279:1297   */\n      add\n        /* \"@openzeppelin/contracts/security/Pausable.sol\":1615:1699  function paused() public view virtual returns (bool) {... */\n      tag_40\n        /* \"#utility.yul\":1166:1353   */\n      jump\n        /* \"contracts/Marketplace.sol\":6752:6859  function getComissionPercentage() public view returns (uint256){... */\n    tag_8:\n      callvalue\n      dup1\n      iszero\n      tag_57\n      jumpi\n      0x00\n      dup1\n      revert\n    tag_57:\n      pop\n        /* \"contracts/Marketplace.sol\":6831:6851  commissionPercentage */\n      sload(0x05)\n        /* \"contracts/Marketplace.sol\":6752:6859  function getComissionPercentage() public view returns (uint256){... */\n    tag_58:\n      mload(0x40)\n        /* \"#utility.yul\":1504:1529   */\n      swap1\n      dup2\n      mstore\n        /* \"#utility.yul\":1492:1494   */\n      0x20\n        /* \"#utility.yul\":1477:1495   */\n      add\n        /* \"contracts/Marketplace.sol\":6752:6859  function getComissionPercentage() public view returns (uint256){... */\n      tag_40\n        /* \"#utility.yul\":1358:1535   */\n      jump\n        /* \"contracts/Marketplace.sol\":5708:6141  function transferOrWithdraw (uint _amount, address _ERC20Address) public whenNotPaused nonReentrant onlyOwner {... */\n    tag_9:\n      callvalue\n      dup1\n      iszero\n      tag_62\n      jumpi\n      0x00\n      dup1\n      revert\n    tag_62:\n      pop\n      tag_43\n      tag_64\n      calldatasize\n      0x04\n      tag_65\n      jump\t// in\n    tag_64:\n      tag_66\n      jump\t// in\n        /* \"@openzeppelin/contracts/access/Ownable.sol\":2293:2394  function renounceOwnership() public virtual onlyOwner {... */\n    tag_10:\n      callvalue\n      dup1\n      iszero\n      tag_67\n      jumpi\n      0x00\n      dup1\n      revert\n    tag_67:\n      pop\n      tag_43\n      tag_69\n      jump\t// in\n        /* \"contracts/Marketplace.sol\":7633:7953  function getAllIdListed (ERC721 _nft, uint256 _tokenId) public view returns (uint){... */\n    tag_11:\n      callvalue\n      dup1\n      iszero\n      tag_70\n      jumpi\n      0x00\n      dup1\n      revert\n    tag_70:\n      pop\n      tag_58\n      tag_72\n      calldatasize\n      0x04\n      tag_73\n      jump\t// in\n    tag_72:\n      tag_74\n      jump\t// in\n        /* \"@openzeppelin/contracts/access/Ownable.sol\":1638:1723  function owner() public view virtual returns (address) {... */\n    tag_12:\n      callvalue\n      dup1\n      iszero\n      tag_76\n      jumpi\n      0x00\n      dup1\n      revert\n    tag_76:\n      pop\n        /* \"@openzeppelin/contracts/access/Ownable.sol\":1684:1691  address */\n      0x00\n        /* \"@openzeppelin/contracts/access/Ownable.sol\":1710:1716  _owner */\n      sload\n      0xffffffffffffffffffffffffffffffffffffffff\n      and\n        /* \"@openzeppelin/contracts/access/Ownable.sol\":1638:1723  function owner() public view virtual returns (address) {... */\n    tag_77:\n      mload(0x40)\n        /* \"#utility.yul\":2530:2572   */\n      0xffffffffffffffffffffffffffffffffffffffff\n        /* \"#utility.yul\":2518:2573   */\n      swap1\n      swap2\n      and\n        /* \"#utility.yul\":2500:2574   */\n      dup2\n      mstore\n        /* \"#utility.yul\":2488:2490   */\n      0x20\n        /* \"#utility.yul\":2473:2491   */\n      add\n        /* \"@openzeppelin/contracts/access/Ownable.sol\":1638:1723  function owner() public view virtual returns (address) {... */\n      tag_40\n        /* \"#utility.yul\":2354:2580   */\n      jump\n        /* \"contracts/Marketplace.sol\":5037:5646  function updateNFT(ERC721 _nft, uint _Id, address _sender) public whenNotPaused nonReentrant onlyOwner {... */\n    tag_13:\n      callvalue\n      dup1\n      iszero\n      tag_81\n      jumpi\n      0x00\n      dup1\n      revert\n    tag_81:\n      pop\n      tag_43\n      tag_83\n      calldatasize\n      0x04\n      tag_84\n      jump\t// in\n    tag_83:\n      tag_85\n      jump\t// in\n        /* \"contracts/Marketplace.sol\":2594:2970  function cancel(ERC721 _nft, uint _Id) public payable onlyNftOwner(_nft, _Id) {... */\n    tag_14:\n      tag_43\n      tag_87\n      calldatasize\n      0x04\n      tag_73\n      jump\t// in\n    tag_87:\n      tag_88\n      jump\t// in\n        /* \"contracts/Marketplace.sol\":6181:6294  function updateComissionPercentage(uint256 _value) public onlyOwner{... */\n    tag_15:\n      callvalue\n      dup1\n      iszero\n      tag_89\n      jumpi\n      0x00\n      dup1\n      revert\n    tag_89:\n      pop\n      tag_43\n      tag_91\n      calldatasize\n      0x04\n      tag_38\n      jump\t// in\n    tag_91:\n      tag_92\n      jump\t// in\n        /* \"contracts/Marketplace.sol\":3044:4065  function buyNFT(ERC721 _nft, uint _Id) public payable whenNotPaused nonReentrant {... */\n    tag_16:\n      tag_43\n      tag_94\n      calldatasize\n      0x04\n      tag_73\n      jump\t// in\n    tag_94:\n      tag_95\n      jump\t// in\n        /* \"contracts/Marketplace.sol\":6605:6708  function getListinglength() public view returns (uint) {... */\n    tag_17:\n      callvalue\n      dup1\n      iszero\n      tag_96\n      jumpi\n      0x00\n      dup1\n      revert\n    tag_96:\n      pop\n      tag_58\n      tag_98\n      jump\t// in\n        /* \"contracts/Marketplace.sol\":548:567  IERC20 public ERC20 */\n    tag_18:\n      callvalue\n      dup1\n      iszero\n      tag_100\n      jumpi\n      0x00\n      dup1\n      revert\n    tag_100:\n      pop\n      sload(0x02)\n      tag_77\n      swap1\n      0xffffffffffffffffffffffffffffffffffffffff\n      and\n      dup2\n      jump\n        /* \"contracts/Marketplace.sol\":6896:7594  function getIdListed(ERC721 _nft, uint256 _tokenId) public view returns (uint256) {... */\n    tag_19:\n      callvalue\n      dup1\n      iszero\n      tag_105\n      jumpi\n      0x00\n      dup1\n      revert\n    tag_105:\n      pop\n      tag_58\n      tag_107\n      calldatasize\n      0x04\n      tag_73\n      jump\t// in\n    tag_107:\n      tag_108\n      jump\t// in\n        /* \"contracts/Marketplace.sol\":1765:2432  function listNFT(ERC721 _nft, uint256 _tokenId, uint _price, address _coin) public payable {... */\n    tag_20:\n      tag_43\n      tag_111\n      calldatasize\n      0x04\n      tag_112\n      jump\t// in\n    tag_111:\n      tag_113\n      jump\t// in\n        /* \"contracts/Marketplace.sol\":1303:1349  mapping(uint256 => NFTListing) public listings */\n    tag_21:\n      callvalue\n      dup1\n      iszero\n      tag_114\n      jumpi\n      0x00\n      dup1\n      revert\n    tag_114:\n      pop\n      tag_115\n      tag_116\n      calldatasize\n      0x04\n      tag_38\n      jump\t// in\n    tag_116:\n      mstore(0x20, 0x09)\n      0x00\n      swap1\n      dup2\n      mstore\n      0x40\n      swap1\n      keccak256\n      dup1\n      sload\n      0x01\n      dup3\n      add\n      sload\n      0x02\n      dup4\n      add\n      sload\n      0x03\n      dup5\n      add\n      sload\n      0x04\n      swap1\n      swap5\n      add\n      sload\n      0xffffffffffffffffffffffffffffffffffffffff\n      swap4\n      dup5\n      and\n      swap5\n      swap3\n      swap4\n      swap2\n      swap3\n      dup3\n      and\n      swap2\n      dup2\n      and\n      swap1\n      0x010000000000000000000000000000000000000000\n      swap1\n      div\n      0xff\n      and\n      dup7\n      jump\n    tag_115:\n      0x40\n      dup1\n      mload\n        /* \"#utility.yul\":4157:4199   */\n      0xffffffffffffffffffffffffffffffffffffffff\n        /* \"#utility.yul\":4226:4241   */\n      swap8\n      dup9\n      and\n        /* \"#utility.yul\":4208:4242   */\n      dup2\n      mstore\n        /* \"#utility.yul\":4273:4275   */\n      0x20\n        /* \"#utility.yul\":4258:4276   */\n      dup2\n      add\n        /* \"#utility.yul\":4251:4285   */\n      swap7\n      swap1\n      swap7\n      mstore\n        /* \"#utility.yul\":4301:4319   */\n      dup6\n      add\n        /* \"#utility.yul\":4294:4328   */\n      swap4\n      swap1\n      swap4\n      mstore\n        /* \"#utility.yul\":4364:4379   */\n      swap1\n      dup5\n      and\n        /* \"#utility.yul\":4359:4361   */\n      0x60\n        /* \"#utility.yul\":4344:4362   */\n      dup5\n      add\n        /* \"#utility.yul\":4337:4380   */\n      mstore\n        /* \"#utility.yul\":4417:4432   */\n      swap1\n      swap3\n      and\n        /* \"#utility.yul\":4411:4414   */\n      0x80\n        /* \"#utility.yul\":4396:4415   */\n      dup3\n      add\n        /* \"#utility.yul\":4389:4433   */\n      mstore\n        /* \"#utility.yul\":4477:4491   */\n      swap1\n      iszero\n        /* \"#utility.yul\":4470:4492   */\n      iszero\n        /* \"#utility.yul\":4464:4467   */\n      0xa0\n        /* \"#utility.yul\":4449:4468   */\n      dup3\n      add\n        /* \"#utility.yul\":4442:4493   */\n      mstore\n        /* \"#utility.yul\":4134:4137   */\n      0xc0\n        /* \"#utility.yul\":4119:4138   */\n      add\n        /* \"contracts/Marketplace.sol\":1303:1349  mapping(uint256 => NFTListing) public listings */\n      tag_40\n        /* \"#utility.yul\":3851:4499   */\n      jump\n        /* \"contracts/Marketplace.sol\":574:595  IERC721 public ERCNFT */\n    tag_22:\n      callvalue\n      dup1\n      iszero\n      tag_120\n      jumpi\n      0x00\n      dup1\n      revert\n    tag_120:\n      pop\n      sload(0x03)\n      tag_77\n      swap1\n      0xffffffffffffffffffffffffffffffffffffffff\n      and\n      dup2\n      jump\n        /* \"@openzeppelin/contracts/access/Ownable.sol\":2543:2758  function transferOwnership(address newOwner) public virtual onlyOwner {... */\n    tag_23:\n      callvalue\n      dup1\n      iszero\n      tag_125\n      jumpi\n      0x00\n      dup1\n      revert\n    tag_125:\n      pop\n      tag_43\n      tag_127\n      calldatasize\n      0x04\n      tag_128\n      jump\t// in\n    tag_127:\n      tag_129\n      jump\t// in\n        /* \"contracts/Marketplace.sol\":1683:1759  function unpauseMarketplace() public onlyOwner {... */\n    tag_44:\n        /* \"@openzeppelin/contracts/access/Ownable.sol\":1531:1544  _checkOwner() */\n      tag_134\n        /* \"@openzeppelin/contracts/access/Ownable.sol\":1531:1542  _checkOwner */\n      tag_135\n        /* \"@openzeppelin/contracts/access/Ownable.sol\":1531:1544  _checkOwner() */\n      jump\t// in\n    tag_134:\n        /* \"contracts/Marketplace.sol\":1741:1751  _unpause() */\n      tag_137\n        /* \"contracts/Marketplace.sol\":1741:1749  _unpause */\n      tag_138\n        /* \"contracts/Marketplace.sol\":1741:1751  _unpause() */\n      jump\t// in\n    tag_137:\n        /* \"contracts/Marketplace.sol\":1683:1759  function unpauseMarketplace() public onlyOwner {... */\n      jump\t// out\n        /* \"contracts/Marketplace.sol\":4132:4968  function transferNFT(uint256 _listingId) public whenNotPaused nonReentrant {... */\n    tag_48:\n        /* \"@openzeppelin/contracts/security/Pausable.sol\":1239:1258  _requireNotPaused() */\n      tag_140\n        /* \"@openzeppelin/contracts/security/Pausable.sol\":1239:1256  _requireNotPaused */\n      tag_141\n        /* \"@openzeppelin/contracts/security/Pausable.sol\":1239:1258  _requireNotPaused() */\n      jump\t// in\n    tag_140:\n        /* \"@openzeppelin/contracts/security/ReentrancyGuard.sol\":2261:2282  _nonReentrantBefore() */\n      tag_143\n        /* \"@openzeppelin/contracts/security/ReentrancyGuard.sol\":2261:2280  _nonReentrantBefore */\n      tag_144\n        /* \"@openzeppelin/contracts/security/ReentrancyGuard.sol\":2261:2282  _nonReentrantBefore() */\n      jump\t// in\n    tag_143:\n        /* \"contracts/Marketplace.sol\":4218:4244  NFTListing storage listing */\n      0x00\n        /* \"contracts/Marketplace.sol\":4247:4267  listings[_listingId] */\n      dup2\n      dup2\n      mstore\n        /* \"contracts/Marketplace.sol\":4247:4255  listings */\n      0x09\n        /* \"contracts/Marketplace.sol\":4247:4267  listings[_listingId] */\n      0x20\n      mstore\n      0x40\n      swap1\n      keccak256\n        /* \"contracts/Marketplace.sol\":4286:4300  _listingId > 0 */\n      dup2\n      iszero\n      dup1\n      iszero\n      swap1\n        /* \"contracts/Marketplace.sol\":4286:4340  _listingId > 0 && _listingId <= numOfListing.current() */\n      tag_146\n      jumpi\n      pop\n        /* \"contracts/Marketplace.sol\":4318:4330  numOfListing */\n      0x04\n        /* \"@openzeppelin/contracts/utils/Counters.sol\":918:932  counter._value */\n      sload\n        /* \"contracts/Marketplace.sol\":4304:4314  _listingId */\n      dup3\n        /* \"contracts/Marketplace.sol\":4304:4340  _listingId <= numOfListing.current() */\n      gt\n      iszero\n        /* \"contracts/Marketplace.sol\":4286:4340  _listingId > 0 && _listingId <= numOfListing.current() */\n    tag_146:\n        /* \"contracts/Marketplace.sol\":4278:4363  require(_listingId > 0 && _listingId <= numOfListing.current(), \"item doesn't exist\") */\n      tag_149\n      jumpi\n      mload(0x40)\n      0x08c379a000000000000000000000000000000000000000000000000000000000\n      dup2\n      mstore\n        /* \"#utility.yul\":5205:5207   */\n      0x20\n        /* \"contracts/Marketplace.sol\":4278:4363  require(_listingId > 0 && _listingId <= numOfListing.current(), \"item doesn't exist\") */\n      0x04\n      dup3\n      add\n        /* \"#utility.yul\":5187:5208   */\n      mstore\n        /* \"#utility.yul\":5244:5246   */\n      0x12\n        /* \"#utility.yul\":5224:5242   */\n      0x24\n      dup3\n      add\n        /* \"#utility.yul\":5217:5247   */\n      mstore\n        /* \"#utility.yul\":5283:5303   */\n      0x6974656d20646f65736e27742065786973740000000000000000000000000000\n        /* \"#utility.yul\":5263:5281   */\n      0x44\n      dup3\n      add\n        /* \"#utility.yul\":5256:5304   */\n      mstore\n        /* \"#utility.yul\":5321:5339   */\n      0x64\n      add\n        /* \"contracts/Marketplace.sol\":4278:4363  require(_listingId > 0 && _listingId <= numOfListing.current(), \"item doesn't exist\") */\n    tag_150:\n      mload(0x40)\n      dup1\n      swap2\n      sub\n      swap1\n      revert\n    tag_149:\n        /* \"contracts/Marketplace.sol\":4382:4397  listing.forSale */\n      0x04\n      dup2\n      add\n      sload\n      0x010000000000000000000000000000000000000000\n      swap1\n      div\n      0xff\n      and\n        /* \"contracts/Marketplace.sol\":4382:4406  listing.forSale != false */\n      iszero\n      iszero\n        /* \"contracts/Marketplace.sol\":4401:4406  false */\n      0x00\n        /* \"contracts/Marketplace.sol\":4382:4406  listing.forSale != false */\n      sub\n        /* \"contracts/Marketplace.sol\":4374:4431  require(listing.forSale != false, \"item is not for sell\") */\n      tag_152\n      jumpi\n      mload(0x40)\n      0x08c379a000000000000000000000000000000000000000000000000000000000\n      dup2\n      mstore\n        /* \"#utility.yul\":5552:5554   */\n      0x20\n        /* \"contracts/Marketplace.sol\":4374:4431  require(listing.forSale != false, \"item is not for sell\") */\n      0x04\n      dup3\n      add\n        /* \"#utility.yul\":5534:5555   */\n      mstore\n        /* \"#utility.yul\":5591:5593   */\n      0x14\n        /* \"#utility.yul\":5571:5589   */\n      0x24\n      dup3\n      add\n        /* \"#utility.yul\":5564:5594   */\n      mstore\n        /* \"#utility.yul\":5630:5652   */\n      0x6974656d206973206e6f7420666f722073656c6c000000000000000000000000\n        /* \"#utility.yul\":5610:5628   */\n      0x44\n      dup3\n      add\n        /* \"#utility.yul\":5603:5653   */\n      mstore\n        /* \"#utility.yul\":5670:5688   */\n      0x64\n      add\n        /* \"contracts/Marketplace.sol\":4374:4431  require(listing.forSale != false, \"item is not for sell\") */\n      tag_150\n        /* \"#utility.yul\":5350:5694   */\n      jump\n        /* \"contracts/Marketplace.sol\":4374:4431  require(listing.forSale != false, \"item is not for sell\") */\n    tag_152:\n        /* \"contracts/Marketplace.sol\":4450:4464  listing.seller */\n      0x04\n      dup2\n      add\n      sload\n        /* \"contracts/Marketplace.sol\":4468:4478  msg.sender */\n      caller\n        /* \"contracts/Marketplace.sol\":4450:4478  listing.seller != msg.sender */\n      0xffffffffffffffffffffffffffffffffffffffff\n        /* \"contracts/Marketplace.sol\":4450:4464  listing.seller */\n      swap1\n      swap2\n      and\n        /* \"contracts/Marketplace.sol\":4450:4478  listing.seller != msg.sender */\n      sub\n        /* \"contracts/Marketplace.sol\":4442:4510  require(listing.seller != msg.sender, \"You cannot buy your own nft\") */\n      tag_155\n      jumpi\n      mload(0x40)\n      0x08c379a000000000000000000000000000000000000000000000000000000000\n      dup2\n      mstore\n        /* \"#utility.yul\":5901:5903   */\n      0x20\n        /* \"contracts/Marketplace.sol\":4442:4510  require(listing.seller != msg.sender, \"You cannot buy your own nft\") */\n      0x04\n      dup3\n      add\n        /* \"#utility.yul\":5883:5904   */\n      mstore\n        /* \"#utility.yul\":5940:5942   */\n      0x1b\n        /* \"#utility.yul\":5920:5938   */\n      0x24\n      dup3\n      add\n        /* \"#utility.yul\":5913:5943   */\n      mstore\n        /* \"#utility.yul\":5979:6008   */\n      0x596f752063616e6e6f742062757920796f7572206f776e206e66740000000000\n        /* \"#utility.yul\":5959:5977   */\n      0x44\n      dup3\n      add\n        /* \"#utility.yul\":5952:6009   */\n      mstore\n        /* \"#utility.yul\":6026:6044   */\n      0x64\n      add\n        /* \"contracts/Marketplace.sol\":4442:4510  require(listing.seller != msg.sender, \"You cannot buy your own nft\") */\n      tag_150\n        /* \"#utility.yul\":5699:6050   */\n      jump\n        /* \"contracts/Marketplace.sol\":4442:4510  require(listing.seller != msg.sender, \"You cannot buy your own nft\") */\n    tag_155:\n        /* \"contracts/Marketplace.sol\":4538:4551  listing.price */\n      0x02\n      dup2\n      add\n      sload\n        /* \"contracts/Marketplace.sol\":4523:4535  amountListed */\n      0x08\n        /* \"contracts/Marketplace.sol\":4523:4551  amountListed = listing.price */\n      dup2\n      swap1\n      sstore\n        /* \"contracts/Marketplace.sol\":4597:4617  commissionPercentage */\n      sload(0x05)\n        /* \"contracts/Marketplace.sol\":4580:4629  amountListed.mul(commissionPercentage).div(10000) */\n      tag_158\n      swap2\n        /* \"contracts/Marketplace.sol\":4623:4628  10000 */\n      0x2710\n      swap2\n        /* \"contracts/Marketplace.sol\":4580:4618  amountListed.mul(commissionPercentage) */\n      tag_159\n      swap2\n        /* \"contracts/Marketplace.sol\":4538:4551  listing.price */\n      swap1\n        /* \"contracts/Marketplace.sol\":4580:4596  amountListed.mul */\n      tag_160\n        /* \"contracts/Marketplace.sol\":4580:4618  amountListed.mul(commissionPercentage) */\n      jump\t// in\n    tag_159:\n        /* \"contracts/Marketplace.sol\":4580:4622  amountListed.mul(commissionPercentage).div */\n      swap1\n      tag_161\n        /* \"contracts/Marketplace.sol\":4580:4629  amountListed.mul(commissionPercentage).div(10000) */\n      jump\t// in\n    tag_158:\n        /* \"contracts/Marketplace.sol\":4562:4577  comissionAmount */\n      0x06\n        /* \"contracts/Marketplace.sol\":4562:4629  comissionAmount = amountListed.mul(commissionPercentage).div(10000) */\n      dup2\n      swap1\n      sstore\n        /* \"contracts/Marketplace.sol\":4655:4667  amountListed */\n      sload(0x08)\n        /* \"contracts/Marketplace.sol\":4655:4688  amountListed.sub(comissionAmount) */\n      tag_162\n      swap2\n        /* \"contracts/Marketplace.sol\":4655:4671  amountListed.sub */\n      tag_163\n        /* \"contracts/Marketplace.sol\":4655:4688  amountListed.sub(comissionAmount) */\n      jump\t// in\n    tag_162:\n        /* \"contracts/Marketplace.sol\":4640:4652  sellerAmount */\n      0x07\n        /* \"contracts/Marketplace.sol\":4640:4688  sellerAmount = amountListed.sub(comissionAmount) */\n      dup2\n      swap1\n      sstore\n        /* \"contracts/Marketplace.sol\":4716:4728  listing.coin */\n      0x03\n      dup3\n      add\n      sload\n        /* \"contracts/Marketplace.sol\":4701:4706  ERC20 */\n      0x02\n        /* \"contracts/Marketplace.sol\":4701:4729  ERC20 = IERC20(listing.coin) */\n      dup1\n      sload\n      0xffffffffffffffffffffffff0000000000000000000000000000000000000000\n      and\n        /* \"contracts/Marketplace.sol\":4716:4728  listing.coin */\n      0xffffffffffffffffffffffffffffffffffffffff\n      swap3\n      dup4\n      and\n        /* \"contracts/Marketplace.sol\":4701:4729  ERC20 = IERC20(listing.coin) */\n      swap1\n      dup2\n      or\n      swap1\n      swap2\n      sstore\n        /* \"contracts/Marketplace.sol\":4755:4769  listing.seller */\n      0x04\n      dup1\n      dup6\n      add\n      sload\n        /* \"contracts/Marketplace.sol\":4740:4784  ERC20.transfer(listing.seller, sellerAmount) */\n      mload(0x40)\n      0xa9059cbb00000000000000000000000000000000000000000000000000000000\n      dup2\n      mstore\n        /* \"contracts/Marketplace.sol\":4755:4769  listing.seller */\n      swap4\n      and\n        /* \"contracts/Marketplace.sol\":4740:4784  ERC20.transfer(listing.seller, sellerAmount) */\n      swap1\n      dup4\n      add\n        /* \"#utility.yul\":188:262   */\n      mstore\n        /* \"#utility.yul\":278:296   */\n      0x24\n      dup3\n      add\n        /* \"#utility.yul\":271:305   */\n      swap3\n      swap1\n      swap3\n      mstore\n        /* \"contracts/Marketplace.sol\":4740:4754  ERC20.transfer */\n      0xa9059cbb\n      swap1\n        /* \"#utility.yul\":161:179   */\n      0x44\n      add\n        /* \"contracts/Marketplace.sol\":4740:4784  ERC20.transfer(listing.seller, sellerAmount) */\n      0x20\n      mload(0x40)\n      dup1\n      dup4\n      sub\n      dup2\n      0x00\n      dup8\n      gas\n      call\n      iszero\n      dup1\n      iszero\n      tag_166\n      jumpi\n      returndatasize\n      0x00\n      dup1\n      returndatacopy\n      revert(0x00, returndatasize)\n    tag_166:\n      pop\n      pop\n      pop\n      pop\n      mload(0x40)\n      returndatasize\n      not(0x1f)\n      0x1f\n      dup3\n      add\n      and\n      dup3\n      add\n      dup1\n      0x40\n      mstore\n      pop\n      dup2\n      add\n      swap1\n      tag_167\n      swap2\n      swap1\n      tag_168\n      jump\t// in\n    tag_167:\n      pop\n        /* \"contracts/Marketplace.sol\":4795:4800  ERC20 */\n      sload(0x02)\n        /* \"contracts/Marketplace.sol\":4822:4834  sellerAmount */\n      sload(0x07)\n        /* \"contracts/Marketplace.sol\":4795:4835  ERC20.transfer(msg.sender, sellerAmount) */\n      mload(0x40)\n      0xa9059cbb00000000000000000000000000000000000000000000000000000000\n      dup2\n      mstore\n        /* \"contracts/Marketplace.sol\":4810:4820  msg.sender */\n      caller\n        /* \"contracts/Marketplace.sol\":4795:4835  ERC20.transfer(msg.sender, sellerAmount) */\n      0x04\n      dup3\n      add\n        /* \"#utility.yul\":188:262   */\n      mstore\n        /* \"#utility.yul\":278:296   */\n      0x24\n      dup2\n      add\n        /* \"#utility.yul\":271:305   */\n      swap2\n      swap1\n      swap2\n      mstore\n        /* \"contracts/Marketplace.sol\":4795:4800  ERC20 */\n      0xffffffffffffffffffffffffffffffffffffffff\n      swap1\n      swap2\n      and\n      swap1\n        /* \"contracts/Marketplace.sol\":4795:4809  ERC20.transfer */\n      0xa9059cbb\n      swap1\n        /* \"#utility.yul\":161:179   */\n      0x44\n      add\n        /* \"contracts/Marketplace.sol\":4795:4835  ERC20.transfer(msg.sender, sellerAmount) */\n      0x20\n      mload(0x40)\n      dup1\n      dup4\n      sub\n      dup2\n      0x00\n      dup8\n      gas\n      call\n      iszero\n      dup1\n      iszero\n      tag_171\n      jumpi\n      returndatasize\n      0x00\n      dup1\n      returndatacopy\n      revert(0x00, returndatasize)\n    tag_171:\n      pop\n      pop\n      pop\n      pop\n      mload(0x40)\n      returndatasize\n      not(0x1f)\n      0x1f\n      dup3\n      add\n      and\n      dup3\n      add\n      dup1\n      0x40\n      mstore\n      pop\n      dup2\n      add\n      swap1\n      tag_172\n      swap2\n      swap1\n      tag_168\n      jump\t// in\n    tag_172:\n      pop\n        /* \"contracts/Marketplace.sol\":4872:4887  listing.forSale */\n      0x04\n      dup2\n      add\n        /* \"contracts/Marketplace.sol\":4872:4895  listing.forSale = false */\n      dup1\n      sload\n      0xffffffffffffffffffffff00ffffffffffffffffffffffffffffffffffffffff\n      and\n      swap1\n      sstore\n      0x01\n        /* \"contracts/Marketplace.sol\":4930:4945  listing.tokenId */\n      dup2\n      add\n      sload\n        /* \"contracts/Marketplace.sol\":4947:4959  sellerAmount */\n      sload(0x07)\n        /* \"contracts/Marketplace.sol\":4911:4960  NftBuy(msg.sender, listing.tokenId, sellerAmount) */\n      0x40\n      dup1\n      mload\n        /* \"contracts/Marketplace.sol\":4918:4928  msg.sender */\n      caller\n        /* \"#utility.yul\":6539:6613   */\n      dup2\n      mstore\n        /* \"#utility.yul\":6644:6646   */\n      0x20\n        /* \"#utility.yul\":6629:6647   */\n      dup2\n      add\n        /* \"#utility.yul\":6622:6656   */\n      swap4\n      swap1\n      swap4\n      mstore\n        /* \"#utility.yul\":6672:6690   */\n      dup3\n      add\n        /* \"#utility.yul\":6665:6699   */\n      mstore\n        /* \"contracts/Marketplace.sol\":4911:4960  NftBuy(msg.sender, listing.tokenId, sellerAmount) */\n      0xc0790eb4899023169be51dd7074a99a15959464f9a0e6b19767d8d61539b8726\n      swap1\n        /* \"#utility.yul\":6527:6529   */\n      0x60\n        /* \"#utility.yul\":6512:6530   */\n      add\n        /* \"contracts/Marketplace.sol\":4911:4960  NftBuy(msg.sender, listing.tokenId, sellerAmount) */\n      mload(0x40)\n      dup1\n      swap2\n      sub\n      swap1\n      log1\n        /* \"contracts/Marketplace.sol\":4207:4968  {... */\n      pop\n        /* \"@openzeppelin/contracts/security/ReentrancyGuard.sol\":2303:2323  _nonReentrantAfter() */\n      tag_175\n        /* \"@openzeppelin/contracts/security/ReentrancyGuard.sol\":1716:1717  1 */\n      0x01\n        /* \"@openzeppelin/contracts/security/ReentrancyGuard.sol\":2809:2831  _status = _NOT_ENTERED */\n      dup1\n      sstore\n        /* \"@openzeppelin/contracts/security/ReentrancyGuard.sol\":2629:2838  function _nonReentrantAfter() private {... */\n      jump\n        /* \"@openzeppelin/contracts/security/ReentrancyGuard.sol\":2303:2323  _nonReentrantAfter() */\n    tag_175:\n        /* \"contracts/Marketplace.sol\":4132:4968  function transferNFT(uint256 _listingId) public whenNotPaused nonReentrant {... */\n      pop\n      jump\t// out\n        /* \"contracts/Marketplace.sol\":1603:1675  function pauseMarketplace() public onlyOwner {... */\n    tag_51:\n        /* \"@openzeppelin/contracts/access/Ownable.sol\":1531:1544  _checkOwner() */\n      tag_178\n        /* \"@openzeppelin/contracts/access/Ownable.sol\":1531:1542  _checkOwner */\n      tag_135\n        /* \"@openzeppelin/contracts/access/Ownable.sol\":1531:1544  _checkOwner() */\n      jump\t// in\n    tag_178:\n        /* \"contracts/Marketplace.sol\":1659:1667  _pause() */\n      tag_137\n        /* \"contracts/Marketplace.sol\":1659:1665  _pause */\n      tag_181\n        /* \"contracts/Marketplace.sol\":1659:1667  _pause() */\n      jump\t// in\n        /* \"contracts/Marketplace.sol\":5708:6141  function transferOrWithdraw (uint _amount, address _ERC20Address) public whenNotPaused nonReentrant onlyOwner {... */\n    tag_66:\n        /* \"@openzeppelin/contracts/security/Pausable.sol\":1239:1258  _requireNotPaused() */\n      tag_185\n        /* \"@openzeppelin/contracts/security/Pausable.sol\":1239:1256  _requireNotPaused */\n      tag_141\n        /* \"@openzeppelin/contracts/security/Pausable.sol\":1239:1258  _requireNotPaused() */\n      jump\t// in\n    tag_185:\n        /* \"@openzeppelin/contracts/security/ReentrancyGuard.sol\":2261:2282  _nonReentrantBefore() */\n      tag_187\n        /* \"@openzeppelin/contracts/security/ReentrancyGuard.sol\":2261:2280  _nonReentrantBefore */\n      tag_144\n        /* \"@openzeppelin/contracts/security/ReentrancyGuard.sol\":2261:2282  _nonReentrantBefore() */\n      jump\t// in\n    tag_187:\n        /* \"@openzeppelin/contracts/access/Ownable.sol\":1531:1544  _checkOwner() */\n      tag_189\n        /* \"@openzeppelin/contracts/access/Ownable.sol\":1531:1542  _checkOwner */\n      tag_135\n        /* \"@openzeppelin/contracts/access/Ownable.sol\":1531:1544  _checkOwner() */\n      jump\t// in\n    tag_189:\n        /* \"contracts/Marketplace.sol\":5837:5844  _amount */\n      dup2\n        /* \"contracts/Marketplace.sol\":5848:5849  0 */\n      0x00\n        /* \"contracts/Marketplace.sol\":5837:5849  _amount != 0 */\n      sub\n        /* \"contracts/Marketplace.sol\":5829:5875  require(_amount != 0, \"Amount cannot be zero\") */\n      tag_191\n      jumpi\n      mload(0x40)\n      0x08c379a000000000000000000000000000000000000000000000000000000000\n      dup2\n      mstore\n        /* \"#utility.yul\":6912:6914   */\n      0x20\n        /* \"contracts/Marketplace.sol\":5829:5875  require(_amount != 0, \"Amount cannot be zero\") */\n      0x04\n      dup3\n      add\n        /* \"#utility.yul\":6894:6915   */\n      mstore\n        /* \"#utility.yul\":6951:6953   */\n      0x15\n        /* \"#utility.yul\":6931:6949   */\n      0x24\n      dup3\n      add\n        /* \"#utility.yul\":6924:6954   */\n      mstore\n        /* \"#utility.yul\":6990:7013   */\n      0x416d6f756e742063616e6e6f74206265207a65726f0000000000000000000000\n        /* \"#utility.yul\":6970:6988   */\n      0x44\n      dup3\n      add\n        /* \"#utility.yul\":6963:7014   */\n      mstore\n        /* \"#utility.yul\":7031:7049   */\n      0x64\n      add\n        /* \"contracts/Marketplace.sol\":5829:5875  require(_amount != 0, \"Amount cannot be zero\") */\n      tag_150\n        /* \"#utility.yul\":6710:7055   */\n      jump\n        /* \"contracts/Marketplace.sol\":5829:5875  require(_amount != 0, \"Amount cannot be zero\") */\n    tag_191:\n        /* \"contracts/Marketplace.sol\":5894:5921  _ERC20Address != address(0) */\n      0xffffffffffffffffffffffffffffffffffffffff\n      dup2\n      and\n        /* \"contracts/Marketplace.sol\":5886:5962  require(_ERC20Address != address(0), \"ERC20 address cannot be zero address\") */\n      tag_194\n      jumpi\n      mload(0x40)\n      0x08c379a000000000000000000000000000000000000000000000000000000000\n      dup2\n      mstore\n        /* \"#utility.yul\":7262:7264   */\n      0x20\n        /* \"contracts/Marketplace.sol\":5886:5962  require(_ERC20Address != address(0), \"ERC20 address cannot be zero address\") */\n      0x04\n      dup3\n      add\n        /* \"#utility.yul\":7244:7265   */\n      mstore\n        /* \"#utility.yul\":7301:7303   */\n      0x24\n        /* \"#utility.yul\":7281:7299   */\n      dup1\n      dup3\n      add\n        /* \"#utility.yul\":7274:7304   */\n      mstore\n        /* \"#utility.yul\":7340:7374   */\n      0x455243323020616464726573732063616e6e6f74206265207a65726f20616464\n        /* \"#utility.yul\":7320:7338   */\n      0x44\n      dup3\n      add\n        /* \"#utility.yul\":7313:7375   */\n      mstore\n        /* \"#utility.yul\":7411:7417   */\n      0x7265737300000000000000000000000000000000000000000000000000000000\n        /* \"#utility.yul\":7391:7409   */\n      0x64\n      dup3\n      add\n        /* \"#utility.yul\":7384:7418   */\n      mstore\n        /* \"#utility.yul\":7435:7454   */\n      0x84\n      add\n        /* \"contracts/Marketplace.sol\":5886:5962  require(_ERC20Address != address(0), \"ERC20 address cannot be zero address\") */\n      tag_150\n        /* \"#utility.yul\":7060:7460   */\n      jump\n        /* \"contracts/Marketplace.sol\":5886:5962  require(_ERC20Address != address(0), \"ERC20 address cannot be zero address\") */\n    tag_194:\n        /* \"contracts/Marketplace.sol\":5973:5978  ERC20 */\n      0x02\n        /* \"contracts/Marketplace.sol\":5973:6002  ERC20 = IERC20(_ERC20Address) */\n      dup1\n      sload\n      0xffffffffffffffffffffffff0000000000000000000000000000000000000000\n      and\n      0xffffffffffffffffffffffffffffffffffffffff\n      dup4\n      and\n      swap1\n      dup2\n      or\n      swap1\n      swap2\n      sstore\n        /* \"contracts/Marketplace.sol\":6032:6062  ERC20.balanceOf(address(this)) */\n      mload(0x40)\n      0x70a0823100000000000000000000000000000000000000000000000000000000\n      dup2\n      mstore\n        /* \"contracts/Marketplace.sol\":6056:6060  this */\n      address\n        /* \"contracts/Marketplace.sol\":6032:6062  ERC20.balanceOf(address(this)) */\n      0x04\n      dup3\n      add\n        /* \"#utility.yul\":2500:2574   */\n      mstore\n        /* \"contracts/Marketplace.sol\":6032:6047  ERC20.balanceOf */\n      0x70a08231\n      swap1\n        /* \"#utility.yul\":2473:2491   */\n      0x24\n      add\n        /* \"contracts/Marketplace.sol\":6032:6062  ERC20.balanceOf(address(this)) */\n      0x20\n      mload(0x40)\n      dup1\n      dup4\n      sub\n      dup2\n      dup7\n      gas\n      staticcall\n      iszero\n      dup1\n      iszero\n      tag_199\n      jumpi\n      returndatasize\n      0x00\n      dup1\n      returndatacopy\n      revert(0x00, returndatasize)\n    tag_199:\n      pop\n      pop\n      pop\n      pop\n      mload(0x40)\n      returndatasize\n      not(0x1f)\n      0x1f\n      dup3\n      add\n      and\n      dup3\n      add\n      dup1\n      0x40\n      mstore\n      pop\n      dup2\n      add\n      swap1\n      tag_200\n      swap2\n      swap1\n      tag_201\n      jump\t// in\n    tag_200:\n        /* \"contracts/Marketplace.sol\":6021:6028  _amount */\n      dup3\n        /* \"contracts/Marketplace.sol\":6021:6062  _amount <= ERC20.balanceOf(address(this)) */\n      gt\n      iszero\n        /* \"contracts/Marketplace.sol\":6013:6086  require(_amount <= ERC20.balanceOf(address(this)), \"Insufficient funds.\") */\n      tag_202\n      jumpi\n      mload(0x40)\n      0x08c379a000000000000000000000000000000000000000000000000000000000\n      dup2\n      mstore\n        /* \"#utility.yul\":7856:7858   */\n      0x20\n        /* \"contracts/Marketplace.sol\":6013:6086  require(_amount <= ERC20.balanceOf(address(this)), \"Insufficient funds.\") */\n      0x04\n      dup3\n      add\n        /* \"#utility.yul\":7838:7859   */\n      mstore\n        /* \"#utility.yul\":7895:7897   */\n      0x13\n        /* \"#utility.yul\":7875:7893   */\n      0x24\n      dup3\n      add\n        /* \"#utility.yul\":7868:7898   */\n      mstore\n        /* \"#utility.yul\":7934:7955   */\n      0x496e73756666696369656e742066756e64732e00000000000000000000000000\n        /* \"#utility.yul\":7914:7932   */\n      0x44\n      dup3\n      add\n        /* \"#utility.yul\":7907:7956   */\n      mstore\n        /* \"#utility.yul\":7973:7991   */\n      0x64\n      add\n        /* \"contracts/Marketplace.sol\":6013:6086  require(_amount <= ERC20.balanceOf(address(this)), \"Insufficient funds.\") */\n      tag_150\n        /* \"#utility.yul\":7654:7997   */\n      jump\n        /* \"contracts/Marketplace.sol\":6013:6086  require(_amount <= ERC20.balanceOf(address(this)), \"Insufficient funds.\") */\n    tag_202:\n        /* \"contracts/Marketplace.sol\":6097:6102  ERC20 */\n      sload(0x02)\n        /* \"contracts/Marketplace.sol\":6097:6133  ERC20.transfer(msg.sender , _amount) */\n      mload(0x40)\n      0xa9059cbb00000000000000000000000000000000000000000000000000000000\n      dup2\n      mstore\n        /* \"contracts/Marketplace.sol\":6112:6122  msg.sender */\n      caller\n        /* \"contracts/Marketplace.sol\":6097:6133  ERC20.transfer(msg.sender , _amount) */\n      0x04\n      dup3\n      add\n        /* \"#utility.yul\":188:262   */\n      mstore\n        /* \"#utility.yul\":278:296   */\n      0x24\n      dup2\n      add\n        /* \"#utility.yul\":271:305   */\n      dup5\n      swap1\n      mstore\n        /* \"contracts/Marketplace.sol\":6097:6102  ERC20 */\n      0xffffffffffffffffffffffffffffffffffffffff\n      swap1\n      swap2\n      and\n      swap1\n        /* \"contracts/Marketplace.sol\":6097:6111  ERC20.transfer */\n      0xa9059cbb\n      swap1\n        /* \"#utility.yul\":161:179   */\n      0x44\n      add\n        /* \"contracts/Marketplace.sol\":6097:6133  ERC20.transfer(msg.sender , _amount) */\n      0x20\n      mload(0x40)\n      dup1\n      dup4\n      sub\n      dup2\n      0x00\n      dup8\n      gas\n      call\n      iszero\n      dup1\n      iszero\n      tag_207\n      jumpi\n      returndatasize\n      0x00\n      dup1\n      returndatacopy\n      revert(0x00, returndatasize)\n    tag_207:\n      pop\n      pop\n      pop\n      pop\n      mload(0x40)\n      returndatasize\n      not(0x1f)\n      0x1f\n      dup3\n      add\n      and\n      dup3\n      add\n      dup1\n      0x40\n      mstore\n      pop\n      dup2\n      add\n      swap1\n      tag_208\n      swap2\n      swap1\n      tag_168\n      jump\t// in\n    tag_208:\n      pop\n        /* \"@openzeppelin/contracts/security/ReentrancyGuard.sol\":2303:2323  _nonReentrantAfter() */\n      tag_209\n        /* \"@openzeppelin/contracts/security/ReentrancyGuard.sol\":1716:1717  1 */\n      0x01\n        /* \"@openzeppelin/contracts/security/ReentrancyGuard.sol\":2809:2831  _status = _NOT_ENTERED */\n      dup1\n      sstore\n        /* \"@openzeppelin/contracts/security/ReentrancyGuard.sol\":2629:2838  function _nonReentrantAfter() private {... */\n      jump\n        /* \"@openzeppelin/contracts/security/ReentrancyGuard.sol\":2303:2323  _nonReentrantAfter() */\n    tag_209:\n        /* \"contracts/Marketplace.sol\":5708:6141  function transferOrWithdraw (uint _amount, address _ERC20Address) public whenNotPaused nonReentrant onlyOwner {... */\n      pop\n      pop\n      jump\t// out\n        /* \"@openzeppelin/contracts/access/Ownable.sol\":2293:2394  function renounceOwnership() public virtual onlyOwner {... */\n    tag_69:\n        /* \"@openzeppelin/contracts/access/Ownable.sol\":1531:1544  _checkOwner() */\n      tag_211\n        /* \"@openzeppelin/contracts/access/Ownable.sol\":1531:1542  _checkOwner */\n      tag_135\n        /* \"@openzeppelin/contracts/access/Ownable.sol\":1531:1544  _checkOwner() */\n      jump\t// in\n    tag_211:\n        /* \"@openzeppelin/contracts/access/Ownable.sol\":2357:2387  _transferOwnership(address(0)) */\n      tag_137\n        /* \"@openzeppelin/contracts/access/Ownable.sol\":2384:2385  0 */\n      0x00\n        /* \"@openzeppelin/contracts/access/Ownable.sol\":2357:2375  _transferOwnership */\n      tag_214\n        /* \"@openzeppelin/contracts/access/Ownable.sol\":2357:2387  _transferOwnership(address(0)) */\n      jump\t// in\n        /* \"contracts/Marketplace.sol\":7633:7953  function getAllIdListed (ERC721 _nft, uint256 _tokenId) public view returns (uint){... */\n    tag_74:\n        /* \"contracts/Marketplace.sol\":7710:7714  uint */\n      0x00\n        /* \"contracts/Marketplace.sol\":7736:7737  1 */\n      0x01\n        /* \"contracts/Marketplace.sol\":7722:7933  for (uint i = 1; i <= numOfListing.current(); i++) {... */\n    tag_216:\n        /* \"contracts/Marketplace.sol\":7744:7756  numOfListing */\n      0x04\n        /* \"@openzeppelin/contracts/utils/Counters.sol\":918:932  counter._value */\n      sload\n        /* \"contracts/Marketplace.sol\":7739:7740  i */\n      dup2\n        /* \"contracts/Marketplace.sol\":7739:7766  i <= numOfListing.current() */\n      gt\n        /* \"contracts/Marketplace.sol\":7722:7933  for (uint i = 1; i <= numOfListing.current(); i++) {... */\n      tag_217\n      jumpi\n        /* \"contracts/Marketplace.sol\":7784:7810  NFTListing storage listing */\n      0x00\n        /* \"contracts/Marketplace.sol\":7813:7824  listings[i] */\n      dup2\n      dup2\n      mstore\n        /* \"contracts/Marketplace.sol\":7813:7821  listings */\n      0x09\n        /* \"contracts/Marketplace.sol\":7813:7824  listings[i] */\n      0x20\n      mstore\n      0x40\n      swap1\n      keccak256\n        /* \"contracts/Marketplace.sol\":7839:7850  listing.nft */\n      dup1\n      sload\n        /* \"contracts/Marketplace.sol\":7839:7858  listing.nft == _nft */\n      0xffffffffffffffffffffffffffffffffffffffff\n      dup7\n      dup2\n      and\n        /* \"contracts/Marketplace.sol\":7839:7850  listing.nft */\n      swap2\n      and\n        /* \"contracts/Marketplace.sol\":7839:7858  listing.nft == _nft */\n      eq\n        /* \"contracts/Marketplace.sol\":7839:7889  listing.nft == _nft && listing.tokenId == _tokenId */\n      dup1\n      iszero\n      tag_220\n      jumpi\n      pop\n        /* \"contracts/Marketplace.sol\":7881:7889  _tokenId */\n      dup4\n        /* \"contracts/Marketplace.sol\":7862:7869  listing */\n      dup2\n        /* \"contracts/Marketplace.sol\":7862:7877  listing.tokenId */\n      0x01\n      add\n      sload\n        /* \"contracts/Marketplace.sol\":7862:7889  listing.tokenId == _tokenId */\n      eq\n        /* \"contracts/Marketplace.sol\":7839:7889  listing.nft == _nft && listing.tokenId == _tokenId */\n    tag_220:\n        /* \"contracts/Marketplace.sol\":7835:7926  if (listing.nft == _nft && listing.tokenId == _tokenId) {... */\n      iszero\n      tag_221\n      jumpi\n      pop\n        /* \"contracts/Marketplace.sol\":7913:7914  i */\n      swap1\n      pop\n        /* \"contracts/Marketplace.sol\":7906:7914  return i */\n      jump(tag_215)\n        /* \"contracts/Marketplace.sol\":7835:7926  if (listing.nft == _nft && listing.tokenId == _tokenId) {... */\n    tag_221:\n      pop\n        /* \"contracts/Marketplace.sol\":7768:7771  i++ */\n      dup1\n      tag_222\n      dup2\n      tag_223\n      jump\t// in\n    tag_222:\n      swap2\n      pop\n      pop\n        /* \"contracts/Marketplace.sol\":7722:7933  for (uint i = 1; i <= numOfListing.current(); i++) {... */\n      jump(tag_216)\n    tag_217:\n      pop\n        /* \"contracts/Marketplace.sol\":7946:7947  0 */\n      0x00\n        /* \"contracts/Marketplace.sol\":7939:7947  return 0 */\n      swap1\n      pop\n        /* \"contracts/Marketplace.sol\":7633:7953  function getAllIdListed (ERC721 _nft, uint256 _tokenId) public view returns (uint){... */\n    tag_215:\n      swap3\n      swap2\n      pop\n      pop\n      jump\t// out\n        /* \"contracts/Marketplace.sol\":5037:5646  function updateNFT(ERC721 _nft, uint _Id, address _sender) public whenNotPaused nonReentrant onlyOwner {... */\n    tag_85:\n        /* \"@openzeppelin/contracts/security/Pausable.sol\":1239:1258  _requireNotPaused() */\n      tag_226\n        /* \"@openzeppelin/contracts/security/Pausable.sol\":1239:1256  _requireNotPaused */\n      tag_141\n        /* \"@openzeppelin/contracts/security/Pausable.sol\":1239:1258  _requireNotPaused() */\n      jump\t// in\n    tag_226:\n        /* \"@openzeppelin/contracts/security/ReentrancyGuard.sol\":2261:2282  _nonReentrantBefore() */\n      tag_228\n        /* \"@openzeppelin/contracts/security/ReentrancyGuard.sol\":2261:2280  _nonReentrantBefore */\n      tag_144\n        /* \"@openzeppelin/contracts/security/ReentrancyGuard.sol\":2261:2282  _nonReentrantBefore() */\n      jump\t// in\n    tag_228:\n        /* \"@openzeppelin/contracts/access/Ownable.sol\":1531:1544  _checkOwner() */\n      tag_230\n        /* \"@openzeppelin/contracts/access/Ownable.sol\":1531:1542  _checkOwner */\n      tag_135\n        /* \"@openzeppelin/contracts/access/Ownable.sol\":1531:1544  _checkOwner() */\n      jump\t// in\n    tag_230:\n        /* \"contracts/Marketplace.sol\":5151:5177  NFTListing storage listing */\n      0x00\n        /* \"contracts/Marketplace.sol\":5180:5193  listings[_Id] */\n      dup3\n      dup2\n      mstore\n        /* \"contracts/Marketplace.sol\":5180:5188  listings */\n      0x09\n        /* \"contracts/Marketplace.sol\":5180:5193  listings[_Id] */\n      0x20\n      mstore\n      0x40\n      swap1\n      keccak256\n        /* \"contracts/Marketplace.sol\":5212:5219  _Id > 0 */\n      dup3\n      iszero\n      dup1\n      iszero\n      swap1\n        /* \"contracts/Marketplace.sol\":5212:5252  _Id > 0 && _Id <= numOfListing.current() */\n      tag_232\n      jumpi\n      pop\n        /* \"contracts/Marketplace.sol\":5230:5242  numOfListing */\n      0x04\n        /* \"@openzeppelin/contracts/utils/Counters.sol\":918:932  counter._value */\n      sload\n        /* \"contracts/Marketplace.sol\":5223:5226  _Id */\n      dup4\n        /* \"contracts/Marketplace.sol\":5223:5252  _Id <= numOfListing.current() */\n      gt\n      iszero\n        /* \"contracts/Marketplace.sol\":5212:5252  _Id > 0 && _Id <= numOfListing.current() */\n    tag_232:\n        /* \"contracts/Marketplace.sol\":5204:5275  require(_Id > 0 && _Id <= numOfListing.current(), \"item doesn't exist\") */\n      tag_234\n      jumpi\n      mload(0x40)\n      0x08c379a000000000000000000000000000000000000000000000000000000000\n      dup2\n      mstore\n        /* \"#utility.yul\":5205:5207   */\n      0x20\n        /* \"contracts/Marketplace.sol\":5204:5275  require(_Id > 0 && _Id <= numOfListing.current(), \"item doesn't exist\") */\n      0x04\n      dup3\n      add\n        /* \"#utility.yul\":5187:5208   */\n      mstore\n        /* \"#utility.yul\":5244:5246   */\n      0x12\n        /* \"#utility.yul\":5224:5242   */\n      0x24\n      dup3\n      add\n        /* \"#utility.yul\":5217:5247   */\n      mstore\n        /* \"#utility.yul\":5283:5303   */\n      0x6974656d20646f65736e27742065786973740000000000000000000000000000\n        /* \"#utility.yul\":5263:5281   */\n      0x44\n      dup3\n      add\n        /* \"#utility.yul\":5256:5304   */\n      mstore\n        /* \"#utility.yul\":5321:5339   */\n      0x64\n      add\n        /* \"contracts/Marketplace.sol\":5204:5275  require(_Id > 0 && _Id <= numOfListing.current(), \"item doesn't exist\") */\n      tag_150\n        /* \"#utility.yul\":5003:5345   */\n      jump\n        /* \"contracts/Marketplace.sol\":5204:5275  require(_Id > 0 && _Id <= numOfListing.current(), \"item doesn't exist\") */\n    tag_234:\n        /* \"contracts/Marketplace.sol\":5294:5309  listing.forSale */\n      0x04\n      dup2\n      add\n      sload\n      0x010000000000000000000000000000000000000000\n      swap1\n      div\n      0xff\n      and\n        /* \"contracts/Marketplace.sol\":5294:5318  listing.forSale != false */\n      iszero\n      iszero\n        /* \"contracts/Marketplace.sol\":5313:5318  false */\n      0x00\n        /* \"contracts/Marketplace.sol\":5294:5318  listing.forSale != false */\n      sub\n        /* \"contracts/Marketplace.sol\":5286:5343  require(listing.forSale != false, \"item is not for sell\") */\n      tag_236\n      jumpi\n      mload(0x40)\n      0x08c379a000000000000000000000000000000000000000000000000000000000\n      dup2\n      mstore\n        /* \"#utility.yul\":5552:5554   */\n      0x20\n        /* \"contracts/Marketplace.sol\":5286:5343  require(listing.forSale != false, \"item is not for sell\") */\n      0x04\n      dup3\n      add\n        /* \"#utility.yul\":5534:5555   */\n      mstore\n        /* \"#utility.yul\":5591:5593   */\n      0x14\n        /* \"#utility.yul\":5571:5589   */\n      0x24\n      dup3\n      add\n        /* \"#utility.yul\":5564:5594   */\n      mstore\n        /* \"#utility.yul\":5630:5652   */\n      0x6974656d206973206e6f7420666f722073656c6c000000000000000000000000\n        /* \"#utility.yul\":5610:5628   */\n      0x44\n      dup3\n      add\n        /* \"#utility.yul\":5603:5653   */\n      mstore\n        /* \"#utility.yul\":5670:5688   */\n      0x64\n      add\n        /* \"contracts/Marketplace.sol\":5286:5343  require(listing.forSale != false, \"item is not for sell\") */\n      tag_150\n        /* \"#utility.yul\":5350:5694   */\n      jump\n        /* \"contracts/Marketplace.sol\":5286:5343  require(listing.forSale != false, \"item is not for sell\") */\n    tag_236:\n        /* \"contracts/Marketplace.sol\":5362:5376  listing.seller */\n      0x04\n      dup2\n      add\n      sload\n        /* \"contracts/Marketplace.sol\":5362:5387  listing.seller != _sender */\n      0xffffffffffffffffffffffffffffffffffffffff\n      dup1\n      dup5\n      and\n        /* \"contracts/Marketplace.sol\":5362:5376  listing.seller */\n      swap2\n      and\n        /* \"contracts/Marketplace.sol\":5362:5387  listing.seller != _sender */\n      sub\n        /* \"contracts/Marketplace.sol\":5354:5419  require(listing.seller != _sender, \"You cannot buy your own nft\") */\n      tag_238\n      jumpi\n      mload(0x40)\n      0x08c379a000000000000000000000000000000000000000000000000000000000\n      dup2\n      mstore\n        /* \"#utility.yul\":5901:5903   */\n      0x20\n        /* \"contracts/Marketplace.sol\":5354:5419  require(listing.seller != _sender, \"You cannot buy your own nft\") */\n      0x04\n      dup3\n      add\n        /* \"#utility.yul\":5883:5904   */\n      mstore\n        /* \"#utility.yul\":5940:5942   */\n      0x1b\n        /* \"#utility.yul\":5920:5938   */\n      0x24\n      dup3\n      add\n        /* \"#utility.yul\":5913:5943   */\n      mstore\n        /* \"#utility.yul\":5979:6008   */\n      0x596f752063616e6e6f742062757920796f7572206f776e206e66740000000000\n        /* \"#utility.yul\":5959:5977   */\n      0x44\n      dup3\n      add\n        /* \"#utility.yul\":5952:6009   */\n      mstore\n        /* \"#utility.yul\":6026:6044   */\n      0x64\n      add\n        /* \"contracts/Marketplace.sol\":5354:5419  require(listing.seller != _sender, \"You cannot buy your own nft\") */\n      tag_150\n        /* \"#utility.yul\":5699:6050   */\n      jump\n        /* \"contracts/Marketplace.sol\":5354:5419  require(listing.seller != _sender, \"You cannot buy your own nft\") */\n    tag_238:\n        /* \"contracts/Marketplace.sol\":5438:5449  listing.nft */\n      dup1\n      sload\n        /* \"contracts/Marketplace.sol\":5438:5457  listing.nft == _nft */\n      0xffffffffffffffffffffffffffffffffffffffff\n      dup6\n      dup2\n      and\n        /* \"contracts/Marketplace.sol\":5438:5449  listing.nft */\n      swap2\n      and\n        /* \"contracts/Marketplace.sol\":5438:5457  listing.nft == _nft */\n      eq\n        /* \"contracts/Marketplace.sol\":5430:5499  require(listing.nft == _nft, \"item is not the same contract address\") */\n      tag_240\n      jumpi\n      mload(0x40)\n      0x08c379a000000000000000000000000000000000000000000000000000000000\n      dup2\n      mstore\n        /* \"#utility.yul\":8593:8595   */\n      0x20\n        /* \"contracts/Marketplace.sol\":5430:5499  require(listing.nft == _nft, \"item is not the same contract address\") */\n      0x04\n      dup3\n      add\n        /* \"#utility.yul\":8575:8596   */\n      mstore\n        /* \"#utility.yul\":8632:8634   */\n      0x25\n        /* \"#utility.yul\":8612:8630   */\n      0x24\n      dup3\n      add\n        /* \"#utility.yul\":8605:8635   */\n      mstore\n        /* \"#utility.yul\":8671:8705   */\n      0x6974656d206973206e6f74207468652073616d6520636f6e7472616374206164\n        /* \"#utility.yul\":8651:8669   */\n      0x44\n      dup3\n      add\n        /* \"#utility.yul\":8644:8706   */\n      mstore\n        /* \"#utility.yul\":8742:8749   */\n      0x6472657373000000000000000000000000000000000000000000000000000000\n        /* \"#utility.yul\":8722:8740   */\n      0x64\n      dup3\n      add\n        /* \"#utility.yul\":8715:8750   */\n      mstore\n        /* \"#utility.yul\":8767:8786   */\n      0x84\n      add\n        /* \"contracts/Marketplace.sol\":5430:5499  require(listing.nft == _nft, \"item is not the same contract address\") */\n      tag_150\n        /* \"#utility.yul\":8391:8792   */\n      jump\n        /* \"contracts/Marketplace.sol\":5430:5499  require(listing.nft == _nft, \"item is not the same contract address\") */\n    tag_240:\n        /* \"contracts/Marketplace.sol\":5510:5524  listing.seller */\n      0x04\n      dup2\n      add\n        /* \"contracts/Marketplace.sol\":5510:5534  listing.seller = _sender */\n      dup1\n      sload\n        /* \"contracts/Marketplace.sol\":5545:5568  listing.forSale = false */\n      0xffffffffffffffffffffff000000000000000000000000000000000000000000\n      and\n        /* \"contracts/Marketplace.sol\":5510:5534  listing.seller = _sender */\n      0xffffffffffffffffffffffffffffffffffffffff\n      dup5\n      and\n        /* \"contracts/Marketplace.sol\":5545:5568  listing.forSale = false */\n      swap1\n      dup2\n      or\n      swap1\n      swap2\n      sstore\n      0x01\n        /* \"contracts/Marketplace.sol\":5607:5622  listing.tokenId */\n      dup3\n      add\n      sload\n        /* \"contracts/Marketplace.sol\":5624:5637  listing.price */\n      0x02\n      dup4\n      add\n      sload\n        /* \"contracts/Marketplace.sol\":5584:5638  updateToBuyer(_sender, listing.tokenId, listing.price) */\n      0x40\n      dup1\n      mload\n        /* \"#utility.yul\":6539:6613   */\n      swap4\n      dup5\n      mstore\n        /* \"#utility.yul\":6644:6646   */\n      0x20\n        /* \"#utility.yul\":6629:6647   */\n      dup5\n      add\n        /* \"#utility.yul\":6622:6656   */\n      swap3\n      swap1\n      swap3\n      mstore\n        /* \"#utility.yul\":6672:6690   */\n      swap1\n      dup3\n      add\n        /* \"#utility.yul\":6665:6699   */\n      mstore\n        /* \"contracts/Marketplace.sol\":5584:5638  updateToBuyer(_sender, listing.tokenId, listing.price) */\n      0xfc2e01ec8c4c53e02ee1fa8816c1692687966e0daef195be5b64c88d8e58e3ee\n      swap1\n        /* \"#utility.yul\":6527:6529   */\n      0x60\n        /* \"#utility.yul\":6512:6530   */\n      add\n        /* \"contracts/Marketplace.sol\":5584:5638  updateToBuyer(_sender, listing.tokenId, listing.price) */\n      mload(0x40)\n      dup1\n      swap2\n      sub\n      swap1\n      log1\n        /* \"contracts/Marketplace.sol\":5140:5646  {... */\n      pop\n        /* \"@openzeppelin/contracts/security/ReentrancyGuard.sol\":2303:2323  _nonReentrantAfter() */\n      tag_244\n        /* \"@openzeppelin/contracts/security/ReentrancyGuard.sol\":1716:1717  1 */\n      0x01\n        /* \"@openzeppelin/contracts/security/ReentrancyGuard.sol\":2809:2831  _status = _NOT_ENTERED */\n      dup1\n      sstore\n        /* \"@openzeppelin/contracts/security/ReentrancyGuard.sol\":2629:2838  function _nonReentrantAfter() private {... */\n      jump\n        /* \"@openzeppelin/contracts/security/ReentrancyGuard.sol\":2303:2323  _nonReentrantAfter() */\n    tag_244:\n        /* \"contracts/Marketplace.sol\":5037:5646  function updateNFT(ERC721 _nft, uint _Id, address _sender) public whenNotPaused nonReentrant onlyOwner {... */\n      pop\n      pop\n      pop\n      jump\t// out\n        /* \"contracts/Marketplace.sol\":2594:2970  function cancel(ERC721 _nft, uint _Id) public payable onlyNftOwner(_nft, _Id) {... */\n    tag_88:\n        /* \"contracts/Marketplace.sol\":1507:1520  listings[_Id] */\n      0x00\n      dup2\n      dup2\n      mstore\n        /* \"contracts/Marketplace.sol\":1507:1515  listings */\n      0x09\n        /* \"contracts/Marketplace.sol\":1507:1520  listings[_Id] */\n      0x20\n      mstore\n      0x40\n      swap1\n      keccak256\n        /* \"contracts/Marketplace.sol\":1507:1527  listings[_Id].seller */\n      0x04\n      add\n      sload\n        /* \"contracts/Marketplace.sol\":2661:2665  _nft */\n      dup3\n      swap1\n        /* \"contracts/Marketplace.sol\":1507:1520  listings[_Id] */\n      dup3\n      swap1\n        /* \"contracts/Marketplace.sol\":1507:1527  listings[_Id].seller */\n      0xffffffffffffffffffffffffffffffffffffffff\n      and\n        /* \"contracts/Marketplace.sol\":1493:1503  msg.sender */\n      caller\n        /* \"contracts/Marketplace.sol\":1493:1527  msg.sender == listings[_Id].seller */\n      eq\n        /* \"contracts/Marketplace.sol\":1485:1528  require(msg.sender == listings[_Id].seller) */\n      tag_246\n      jumpi\n      0x00\n      dup1\n      revert\n    tag_246:\n        /* \"contracts/Marketplace.sol\":1555:1568  listings[_Id] */\n      0x00\n      dup2\n      dup2\n      mstore\n        /* \"contracts/Marketplace.sol\":1555:1563  listings */\n      0x09\n        /* \"contracts/Marketplace.sol\":1555:1568  listings[_Id] */\n      0x20\n      mstore\n      0x40\n      swap1\n      keccak256\n        /* \"contracts/Marketplace.sol\":1555:1572  listings[_Id].nft */\n      sload\n      0xffffffffffffffffffffffffffffffffffffffff\n        /* \"contracts/Marketplace.sol\":1547:1572  _nft == listings[_Id].nft */\n      dup4\n      dup2\n      and\n        /* \"contracts/Marketplace.sol\":1555:1572  listings[_Id].nft */\n      swap2\n      and\n        /* \"contracts/Marketplace.sol\":1547:1572  _nft == listings[_Id].nft */\n      eq\n        /* \"contracts/Marketplace.sol\":1539:1573  require(_nft == listings[_Id].nft) */\n      tag_247\n      jumpi\n      0x00\n      dup1\n      revert\n    tag_247:\n        /* \"contracts/Marketplace.sol\":2683:2709  NFTListing storage listing */\n      0x00\n        /* \"contracts/Marketplace.sol\":2712:2725  listings[_Id] */\n      dup4\n      dup2\n      mstore\n        /* \"contracts/Marketplace.sol\":2712:2720  listings */\n      0x09\n        /* \"contracts/Marketplace.sol\":2712:2725  listings[_Id] */\n      0x20\n      mstore\n      0x40\n      swap1\n      keccak256\n        /* \"contracts/Marketplace.sol\":2744:2758  listing.seller */\n      0x04\n      dup2\n      add\n      sload\n        /* \"contracts/Marketplace.sol\":2744:2772  listing.seller == msg.sender */\n      0xffffffffffffffffffffffffffffffffffffffff\n        /* \"contracts/Marketplace.sol\":2744:2758  listing.seller */\n      and\n        /* \"contracts/Marketplace.sol\":2762:2772  msg.sender */\n      caller\n        /* \"contracts/Marketplace.sol\":2744:2772  listing.seller == msg.sender */\n      eq\n        /* \"contracts/Marketplace.sol\":2736:2794  require(listing.seller == msg.sender, \"is not the seller\") */\n      tag_249\n      jumpi\n      mload(0x40)\n      0x08c379a000000000000000000000000000000000000000000000000000000000\n      dup2\n      mstore\n        /* \"#utility.yul\":8999:9001   */\n      0x20\n        /* \"contracts/Marketplace.sol\":2736:2794  require(listing.seller == msg.sender, \"is not the seller\") */\n      0x04\n      dup3\n      add\n        /* \"#utility.yul\":8981:9002   */\n      mstore\n        /* \"#utility.yul\":9038:9040   */\n      0x11\n        /* \"#utility.yul\":9018:9036   */\n      0x24\n      dup3\n      add\n        /* \"#utility.yul\":9011:9041   */\n      mstore\n        /* \"#utility.yul\":9077:9096   */\n      0x6973206e6f74207468652073656c6c6572000000000000000000000000000000\n        /* \"#utility.yul\":9057:9075   */\n      0x44\n      dup3\n      add\n        /* \"#utility.yul\":9050:9097   */\n      mstore\n        /* \"#utility.yul\":9114:9132   */\n      0x64\n      add\n        /* \"contracts/Marketplace.sol\":2736:2794  require(listing.seller == msg.sender, \"is not the seller\") */\n      tag_150\n        /* \"#utility.yul\":8797:9138   */\n      jump\n        /* \"contracts/Marketplace.sol\":2736:2794  require(listing.seller == msg.sender, \"is not the seller\") */\n    tag_249:\n        /* \"contracts/Marketplace.sol\":2813:2828  listing.forSale */\n      0x04\n      dup2\n      add\n      sload\n      0x010000000000000000000000000000000000000000\n      swap1\n      div\n      0xff\n      and\n        /* \"contracts/Marketplace.sol\":2813:2836  listing.forSale == true */\n      iszero\n      iszero\n        /* \"contracts/Marketplace.sol\":2832:2836  true */\n      0x01\n        /* \"contracts/Marketplace.sol\":2813:2836  listing.forSale == true */\n      eq\n        /* \"contracts/Marketplace.sol\":2805:2856  require(listing.forSale == true, \"is not listened\") */\n      tag_252\n      jumpi\n      mload(0x40)\n      0x08c379a000000000000000000000000000000000000000000000000000000000\n      dup2\n      mstore\n        /* \"#utility.yul\":9345:9347   */\n      0x20\n        /* \"contracts/Marketplace.sol\":2805:2856  require(listing.forSale == true, \"is not listened\") */\n      0x04\n      dup3\n      add\n        /* \"#utility.yul\":9327:9348   */\n      mstore\n        /* \"#utility.yul\":9384:9386   */\n      0x0f\n        /* \"#utility.yul\":9364:9382   */\n      0x24\n      dup3\n      add\n        /* \"#utility.yul\":9357:9387   */\n      mstore\n        /* \"#utility.yul\":9423:9440   */\n      0x6973206e6f74206c697374656e65640000000000000000000000000000000000\n        /* \"#utility.yul\":9403:9421   */\n      0x44\n      dup3\n      add\n        /* \"#utility.yul\":9396:9441   */\n      mstore\n        /* \"#utility.yul\":9458:9476   */\n      0x64\n      add\n        /* \"contracts/Marketplace.sol\":2805:2856  require(listing.forSale == true, \"is not listened\") */\n      tag_150\n        /* \"#utility.yul\":9143:9482   */\n      jump\n        /* \"contracts/Marketplace.sol\":2805:2856  require(listing.forSale == true, \"is not listened\") */\n    tag_252:\n        /* \"contracts/Marketplace.sol\":2912:2927  listing.tokenId */\n      0x01\n      dup2\n      add\n      sload\n        /* \"contracts/Marketplace.sol\":2867:2928  _nft.transferFrom(address(this), msg.sender, listing.tokenId) */\n      mload(0x40)\n      0x23b872dd00000000000000000000000000000000000000000000000000000000\n      dup2\n      mstore\n        /* \"contracts/Marketplace.sol\":2893:2897  this */\n      address\n        /* \"contracts/Marketplace.sol\":2867:2928  _nft.transferFrom(address(this), msg.sender, listing.tokenId) */\n      0x04\n      dup3\n      add\n        /* \"#utility.yul\":9750:9784   */\n      mstore\n        /* \"contracts/Marketplace.sol\":2900:2910  msg.sender */\n      caller\n        /* \"#utility.yul\":9800:9818   */\n      0x24\n      dup3\n      add\n        /* \"#utility.yul\":9793:9836   */\n      mstore\n        /* \"#utility.yul\":9852:9870   */\n      0x44\n      dup2\n      add\n        /* \"#utility.yul\":9845:9879   */\n      swap2\n      swap1\n      swap2\n      mstore\n        /* \"contracts/Marketplace.sol\":2867:2884  _nft.transferFrom */\n      0xffffffffffffffffffffffffffffffffffffffff\n      dup7\n      and\n      swap1\n      0x23b872dd\n      swap1\n        /* \"#utility.yul\":9662:9680   */\n      0x64\n      add\n        /* \"contracts/Marketplace.sol\":2867:2928  _nft.transferFrom(address(this), msg.sender, listing.tokenId) */\n      0x00\n      mload(0x40)\n      dup1\n      dup4\n      sub\n      dup2\n      0x00\n      dup8\n      dup1\n      extcodesize\n      iszero\n      dup1\n      iszero\n      tag_257\n      jumpi\n      0x00\n      dup1\n      revert\n    tag_257:\n      pop\n      gas\n      call\n      iszero\n      dup1\n      iszero\n      tag_259\n      jumpi\n      returndatasize\n      0x00\n      dup1\n      returndatacopy\n      revert(0x00, returndatasize)\n    tag_259:\n      pop\n      pop\n      pop\n      pop\n        /* \"contracts/Marketplace.sol\":2939:2954  listing.forSale */\n      0x04\n      add\n        /* \"contracts/Marketplace.sol\":2939:2962  listing.forSale = false */\n      dup1\n      sload\n      0xffffffffffffffffffffff00ffffffffffffffffffffffffffffffffffffffff\n      and\n      swap1\n      sstore\n      pop\n      pop\n      pop\n      pop\n        /* \"contracts/Marketplace.sol\":2594:2970  function cancel(ERC721 _nft, uint _Id) public payable onlyNftOwner(_nft, _Id) {... */\n      jump\t// out\n        /* \"contracts/Marketplace.sol\":6181:6294  function updateComissionPercentage(uint256 _value) public onlyOwner{... */\n    tag_92:\n        /* \"@openzeppelin/contracts/access/Ownable.sol\":1531:1544  _checkOwner() */\n      tag_261\n        /* \"@openzeppelin/contracts/access/Ownable.sol\":1531:1542  _checkOwner */\n      tag_135\n        /* \"@openzeppelin/contracts/access/Ownable.sol\":1531:1544  _checkOwner() */\n      jump\t// in\n    tag_261:\n        /* \"contracts/Marketplace.sol\":6259:6279  commissionPercentage */\n      0x05\n        /* \"contracts/Marketplace.sol\":6259:6288  commissionPercentage = _value */\n      sstore\n        /* \"contracts/Marketplace.sol\":6181:6294  function updateComissionPercentage(uint256 _value) public onlyOwner{... */\n      jump\t// out\n        /* \"contracts/Marketplace.sol\":3044:4065  function buyNFT(ERC721 _nft, uint _Id) public payable whenNotPaused nonReentrant {... */\n    tag_95:\n        /* \"@openzeppelin/contracts/security/Pausable.sol\":1239:1258  _requireNotPaused() */\n      tag_264\n        /* \"@openzeppelin/contracts/security/Pausable.sol\":1239:1256  _requireNotPaused */\n      tag_141\n        /* \"@openzeppelin/contracts/security/Pausable.sol\":1239:1258  _requireNotPaused() */\n      jump\t// in\n    tag_264:\n        /* \"@openzeppelin/contracts/security/ReentrancyGuard.sol\":2261:2282  _nonReentrantBefore() */\n      tag_266\n        /* \"@openzeppelin/contracts/security/ReentrancyGuard.sol\":2261:2280  _nonReentrantBefore */\n      tag_144\n        /* \"@openzeppelin/contracts/security/ReentrancyGuard.sol\":2261:2282  _nonReentrantBefore() */\n      jump\t// in\n    tag_266:\n        /* \"contracts/Marketplace.sol\":3136:3162  NFTListing storage listing */\n      0x00\n        /* \"contracts/Marketplace.sol\":3165:3178  listings[_Id] */\n      dup2\n      dup2\n      mstore\n        /* \"contracts/Marketplace.sol\":3165:3173  listings */\n      0x09\n        /* \"contracts/Marketplace.sol\":3165:3178  listings[_Id] */\n      0x20\n      mstore\n      0x40\n      swap1\n      keccak256\n        /* \"contracts/Marketplace.sol\":3197:3204  _Id > 0 */\n      dup2\n      iszero\n      dup1\n      iszero\n      swap1\n        /* \"contracts/Marketplace.sol\":3197:3237  _Id > 0 && _Id <= numOfListing.current() */\n      tag_268\n      jumpi\n      pop\n        /* \"contracts/Marketplace.sol\":3215:3227  numOfListing */\n      0x04\n        /* \"@openzeppelin/contracts/utils/Counters.sol\":918:932  counter._value */\n      sload\n        /* \"contracts/Marketplace.sol\":3208:3211  _Id */\n      dup3\n        /* \"contracts/Marketplace.sol\":3208:3237  _Id <= numOfListing.current() */\n      gt\n      iszero\n        /* \"contracts/Marketplace.sol\":3197:3237  _Id > 0 && _Id <= numOfListing.current() */\n    tag_268:\n        /* \"contracts/Marketplace.sol\":3189:3260  require(_Id > 0 && _Id <= numOfListing.current(), \"item doesn't exist\") */\n      tag_270\n      jumpi\n      mload(0x40)\n      0x08c379a000000000000000000000000000000000000000000000000000000000\n      dup2\n      mstore\n        /* \"#utility.yul\":5205:5207   */\n      0x20\n        /* \"contracts/Marketplace.sol\":3189:3260  require(_Id > 0 && _Id <= numOfListing.current(), \"item doesn't exist\") */\n      0x04\n      dup3\n      add\n        /* \"#utility.yul\":5187:5208   */\n      mstore\n        /* \"#utility.yul\":5244:5246   */\n      0x12\n        /* \"#utility.yul\":5224:5242   */\n      0x24\n      dup3\n      add\n        /* \"#utility.yul\":5217:5247   */\n      mstore\n        /* \"#utility.yul\":5283:5303   */\n      0x6974656d20646f65736e27742065786973740000000000000000000000000000\n        /* \"#utility.yul\":5263:5281   */\n      0x44\n      dup3\n      add\n        /* \"#utility.yul\":5256:5304   */\n      mstore\n        /* \"#utility.yul\":5321:5339   */\n      0x64\n      add\n        /* \"contracts/Marketplace.sol\":3189:3260  require(_Id > 0 && _Id <= numOfListing.current(), \"item doesn't exist\") */\n      tag_150\n        /* \"#utility.yul\":5003:5345   */\n      jump\n        /* \"contracts/Marketplace.sol\":3189:3260  require(_Id > 0 && _Id <= numOfListing.current(), \"item doesn't exist\") */\n    tag_270:\n        /* \"contracts/Marketplace.sol\":3279:3294  listing.forSale */\n      0x04\n      dup2\n      add\n      sload\n      0x010000000000000000000000000000000000000000\n      swap1\n      div\n      0xff\n      and\n        /* \"contracts/Marketplace.sol\":3279:3303  listing.forSale != false */\n      iszero\n      iszero\n        /* \"contracts/Marketplace.sol\":3298:3303  false */\n      0x00\n        /* \"contracts/Marketplace.sol\":3279:3303  listing.forSale != false */\n      sub\n        /* \"contracts/Marketplace.sol\":3271:3328  require(listing.forSale != false, \"item is not for sell\") */\n      tag_272\n      jumpi\n      mload(0x40)\n      0x08c379a000000000000000000000000000000000000000000000000000000000\n      dup2\n      mstore\n        /* \"#utility.yul\":5552:5554   */\n      0x20\n        /* \"contracts/Marketplace.sol\":3271:3328  require(listing.forSale != false, \"item is not for sell\") */\n      0x04\n      dup3\n      add\n        /* \"#utility.yul\":5534:5555   */\n      mstore\n        /* \"#utility.yul\":5591:5593   */\n      0x14\n        /* \"#utility.yul\":5571:5589   */\n      0x24\n      dup3\n      add\n        /* \"#utility.yul\":5564:5594   */\n      mstore\n        /* \"#utility.yul\":5630:5652   */\n      0x6974656d206973206e6f7420666f722073656c6c000000000000000000000000\n        /* \"#utility.yul\":5610:5628   */\n      0x44\n      dup3\n      add\n        /* \"#utility.yul\":5603:5653   */\n      mstore\n        /* \"#utility.yul\":5670:5688   */\n      0x64\n      add\n        /* \"contracts/Marketplace.sol\":3271:3328  require(listing.forSale != false, \"item is not for sell\") */\n      tag_150\n        /* \"#utility.yul\":5350:5694   */\n      jump\n        /* \"contracts/Marketplace.sol\":3271:3328  require(listing.forSale != false, \"item is not for sell\") */\n    tag_272:\n        /* \"contracts/Marketplace.sol\":3347:3361  listing.seller */\n      0x04\n      dup2\n      add\n      sload\n        /* \"contracts/Marketplace.sol\":3365:3375  msg.sender */\n      caller\n        /* \"contracts/Marketplace.sol\":3347:3375  listing.seller != msg.sender */\n      0xffffffffffffffffffffffffffffffffffffffff\n        /* \"contracts/Marketplace.sol\":3347:3361  listing.seller */\n      swap1\n      swap2\n      and\n        /* \"contracts/Marketplace.sol\":3347:3375  listing.seller != msg.sender */\n      sub\n        /* \"contracts/Marketplace.sol\":3339:3407  require(listing.seller != msg.sender, \"You cannot buy your own nft\") */\n      tag_274\n      jumpi\n      mload(0x40)\n      0x08c379a000000000000000000000000000000000000000000000000000000000\n      dup2\n      mstore\n        /* \"#utility.yul\":5901:5903   */\n      0x20\n        /* \"contracts/Marketplace.sol\":3339:3407  require(listing.seller != msg.sender, \"You cannot buy your own nft\") */\n      0x04\n      dup3\n      add\n        /* \"#utility.yul\":5883:5904   */\n      mstore\n        /* \"#utility.yul\":5940:5942   */\n      0x1b\n        /* \"#utility.yul\":5920:5938   */\n      0x24\n      dup3\n      add\n        /* \"#utility.yul\":5913:5943   */\n      mstore\n        /* \"#utility.yul\":5979:6008   */\n      0x596f752063616e6e6f742062757920796f7572206f776e206e66740000000000\n        /* \"#utility.yul\":5959:5977   */\n      0x44\n      dup3\n      add\n        /* \"#utility.yul\":5952:6009   */\n      mstore\n        /* \"#utility.yul\":6026:6044   */\n      0x64\n      add\n        /* \"contracts/Marketplace.sol\":3339:3407  require(listing.seller != msg.sender, \"You cannot buy your own nft\") */\n      tag_150\n        /* \"#utility.yul\":5699:6050   */\n      jump\n        /* \"contracts/Marketplace.sol\":3339:3407  require(listing.seller != msg.sender, \"You cannot buy your own nft\") */\n    tag_274:\n        /* \"contracts/Marketplace.sol\":3426:3437  listing.nft */\n      dup1\n      sload\n        /* \"contracts/Marketplace.sol\":3426:3445  listing.nft == _nft */\n      0xffffffffffffffffffffffffffffffffffffffff\n      dup5\n      dup2\n      and\n        /* \"contracts/Marketplace.sol\":3426:3437  listing.nft */\n      swap2\n      and\n        /* \"contracts/Marketplace.sol\":3426:3445  listing.nft == _nft */\n      eq\n        /* \"contracts/Marketplace.sol\":3418:3487  require(listing.nft == _nft, \"item is not the same contract address\") */\n      tag_276\n      jumpi\n      mload(0x40)\n      0x08c379a000000000000000000000000000000000000000000000000000000000\n      dup2\n      mstore\n        /* \"#utility.yul\":8593:8595   */\n      0x20\n        /* \"contracts/Marketplace.sol\":3418:3487  require(listing.nft == _nft, \"item is not the same contract address\") */\n      0x04\n      dup3\n      add\n        /* \"#utility.yul\":8575:8596   */\n      mstore\n        /* \"#utility.yul\":8632:8634   */\n      0x25\n        /* \"#utility.yul\":8612:8630   */\n      0x24\n      dup3\n      add\n        /* \"#utility.yul\":8605:8635   */\n      mstore\n        /* \"#utility.yul\":8671:8705   */\n      0x6974656d206973206e6f74207468652073616d6520636f6e7472616374206164\n        /* \"#utility.yul\":8651:8669   */\n      0x44\n      dup3\n      add\n        /* \"#utility.yul\":8644:8706   */\n      mstore\n        /* \"#utility.yul\":8742:8749   */\n      0x6472657373000000000000000000000000000000000000000000000000000000\n        /* \"#utility.yul\":8722:8740   */\n      0x64\n      dup3\n      add\n        /* \"#utility.yul\":8715:8750   */\n      mstore\n        /* \"#utility.yul\":8767:8786   */\n      0x84\n      add\n        /* \"contracts/Marketplace.sol\":3418:3487  require(listing.nft == _nft, \"item is not the same contract address\") */\n      tag_150\n        /* \"#utility.yul\":8391:8792   */\n      jump\n        /* \"contracts/Marketplace.sol\":3418:3487  require(listing.nft == _nft, \"item is not the same contract address\") */\n    tag_276:\n        /* \"contracts/Marketplace.sol\":3519:3526  listing */\n      dup1\n        /* \"contracts/Marketplace.sol\":3519:3532  listing.price */\n      0x02\n      add\n      sload\n        /* \"contracts/Marketplace.sol\":3506:3515  msg.value */\n      callvalue\n        /* \"contracts/Marketplace.sol\":3506:3532  msg.value >= listing.price */\n      lt\n      iszero\n        /* \"contracts/Marketplace.sol\":3498:3576  require(msg.value >= listing.price, \"not enough balance for this transaction\") */\n      tag_278\n      jumpi\n      mload(0x40)\n      0x08c379a000000000000000000000000000000000000000000000000000000000\n      dup2\n      mstore\n        /* \"#utility.yul\":10092:10094   */\n      0x20\n        /* \"contracts/Marketplace.sol\":3498:3576  require(msg.value >= listing.price, \"not enough balance for this transaction\") */\n      0x04\n      dup3\n      add\n        /* \"#utility.yul\":10074:10095   */\n      mstore\n        /* \"#utility.yul\":10131:10133   */\n      0x27\n        /* \"#utility.yul\":10111:10129   */\n      0x24\n      dup3\n      add\n        /* \"#utility.yul\":10104:10134   */\n      mstore\n        /* \"#utility.yul\":10170:10204   */\n      0x6e6f7420656e6f7567682062616c616e636520666f722074686973207472616e\n        /* \"#utility.yul\":10150:10168   */\n      0x44\n      dup3\n      add\n        /* \"#utility.yul\":10143:10205   */\n      mstore\n        /* \"#utility.yul\":10241:10250   */\n      0x73616374696f6e00000000000000000000000000000000000000000000000000\n        /* \"#utility.yul\":10221:10239   */\n      0x64\n      dup3\n      add\n        /* \"#utility.yul\":10214:10251   */\n      mstore\n        /* \"#utility.yul\":10268:10287   */\n      0x84\n      add\n        /* \"contracts/Marketplace.sol\":3498:3576  require(msg.value >= listing.price, \"not enough balance for this transaction\") */\n      tag_150\n        /* \"#utility.yul\":9890:10293   */\n      jump\n        /* \"contracts/Marketplace.sol\":3498:3576  require(msg.value >= listing.price, \"not enough balance for this transaction\") */\n    tag_278:\n        /* \"contracts/Marketplace.sol\":3602:3615  listing.price */\n      0x02\n      dup2\n      add\n      sload\n        /* \"contracts/Marketplace.sol\":3587:3599  amountListed */\n      0x08\n        /* \"contracts/Marketplace.sol\":3587:3615  amountListed = listing.price */\n      dup2\n      swap1\n      sstore\n        /* \"contracts/Marketplace.sol\":3661:3681  commissionPercentage */\n      sload(0x05)\n        /* \"contracts/Marketplace.sol\":3644:3693  amountListed.mul(commissionPercentage).div(10000) */\n      tag_281\n      swap2\n        /* \"contracts/Marketplace.sol\":3687:3692  10000 */\n      0x2710\n      swap2\n        /* \"contracts/Marketplace.sol\":3644:3682  amountListed.mul(commissionPercentage) */\n      tag_159\n      swap2\n        /* \"contracts/Marketplace.sol\":3602:3615  listing.price */\n      swap1\n        /* \"contracts/Marketplace.sol\":3644:3660  amountListed.mul */\n      tag_160\n        /* \"contracts/Marketplace.sol\":3644:3682  amountListed.mul(commissionPercentage) */\n      jump\t// in\n        /* \"contracts/Marketplace.sol\":3644:3693  amountListed.mul(commissionPercentage).div(10000) */\n    tag_281:\n        /* \"contracts/Marketplace.sol\":3626:3641  comissionAmount */\n      0x06\n        /* \"contracts/Marketplace.sol\":3626:3693  comissionAmount = amountListed.mul(commissionPercentage).div(10000) */\n      dup2\n      swap1\n      sstore\n        /* \"contracts/Marketplace.sol\":3719:3731  amountListed */\n      sload(0x08)\n        /* \"contracts/Marketplace.sol\":3719:3752  amountListed.sub(comissionAmount) */\n      tag_283\n      swap2\n        /* \"contracts/Marketplace.sol\":3719:3735  amountListed.sub */\n      tag_163\n        /* \"contracts/Marketplace.sol\":3719:3752  amountListed.sub(comissionAmount) */\n      jump\t// in\n    tag_283:\n        /* \"contracts/Marketplace.sol\":3704:3716  sellerAmount */\n      0x07\n        /* \"contracts/Marketplace.sol\":3704:3752  sellerAmount = amountListed.sub(comissionAmount) */\n      dup2\n      swap1\n      sstore\n        /* \"contracts/Marketplace.sol\":3778:3790  listing.coin */\n      0x03\n      dup3\n      add\n      sload\n        /* \"contracts/Marketplace.sol\":3763:3768  ERC20 */\n      0x02\n        /* \"contracts/Marketplace.sol\":3763:3791  ERC20 = IERC20(listing.coin) */\n      dup1\n      sload\n      0xffffffffffffffffffffffff0000000000000000000000000000000000000000\n      and\n        /* \"contracts/Marketplace.sol\":3778:3790  listing.coin */\n      0xffffffffffffffffffffffffffffffffffffffff\n      swap3\n      dup4\n      and\n        /* \"contracts/Marketplace.sol\":3763:3791  ERC20 = IERC20(listing.coin) */\n      swap1\n      dup2\n      or\n      swap1\n      swap2\n      sstore\n        /* \"contracts/Marketplace.sol\":3817:3831  listing.seller */\n      0x04\n      dup1\n      dup6\n      add\n      sload\n        /* \"contracts/Marketplace.sol\":3802:3846  ERC20.transfer(listing.seller, sellerAmount) */\n      mload(0x40)\n      0xa9059cbb00000000000000000000000000000000000000000000000000000000\n      dup2\n      mstore\n        /* \"contracts/Marketplace.sol\":3817:3831  listing.seller */\n      swap4\n      and\n        /* \"contracts/Marketplace.sol\":3802:3846  ERC20.transfer(listing.seller, sellerAmount) */\n      swap1\n      dup4\n      add\n        /* \"#utility.yul\":188:262   */\n      mstore\n        /* \"#utility.yul\":278:296   */\n      0x24\n      dup3\n      add\n        /* \"#utility.yul\":271:305   */\n      swap3\n      swap1\n      swap3\n      mstore\n        /* \"contracts/Marketplace.sol\":3802:3816  ERC20.transfer */\n      0xa9059cbb\n      swap1\n        /* \"#utility.yul\":161:179   */\n      0x44\n      add\n        /* \"contracts/Marketplace.sol\":3802:3846  ERC20.transfer(listing.seller, sellerAmount) */\n      0x20\n      mload(0x40)\n      dup1\n      dup4\n      sub\n      dup2\n      0x00\n      dup8\n      gas\n      call\n      iszero\n      dup1\n      iszero\n      tag_286\n      jumpi\n      returndatasize\n      0x00\n      dup1\n      returndatacopy\n      revert(0x00, returndatasize)\n    tag_286:\n      pop\n      pop\n      pop\n      pop\n      mload(0x40)\n      returndatasize\n      not(0x1f)\n      0x1f\n      dup3\n      add\n      and\n      dup3\n      add\n      dup1\n      0x40\n      mstore\n      pop\n      dup2\n      add\n      swap1\n      tag_287\n      swap2\n      swap1\n      tag_168\n      jump\t// in\n    tag_287:\n      pop\n        /* \"contracts/Marketplace.sol\":3904:3919  listing.tokenId */\n      0x01\n      dup2\n      add\n      sload\n        /* \"contracts/Marketplace.sol\":3859:3920  _nft.transferFrom(address(this), msg.sender, listing.tokenId) */\n      mload(0x40)\n      0x23b872dd00000000000000000000000000000000000000000000000000000000\n      dup2\n      mstore\n        /* \"contracts/Marketplace.sol\":3885:3889  this */\n      address\n        /* \"contracts/Marketplace.sol\":3859:3920  _nft.transferFrom(address(this), msg.sender, listing.tokenId) */\n      0x04\n      dup3\n      add\n        /* \"#utility.yul\":9750:9784   */\n      mstore\n        /* \"contracts/Marketplace.sol\":3892:3902  msg.sender */\n      caller\n        /* \"#utility.yul\":9800:9818   */\n      0x24\n      dup3\n      add\n        /* \"#utility.yul\":9793:9836   */\n      mstore\n        /* \"#utility.yul\":9852:9870   */\n      0x44\n      dup2\n      add\n        /* \"#utility.yul\":9845:9879   */\n      swap2\n      swap1\n      swap2\n      mstore\n        /* \"contracts/Marketplace.sol\":3859:3876  _nft.transferFrom */\n      0xffffffffffffffffffffffffffffffffffffffff\n      dup5\n      and\n      swap1\n      0x23b872dd\n      swap1\n        /* \"#utility.yul\":9662:9680   */\n      0x64\n      add\n        /* \"contracts/Marketplace.sol\":3859:3920  _nft.transferFrom(address(this), msg.sender, listing.tokenId) */\n      0x00\n      mload(0x40)\n      dup1\n      dup4\n      sub\n      dup2\n      0x00\n      dup8\n      dup1\n      extcodesize\n      iszero\n      dup1\n      iszero\n      tag_289\n      jumpi\n      0x00\n      dup1\n      revert\n    tag_289:\n      pop\n      gas\n      call\n      iszero\n      dup1\n      iszero\n      tag_291\n      jumpi\n      returndatasize\n      0x00\n      dup1\n      returndatacopy\n      revert(0x00, returndatasize)\n    tag_291:\n      pop\n      pop\n      pop\n      pop\n        /* \"contracts/Marketplace.sol\":3931:3945  listing.seller */\n      0x04\n      dup2\n      add\n        /* \"contracts/Marketplace.sol\":3931:3958  listing.seller = msg.sender */\n      dup1\n      sload\n        /* \"contracts/Marketplace.sol\":3969:3992  listing.forSale = false */\n      0xffffffffffffffffffffff000000000000000000000000000000000000000000\n      and\n        /* \"contracts/Marketplace.sol\":3948:3958  msg.sender */\n      caller\n        /* \"contracts/Marketplace.sol\":3969:3992  listing.forSale = false */\n      0xffffffffffffffffffffff00ffffffffffffffffffffffffffffffffffffffff\n      dup2\n      and\n      swap2\n      swap1\n      swap2\n      or\n      swap1\n      swap2\n      sstore\n      0x01\n        /* \"contracts/Marketplace.sol\":4027:4042  listing.tokenId */\n      dup3\n      add\n      sload\n        /* \"contracts/Marketplace.sol\":4044:4056  sellerAmount */\n      sload(0x07)\n        /* \"contracts/Marketplace.sol\":4008:4057  NftBuy(msg.sender, listing.tokenId, sellerAmount) */\n      0x40\n      dup1\n      mload\n        /* \"#utility.yul\":6539:6613   */\n      swap4\n      dup5\n      mstore\n        /* \"#utility.yul\":6644:6646   */\n      0x20\n        /* \"#utility.yul\":6629:6647   */\n      dup5\n      add\n        /* \"#utility.yul\":6622:6656   */\n      swap3\n      swap1\n      swap3\n      mstore\n        /* \"#utility.yul\":6672:6690   */\n      swap1\n      dup3\n      add\n        /* \"#utility.yul\":6665:6699   */\n      mstore\n        /* \"contracts/Marketplace.sol\":4008:4057  NftBuy(msg.sender, listing.tokenId, sellerAmount) */\n      0xc0790eb4899023169be51dd7074a99a15959464f9a0e6b19767d8d61539b8726\n      swap1\n        /* \"#utility.yul\":6527:6529   */\n      0x60\n        /* \"#utility.yul\":6512:6530   */\n      add\n        /* \"contracts/Marketplace.sol\":4008:4057  NftBuy(msg.sender, listing.tokenId, sellerAmount) */\n      mload(0x40)\n      dup1\n      swap2\n      sub\n      swap1\n      log1\n        /* \"contracts/Marketplace.sol\":3125:4065  {... */\n      pop\n        /* \"@openzeppelin/contracts/security/ReentrancyGuard.sol\":2303:2323  _nonReentrantAfter() */\n      tag_209\n        /* \"@openzeppelin/contracts/security/ReentrancyGuard.sol\":1716:1717  1 */\n      0x01\n        /* \"@openzeppelin/contracts/security/ReentrancyGuard.sol\":2809:2831  _status = _NOT_ENTERED */\n      dup1\n      sstore\n        /* \"@openzeppelin/contracts/security/ReentrancyGuard.sol\":2629:2838  function _nonReentrantAfter() private {... */\n      jump\n        /* \"contracts/Marketplace.sol\":6605:6708  function getListinglength() public view returns (uint) {... */\n    tag_98:\n        /* \"contracts/Marketplace.sol\":6654:6658  uint */\n      0x00\n        /* \"contracts/Marketplace.sol\":6678:6700  numOfListing.current() */\n      tag_295\n        /* \"contracts/Marketplace.sol\":6678:6690  numOfListing */\n      0x04\n        /* \"@openzeppelin/contracts/utils/Counters.sol\":918:932  counter._value */\n      sload\n      swap1\n        /* \"@openzeppelin/contracts/utils/Counters.sol\":827:939  function current(Counter storage counter) internal view returns (uint256) {... */\n      jump\n        /* \"contracts/Marketplace.sol\":6678:6700  numOfListing.current() */\n    tag_295:\n        /* \"contracts/Marketplace.sol\":6671:6700  return numOfListing.current() */\n      swap1\n      pop\n        /* \"contracts/Marketplace.sol\":6605:6708  function getListinglength() public view returns (uint) {... */\n      swap1\n      jump\t// out\n        /* \"contracts/Marketplace.sol\":6896:7594  function getIdListed(ERC721 _nft, uint256 _tokenId) public view returns (uint256) {... */\n    tag_108:\n        /* \"contracts/Marketplace.sol\":6969:6976  uint256 */\n      0x00\n      dup1\n        /* \"contracts/Marketplace.sol\":7139:7140  1 */\n      0x01\n        /* \"contracts/Marketplace.sol\":7130:7403  for (i = 1; i <= numOfListing.current(); i++) {... */\n    tag_297:\n        /* \"contracts/Marketplace.sol\":7147:7159  numOfListing */\n      0x04\n        /* \"@openzeppelin/contracts/utils/Counters.sol\":918:932  counter._value */\n      sload\n        /* \"contracts/Marketplace.sol\":7142:7143  i */\n      dup2\n        /* \"contracts/Marketplace.sol\":7142:7169  i <= numOfListing.current() */\n      gt\n        /* \"contracts/Marketplace.sol\":7130:7403  for (i = 1; i <= numOfListing.current(); i++) {... */\n      tag_298\n      jumpi\n        /* \"contracts/Marketplace.sol\":7191:7202  listings[i] */\n      0x00\n      dup2\n      dup2\n      mstore\n        /* \"contracts/Marketplace.sol\":7191:7199  listings */\n      0x09\n        /* \"contracts/Marketplace.sol\":7191:7202  listings[i] */\n      0x20\n      mstore\n      0x40\n      swap1\n      keccak256\n        /* \"contracts/Marketplace.sol\":7191:7206  listings[i].nft */\n      sload\n        /* \"contracts/Marketplace.sol\":7191:7214  listings[i].nft == _nft */\n      0xffffffffffffffffffffffffffffffffffffffff\n      dup7\n      dup2\n      and\n        /* \"contracts/Marketplace.sol\":7191:7206  listings[i].nft */\n      swap2\n      and\n        /* \"contracts/Marketplace.sol\":7191:7214  listings[i].nft == _nft */\n      eq\n        /* \"contracts/Marketplace.sol\":7191:7249  listings[i].nft == _nft && listings[i].tokenId == _tokenId */\n      dup1\n      iszero\n      tag_301\n      jumpi\n      pop\n        /* \"contracts/Marketplace.sol\":7218:7229  listings[i] */\n      0x00\n      dup2\n      dup2\n      mstore\n        /* \"contracts/Marketplace.sol\":7218:7226  listings */\n      0x09\n        /* \"contracts/Marketplace.sol\":7218:7229  listings[i] */\n      0x20\n      mstore\n      0x40\n      swap1\n      keccak256\n        /* \"contracts/Marketplace.sol\":7218:7237  listings[i].tokenId */\n      0x01\n      add\n      sload\n        /* \"contracts/Marketplace.sol\":7218:7249  listings[i].tokenId == _tokenId */\n      dup5\n      eq\n        /* \"contracts/Marketplace.sol\":7191:7249  listings[i].nft == _nft && listings[i].tokenId == _tokenId */\n    tag_301:\n        /* \"contracts/Marketplace.sol\":7191:7272  listings[i].nft == _nft && listings[i].tokenId == _tokenId && listings[i].forSale */\n      dup1\n      iszero\n      tag_302\n      jumpi\n      pop\n        /* \"contracts/Marketplace.sol\":7253:7264  listings[i] */\n      0x00\n      dup2\n      dup2\n      mstore\n        /* \"contracts/Marketplace.sol\":7253:7261  listings */\n      0x09\n        /* \"contracts/Marketplace.sol\":7253:7264  listings[i] */\n      0x20\n      mstore\n      0x40\n      swap1\n      keccak256\n        /* \"contracts/Marketplace.sol\":7253:7272  listings[i].forSale */\n      0x04\n      add\n      sload\n      0x010000000000000000000000000000000000000000\n      swap1\n      div\n      0xff\n      and\n        /* \"contracts/Marketplace.sol\":7191:7272  listings[i].nft == _nft && listings[i].tokenId == _tokenId && listings[i].forSale */\n    tag_302:\n        /* \"contracts/Marketplace.sol\":7187:7396  if (listings[i].nft == _nft && listings[i].tokenId == _tokenId && listings[i].forSale) {... */\n      iszero\n      tag_303\n      jumpi\n        /* \"contracts/Marketplace.sol\":7297:7301  true */\n      0x01\n        /* \"contracts/Marketplace.sol\":7289:7301  found = true */\n      swap2\n      pop\n        /* \"contracts/Marketplace.sol\":7361:7366  break */\n      jump(tag_298)\n        /* \"contracts/Marketplace.sol\":7187:7396  if (listings[i].nft == _nft && listings[i].tokenId == _tokenId && listings[i].forSale) {... */\n    tag_303:\n        /* \"contracts/Marketplace.sol\":7171:7174  i++ */\n      dup1\n      tag_304\n      dup2\n      tag_223\n      jump\t// in\n    tag_304:\n      swap2\n      pop\n      pop\n        /* \"contracts/Marketplace.sol\":7130:7403  for (i = 1; i <= numOfListing.current(); i++) {... */\n      jump(tag_297)\n    tag_298:\n        /* \"contracts/Marketplace.sol\":7500:7505  found */\n      dup2\n        /* \"contracts/Marketplace.sol\":7495:7534  if (!found) {... */\n      tag_305\n      jumpi\n        /* \"contracts/Marketplace.sol\":7525:7526  0 */\n      0x00\n        /* \"contracts/Marketplace.sol\":7518:7526  return 0 */\n      swap3\n      pop\n      pop\n      pop\n      jump(tag_215)\n        /* \"contracts/Marketplace.sol\":7495:7534  if (!found) {... */\n    tag_305:\n        /* \"contracts/Marketplace.sol\":7549:7550  i */\n      swap5\n        /* \"contracts/Marketplace.sol\":6896:7594  function getIdListed(ERC721 _nft, uint256 _tokenId) public view returns (uint256) {... */\n      swap4\n      pop\n      pop\n      pop\n      pop\n      jump\t// out\n        /* \"contracts/Marketplace.sol\":1765:2432  function listNFT(ERC721 _nft, uint256 _tokenId, uint _price, address _coin) public payable {... */\n    tag_113:\n        /* \"contracts/Marketplace.sol\":1871:1893  _nft.ownerOf(_tokenId) */\n      mload(0x40)\n      0x6352211e00000000000000000000000000000000000000000000000000000000\n      dup2\n      mstore\n      0x04\n      dup2\n      add\n        /* \"#utility.yul\":1504:1529   */\n      dup5\n      swap1\n      mstore\n        /* \"contracts/Marketplace.sol\":1897:1907  msg.sender */\n      caller\n      swap1\n        /* \"contracts/Marketplace.sol\":1871:1907  _nft.ownerOf(_tokenId) == msg.sender */\n      0xffffffffffffffffffffffffffffffffffffffff\n        /* \"contracts/Marketplace.sol\":1871:1883  _nft.ownerOf */\n      dup7\n      and\n      swap1\n      0x6352211e\n      swap1\n        /* \"#utility.yul\":1477:1495   */\n      0x24\n      add\n        /* \"contracts/Marketplace.sol\":1871:1893  _nft.ownerOf(_tokenId) */\n      0x20\n      mload(0x40)\n      dup1\n      dup4\n      sub\n      dup2\n      dup7\n      gas\n      staticcall\n      iszero\n      dup1\n      iszero\n      tag_309\n      jumpi\n      returndatasize\n      0x00\n      dup1\n      returndatacopy\n      revert(0x00, returndatasize)\n    tag_309:\n      pop\n      pop\n      pop\n      pop\n      mload(0x40)\n      returndatasize\n      not(0x1f)\n      0x1f\n      dup3\n      add\n      and\n      dup3\n      add\n      dup1\n      0x40\n      mstore\n      pop\n      dup2\n      add\n      swap1\n      tag_310\n      swap2\n      swap1\n      tag_311\n      jump\t// in\n    tag_310:\n        /* \"contracts/Marketplace.sol\":1871:1907  _nft.ownerOf(_tokenId) == msg.sender */\n      0xffffffffffffffffffffffffffffffffffffffff\n      and\n      eq\n        /* \"contracts/Marketplace.sol\":1863:1933  require(_nft.ownerOf(_tokenId) == msg.sender, \"You are not the owner\") */\n      tag_312\n      jumpi\n      mload(0x40)\n      0x08c379a000000000000000000000000000000000000000000000000000000000\n      dup2\n      mstore\n        /* \"#utility.yul\":10756:10758   */\n      0x20\n        /* \"contracts/Marketplace.sol\":1863:1933  require(_nft.ownerOf(_tokenId) == msg.sender, \"You are not the owner\") */\n      0x04\n      dup3\n      add\n        /* \"#utility.yul\":10738:10759   */\n      mstore\n        /* \"#utility.yul\":10795:10797   */\n      0x15\n        /* \"#utility.yul\":10775:10793   */\n      0x24\n      dup3\n      add\n        /* \"#utility.yul\":10768:10798   */\n      mstore\n        /* \"#utility.yul\":10834:10857   */\n      0x596f7520617265206e6f7420746865206f776e65720000000000000000000000\n        /* \"#utility.yul\":10814:10832   */\n      0x44\n      dup3\n      add\n        /* \"#utility.yul\":10807:10858   */\n      mstore\n        /* \"#utility.yul\":10875:10893   */\n      0x64\n      add\n        /* \"contracts/Marketplace.sol\":1863:1933  require(_nft.ownerOf(_tokenId) == msg.sender, \"You are not the owner\") */\n      tag_150\n        /* \"#utility.yul\":10554:10899   */\n      jump\n        /* \"contracts/Marketplace.sol\":1863:1933  require(_nft.ownerOf(_tokenId) == msg.sender, \"You are not the owner\") */\n    tag_312:\n        /* \"contracts/Marketplace.sol\":1957:1958  0 */\n      0x00\n        /* \"contracts/Marketplace.sol\":1948:1954  _price */\n      dup3\n        /* \"contracts/Marketplace.sol\":1948:1958  _price > 0 */\n      gt\n        /* \"contracts/Marketplace.sol\":1940:2002  require(_price > 0, \"NFTMarket: price must be greater than 0\") */\n      tag_315\n      jumpi\n      mload(0x40)\n      0x08c379a000000000000000000000000000000000000000000000000000000000\n      dup2\n      mstore\n        /* \"#utility.yul\":11106:11108   */\n      0x20\n        /* \"contracts/Marketplace.sol\":1940:2002  require(_price > 0, \"NFTMarket: price must be greater than 0\") */\n      0x04\n      dup3\n      add\n        /* \"#utility.yul\":11088:11109   */\n      mstore\n        /* \"#utility.yul\":11145:11147   */\n      0x27\n        /* \"#utility.yul\":11125:11143   */\n      0x24\n      dup3\n      add\n        /* \"#utility.yul\":11118:11148   */\n      mstore\n        /* \"#utility.yul\":11184:11218   */\n      0x4e46544d61726b65743a207072696365206d7573742062652067726561746572\n        /* \"#utility.yul\":11164:11182   */\n      0x44\n      dup3\n      add\n        /* \"#utility.yul\":11157:11219   */\n      mstore\n        /* \"#utility.yul\":11255:11264   */\n      0x207468616e203000000000000000000000000000000000000000000000000000\n        /* \"#utility.yul\":11235:11253   */\n      0x64\n      dup3\n      add\n        /* \"#utility.yul\":11228:11265   */\n      mstore\n        /* \"#utility.yul\":11282:11301   */\n      0x84\n      add\n        /* \"contracts/Marketplace.sol\":1940:2002  require(_price > 0, \"NFTMarket: price must be greater than 0\") */\n      tag_150\n        /* \"#utility.yul\":10904:11307   */\n      jump\n        /* \"contracts/Marketplace.sol\":1940:2002  require(_price > 0, \"NFTMarket: price must be greater than 0\") */\n    tag_315:\n        /* \"contracts/Marketplace.sol\":2009:2033  numOfListing.increment() */\n      tag_318\n        /* \"contracts/Marketplace.sol\":2009:2021  numOfListing */\n      0x04\n        /* \"@openzeppelin/contracts/utils/Counters.sol\":1032:1051  counter._value += 1 */\n      dup1\n      sload\n        /* \"@openzeppelin/contracts/utils/Counters.sol\":1050:1051  1 */\n      0x01\n        /* \"@openzeppelin/contracts/utils/Counters.sol\":1032:1051  counter._value += 1 */\n      add\n      swap1\n      sstore\n        /* \"@openzeppelin/contracts/utils/Counters.sol\":945:1068  function increment(Counter storage counter) internal {... */\n      jump\n        /* \"contracts/Marketplace.sol\":2009:2033  numOfListing.increment() */\n    tag_318:\n        /* \"contracts/Marketplace.sol\":2075:2205  NFTListing(... */\n      mload(0x40)\n      dup1\n      0xc0\n      add\n      0x40\n      mstore\n      dup1\n        /* \"contracts/Marketplace.sol\":2096:2100  _nft */\n      dup6\n        /* \"contracts/Marketplace.sol\":2075:2205  NFTListing(... */\n      0xffffffffffffffffffffffffffffffffffffffff\n      and\n      dup2\n      mstore\n      0x20\n      add\n        /* \"contracts/Marketplace.sol\":2111:2119  _tokenId */\n      dup5\n        /* \"contracts/Marketplace.sol\":2075:2205  NFTListing(... */\n      dup2\n      mstore\n      0x20\n      add\n        /* \"contracts/Marketplace.sol\":2130:2136  _price */\n      dup4\n        /* \"contracts/Marketplace.sol\":2075:2205  NFTListing(... */\n      dup2\n      mstore\n      0x20\n      add\n        /* \"contracts/Marketplace.sol\":2147:2152  _coin */\n      dup3\n        /* \"contracts/Marketplace.sol\":2075:2205  NFTListing(... */\n      0xffffffffffffffffffffffffffffffffffffffff\n      and\n      dup2\n      mstore\n      0x20\n      add\n        /* \"contracts/Marketplace.sol\":2171:2181  msg.sender */\n      caller\n        /* \"contracts/Marketplace.sol\":2075:2205  NFTListing(... */\n      0xffffffffffffffffffffffffffffffffffffffff\n      and\n      dup2\n      mstore\n      0x20\n      add\n        /* \"contracts/Marketplace.sol\":2193:2198  false */\n      0x00\n        /* \"contracts/Marketplace.sol\":2075:2205  NFTListing(... */\n      iszero\n      iszero\n      dup2\n      mstore\n      pop\n        /* \"contracts/Marketplace.sol\":2040:2048  listings */\n      0x09\n        /* \"contracts/Marketplace.sol\":2040:2072  listings[numOfListing.current()] */\n      0x00\n        /* \"contracts/Marketplace.sol\":2049:2071  numOfListing.current() */\n      tag_320\n        /* \"contracts/Marketplace.sol\":2049:2061  numOfListing */\n      0x04\n        /* \"@openzeppelin/contracts/utils/Counters.sol\":918:932  counter._value */\n      sload\n      swap1\n        /* \"@openzeppelin/contracts/utils/Counters.sol\":827:939  function current(Counter storage counter) internal view returns (uint256) {... */\n      jump\n        /* \"contracts/Marketplace.sol\":2049:2071  numOfListing.current() */\n    tag_320:\n        /* \"contracts/Marketplace.sol\":2040:2072  listings[numOfListing.current()] */\n      dup2\n      mstore\n      0x20\n      dup1\n      dup3\n      add\n      swap3\n      swap1\n      swap3\n      mstore\n      0x40\n      swap1\n      dup2\n      add\n      0x00\n      swap1\n      dup2\n      keccak256\n        /* \"contracts/Marketplace.sol\":2040:2205  listings[numOfListing.current()] = NFTListing(... */\n      dup5\n      mload\n      dup2\n      sload\n      0xffffffffffffffffffffffffffffffffffffffff\n      swap2\n      dup3\n      and\n      0xffffffffffffffffffffffff0000000000000000000000000000000000000000\n      swap2\n      dup3\n      and\n      or\n      dup4\n      sstore\n      swap5\n      dup7\n      add\n      mload\n      0x01\n      dup4\n      add\n      sstore\n      swap3\n      dup6\n      add\n      mload\n      0x02\n      dup3\n      add\n      sstore\n      0x60\n      dup6\n      add\n      mload\n      0x03\n      dup3\n      add\n      dup1\n      sload\n      swap2\n      dup6\n      and\n      swap2\n      swap1\n      swap6\n      and\n      or\n      swap1\n      swap4\n      sstore\n      0x80\n      dup5\n      add\n      mload\n      0x04\n      swap4\n      dup5\n      add\n      dup1\n      sload\n      0xa0\n      swap1\n      swap7\n      add\n      mload\n      iszero\n      iszero\n      0x010000000000000000000000000000000000000000\n      mul\n      0xffffffffffffffffffffff000000000000000000000000000000000000000000\n      swap1\n      swap7\n      and\n      swap2\n      swap1\n      swap4\n      and\n      or\n      swap4\n      swap1\n      swap4\n      or\n      swap1\n      sstore\n        /* \"contracts/Marketplace.sol\":2241:2249  listings */\n      0x09\n      swap1\n      dup3\n      swap1\n        /* \"contracts/Marketplace.sol\":2250:2272  numOfListing.current() */\n      tag_321\n      swap1\n        /* \"@openzeppelin/contracts/utils/Counters.sol\":918:932  counter._value */\n      sload\n      swap1\n        /* \"@openzeppelin/contracts/utils/Counters.sol\":827:939  function current(Counter storage counter) internal view returns (uint256) {... */\n      jump\n        /* \"contracts/Marketplace.sol\":2250:2272  numOfListing.current() */\n    tag_321:\n        /* \"contracts/Marketplace.sol\":2241:2273  listings[numOfListing.current()] */\n      dup2\n      mstore\n      0x20\n      dup2\n      add\n      swap2\n      swap1\n      swap2\n      mstore\n      0x40\n      swap1\n      dup2\n      add\n      0x00\n      keccak256\n        /* \"contracts/Marketplace.sol\":2280:2334  _nft.transferFrom(msg.sender, address(this), _tokenId) */\n      swap1\n      mload\n      0x23b872dd00000000000000000000000000000000000000000000000000000000\n      dup2\n      mstore\n        /* \"contracts/Marketplace.sol\":2298:2308  msg.sender */\n      caller\n        /* \"contracts/Marketplace.sol\":2280:2334  _nft.transferFrom(msg.sender, address(this), _tokenId) */\n      0x04\n      dup3\n      add\n        /* \"#utility.yul\":9750:9784   */\n      mstore\n        /* \"contracts/Marketplace.sol\":2318:2322  this */\n      address\n        /* \"#utility.yul\":9800:9818   */\n      0x24\n      dup3\n      add\n        /* \"#utility.yul\":9793:9836   */\n      mstore\n        /* \"#utility.yul\":9852:9870   */\n      0x44\n      dup2\n      add\n        /* \"#utility.yul\":9845:9879   */\n      dup7\n      swap1\n      mstore\n        /* \"contracts/Marketplace.sol\":2241:2273  listings[numOfListing.current()] */\n      swap1\n      swap2\n      pop\n        /* \"contracts/Marketplace.sol\":2280:2297  _nft.transferFrom */\n      0xffffffffffffffffffffffffffffffffffffffff\n      dup7\n      and\n      swap1\n      0x23b872dd\n      swap1\n        /* \"#utility.yul\":9662:9680   */\n      0x64\n      add\n        /* \"contracts/Marketplace.sol\":2280:2334  _nft.transferFrom(msg.sender, address(this), _tokenId) */\n      0x00\n      mload(0x40)\n      dup1\n      dup4\n      sub\n      dup2\n      0x00\n      dup8\n      dup1\n      extcodesize\n      iszero\n      dup1\n      iszero\n      tag_323\n      jumpi\n      0x00\n      dup1\n      revert\n    tag_323:\n      pop\n      gas\n      call\n      iszero\n      dup1\n      iszero\n      tag_325\n      jumpi\n      returndatasize\n      0x00\n      dup1\n      returndatacopy\n      revert(0x00, returndatasize)\n    tag_325:\n      pop\n      pop\n      pop\n        /* \"contracts/Marketplace.sol\":2341:2356  listing.forSale */\n      0x04\n      dup1\n      dup4\n      add\n        /* \"contracts/Marketplace.sol\":2341:2363  listing.forSale = true */\n      dup1\n      sload\n      0xffffffffffffffffffffff00ffffffffffffffffffffffffffffffffffffffff\n      and\n      0x010000000000000000000000000000000000000000\n      or\n      swap1\n      sstore\n        /* \"contracts/Marketplace.sol\":2375:2428  NftList(msg.sender, _tokenId, numOfListing.current()) */\n      0x21149a5778ddc1afca837b00fd70c0fc0a6d1d25d1bd15bff4a84bab1eeb9a92\n      swap2\n      pop\n        /* \"contracts/Marketplace.sol\":2383:2393  msg.sender */\n      caller\n      swap1\n        /* \"contracts/Marketplace.sol\":2395:2403  _tokenId */\n      dup7\n      swap1\n        /* \"contracts/Marketplace.sol\":2405:2427  numOfListing.current() */\n      tag_326\n      swap1\n        /* \"@openzeppelin/contracts/utils/Counters.sol\":918:932  counter._value */\n      sload\n      swap1\n        /* \"@openzeppelin/contracts/utils/Counters.sol\":827:939  function current(Counter storage counter) internal view returns (uint256) {... */\n      jump\n        /* \"contracts/Marketplace.sol\":2405:2427  numOfListing.current() */\n    tag_326:\n        /* \"contracts/Marketplace.sol\":2375:2428  NftList(msg.sender, _tokenId, numOfListing.current()) */\n      0x40\n      dup1\n      mload\n        /* \"#utility.yul\":6569:6611   */\n      0xffffffffffffffffffffffffffffffffffffffff\n        /* \"#utility.yul\":6557:6612   */\n      swap1\n      swap5\n      and\n        /* \"#utility.yul\":6539:6613   */\n      dup5\n      mstore\n        /* \"#utility.yul\":6644:6646   */\n      0x20\n        /* \"#utility.yul\":6629:6647   */\n      dup5\n      add\n        /* \"#utility.yul\":6622:6656   */\n      swap3\n      swap1\n      swap3\n      mstore\n        /* \"#utility.yul\":6672:6690   */\n      swap1\n      dup3\n      add\n        /* \"#utility.yul\":6665:6699   */\n      mstore\n        /* \"#utility.yul\":6527:6529   */\n      0x60\n        /* \"#utility.yul\":6512:6530   */\n      add\n        /* \"contracts/Marketplace.sol\":2375:2428  NftList(msg.sender, _tokenId, numOfListing.current()) */\n      mload(0x40)\n      dup1\n      swap2\n      sub\n      swap1\n      log1\n        /* \"contracts/Marketplace.sol\":1856:2432  {... */\n      pop\n        /* \"contracts/Marketplace.sol\":1765:2432  function listNFT(ERC721 _nft, uint256 _tokenId, uint _price, address _coin) public payable {... */\n      pop\n      pop\n      pop\n      pop\n      jump\t// out\n        /* \"@openzeppelin/contracts/access/Ownable.sol\":2543:2758  function transferOwnership(address newOwner) public virtual onlyOwner {... */\n    tag_129:\n        /* \"@openzeppelin/contracts/access/Ownable.sol\":1531:1544  _checkOwner() */\n      tag_329\n        /* \"@openzeppelin/contracts/access/Ownable.sol\":1531:1542  _checkOwner */\n      tag_135\n        /* \"@openzeppelin/contracts/access/Ownable.sol\":1531:1544  _checkOwner() */\n      jump\t// in\n    tag_329:\n        /* \"@openzeppelin/contracts/access/Ownable.sol\":2627:2649  newOwner == address(0) */\n      0xffffffffffffffffffffffffffffffffffffffff\n      dup2\n      and\n        /* \"@openzeppelin/contracts/access/Ownable.sol\":2623:2714  if (newOwner == address(0)) {... */\n      tag_331\n      jumpi\n        /* \"@openzeppelin/contracts/access/Ownable.sol\":2672:2703  OwnableInvalidOwner(address(0)) */\n      mload(0x40)\n      0x1e4fbdf700000000000000000000000000000000000000000000000000000000\n      dup2\n      mstore\n        /* \"@openzeppelin/contracts/access/Ownable.sol\":2700:2701  0 */\n      0x00\n        /* \"@openzeppelin/contracts/access/Ownable.sol\":2672:2703  OwnableInvalidOwner(address(0)) */\n      0x04\n      dup3\n      add\n        /* \"#utility.yul\":2500:2574   */\n      mstore\n        /* \"#utility.yul\":2473:2491   */\n      0x24\n      add\n        /* \"@openzeppelin/contracts/access/Ownable.sol\":2672:2703  OwnableInvalidOwner(address(0)) */\n      tag_150\n        /* \"#utility.yul\":2354:2580   */\n      jump\n        /* \"@openzeppelin/contracts/access/Ownable.sol\":2623:2714  if (newOwner == address(0)) {... */\n    tag_331:\n        /* \"@openzeppelin/contracts/access/Ownable.sol\":2723:2751  _transferOwnership(newOwner) */\n      tag_175\n        /* \"@openzeppelin/contracts/access/Ownable.sol\":2742:2750  newOwner */\n      dup2\n        /* \"@openzeppelin/contracts/access/Ownable.sol\":2723:2741  _transferOwnership */\n      tag_214\n        /* \"@openzeppelin/contracts/access/Ownable.sol\":2723:2751  _transferOwnership(newOwner) */\n      jump\t// in\n        /* \"@openzeppelin/contracts/access/Ownable.sol\":1796:1958  function _checkOwner() internal view virtual {... */\n    tag_135:\n        /* \"@openzeppelin/contracts/access/Ownable.sol\":1684:1691  address */\n      0x00\n        /* \"@openzeppelin/contracts/access/Ownable.sol\":1710:1716  _owner */\n      sload\n        /* \"@openzeppelin/contracts/access/Ownable.sol\":1855:1878  owner() != _msgSender() */\n      0xffffffffffffffffffffffffffffffffffffffff\n        /* \"@openzeppelin/contracts/access/Ownable.sol\":1710:1716  _owner */\n      and\n        /* \"@openzeppelin/contracts/utils/Context.sol\":735:745  msg.sender */\n      caller\n        /* \"@openzeppelin/contracts/access/Ownable.sol\":1855:1878  owner() != _msgSender() */\n      eq\n        /* \"@openzeppelin/contracts/access/Ownable.sol\":1851:1952  if (owner() != _msgSender()) {... */\n      tag_137\n      jumpi\n        /* \"@openzeppelin/contracts/access/Ownable.sol\":1901:1941  OwnableUnauthorizedAccount(_msgSender()) */\n      mload(0x40)\n      0x118cdaa700000000000000000000000000000000000000000000000000000000\n      dup2\n      mstore\n        /* \"@openzeppelin/contracts/utils/Context.sol\":735:745  msg.sender */\n      caller\n        /* \"@openzeppelin/contracts/access/Ownable.sol\":1901:1941  OwnableUnauthorizedAccount(_msgSender()) */\n      0x04\n      dup3\n      add\n        /* \"#utility.yul\":2500:2574   */\n      mstore\n        /* \"#utility.yul\":2473:2491   */\n      0x24\n      add\n        /* \"@openzeppelin/contracts/access/Ownable.sol\":1901:1941  OwnableUnauthorizedAccount(_msgSender()) */\n      tag_150\n        /* \"#utility.yul\":2354:2580   */\n      jump\n        /* \"@openzeppelin/contracts/security/Pausable.sol\":2433:2550  function _unpause() internal virtual whenPaused {... */\n    tag_138:\n        /* \"@openzeppelin/contracts/security/Pausable.sol\":1486:1502  _requirePaused() */\n      tag_342\n        /* \"@openzeppelin/contracts/security/Pausable.sol\":1486:1500  _requirePaused */\n      tag_343\n        /* \"@openzeppelin/contracts/security/Pausable.sol\":1486:1502  _requirePaused() */\n      jump\t// in\n    tag_342:\n        /* \"@openzeppelin/contracts/security/Pausable.sol\":2501:2506  false */\n      0x00\n        /* \"@openzeppelin/contracts/security/Pausable.sol\":2491:2506  _paused = false */\n      dup1\n      sload\n      0xffffffffffffffffffffff00ffffffffffffffffffffffffffffffffffffffff\n      and\n      swap1\n      sstore\n        /* \"@openzeppelin/contracts/security/Pausable.sol\":2521:2543  Unpaused(_msgSender()) */\n      0x5db9ee0a495bf2e6ff9c91a7834c1ba4fdd244a5e8aa4e537bd38aeae4b073aa\n        /* \"@openzeppelin/contracts/utils/Context.sol\":735:745  msg.sender */\n      caller\n        /* \"@openzeppelin/contracts/security/Pausable.sol\":2530:2542  _msgSender() */\n    tag_345:\n        /* \"@openzeppelin/contracts/security/Pausable.sol\":2521:2543  Unpaused(_msgSender()) */\n      mload(0x40)\n        /* \"#utility.yul\":2530:2572   */\n      0xffffffffffffffffffffffffffffffffffffffff\n        /* \"#utility.yul\":2518:2573   */\n      swap1\n      swap2\n      and\n        /* \"#utility.yul\":2500:2574   */\n      dup2\n      mstore\n        /* \"#utility.yul\":2488:2490   */\n      0x20\n        /* \"#utility.yul\":2473:2491   */\n      add\n        /* \"@openzeppelin/contracts/security/Pausable.sol\":2521:2543  Unpaused(_msgSender()) */\n      mload(0x40)\n      dup1\n      swap2\n      sub\n      swap1\n      log1\n        /* \"@openzeppelin/contracts/security/Pausable.sol\":2433:2550  function _unpause() internal virtual whenPaused {... */\n      jump\t// out\n        /* \"@openzeppelin/contracts/security/Pausable.sol\":1767:1873  function _requireNotPaused() internal view virtual {... */\n    tag_141:\n        /* \"@openzeppelin/contracts/security/Pausable.sol\":1662:1666  bool */\n      0x00\n        /* \"@openzeppelin/contracts/security/Pausable.sol\":1685:1692  _paused */\n      sload\n      0x010000000000000000000000000000000000000000\n      swap1\n      div\n      0xff\n      and\n        /* \"@openzeppelin/contracts/security/Pausable.sol\":1836:1845  !paused() */\n      iszero\n        /* \"@openzeppelin/contracts/security/Pausable.sol\":1828:1866  require(!paused(), \"Pausable: paused\") */\n      tag_137\n      jumpi\n      mload(0x40)\n      0x08c379a000000000000000000000000000000000000000000000000000000000\n      dup2\n      mstore\n        /* \"#utility.yul\":11514:11516   */\n      0x20\n        /* \"@openzeppelin/contracts/security/Pausable.sol\":1828:1866  require(!paused(), \"Pausable: paused\") */\n      0x04\n      dup3\n      add\n        /* \"#utility.yul\":11496:11517   */\n      mstore\n        /* \"#utility.yul\":11553:11555   */\n      0x10\n        /* \"#utility.yul\":11533:11551   */\n      0x24\n      dup3\n      add\n        /* \"#utility.yul\":11526:11556   */\n      mstore\n        /* \"#utility.yul\":11592:11610   */\n      0x5061757361626c653a2070617573656400000000000000000000000000000000\n        /* \"#utility.yul\":11572:11590   */\n      0x44\n      dup3\n      add\n        /* \"#utility.yul\":11565:11611   */\n      mstore\n        /* \"#utility.yul\":11628:11646   */\n      0x64\n      add\n        /* \"@openzeppelin/contracts/security/Pausable.sol\":1828:1866  require(!paused(), \"Pausable: paused\") */\n      tag_150\n        /* \"#utility.yul\":11312:11652   */\n      jump\n        /* \"@openzeppelin/contracts/security/ReentrancyGuard.sol\":2336:2623  function _nonReentrantBefore() private {... */\n    tag_144:\n        /* \"@openzeppelin/contracts/security/ReentrancyGuard.sol\":1759:1760  2 */\n      0x02\n        /* \"@openzeppelin/contracts/security/ReentrancyGuard.sol\":2468:2475  _status */\n      sload(0x01)\n        /* \"@openzeppelin/contracts/security/ReentrancyGuard.sol\":2468:2487  _status != _ENTERED */\n      sub\n        /* \"@openzeppelin/contracts/security/ReentrancyGuard.sol\":2460:2523  require(_status != _ENTERED, \"ReentrancyGuard: reentrant call\") */\n      tag_353\n      jumpi\n      mload(0x40)\n      0x08c379a000000000000000000000000000000000000000000000000000000000\n      dup2\n      mstore\n        /* \"#utility.yul\":11859:11861   */\n      0x20\n        /* \"@openzeppelin/contracts/security/ReentrancyGuard.sol\":2460:2523  require(_status != _ENTERED, \"ReentrancyGuard: reentrant call\") */\n      0x04\n      dup3\n      add\n        /* \"#utility.yul\":11841:11862   */\n      mstore\n        /* \"#utility.yul\":11898:11900   */\n      0x1f\n        /* \"#utility.yul\":11878:11896   */\n      0x24\n      dup3\n      add\n        /* \"#utility.yul\":11871:11901   */\n      mstore\n        /* \"#utility.yul\":11937:11970   */\n      0x5265656e7472616e637947756172643a207265656e7472616e742063616c6c00\n        /* \"#utility.yul\":11917:11935   */\n      0x44\n      dup3\n      add\n        /* \"#utility.yul\":11910:11971   */\n      mstore\n        /* \"#utility.yul\":11988:12006   */\n      0x64\n      add\n        /* \"@openzeppelin/contracts/security/ReentrancyGuard.sol\":2460:2523  require(_status != _ENTERED, \"ReentrancyGuard: reentrant call\") */\n      tag_150\n        /* \"#utility.yul\":11657:12012   */\n      jump\n        /* \"@openzeppelin/contracts/security/ReentrancyGuard.sol\":2460:2523  require(_status != _ENTERED, \"ReentrancyGuard: reentrant call\") */\n    tag_353:\n        /* \"@openzeppelin/contracts/security/ReentrancyGuard.sol\":1759:1760  2 */\n      0x02\n        /* \"@openzeppelin/contracts/security/ReentrancyGuard.sol\":2598:2605  _status */\n      0x01\n        /* \"@openzeppelin/contracts/security/ReentrancyGuard.sol\":2598:2616  _status = _ENTERED */\n      sstore\n        /* \"@openzeppelin/contracts/security/ReentrancyGuard.sol\":2336:2623  function _nonReentrantBefore() private {... */\n      jump\t// out\n        /* \"@openzeppelin/contracts/utils/math/SafeMath.sol\":3465:3561  function mul(uint256 a, uint256 b) internal pure returns (uint256) {... */\n    tag_160:\n        /* \"@openzeppelin/contracts/utils/math/SafeMath.sol\":3523:3530  uint256 */\n      0x00\n        /* \"@openzeppelin/contracts/utils/math/SafeMath.sol\":3549:3554  a * b */\n      tag_358\n        /* \"@openzeppelin/contracts/utils/math/SafeMath.sol\":3553:3554  b */\n      dup3\n        /* \"@openzeppelin/contracts/utils/math/SafeMath.sol\":3549:3550  a */\n      dup5\n        /* \"@openzeppelin/contracts/utils/math/SafeMath.sol\":3549:3554  a * b */\n      tag_359\n      jump\t// in\n    tag_358:\n        /* \"@openzeppelin/contracts/utils/math/SafeMath.sol\":3542:3554  return a * b */\n      swap4\n        /* \"@openzeppelin/contracts/utils/math/SafeMath.sol\":3465:3561  function mul(uint256 a, uint256 b) internal pure returns (uint256) {... */\n      swap3\n      pop\n      pop\n      pop\n      jump\t// out\n        /* \"@openzeppelin/contracts/utils/math/SafeMath.sol\":3850:3946  function div(uint256 a, uint256 b) internal pure returns (uint256) {... */\n    tag_161:\n        /* \"@openzeppelin/contracts/utils/math/SafeMath.sol\":3908:3915  uint256 */\n      0x00\n        /* \"@openzeppelin/contracts/utils/math/SafeMath.sol\":3934:3939  a / b */\n      tag_358\n        /* \"@openzeppelin/contracts/utils/math/SafeMath.sol\":3938:3939  b */\n      dup3\n        /* \"@openzeppelin/contracts/utils/math/SafeMath.sol\":3934:3935  a */\n      dup5\n        /* \"@openzeppelin/contracts/utils/math/SafeMath.sol\":3934:3939  a / b */\n      tag_362\n      jump\t// in\n        /* \"@openzeppelin/contracts/utils/math/SafeMath.sol\":3122:3218  function sub(uint256 a, uint256 b) internal pure returns (uint256) {... */\n    tag_163:\n        /* \"@openzeppelin/contracts/utils/math/SafeMath.sol\":3180:3187  uint256 */\n      0x00\n        /* \"@openzeppelin/contracts/utils/math/SafeMath.sol\":3206:3211  a - b */\n      tag_358\n        /* \"@openzeppelin/contracts/utils/math/SafeMath.sol\":3210:3211  b */\n      dup3\n        /* \"@openzeppelin/contracts/utils/math/SafeMath.sol\":3206:3207  a */\n      dup5\n        /* \"@openzeppelin/contracts/utils/math/SafeMath.sol\":3206:3211  a - b */\n      tag_365\n      jump\t// in\n        /* \"@openzeppelin/contracts/security/Pausable.sol\":2186:2301  function _pause() internal virtual whenNotPaused {... */\n    tag_181:\n        /* \"@openzeppelin/contracts/security/Pausable.sol\":1239:1258  _requireNotPaused() */\n      tag_368\n        /* \"@openzeppelin/contracts/security/Pausable.sol\":1239:1256  _requireNotPaused */\n      tag_141\n        /* \"@openzeppelin/contracts/security/Pausable.sol\":1239:1258  _requireNotPaused() */\n      jump\t// in\n    tag_368:\n        /* \"@openzeppelin/contracts/security/Pausable.sol\":2245:2252  _paused */\n      0x00\n        /* \"@openzeppelin/contracts/security/Pausable.sol\":2245:2259  _paused = true */\n      dup1\n      sload\n      0xffffffffffffffffffffff00ffffffffffffffffffffffffffffffffffffffff\n      and\n      0x010000000000000000000000000000000000000000\n      or\n      swap1\n      sstore\n        /* \"@openzeppelin/contracts/security/Pausable.sol\":2274:2294  Paused(_msgSender()) */\n      0x62e78cea01bee320cd4e420270b5ea74000d11b0c9f74754ebdbfc544b05a258\n        /* \"@openzeppelin/contracts/security/Pausable.sol\":2281:2293  _msgSender() */\n      tag_345\n        /* \"@openzeppelin/contracts/utils/Context.sol\":735:745  msg.sender */\n      caller\n      swap1\n        /* \"@openzeppelin/contracts/utils/Context.sol\":656:752  function _msgSender() internal view virtual returns (address) {... */\n      jump\n        /* \"@openzeppelin/contracts/access/Ownable.sol\":2912:3099  function _transferOwnership(address newOwner) internal virtual {... */\n    tag_214:\n        /* \"@openzeppelin/contracts/access/Ownable.sol\":2985:3001  address oldOwner */\n      0x00\n        /* \"@openzeppelin/contracts/access/Ownable.sol\":3004:3010  _owner */\n      dup1\n      sload\n      0xffffffffffffffffffffffffffffffffffffffff\n        /* \"@openzeppelin/contracts/access/Ownable.sol\":3020:3037  _owner = newOwner */\n      dup4\n      dup2\n      and\n      0xffffffffffffffffffffffff0000000000000000000000000000000000000000\n      dup4\n      and\n      dup2\n      or\n      dup5\n      sstore\n        /* \"@openzeppelin/contracts/access/Ownable.sol\":3052:3092  OwnershipTransferred(oldOwner, newOwner) */\n      mload(0x40)\n        /* \"@openzeppelin/contracts/access/Ownable.sol\":3004:3010  _owner */\n      swap2\n      swap1\n      swap3\n      and\n      swap3\n      dup4\n      swap2\n        /* \"@openzeppelin/contracts/access/Ownable.sol\":3052:3092  OwnershipTransferred(oldOwner, newOwner) */\n      0x8be0079c531659141344cd1fd0a4f28419497f9722a3daafe3b4186f6b6457e0\n      swap2\n        /* \"@openzeppelin/contracts/access/Ownable.sol\":2985:3001  address oldOwner */\n      swap1\n        /* \"@openzeppelin/contracts/access/Ownable.sol\":3052:3092  OwnershipTransferred(oldOwner, newOwner) */\n      log3\n        /* \"@openzeppelin/contracts/access/Ownable.sol\":2975:3099  {... */\n      pop\n        /* \"@openzeppelin/contracts/access/Ownable.sol\":2912:3099  function _transferOwnership(address newOwner) internal virtual {... */\n      pop\n      jump\t// out\n        /* \"@openzeppelin/contracts/security/Pausable.sol\":1945:2051  function _requirePaused() internal view virtual {... */\n    tag_343:\n        /* \"@openzeppelin/contracts/security/Pausable.sol\":1662:1666  bool */\n      0x00\n        /* \"@openzeppelin/contracts/security/Pausable.sol\":1685:1692  _paused */\n      sload\n      0x010000000000000000000000000000000000000000\n      swap1\n      div\n      0xff\n      and\n        /* \"@openzeppelin/contracts/security/Pausable.sol\":2003:2044  require(paused(), \"Pausable: not paused\") */\n      tag_137\n      jumpi\n      mload(0x40)\n      0x08c379a000000000000000000000000000000000000000000000000000000000\n      dup2\n      mstore\n        /* \"#utility.yul\":12804:12806   */\n      0x20\n        /* \"@openzeppelin/contracts/security/Pausable.sol\":2003:2044  require(paused(), \"Pausable: not paused\") */\n      0x04\n      dup3\n      add\n        /* \"#utility.yul\":12786:12807   */\n      mstore\n        /* \"#utility.yul\":12843:12845   */\n      0x14\n        /* \"#utility.yul\":12823:12841   */\n      0x24\n      dup3\n      add\n        /* \"#utility.yul\":12816:12846   */\n      mstore\n        /* \"#utility.yul\":12882:12904   */\n      0x5061757361626c653a206e6f7420706175736564000000000000000000000000\n        /* \"#utility.yul\":12862:12880   */\n      0x44\n      dup3\n      add\n        /* \"#utility.yul\":12855:12905   */\n      mstore\n        /* \"#utility.yul\":12922:12940   */\n      0x64\n      add\n        /* \"@openzeppelin/contracts/security/Pausable.sol\":2003:2044  require(paused(), \"Pausable: not paused\") */\n      tag_150\n        /* \"#utility.yul\":12602:12946   */\n      jump\n        /* \"#utility.yul\":316:496   */\n    tag_38:\n        /* \"#utility.yul\":375:381   */\n      0x00\n        /* \"#utility.yul\":428:430   */\n      0x20\n        /* \"#utility.yul\":416:425   */\n      dup3\n        /* \"#utility.yul\":407:414   */\n      dup5\n        /* \"#utility.yul\":403:426   */\n      sub\n        /* \"#utility.yul\":399:431   */\n      slt\n        /* \"#utility.yul\":396:448   */\n      iszero\n      tag_385\n      jumpi\n        /* \"#utility.yul\":444:445   */\n      0x00\n        /* \"#utility.yul\":441:442   */\n      dup1\n        /* \"#utility.yul\":434:446   */\n      revert\n        /* \"#utility.yul\":396:448   */\n    tag_385:\n      pop\n        /* \"#utility.yul\":467:490   */\n      calldataload\n      swap2\n        /* \"#utility.yul\":316:496   */\n      swap1\n      pop\n      jump\t// out\n        /* \"#utility.yul\":1540:1694   */\n    tag_380:\n        /* \"#utility.yul\":1626:1668   */\n      0xffffffffffffffffffffffffffffffffffffffff\n        /* \"#utility.yul\":1619:1624   */\n      dup2\n        /* \"#utility.yul\":1615:1669   */\n      and\n        /* \"#utility.yul\":1608:1613   */\n      dup2\n        /* \"#utility.yul\":1605:1670   */\n      eq\n        /* \"#utility.yul\":1595:1688   */\n      tag_175\n      jumpi\n        /* \"#utility.yul\":1684:1685   */\n      0x00\n        /* \"#utility.yul\":1681:1682   */\n      dup1\n        /* \"#utility.yul\":1674:1686   */\n      revert\n        /* \"#utility.yul\":1699:2014   */\n    tag_65:\n        /* \"#utility.yul\":1767:1773   */\n      0x00\n        /* \"#utility.yul\":1775:1781   */\n      dup1\n        /* \"#utility.yul\":1828:1830   */\n      0x40\n        /* \"#utility.yul\":1816:1825   */\n      dup4\n        /* \"#utility.yul\":1807:1814   */\n      dup6\n        /* \"#utility.yul\":1803:1826   */\n      sub\n        /* \"#utility.yul\":1799:1831   */\n      slt\n        /* \"#utility.yul\":1796:1848   */\n      iszero\n      tag_392\n      jumpi\n        /* \"#utility.yul\":1844:1845   */\n      0x00\n        /* \"#utility.yul\":1841:1842   */\n      dup1\n        /* \"#utility.yul\":1834:1846   */\n      revert\n        /* \"#utility.yul\":1796:1848   */\n    tag_392:\n        /* \"#utility.yul\":1880:1889   */\n      dup3\n        /* \"#utility.yul\":1867:1890   */\n      calldataload\n        /* \"#utility.yul\":1857:1890   */\n      swap2\n      pop\n        /* \"#utility.yul\":1940:1942   */\n      0x20\n        /* \"#utility.yul\":1929:1938   */\n      dup4\n        /* \"#utility.yul\":1925:1943   */\n      add\n        /* \"#utility.yul\":1912:1944   */\n      calldataload\n        /* \"#utility.yul\":1953:1984   */\n      tag_393\n        /* \"#utility.yul\":1978:1983   */\n      dup2\n        /* \"#utility.yul\":1953:1984   */\n      tag_380\n      jump\t// in\n    tag_393:\n        /* \"#utility.yul\":2003:2008   */\n      dup1\n        /* \"#utility.yul\":1993:2008   */\n      swap2\n      pop\n      pop\n        /* \"#utility.yul\":1699:2014   */\n      swap3\n      pop\n      swap3\n      swap1\n      pop\n      jump\t// out\n        /* \"#utility.yul\":2019:2349   */\n    tag_73:\n        /* \"#utility.yul\":2102:2108   */\n      0x00\n        /* \"#utility.yul\":2110:2116   */\n      dup1\n        /* \"#utility.yul\":2163:2165   */\n      0x40\n        /* \"#utility.yul\":2151:2160   */\n      dup4\n        /* \"#utility.yul\":2142:2149   */\n      dup6\n        /* \"#utility.yul\":2138:2161   */\n      sub\n        /* \"#utility.yul\":2134:2166   */\n      slt\n        /* \"#utility.yul\":2131:2183   */\n      iszero\n      tag_395\n      jumpi\n        /* \"#utility.yul\":2179:2180   */\n      0x00\n        /* \"#utility.yul\":2176:2177   */\n      dup1\n        /* \"#utility.yul\":2169:2181   */\n      revert\n        /* \"#utility.yul\":2131:2183   */\n    tag_395:\n        /* \"#utility.yul\":2218:2227   */\n      dup3\n        /* \"#utility.yul\":2205:2228   */\n      calldataload\n        /* \"#utility.yul\":2237:2268   */\n      tag_396\n        /* \"#utility.yul\":2262:2267   */\n      dup2\n        /* \"#utility.yul\":2237:2268   */\n      tag_380\n      jump\t// in\n    tag_396:\n        /* \"#utility.yul\":2287:2292   */\n      swap5\n        /* \"#utility.yul\":2339:2341   */\n      0x20\n        /* \"#utility.yul\":2324:2342   */\n      swap4\n      swap1\n      swap4\n      add\n        /* \"#utility.yul\":2311:2343   */\n      calldataload\n      swap4\n      pop\n      pop\n      pop\n        /* \"#utility.yul\":2019:2349   */\n      jump\t// out\n        /* \"#utility.yul\":2585:3056   */\n    tag_84:\n        /* \"#utility.yul\":2677:2683   */\n      0x00\n        /* \"#utility.yul\":2685:2691   */\n      dup1\n        /* \"#utility.yul\":2693:2699   */\n      0x00\n        /* \"#utility.yul\":2746:2748   */\n      0x60\n        /* \"#utility.yul\":2734:2743   */\n      dup5\n        /* \"#utility.yul\":2725:2732   */\n      dup7\n        /* \"#utility.yul\":2721:2744   */\n      sub\n        /* \"#utility.yul\":2717:2749   */\n      slt\n        /* \"#utility.yul\":2714:2766   */\n      iszero\n      tag_399\n      jumpi\n        /* \"#utility.yul\":2762:2763   */\n      0x00\n        /* \"#utility.yul\":2759:2760   */\n      dup1\n        /* \"#utility.yul\":2752:2764   */\n      revert\n        /* \"#utility.yul\":2714:2766   */\n    tag_399:\n        /* \"#utility.yul\":2801:2810   */\n      dup4\n        /* \"#utility.yul\":2788:2811   */\n      calldataload\n        /* \"#utility.yul\":2820:2851   */\n      tag_400\n        /* \"#utility.yul\":2845:2850   */\n      dup2\n        /* \"#utility.yul\":2820:2851   */\n      tag_380\n      jump\t// in\n    tag_400:\n        /* \"#utility.yul\":2870:2875   */\n      swap3\n      pop\n        /* \"#utility.yul\":2922:2924   */\n      0x20\n        /* \"#utility.yul\":2907:2925   */\n      dup5\n      add\n        /* \"#utility.yul\":2894:2926   */\n      calldataload\n      swap2\n      pop\n        /* \"#utility.yul\":2978:2980   */\n      0x40\n        /* \"#utility.yul\":2963:2981   */\n      dup5\n      add\n        /* \"#utility.yul\":2950:2982   */\n      calldataload\n        /* \"#utility.yul\":2991:3024   */\n      tag_401\n        /* \"#utility.yul\":2950:2982   */\n      dup2\n        /* \"#utility.yul\":2991:3024   */\n      tag_380\n      jump\t// in\n    tag_401:\n        /* \"#utility.yul\":3043:3050   */\n      dup1\n        /* \"#utility.yul\":3033:3050   */\n      swap2\n      pop\n      pop\n        /* \"#utility.yul\":2585:3056   */\n      swap3\n      pop\n      swap3\n      pop\n      swap3\n      jump\t// out\n        /* \"#utility.yul\":3306:3846   */\n    tag_112:\n        /* \"#utility.yul\":3407:3413   */\n      0x00\n        /* \"#utility.yul\":3415:3421   */\n      dup1\n        /* \"#utility.yul\":3423:3429   */\n      0x00\n        /* \"#utility.yul\":3431:3437   */\n      dup1\n        /* \"#utility.yul\":3484:3487   */\n      0x80\n        /* \"#utility.yul\":3472:3481   */\n      dup6\n        /* \"#utility.yul\":3463:3470   */\n      dup8\n        /* \"#utility.yul\":3459:3482   */\n      sub\n        /* \"#utility.yul\":3455:3488   */\n      slt\n        /* \"#utility.yul\":3452:3505   */\n      iszero\n      tag_404\n      jumpi\n        /* \"#utility.yul\":3501:3502   */\n      0x00\n        /* \"#utility.yul\":3498:3499   */\n      dup1\n        /* \"#utility.yul\":3491:3503   */\n      revert\n        /* \"#utility.yul\":3452:3505   */\n    tag_404:\n        /* \"#utility.yul\":3540:3549   */\n      dup5\n        /* \"#utility.yul\":3527:3550   */\n      calldataload\n        /* \"#utility.yul\":3559:3590   */\n      tag_405\n        /* \"#utility.yul\":3584:3589   */\n      dup2\n        /* \"#utility.yul\":3559:3590   */\n      tag_380\n      jump\t// in\n    tag_405:\n        /* \"#utility.yul\":3609:3614   */\n      swap4\n      pop\n        /* \"#utility.yul\":3661:3663   */\n      0x20\n        /* \"#utility.yul\":3646:3664   */\n      dup6\n      add\n        /* \"#utility.yul\":3633:3665   */\n      calldataload\n      swap3\n      pop\n        /* \"#utility.yul\":3712:3714   */\n      0x40\n        /* \"#utility.yul\":3697:3715   */\n      dup6\n      add\n        /* \"#utility.yul\":3684:3716   */\n      calldataload\n      swap2\n      pop\n        /* \"#utility.yul\":3768:3770   */\n      0x60\n        /* \"#utility.yul\":3753:3771   */\n      dup6\n      add\n        /* \"#utility.yul\":3740:3772   */\n      calldataload\n        /* \"#utility.yul\":3781:3814   */\n      tag_406\n        /* \"#utility.yul\":3740:3772   */\n      dup2\n        /* \"#utility.yul\":3781:3814   */\n      tag_380\n      jump\t// in\n    tag_406:\n        /* \"#utility.yul\":3306:3846   */\n      swap4\n      swap7\n      swap3\n      swap6\n      pop\n      swap1\n      swap4\n      pop\n      pop\n      jump\t// out\n        /* \"#utility.yul\":4751:4998   */\n    tag_128:\n        /* \"#utility.yul\":4810:4816   */\n      0x00\n        /* \"#utility.yul\":4863:4865   */\n      0x20\n        /* \"#utility.yul\":4851:4860   */\n      dup3\n        /* \"#utility.yul\":4842:4849   */\n      dup5\n        /* \"#utility.yul\":4838:4861   */\n      sub\n        /* \"#utility.yul\":4834:4866   */\n      slt\n        /* \"#utility.yul\":4831:4883   */\n      iszero\n      tag_410\n      jumpi\n        /* \"#utility.yul\":4879:4880   */\n      0x00\n        /* \"#utility.yul\":4876:4877   */\n      dup1\n        /* \"#utility.yul\":4869:4881   */\n      revert\n        /* \"#utility.yul\":4831:4883   */\n    tag_410:\n        /* \"#utility.yul\":4918:4927   */\n      dup2\n        /* \"#utility.yul\":4905:4928   */\n      calldataload\n        /* \"#utility.yul\":4937:4968   */\n      tag_358\n        /* \"#utility.yul\":4962:4967   */\n      dup2\n        /* \"#utility.yul\":4937:4968   */\n      tag_380\n      jump\t// in\n        /* \"#utility.yul\":6055:6332   */\n    tag_168:\n        /* \"#utility.yul\":6122:6128   */\n      0x00\n        /* \"#utility.yul\":6175:6177   */\n      0x20\n        /* \"#utility.yul\":6163:6172   */\n      dup3\n        /* \"#utility.yul\":6154:6161   */\n      dup5\n        /* \"#utility.yul\":6150:6173   */\n      sub\n        /* \"#utility.yul\":6146:6178   */\n      slt\n        /* \"#utility.yul\":6143:6195   */\n      iszero\n      tag_416\n      jumpi\n        /* \"#utility.yul\":6191:6192   */\n      0x00\n        /* \"#utility.yul\":6188:6189   */\n      dup1\n        /* \"#utility.yul\":6181:6193   */\n      revert\n        /* \"#utility.yul\":6143:6195   */\n    tag_416:\n        /* \"#utility.yul\":6223:6232   */\n      dup2\n        /* \"#utility.yul\":6217:6233   */\n      mload\n        /* \"#utility.yul\":6276:6281   */\n      dup1\n        /* \"#utility.yul\":6269:6282   */\n      iszero\n        /* \"#utility.yul\":6262:6283   */\n      iszero\n        /* \"#utility.yul\":6255:6260   */\n      dup2\n        /* \"#utility.yul\":6252:6284   */\n      eq\n        /* \"#utility.yul\":6242:6302   */\n      tag_358\n      jumpi\n        /* \"#utility.yul\":6298:6299   */\n      0x00\n        /* \"#utility.yul\":6295:6296   */\n      dup1\n        /* \"#utility.yul\":6288:6300   */\n      revert\n        /* \"#utility.yul\":7465:7649   */\n    tag_201:\n        /* \"#utility.yul\":7535:7541   */\n      0x00\n        /* \"#utility.yul\":7588:7590   */\n      0x20\n        /* \"#utility.yul\":7576:7585   */\n      dup3\n        /* \"#utility.yul\":7567:7574   */\n      dup5\n        /* \"#utility.yul\":7563:7586   */\n      sub\n        /* \"#utility.yul\":7559:7591   */\n      slt\n        /* \"#utility.yul\":7556:7608   */\n      iszero\n      tag_422\n      jumpi\n        /* \"#utility.yul\":7604:7605   */\n      0x00\n        /* \"#utility.yul\":7601:7602   */\n      dup1\n        /* \"#utility.yul\":7594:7606   */\n      revert\n        /* \"#utility.yul\":7556:7608   */\n    tag_422:\n      pop\n        /* \"#utility.yul\":7627:7643   */\n      mload\n      swap2\n        /* \"#utility.yul\":7465:7649   */\n      swap1\n      pop\n      jump\t// out\n        /* \"#utility.yul\":8002:8186   */\n    tag_381:\n        /* \"#utility.yul\":8054:8131   */\n      0x4e487b7100000000000000000000000000000000000000000000000000000000\n        /* \"#utility.yul\":8051:8052   */\n      0x00\n        /* \"#utility.yul\":8044:8132   */\n      mstore\n        /* \"#utility.yul\":8151:8155   */\n      0x11\n        /* \"#utility.yul\":8148:8149   */\n      0x04\n        /* \"#utility.yul\":8141:8156   */\n      mstore\n        /* \"#utility.yul\":8175:8179   */\n      0x24\n        /* \"#utility.yul\":8172:8173   */\n      0x00\n        /* \"#utility.yul\":8165:8180   */\n      revert\n        /* \"#utility.yul\":8191:8386   */\n    tag_223:\n        /* \"#utility.yul\":8230:8233   */\n      0x00\n        /* \"#utility.yul\":8261:8327   */\n      0xffffffffffffffffffffffffffffffffffffffffffffffffffffffffffffffff\n        /* \"#utility.yul\":8254:8259   */\n      dup3\n        /* \"#utility.yul\":8251:8328   */\n      sub\n        /* \"#utility.yul\":8248:8351   */\n      tag_427\n      jumpi\n        /* \"#utility.yul\":8331:8349   */\n      tag_427\n      tag_381\n      jump\t// in\n    tag_427:\n      pop\n        /* \"#utility.yul\":8378:8379   */\n      0x01\n        /* \"#utility.yul\":8367:8380   */\n      add\n      swap1\n        /* \"#utility.yul\":8191:8386   */\n      jump\t// out\n        /* \"#utility.yul\":10298:10549   */\n    tag_311:\n        /* \"#utility.yul\":10368:10374   */\n      0x00\n        /* \"#utility.yul\":10421:10423   */\n      0x20\n        /* \"#utility.yul\":10409:10418   */\n      dup3\n        /* \"#utility.yul\":10400:10407   */\n      dup5\n        /* \"#utility.yul\":10396:10419   */\n      sub\n        /* \"#utility.yul\":10392:10424   */\n      slt\n        /* \"#utility.yul\":10389:10441   */\n      iszero\n      tag_434\n      jumpi\n        /* \"#utility.yul\":10437:10438   */\n      0x00\n        /* \"#utility.yul\":10434:10435   */\n      dup1\n        /* \"#utility.yul\":10427:10439   */\n      revert\n        /* \"#utility.yul\":10389:10441   */\n    tag_434:\n        /* \"#utility.yul\":10469:10478   */\n      dup2\n        /* \"#utility.yul\":10463:10479   */\n      mload\n        /* \"#utility.yul\":10488:10519   */\n      tag_358\n        /* \"#utility.yul\":10513:10518   */\n      dup2\n        /* \"#utility.yul\":10488:10519   */\n      tag_380\n      jump\t// in\n        /* \"#utility.yul\":12017:12185   */\n    tag_359:\n        /* \"#utility.yul\":12090:12099   */\n      dup1\n      dup3\n      mul\n        /* \"#utility.yul\":12121:12130   */\n      dup2\n      iszero\n        /* \"#utility.yul\":12138:12153   */\n      dup3\n      dup3\n      div\n        /* \"#utility.yul\":12132:12154   */\n      dup5\n      eq\n        /* \"#utility.yul\":12118:12155   */\n      or\n        /* \"#utility.yul\":12108:12179   */\n      tag_215\n      jumpi\n        /* \"#utility.yul\":12159:12177   */\n      tag_215\n      tag_381\n      jump\t// in\n        /* \"#utility.yul\":12190:12464   */\n    tag_362:\n        /* \"#utility.yul\":12230:12231   */\n      0x00\n        /* \"#utility.yul\":12256:12257   */\n      dup3\n        /* \"#utility.yul\":12246:12435   */\n      tag_444\n      jumpi\n        /* \"#utility.yul\":12291:12368   */\n      0x4e487b7100000000000000000000000000000000000000000000000000000000\n        /* \"#utility.yul\":12288:12289   */\n      0x00\n        /* \"#utility.yul\":12281:12369   */\n      mstore\n        /* \"#utility.yul\":12392:12396   */\n      0x12\n        /* \"#utility.yul\":12389:12390   */\n      0x04\n        /* \"#utility.yul\":12382:12397   */\n      mstore\n        /* \"#utility.yul\":12420:12424   */\n      0x24\n        /* \"#utility.yul\":12417:12418   */\n      0x00\n        /* \"#utility.yul\":12410:12425   */\n      revert\n        /* \"#utility.yul\":12246:12435   */\n    tag_444:\n      pop\n        /* \"#utility.yul\":12449:12458   */\n      div\n      swap1\n        /* \"#utility.yul\":12190:12464   */\n      jump\t// out\n        /* \"#utility.yul\":12469:12597   */\n    tag_365:\n        /* \"#utility.yul\":12536:12545   */\n      dup2\n      dup2\n      sub\n        /* \"#utility.yul\":12557:12568   */\n      dup2\n      dup2\n      gt\n        /* \"#utility.yul\":12554:12591   */\n      iszero\n      tag_215\n      jumpi\n        /* \"#utility.yul\":12571:12589   */\n      tag_215\n      tag_381\n      jump\t// in\n\n    auxdata: 0xa2646970667358221220f88f35f3154eae5d966207d5a92c99548d02ec4a8c05676b45199a3953dfa35f64736f6c63430008160033\n}\n",
				"bytecode": {
					"linkReferences": {},
					"object": "608060405261015e60055534801562000016575f80fd5b5060405162002426380380620024268339810160408190526200003991620000da565b806001600160a01b0381166200006857604051631e4fbdf760e01b81525f600482015260240160405180910390fd5b62000073816200008b565b50505f805460ff60a01b191690556001805562000109565b5f80546001600160a01b038381166001600160a01b0319831681178455604051919092169283917f8be0079c531659141344cd1fd0a4f28419497f9722a3daafe3b4186f6b6457e09190a35050565b5f60208284031215620000eb575f80fd5b81516001600160a01b038116811462000102575f80fd5b9392505050565b61230f80620001175f395ff3fe608060405260043610610165575f3560e01c8063925a9953116100c6578063cc4aa2041161007c578063de74e57b11610057578063de74e57b14610502578063df706cbc146105cd578063f2fde38b146105f9575f80fd5b8063cc4aa204146104a4578063cf02976f146104d0578063d68cdc52146104ef575f80fd5b80639cefe029116100ac5780639cefe0291461045e578063a82ba76f1461047d578063c85d526214610490575f80fd5b8063925a99531461042c57806398590ef91461044b575f80fd5b806365a19c201161011b578063715018a611610101578063715018a6146103af5780638699fdf4146103c35780638da5cb5b146103e2575f80fd5b806365a19c20146103725780636ee4c12014610390575f80fd5b8063249e10c51161014b578063249e10c5146103065780633ec62279146103255780635c975abb14610339575f80fd5b80630ea59c4b146101a857806321f67fbb146102f0575f80fd5b366101a457604080513381523460208201527fe1fffcc4923d04b559f4d29a8bfc6cda04eb5b0d3c460751c2402c5c5cc9109c910160405180910390a1005b5f80fd5b3480156101b3575f80fd5b5061027e6101c2366004612091565b6040805160c0810182525f80825260208201819052918101829052606081018290526080810182905260a0810191909152505f90815260096020908152604091829020825160c081018452815473ffffffffffffffffffffffffffffffffffffffff908116825260018301549382019390935260028201549381019390935260038101548216606084015260040154908116608083015274010000000000000000000000000000000000000000900460ff16151560a082015290565b6040516102e791905f60c08201905073ffffffffffffffffffffffffffffffffffffffff80845116835260208401516020840152604084015160408401528060608501511660608401528060808501511660808401525060a0830151151560a083015292915050565b60405180910390f35b3480156102fb575f80fd5b50610304610618565b005b348015610311575f80fd5b50610304610320366004612091565b61062a565b348015610330575f80fd5b506103046109f5565b348015610344575f80fd5b505f5474010000000000000000000000000000000000000000900460ff1660405190151581526020016102e7565b34801561037d575f80fd5b506005545b6040519081526020016102e7565b34801561039b575f80fd5b506103046103aa3660046120c9565b610a05565b3480156103ba575f80fd5b50610304610cee565b3480156103ce575f80fd5b506103826103dd3660046120f7565b610cff565b3480156103ed575f80fd5b505f5473ffffffffffffffffffffffffffffffffffffffff165b60405173ffffffffffffffffffffffffffffffffffffffff90911681526020016102e7565b348015610437575f80fd5b50610304610446366004612121565b610d70565b6103046104593660046120f7565b611063565b348015610469575f80fd5b50610304610478366004612091565b6112a0565b61030461048b3660046120f7565b6112ad565b34801561049b575f80fd5b506103826117c1565b3480156104af575f80fd5b506002546104079073ffffffffffffffffffffffffffffffffffffffff1681565b3480156104db575f80fd5b506103826104ea3660046120f7565b6117d0565b6103046104fd366004612160565b61188d565b34801561050d575f80fd5b5061058161051c366004612091565b60096020525f90815260409020805460018201546002830154600384015460049094015473ffffffffffffffffffffffffffffffffffffffff938416949293919282169181169074010000000000000000000000000000000000000000900460ff1686565b6040805173ffffffffffffffffffffffffffffffffffffffff978816815260208101969096528501939093529084166060840152909216608082015290151560a082015260c0016102e7565b3480156105d8575f80fd5b506003546104079073ffffffffffffffffffffffffffffffffffffffff1681565b348015610604575f80fd5b506103046106133660046121a7565b611cdf565b610620611d3f565b610628611d91565b565b610632611e0d565b61063a611e91565b5f818152600960205260409020811580159061065857506004548211155b6106c3576040517f08c379a000000000000000000000000000000000000000000000000000000000815260206004820152601260248201527f6974656d20646f65736e2774206578697374000000000000000000000000000060448201526064015b60405180910390fd5b600481015474010000000000000000000000000000000000000000900460ff1615155f0361074d576040517f08c379a000000000000000000000000000000000000000000000000000000000815260206004820152601460248201527f6974656d206973206e6f7420666f722073656c6c00000000000000000000000060448201526064016106ba565b60048101543373ffffffffffffffffffffffffffffffffffffffff909116036107d2576040517f08c379a000000000000000000000000000000000000000000000000000000000815260206004820152601b60248201527f596f752063616e6e6f742062757920796f7572206f776e206e6674000000000060448201526064016106ba565b600281015460088190556005546107f791612710916107f19190611f04565b90611f16565b600681905560085461080891611f21565b60078190556003820154600280547fffffffffffffffffffffffff00000000000000000000000000000000000000001673ffffffffffffffffffffffffffffffffffffffff9283169081179091556004808501546040517fa9059cbb000000000000000000000000000000000000000000000000000000008152931690830152602482019290925263a9059cbb906044016020604051808303815f875af11580156108b5573d5f803e3d5ffd5b505050506040513d601f19601f820116820180604052508101906108d991906121c2565b506002546007546040517fa9059cbb000000000000000000000000000000000000000000000000000000008152336004820152602481019190915273ffffffffffffffffffffffffffffffffffffffff9091169063a9059cbb906044016020604051808303815f875af1158015610952573d5f803e3d5ffd5b505050506040513d601f19601f8201168201806040525081019061097691906121c2565b506004810180547fffffffffffffffffffffff00ffffffffffffffffffffffffffffffffffffffff16905560018101546007546040805133815260208101939093528201527fc0790eb4899023169be51dd7074a99a15959464f9a0e6b19767d8d61539b87269060600160405180910390a1506109f260018055565b50565b6109fd611d3f565b610628611f2c565b610a0d611e0d565b610a15611e91565b610a1d611d3f565b815f03610a86576040517f08c379a000000000000000000000000000000000000000000000000000000000815260206004820152601560248201527f416d6f756e742063616e6e6f74206265207a65726f000000000000000000000060448201526064016106ba565b73ffffffffffffffffffffffffffffffffffffffff8116610b28576040517f08c379a0000000000000000000000000000000000000000000000000000000008152602060048201526024808201527f455243323020616464726573732063616e6e6f74206265207a65726f2061646460448201527f726573730000000000000000000000000000000000000000000000000000000060648201526084016106ba565b600280547fffffffffffffffffffffffff00000000000000000000000000000000000000001673ffffffffffffffffffffffffffffffffffffffff83169081179091556040517f70a082310000000000000000000000000000000000000000000000000000000081523060048201526370a0823190602401602060405180830381865afa158015610bbb573d5f803e3d5ffd5b505050506040513d601f19601f82011682018060405250810190610bdf91906121e1565b821115610c48576040517f08c379a000000000000000000000000000000000000000000000000000000000815260206004820152601360248201527f496e73756666696369656e742066756e64732e0000000000000000000000000060448201526064016106ba565b6002546040517fa9059cbb0000000000000000000000000000000000000000000000000000000081523360048201526024810184905273ffffffffffffffffffffffffffffffffffffffff9091169063a9059cbb906044016020604051808303815f875af1158015610cbc573d5f803e3d5ffd5b505050506040513d601f19601f82011682018060405250810190610ce091906121c2565b50610cea60018055565b5050565b610cf6611d3f565b6106285f611f9a565b5f60015b6004548111610d65575f818152600960205260409020805473ffffffffffffffffffffffffffffffffffffffff8681169116148015610d455750838160010154145b15610d5257509050610d6a565b5080610d5d81612225565b915050610d03565b505f90505b92915050565b610d78611e0d565b610d80611e91565b610d88611d3f565b5f8281526009602052604090208215801590610da657506004548311155b610e0c576040517f08c379a000000000000000000000000000000000000000000000000000000000815260206004820152601260248201527f6974656d20646f65736e2774206578697374000000000000000000000000000060448201526064016106ba565b600481015474010000000000000000000000000000000000000000900460ff1615155f03610e96576040517f08c379a000000000000000000000000000000000000000000000000000000000815260206004820152601460248201527f6974656d206973206e6f7420666f722073656c6c00000000000000000000000060448201526064016106ba565b600481015473ffffffffffffffffffffffffffffffffffffffff808416911603610f1c576040517f08c379a000000000000000000000000000000000000000000000000000000000815260206004820152601b60248201527f596f752063616e6e6f742062757920796f7572206f776e206e6674000000000060448201526064016106ba565b805473ffffffffffffffffffffffffffffffffffffffff858116911614610fc5576040517f08c379a000000000000000000000000000000000000000000000000000000000815260206004820152602560248201527f6974656d206973206e6f74207468652073616d6520636f6e747261637420616460448201527f647265737300000000000000000000000000000000000000000000000000000060648201526084016106ba565b6004810180547fffffffffffffffffffffff0000000000000000000000000000000000000000001673ffffffffffffffffffffffffffffffffffffffff841690811790915560018201546002830154604080519384526020840192909252908201527ffc2e01ec8c4c53e02ee1fa8816c1692687966e0daef195be5b64c88d8e58e3ee9060600160405180910390a15061105e60018055565b505050565b5f818152600960205260409020600401548290829073ffffffffffffffffffffffffffffffffffffffff163314611098575f80fd5b5f8181526009602052604090205473ffffffffffffffffffffffffffffffffffffffff8381169116146110c9575f80fd5b5f838152600960205260409020600481015473ffffffffffffffffffffffffffffffffffffffff163314611159576040517f08c379a000000000000000000000000000000000000000000000000000000000815260206004820152601160248201527f6973206e6f74207468652073656c6c657200000000000000000000000000000060448201526064016106ba565b600481015474010000000000000000000000000000000000000000900460ff1615156001146111e4576040517f08c379a000000000000000000000000000000000000000000000000000000000815260206004820152600f60248201527f6973206e6f74206c697374656e6564000000000000000000000000000000000060448201526064016106ba565b60018101546040517f23b872dd000000000000000000000000000000000000000000000000000000008152306004820152336024820152604481019190915273ffffffffffffffffffffffffffffffffffffffff8616906323b872dd906064015f604051808303815f87803b15801561125b575f80fd5b505af115801561126d573d5f803e3d5ffd5b5050505060040180547fffffffffffffffffffffff00ffffffffffffffffffffffffffffffffffffffff16905550505050565b6112a8611d3f565b600555565b6112b5611e0d565b6112bd611e91565b5f81815260096020526040902081158015906112db57506004548211155b611341576040517f08c379a000000000000000000000000000000000000000000000000000000000815260206004820152601260248201527f6974656d20646f65736e2774206578697374000000000000000000000000000060448201526064016106ba565b600481015474010000000000000000000000000000000000000000900460ff1615155f036113cb576040517f08c379a000000000000000000000000000000000000000000000000000000000815260206004820152601460248201527f6974656d206973206e6f7420666f722073656c6c00000000000000000000000060448201526064016106ba565b60048101543373ffffffffffffffffffffffffffffffffffffffff90911603611450576040517f08c379a000000000000000000000000000000000000000000000000000000000815260206004820152601b60248201527f596f752063616e6e6f742062757920796f7572206f776e206e6674000000000060448201526064016106ba565b805473ffffffffffffffffffffffffffffffffffffffff8481169116146114f9576040517f08c379a000000000000000000000000000000000000000000000000000000000815260206004820152602560248201527f6974656d206973206e6f74207468652073616d6520636f6e747261637420616460448201527f647265737300000000000000000000000000000000000000000000000000000060648201526084016106ba565b806002015434101561158d576040517f08c379a000000000000000000000000000000000000000000000000000000000815260206004820152602760248201527f6e6f7420656e6f7567682062616c616e636520666f722074686973207472616e60448201527f73616374696f6e0000000000000000000000000000000000000000000000000060648201526084016106ba565b600281015460088190556005546115ac91612710916107f19190611f04565b60068190556008546115bd91611f21565b60078190556003820154600280547fffffffffffffffffffffffff00000000000000000000000000000000000000001673ffffffffffffffffffffffffffffffffffffffff9283169081179091556004808501546040517fa9059cbb000000000000000000000000000000000000000000000000000000008152931690830152602482019290925263a9059cbb906044016020604051808303815f875af115801561166a573d5f803e3d5ffd5b505050506040513d601f19601f8201168201806040525081019061168e91906121c2565b5060018101546040517f23b872dd000000000000000000000000000000000000000000000000000000008152306004820152336024820152604481019190915273ffffffffffffffffffffffffffffffffffffffff8416906323b872dd906064015f604051808303815f87803b158015611706575f80fd5b505af1158015611718573d5f803e3d5ffd5b505050506004810180547fffffffffffffffffffffff00000000000000000000000000000000000000000016337fffffffffffffffffffffff00ffffffffffffffffffffffffffffffffffffffff8116919091179091556001820154600754604080519384526020840192909252908201527fc0790eb4899023169be51dd7074a99a15959464f9a0e6b19767d8d61539b87269060600160405180910390a150610cea60018055565b5f6117cb60045490565b905090565b5f8060015b6004548111611876575f8181526009602052604090205473ffffffffffffffffffffffffffffffffffffffff868116911614801561182257505f8181526009602052604090206001015484145b801561185657505f8181526009602052604090206004015474010000000000000000000000000000000000000000900460ff165b156118645760019150611876565b8061186e81612225565b9150506117d5565b81611885575f92505050610d6a565b949350505050565b6040517f6352211e00000000000000000000000000000000000000000000000000000000815260048101849052339073ffffffffffffffffffffffffffffffffffffffff861690636352211e90602401602060405180830381865afa1580156118f8573d5f803e3d5ffd5b505050506040513d601f19601f8201168201806040525081019061191c919061225c565b73ffffffffffffffffffffffffffffffffffffffff1614611999576040517f08c379a000000000000000000000000000000000000000000000000000000000815260206004820152601560248201527f596f7520617265206e6f7420746865206f776e6572000000000000000000000060448201526064016106ba565b5f8211611a28576040517f08c379a000000000000000000000000000000000000000000000000000000000815260206004820152602760248201527f4e46544d61726b65743a207072696365206d757374206265206772656174657260448201527f207468616e20300000000000000000000000000000000000000000000000000060648201526084016106ba565b611a36600480546001019055565b6040518060c001604052808573ffffffffffffffffffffffffffffffffffffffff1681526020018481526020018381526020018273ffffffffffffffffffffffffffffffffffffffff1681526020013373ffffffffffffffffffffffffffffffffffffffff1681526020015f151581525060095f611ab360045490565b815260208082019290925260409081015f9081208451815473ffffffffffffffffffffffffffffffffffffffff9182167fffffffffffffffffffffffff00000000000000000000000000000000000000009182161783559486015160018301559285015160028201556060850151600382018054918516919095161790935560808401516004938401805460a090960151151574010000000000000000000000000000000000000000027fffffffffffffffffffffff00000000000000000000000000000000000000000090961691909316179390931790556009908290611b99905490565b8152602081019190915260409081015f2090517f23b872dd0000000000000000000000000000000000000000000000000000000081523360048201523060248201526044810186905290915073ffffffffffffffffffffffffffffffffffffffff8616906323b872dd906064015f604051808303815f87803b158015611c1d575f80fd5b505af1158015611c2f573d5f803e3d5ffd5b505050600480830180547fffffffffffffffffffffff00ffffffffffffffffffffffffffffffffffffffff16740100000000000000000000000000000000000000001790557f21149a5778ddc1afca837b00fd70c0fc0a6d1d25d1bd15bff4a84bab1eeb9a92915033908690611ca3905490565b6040805173ffffffffffffffffffffffffffffffffffffffff909416845260208401929092529082015260600160405180910390a15050505050565b611ce7611d3f565b73ffffffffffffffffffffffffffffffffffffffff8116611d36576040517f1e4fbdf70000000000000000000000000000000000000000000000000000000081525f60048201526024016106ba565b6109f281611f9a565b5f5473ffffffffffffffffffffffffffffffffffffffff163314610628576040517f118cdaa70000000000000000000000000000000000000000000000000000000081523360048201526024016106ba565b611d9961200e565b5f80547fffffffffffffffffffffff00ffffffffffffffffffffffffffffffffffffffff1690557f5db9ee0a495bf2e6ff9c91a7834c1ba4fdd244a5e8aa4e537bd38aeae4b073aa335b60405173ffffffffffffffffffffffffffffffffffffffff909116815260200160405180910390a1565b5f5474010000000000000000000000000000000000000000900460ff1615610628576040517f08c379a000000000000000000000000000000000000000000000000000000000815260206004820152601060248201527f5061757361626c653a207061757365640000000000000000000000000000000060448201526064016106ba565b600260015403611efd576040517f08c379a000000000000000000000000000000000000000000000000000000000815260206004820152601f60248201527f5265656e7472616e637947756172643a207265656e7472616e742063616c6c0060448201526064016106ba565b6002600155565b5f611f0f8284612277565b9392505050565b5f611f0f828461228e565b5f611f0f82846122c6565b611f34611e0d565b5f80547fffffffffffffffffffffff00ffffffffffffffffffffffffffffffffffffffff16740100000000000000000000000000000000000000001790557f62e78cea01bee320cd4e420270b5ea74000d11b0c9f74754ebdbfc544b05a258611de33390565b5f805473ffffffffffffffffffffffffffffffffffffffff8381167fffffffffffffffffffffffff0000000000000000000000000000000000000000831681178455604051919092169283917f8be0079c531659141344cd1fd0a4f28419497f9722a3daafe3b4186f6b6457e09190a35050565b5f5474010000000000000000000000000000000000000000900460ff16610628576040517f08c379a000000000000000000000000000000000000000000000000000000000815260206004820152601460248201527f5061757361626c653a206e6f742070617573656400000000000000000000000060448201526064016106ba565b5f602082840312156120a1575f80fd5b5035919050565b73ffffffffffffffffffffffffffffffffffffffff811681146109f2575f80fd5b5f80604083850312156120da575f80fd5b8235915060208301356120ec816120a8565b809150509250929050565b5f8060408385031215612108575f80fd5b8235612113816120a8565b946020939093013593505050565b5f805f60608486031215612133575f80fd5b833561213e816120a8565b9250602084013591506040840135612155816120a8565b809150509250925092565b5f805f8060808587031215612173575f80fd5b843561217e816120a8565b93506020850135925060408501359150606085013561219c816120a8565b939692955090935050565b5f602082840312156121b7575f80fd5b8135611f0f816120a8565b5f602082840312156121d2575f80fd5b81518015158114611f0f575f80fd5b5f602082840312156121f1575f80fd5b5051919050565b7f4e487b71000000000000000000000000000000000000000000000000000000005f52601160045260245ffd5b5f7fffffffffffffffffffffffffffffffffffffffffffffffffffffffffffffffff8203612255576122556121f8565b5060010190565b5f6020828403121561226c575f80fd5b8151611f0f816120a8565b8082028115828204841417610d6a57610d6a6121f8565b5f826122c1577f4e487b71000000000000000000000000000000000000000000000000000000005f52601260045260245ffd5b500490565b81810381811115610d6a57610d6a6121f856fea2646970667358221220f88f35f3154eae5d966207d5a92c99548d02ec4a8c05676b45199a3953dfa35f64736f6c63430008160033",
					"opcodes": "PUSH1 0x80 PUSH1 0x40 MSTORE PUSH2 0x15E PUSH1 0x5 SSTORE CALLVALUE DUP1 ISZERO PUSH3 0x16 JUMPI PUSH0 DUP1 REVERT JUMPDEST POP PUSH1 0x40 MLOAD PUSH3 0x2426 CODESIZE SUB DUP1 PUSH3 0x2426 DUP4 CODECOPY DUP2 ADD PUSH1 0x40 DUP2 SWAP1 MSTORE PUSH3 0x39 SWAP2 PUSH3 0xDA JUMP JUMPDEST DUP1 PUSH1 0x1 PUSH1 0x1 PUSH1 0xA0 SHL SUB DUP2 AND PUSH3 0x68 JUMPI PUSH1 0x40 MLOAD PUSH4 0x1E4FBDF7 PUSH1 0xE0 SHL DUP2 MSTORE PUSH0 PUSH1 0x4 DUP3 ADD MSTORE PUSH1 0x24 ADD PUSH1 0x40 MLOAD DUP1 SWAP2 SUB SWAP1 REVERT JUMPDEST PUSH3 0x73 DUP2 PUSH3 0x8B JUMP JUMPDEST POP POP PUSH0 DUP1 SLOAD PUSH1 0xFF PUSH1 0xA0 SHL NOT AND SWAP1 SSTORE PUSH1 0x1 DUP1 SSTORE PUSH3 0x109 JUMP JUMPDEST PUSH0 DUP1 SLOAD PUSH1 0x1 PUSH1 0x1 PUSH1 0xA0 SHL SUB DUP4 DUP2 AND PUSH1 0x1 PUSH1 0x1 PUSH1 0xA0 SHL SUB NOT DUP4 AND DUP2 OR DUP5 SSTORE PUSH1 0x40 MLOAD SWAP2 SWAP1 SWAP3 AND SWAP3 DUP4 SWAP2 PUSH32 0x8BE0079C531659141344CD1FD0A4F28419497F9722A3DAAFE3B4186F6B6457E0 SWAP2 SWAP1 LOG3 POP POP JUMP JUMPDEST PUSH0 PUSH1 0x20 DUP3 DUP5 SUB SLT ISZERO PUSH3 0xEB JUMPI PUSH0 DUP1 REVERT JUMPDEST DUP2 MLOAD PUSH1 0x1 PUSH1 0x1 PUSH1 0xA0 SHL SUB DUP2 AND DUP2 EQ PUSH3 0x102 JUMPI PUSH0 DUP1 REVERT JUMPDEST SWAP4 SWAP3 POP POP POP JUMP JUMPDEST PUSH2 0x230F DUP1 PUSH3 0x117 PUSH0 CODECOPY PUSH0 RETURN INVALID PUSH1 0x80 PUSH1 0x40 MSTORE PUSH1 0x4 CALLDATASIZE LT PUSH2 0x165 JUMPI PUSH0 CALLDATALOAD PUSH1 0xE0 SHR DUP1 PUSH4 0x925A9953 GT PUSH2 0xC6 JUMPI DUP1 PUSH4 0xCC4AA204 GT PUSH2 0x7C JUMPI DUP1 PUSH4 0xDE74E57B GT PUSH2 0x57 JUMPI DUP1 PUSH4 0xDE74E57B EQ PUSH2 0x502 JUMPI DUP1 PUSH4 0xDF706CBC EQ PUSH2 0x5CD JUMPI DUP1 PUSH4 0xF2FDE38B EQ PUSH2 0x5F9 JUMPI PUSH0 DUP1 REVERT JUMPDEST DUP1 PUSH4 0xCC4AA204 EQ PUSH2 0x4A4 JUMPI DUP1 PUSH4 0xCF02976F EQ PUSH2 0x4D0 JUMPI DUP1 PUSH4 0xD68CDC52 EQ PUSH2 0x4EF JUMPI PUSH0 DUP1 REVERT JUMPDEST DUP1 PUSH4 0x9CEFE029 GT PUSH2 0xAC JUMPI DUP1 PUSH4 0x9CEFE029 EQ PUSH2 0x45E JUMPI DUP1 PUSH4 0xA82BA76F EQ PUSH2 0x47D JUMPI DUP1 PUSH4 0xC85D5262 EQ PUSH2 0x490 JUMPI PUSH0 DUP1 REVERT JUMPDEST DUP1 PUSH4 0x925A9953 EQ PUSH2 0x42C JUMPI DUP1 PUSH4 0x98590EF9 EQ PUSH2 0x44B JUMPI PUSH0 DUP1 REVERT JUMPDEST DUP1 PUSH4 0x65A19C20 GT PUSH2 0x11B JUMPI DUP1 PUSH4 0x715018A6 GT PUSH2 0x101 JUMPI DUP1 PUSH4 0x715018A6 EQ PUSH2 0x3AF JUMPI DUP1 PUSH4 0x8699FDF4 EQ PUSH2 0x3C3 JUMPI DUP1 PUSH4 0x8DA5CB5B EQ PUSH2 0x3E2 JUMPI PUSH0 DUP1 REVERT JUMPDEST DUP1 PUSH4 0x65A19C20 EQ PUSH2 0x372 JUMPI DUP1 PUSH4 0x6EE4C120 EQ PUSH2 0x390 JUMPI PUSH0 DUP1 REVERT JUMPDEST DUP1 PUSH4 0x249E10C5 GT PUSH2 0x14B JUMPI DUP1 PUSH4 0x249E10C5 EQ PUSH2 0x306 JUMPI DUP1 PUSH4 0x3EC62279 EQ PUSH2 0x325 JUMPI DUP1 PUSH4 0x5C975ABB EQ PUSH2 0x339 JUMPI PUSH0 DUP1 REVERT JUMPDEST DUP1 PUSH4 0xEA59C4B EQ PUSH2 0x1A8 JUMPI DUP1 PUSH4 0x21F67FBB EQ PUSH2 0x2F0 JUMPI PUSH0 DUP1 REVERT JUMPDEST CALLDATASIZE PUSH2 0x1A4 JUMPI PUSH1 0x40 DUP1 MLOAD CALLER DUP2 MSTORE CALLVALUE PUSH1 0x20 DUP3 ADD MSTORE PUSH32 0xE1FFFCC4923D04B559F4D29A8BFC6CDA04EB5B0D3C460751C2402C5C5CC9109C SWAP2 ADD PUSH1 0x40 MLOAD DUP1 SWAP2 SUB SWAP1 LOG1 STOP JUMPDEST PUSH0 DUP1 REVERT JUMPDEST CALLVALUE DUP1 ISZERO PUSH2 0x1B3 JUMPI PUSH0 DUP1 REVERT JUMPDEST POP PUSH2 0x27E PUSH2 0x1C2 CALLDATASIZE PUSH1 0x4 PUSH2 0x2091 JUMP JUMPDEST PUSH1 0x40 DUP1 MLOAD PUSH1 0xC0 DUP2 ADD DUP3 MSTORE PUSH0 DUP1 DUP3 MSTORE PUSH1 0x20 DUP3 ADD DUP2 SWAP1 MSTORE SWAP2 DUP2 ADD DUP3 SWAP1 MSTORE PUSH1 0x60 DUP2 ADD DUP3 SWAP1 MSTORE PUSH1 0x80 DUP2 ADD DUP3 SWAP1 MSTORE PUSH1 0xA0 DUP2 ADD SWAP2 SWAP1 SWAP2 MSTORE POP PUSH0 SWAP1 DUP2 MSTORE PUSH1 0x9 PUSH1 0x20 SWAP1 DUP2 MSTORE PUSH1 0x40 SWAP2 DUP3 SWAP1 KECCAK256 DUP3 MLOAD PUSH1 0xC0 DUP2 ADD DUP5 MSTORE DUP2 SLOAD PUSH20 0xFFFFFFFFFFFFFFFFFFFFFFFFFFFFFFFFFFFFFFFF SWAP1 DUP2 AND DUP3 MSTORE PUSH1 0x1 DUP4 ADD SLOAD SWAP4 DUP3 ADD SWAP4 SWAP1 SWAP4 MSTORE PUSH1 0x2 DUP3 ADD SLOAD SWAP4 DUP2 ADD SWAP4 SWAP1 SWAP4 MSTORE PUSH1 0x3 DUP2 ADD SLOAD DUP3 AND PUSH1 0x60 DUP5 ADD MSTORE PUSH1 0x4 ADD SLOAD SWAP1 DUP2 AND PUSH1 0x80 DUP4 ADD MSTORE PUSH21 0x10000000000000000000000000000000000000000 SWAP1 DIV PUSH1 0xFF AND ISZERO ISZERO PUSH1 0xA0 DUP3 ADD MSTORE SWAP1 JUMP JUMPDEST PUSH1 0x40 MLOAD PUSH2 0x2E7 SWAP2 SWAP1 PUSH0 PUSH1 0xC0 DUP3 ADD SWAP1 POP PUSH20 0xFFFFFFFFFFFFFFFFFFFFFFFFFFFFFFFFFFFFFFFF DUP1 DUP5 MLOAD AND DUP4 MSTORE PUSH1 0x20 DUP5 ADD MLOAD PUSH1 0x20 DUP5 ADD MSTORE PUSH1 0x40 DUP5 ADD MLOAD PUSH1 0x40 DUP5 ADD MSTORE DUP1 PUSH1 0x60 DUP6 ADD MLOAD AND PUSH1 0x60 DUP5 ADD MSTORE DUP1 PUSH1 0x80 DUP6 ADD MLOAD AND PUSH1 0x80 DUP5 ADD MSTORE POP PUSH1 0xA0 DUP4 ADD MLOAD ISZERO ISZERO PUSH1 0xA0 DUP4 ADD MSTORE SWAP3 SWAP2 POP POP JUMP JUMPDEST PUSH1 0x40 MLOAD DUP1 SWAP2 SUB SWAP1 RETURN JUMPDEST CALLVALUE DUP1 ISZERO PUSH2 0x2FB JUMPI PUSH0 DUP1 REVERT JUMPDEST POP PUSH2 0x304 PUSH2 0x618 JUMP JUMPDEST STOP JUMPDEST CALLVALUE DUP1 ISZERO PUSH2 0x311 JUMPI PUSH0 DUP1 REVERT JUMPDEST POP PUSH2 0x304 PUSH2 0x320 CALLDATASIZE PUSH1 0x4 PUSH2 0x2091 JUMP JUMPDEST PUSH2 0x62A JUMP JUMPDEST CALLVALUE DUP1 ISZERO PUSH2 0x330 JUMPI PUSH0 DUP1 REVERT JUMPDEST POP PUSH2 0x304 PUSH2 0x9F5 JUMP JUMPDEST CALLVALUE DUP1 ISZERO PUSH2 0x344 JUMPI PUSH0 DUP1 REVERT JUMPDEST POP PUSH0 SLOAD PUSH21 0x10000000000000000000000000000000000000000 SWAP1 DIV PUSH1 0xFF AND PUSH1 0x40 MLOAD SWAP1 ISZERO ISZERO DUP2 MSTORE PUSH1 0x20 ADD PUSH2 0x2E7 JUMP JUMPDEST CALLVALUE DUP1 ISZERO PUSH2 0x37D JUMPI PUSH0 DUP1 REVERT JUMPDEST POP PUSH1 0x5 SLOAD JUMPDEST PUSH1 0x40 MLOAD SWAP1 DUP2 MSTORE PUSH1 0x20 ADD PUSH2 0x2E7 JUMP JUMPDEST CALLVALUE DUP1 ISZERO PUSH2 0x39B JUMPI PUSH0 DUP1 REVERT JUMPDEST POP PUSH2 0x304 PUSH2 0x3AA CALLDATASIZE PUSH1 0x4 PUSH2 0x20C9 JUMP JUMPDEST PUSH2 0xA05 JUMP JUMPDEST CALLVALUE DUP1 ISZERO PUSH2 0x3BA JUMPI PUSH0 DUP1 REVERT JUMPDEST POP PUSH2 0x304 PUSH2 0xCEE JUMP JUMPDEST CALLVALUE DUP1 ISZERO PUSH2 0x3CE JUMPI PUSH0 DUP1 REVERT JUMPDEST POP PUSH2 0x382 PUSH2 0x3DD CALLDATASIZE PUSH1 0x4 PUSH2 0x20F7 JUMP JUMPDEST PUSH2 0xCFF JUMP JUMPDEST CALLVALUE DUP1 ISZERO PUSH2 0x3ED JUMPI PUSH0 DUP1 REVERT JUMPDEST POP PUSH0 SLOAD PUSH20 0xFFFFFFFFFFFFFFFFFFFFFFFFFFFFFFFFFFFFFFFF AND JUMPDEST PUSH1 0x40 MLOAD PUSH20 0xFFFFFFFFFFFFFFFFFFFFFFFFFFFFFFFFFFFFFFFF SWAP1 SWAP2 AND DUP2 MSTORE PUSH1 0x20 ADD PUSH2 0x2E7 JUMP JUMPDEST CALLVALUE DUP1 ISZERO PUSH2 0x437 JUMPI PUSH0 DUP1 REVERT JUMPDEST POP PUSH2 0x304 PUSH2 0x446 CALLDATASIZE PUSH1 0x4 PUSH2 0x2121 JUMP JUMPDEST PUSH2 0xD70 JUMP JUMPDEST PUSH2 0x304 PUSH2 0x459 CALLDATASIZE PUSH1 0x4 PUSH2 0x20F7 JUMP JUMPDEST PUSH2 0x1063 JUMP JUMPDEST CALLVALUE DUP1 ISZERO PUSH2 0x469 JUMPI PUSH0 DUP1 REVERT JUMPDEST POP PUSH2 0x304 PUSH2 0x478 CALLDATASIZE PUSH1 0x4 PUSH2 0x2091 JUMP JUMPDEST PUSH2 0x12A0 JUMP JUMPDEST PUSH2 0x304 PUSH2 0x48B CALLDATASIZE PUSH1 0x4 PUSH2 0x20F7 JUMP JUMPDEST PUSH2 0x12AD JUMP JUMPDEST CALLVALUE DUP1 ISZERO PUSH2 0x49B JUMPI PUSH0 DUP1 REVERT JUMPDEST POP PUSH2 0x382 PUSH2 0x17C1 JUMP JUMPDEST CALLVALUE DUP1 ISZERO PUSH2 0x4AF JUMPI PUSH0 DUP1 REVERT JUMPDEST POP PUSH1 0x2 SLOAD PUSH2 0x407 SWAP1 PUSH20 0xFFFFFFFFFFFFFFFFFFFFFFFFFFFFFFFFFFFFFFFF AND DUP2 JUMP JUMPDEST CALLVALUE DUP1 ISZERO PUSH2 0x4DB JUMPI PUSH0 DUP1 REVERT JUMPDEST POP PUSH2 0x382 PUSH2 0x4EA CALLDATASIZE PUSH1 0x4 PUSH2 0x20F7 JUMP JUMPDEST PUSH2 0x17D0 JUMP JUMPDEST PUSH2 0x304 PUSH2 0x4FD CALLDATASIZE PUSH1 0x4 PUSH2 0x2160 JUMP JUMPDEST PUSH2 0x188D JUMP JUMPDEST CALLVALUE DUP1 ISZERO PUSH2 0x50D JUMPI PUSH0 DUP1 REVERT JUMPDEST POP PUSH2 0x581 PUSH2 0x51C CALLDATASIZE PUSH1 0x4 PUSH2 0x2091 JUMP JUMPDEST PUSH1 0x9 PUSH1 0x20 MSTORE PUSH0 SWAP1 DUP2 MSTORE PUSH1 0x40 SWAP1 KECCAK256 DUP1 SLOAD PUSH1 0x1 DUP3 ADD SLOAD PUSH1 0x2 DUP4 ADD SLOAD PUSH1 0x3 DUP5 ADD SLOAD PUSH1 0x4 SWAP1 SWAP5 ADD SLOAD PUSH20 0xFFFFFFFFFFFFFFFFFFFFFFFFFFFFFFFFFFFFFFFF SWAP4 DUP5 AND SWAP5 SWAP3 SWAP4 SWAP2 SWAP3 DUP3 AND SWAP2 DUP2 AND SWAP1 PUSH21 0x10000000000000000000000000000000000000000 SWAP1 DIV PUSH1 0xFF AND DUP7 JUMP JUMPDEST PUSH1 0x40 DUP1 MLOAD PUSH20 0xFFFFFFFFFFFFFFFFFFFFFFFFFFFFFFFFFFFFFFFF SWAP8 DUP9 AND DUP2 MSTORE PUSH1 0x20 DUP2 ADD SWAP7 SWAP1 SWAP7 MSTORE DUP6 ADD SWAP4 SWAP1 SWAP4 MSTORE SWAP1 DUP5 AND PUSH1 0x60 DUP5 ADD MSTORE SWAP1 SWAP3 AND PUSH1 0x80 DUP3 ADD MSTORE SWAP1 ISZERO ISZERO PUSH1 0xA0 DUP3 ADD MSTORE PUSH1 0xC0 ADD PUSH2 0x2E7 JUMP JUMPDEST CALLVALUE DUP1 ISZERO PUSH2 0x5D8 JUMPI PUSH0 DUP1 REVERT JUMPDEST POP PUSH1 0x3 SLOAD PUSH2 0x407 SWAP1 PUSH20 0xFFFFFFFFFFFFFFFFFFFFFFFFFFFFFFFFFFFFFFFF AND DUP2 JUMP JUMPDEST CALLVALUE DUP1 ISZERO PUSH2 0x604 JUMPI PUSH0 DUP1 REVERT JUMPDEST POP PUSH2 0x304 PUSH2 0x613 CALLDATASIZE PUSH1 0x4 PUSH2 0x21A7 JUMP JUMPDEST PUSH2 0x1CDF JUMP JUMPDEST PUSH2 0x620 PUSH2 0x1D3F JUMP JUMPDEST PUSH2 0x628 PUSH2 0x1D91 JUMP JUMPDEST JUMP JUMPDEST PUSH2 0x632 PUSH2 0x1E0D JUMP JUMPDEST PUSH2 0x63A PUSH2 0x1E91 JUMP JUMPDEST PUSH0 DUP2 DUP2 MSTORE PUSH1 0x9 PUSH1 0x20 MSTORE PUSH1 0x40 SWAP1 KECCAK256 DUP2 ISZERO DUP1 ISZERO SWAP1 PUSH2 0x658 JUMPI POP PUSH1 0x4 SLOAD DUP3 GT ISZERO JUMPDEST PUSH2 0x6C3 JUMPI PUSH1 0x40 MLOAD PUSH32 0x8C379A000000000000000000000000000000000000000000000000000000000 DUP2 MSTORE PUSH1 0x20 PUSH1 0x4 DUP3 ADD MSTORE PUSH1 0x12 PUSH1 0x24 DUP3 ADD MSTORE PUSH32 0x6974656D20646F65736E27742065786973740000000000000000000000000000 PUSH1 0x44 DUP3 ADD MSTORE PUSH1 0x64 ADD JUMPDEST PUSH1 0x40 MLOAD DUP1 SWAP2 SUB SWAP1 REVERT JUMPDEST PUSH1 0x4 DUP2 ADD SLOAD PUSH21 0x10000000000000000000000000000000000000000 SWAP1 DIV PUSH1 0xFF AND ISZERO ISZERO PUSH0 SUB PUSH2 0x74D JUMPI PUSH1 0x40 MLOAD PUSH32 0x8C379A000000000000000000000000000000000000000000000000000000000 DUP2 MSTORE PUSH1 0x20 PUSH1 0x4 DUP3 ADD MSTORE PUSH1 0x14 PUSH1 0x24 DUP3 ADD MSTORE PUSH32 0x6974656D206973206E6F7420666F722073656C6C000000000000000000000000 PUSH1 0x44 DUP3 ADD MSTORE PUSH1 0x64 ADD PUSH2 0x6BA JUMP JUMPDEST PUSH1 0x4 DUP2 ADD SLOAD CALLER PUSH20 0xFFFFFFFFFFFFFFFFFFFFFFFFFFFFFFFFFFFFFFFF SWAP1 SWAP2 AND SUB PUSH2 0x7D2 JUMPI PUSH1 0x40 MLOAD PUSH32 0x8C379A000000000000000000000000000000000000000000000000000000000 DUP2 MSTORE PUSH1 0x20 PUSH1 0x4 DUP3 ADD MSTORE PUSH1 0x1B PUSH1 0x24 DUP3 ADD MSTORE PUSH32 0x596F752063616E6E6F742062757920796F7572206F776E206E66740000000000 PUSH1 0x44 DUP3 ADD MSTORE PUSH1 0x64 ADD PUSH2 0x6BA JUMP JUMPDEST PUSH1 0x2 DUP2 ADD SLOAD PUSH1 0x8 DUP2 SWAP1 SSTORE PUSH1 0x5 SLOAD PUSH2 0x7F7 SWAP2 PUSH2 0x2710 SWAP2 PUSH2 0x7F1 SWAP2 SWAP1 PUSH2 0x1F04 JUMP JUMPDEST SWAP1 PUSH2 0x1F16 JUMP JUMPDEST PUSH1 0x6 DUP2 SWAP1 SSTORE PUSH1 0x8 SLOAD PUSH2 0x808 SWAP2 PUSH2 0x1F21 JUMP JUMPDEST PUSH1 0x7 DUP2 SWAP1 SSTORE PUSH1 0x3 DUP3 ADD SLOAD PUSH1 0x2 DUP1 SLOAD PUSH32 0xFFFFFFFFFFFFFFFFFFFFFFFF0000000000000000000000000000000000000000 AND PUSH20 0xFFFFFFFFFFFFFFFFFFFFFFFFFFFFFFFFFFFFFFFF SWAP3 DUP4 AND SWAP1 DUP2 OR SWAP1 SWAP2 SSTORE PUSH1 0x4 DUP1 DUP6 ADD SLOAD PUSH1 0x40 MLOAD PUSH32 0xA9059CBB00000000000000000000000000000000000000000000000000000000 DUP2 MSTORE SWAP4 AND SWAP1 DUP4 ADD MSTORE PUSH1 0x24 DUP3 ADD SWAP3 SWAP1 SWAP3 MSTORE PUSH4 0xA9059CBB SWAP1 PUSH1 0x44 ADD PUSH1 0x20 PUSH1 0x40 MLOAD DUP1 DUP4 SUB DUP2 PUSH0 DUP8 GAS CALL ISZERO DUP1 ISZERO PUSH2 0x8B5 JUMPI RETURNDATASIZE PUSH0 DUP1 RETURNDATACOPY RETURNDATASIZE PUSH0 REVERT JUMPDEST POP POP POP POP PUSH1 0x40 MLOAD RETURNDATASIZE PUSH1 0x1F NOT PUSH1 0x1F DUP3 ADD AND DUP3 ADD DUP1 PUSH1 0x40 MSTORE POP DUP2 ADD SWAP1 PUSH2 0x8D9 SWAP2 SWAP1 PUSH2 0x21C2 JUMP JUMPDEST POP PUSH1 0x2 SLOAD PUSH1 0x7 SLOAD PUSH1 0x40 MLOAD PUSH32 0xA9059CBB00000000000000000000000000000000000000000000000000000000 DUP2 MSTORE CALLER PUSH1 0x4 DUP3 ADD MSTORE PUSH1 0x24 DUP2 ADD SWAP2 SWAP1 SWAP2 MSTORE PUSH20 0xFFFFFFFFFFFFFFFFFFFFFFFFFFFFFFFFFFFFFFFF SWAP1 SWAP2 AND SWAP1 PUSH4 0xA9059CBB SWAP1 PUSH1 0x44 ADD PUSH1 0x20 PUSH1 0x40 MLOAD DUP1 DUP4 SUB DUP2 PUSH0 DUP8 GAS CALL ISZERO DUP1 ISZERO PUSH2 0x952 JUMPI RETURNDATASIZE PUSH0 DUP1 RETURNDATACOPY RETURNDATASIZE PUSH0 REVERT JUMPDEST POP POP POP POP PUSH1 0x40 MLOAD RETURNDATASIZE PUSH1 0x1F NOT PUSH1 0x1F DUP3 ADD AND DUP3 ADD DUP1 PUSH1 0x40 MSTORE POP DUP2 ADD SWAP1 PUSH2 0x976 SWAP2 SWAP1 PUSH2 0x21C2 JUMP JUMPDEST POP PUSH1 0x4 DUP2 ADD DUP1 SLOAD PUSH32 0xFFFFFFFFFFFFFFFFFFFFFF00FFFFFFFFFFFFFFFFFFFFFFFFFFFFFFFFFFFFFFFF AND SWAP1 SSTORE PUSH1 0x1 DUP2 ADD SLOAD PUSH1 0x7 SLOAD PUSH1 0x40 DUP1 MLOAD CALLER DUP2 MSTORE PUSH1 0x20 DUP2 ADD SWAP4 SWAP1 SWAP4 MSTORE DUP3 ADD MSTORE PUSH32 0xC0790EB4899023169BE51DD7074A99A15959464F9A0E6B19767D8D61539B8726 SWAP1 PUSH1 0x60 ADD PUSH1 0x40 MLOAD DUP1 SWAP2 SUB SWAP1 LOG1 POP PUSH2 0x9F2 PUSH1 0x1 DUP1 SSTORE JUMP JUMPDEST POP JUMP JUMPDEST PUSH2 0x9FD PUSH2 0x1D3F JUMP JUMPDEST PUSH2 0x628 PUSH2 0x1F2C JUMP JUMPDEST PUSH2 0xA0D PUSH2 0x1E0D JUMP JUMPDEST PUSH2 0xA15 PUSH2 0x1E91 JUMP JUMPDEST PUSH2 0xA1D PUSH2 0x1D3F JUMP JUMPDEST DUP2 PUSH0 SUB PUSH2 0xA86 JUMPI PUSH1 0x40 MLOAD PUSH32 0x8C379A000000000000000000000000000000000000000000000000000000000 DUP2 MSTORE PUSH1 0x20 PUSH1 0x4 DUP3 ADD MSTORE PUSH1 0x15 PUSH1 0x24 DUP3 ADD MSTORE PUSH32 0x416D6F756E742063616E6E6F74206265207A65726F0000000000000000000000 PUSH1 0x44 DUP3 ADD MSTORE PUSH1 0x64 ADD PUSH2 0x6BA JUMP JUMPDEST PUSH20 0xFFFFFFFFFFFFFFFFFFFFFFFFFFFFFFFFFFFFFFFF DUP2 AND PUSH2 0xB28 JUMPI PUSH1 0x40 MLOAD PUSH32 0x8C379A000000000000000000000000000000000000000000000000000000000 DUP2 MSTORE PUSH1 0x20 PUSH1 0x4 DUP3 ADD MSTORE PUSH1 0x24 DUP1 DUP3 ADD MSTORE PUSH32 0x455243323020616464726573732063616E6E6F74206265207A65726F20616464 PUSH1 0x44 DUP3 ADD MSTORE PUSH32 0x7265737300000000000000000000000000000000000000000000000000000000 PUSH1 0x64 DUP3 ADD MSTORE PUSH1 0x84 ADD PUSH2 0x6BA JUMP JUMPDEST PUSH1 0x2 DUP1 SLOAD PUSH32 0xFFFFFFFFFFFFFFFFFFFFFFFF0000000000000000000000000000000000000000 AND PUSH20 0xFFFFFFFFFFFFFFFFFFFFFFFFFFFFFFFFFFFFFFFF DUP4 AND SWAP1 DUP2 OR SWAP1 SWAP2 SSTORE PUSH1 0x40 MLOAD PUSH32 0x70A0823100000000000000000000000000000000000000000000000000000000 DUP2 MSTORE ADDRESS PUSH1 0x4 DUP3 ADD MSTORE PUSH4 0x70A08231 SWAP1 PUSH1 0x24 ADD PUSH1 0x20 PUSH1 0x40 MLOAD DUP1 DUP4 SUB DUP2 DUP7 GAS STATICCALL ISZERO DUP1 ISZERO PUSH2 0xBBB JUMPI RETURNDATASIZE PUSH0 DUP1 RETURNDATACOPY RETURNDATASIZE PUSH0 REVERT JUMPDEST POP POP POP POP PUSH1 0x40 MLOAD RETURNDATASIZE PUSH1 0x1F NOT PUSH1 0x1F DUP3 ADD AND DUP3 ADD DUP1 PUSH1 0x40 MSTORE POP DUP2 ADD SWAP1 PUSH2 0xBDF SWAP2 SWAP1 PUSH2 0x21E1 JUMP JUMPDEST DUP3 GT ISZERO PUSH2 0xC48 JUMPI PUSH1 0x40 MLOAD PUSH32 0x8C379A000000000000000000000000000000000000000000000000000000000 DUP2 MSTORE PUSH1 0x20 PUSH1 0x4 DUP3 ADD MSTORE PUSH1 0x13 PUSH1 0x24 DUP3 ADD MSTORE PUSH32 0x496E73756666696369656E742066756E64732E00000000000000000000000000 PUSH1 0x44 DUP3 ADD MSTORE PUSH1 0x64 ADD PUSH2 0x6BA JUMP JUMPDEST PUSH1 0x2 SLOAD PUSH1 0x40 MLOAD PUSH32 0xA9059CBB00000000000000000000000000000000000000000000000000000000 DUP2 MSTORE CALLER PUSH1 0x4 DUP3 ADD MSTORE PUSH1 0x24 DUP2 ADD DUP5 SWAP1 MSTORE PUSH20 0xFFFFFFFFFFFFFFFFFFFFFFFFFFFFFFFFFFFFFFFF SWAP1 SWAP2 AND SWAP1 PUSH4 0xA9059CBB SWAP1 PUSH1 0x44 ADD PUSH1 0x20 PUSH1 0x40 MLOAD DUP1 DUP4 SUB DUP2 PUSH0 DUP8 GAS CALL ISZERO DUP1 ISZERO PUSH2 0xCBC JUMPI RETURNDATASIZE PUSH0 DUP1 RETURNDATACOPY RETURNDATASIZE PUSH0 REVERT JUMPDEST POP POP POP POP PUSH1 0x40 MLOAD RETURNDATASIZE PUSH1 0x1F NOT PUSH1 0x1F DUP3 ADD AND DUP3 ADD DUP1 PUSH1 0x40 MSTORE POP DUP2 ADD SWAP1 PUSH2 0xCE0 SWAP2 SWAP1 PUSH2 0x21C2 JUMP JUMPDEST POP PUSH2 0xCEA PUSH1 0x1 DUP1 SSTORE JUMP JUMPDEST POP POP JUMP JUMPDEST PUSH2 0xCF6 PUSH2 0x1D3F JUMP JUMPDEST PUSH2 0x628 PUSH0 PUSH2 0x1F9A JUMP JUMPDEST PUSH0 PUSH1 0x1 JUMPDEST PUSH1 0x4 SLOAD DUP2 GT PUSH2 0xD65 JUMPI PUSH0 DUP2 DUP2 MSTORE PUSH1 0x9 PUSH1 0x20 MSTORE PUSH1 0x40 SWAP1 KECCAK256 DUP1 SLOAD PUSH20 0xFFFFFFFFFFFFFFFFFFFFFFFFFFFFFFFFFFFFFFFF DUP7 DUP2 AND SWAP2 AND EQ DUP1 ISZERO PUSH2 0xD45 JUMPI POP DUP4 DUP2 PUSH1 0x1 ADD SLOAD EQ JUMPDEST ISZERO PUSH2 0xD52 JUMPI POP SWAP1 POP PUSH2 0xD6A JUMP JUMPDEST POP DUP1 PUSH2 0xD5D DUP2 PUSH2 0x2225 JUMP JUMPDEST SWAP2 POP POP PUSH2 0xD03 JUMP JUMPDEST POP PUSH0 SWAP1 POP JUMPDEST SWAP3 SWAP2 POP POP JUMP JUMPDEST PUSH2 0xD78 PUSH2 0x1E0D JUMP JUMPDEST PUSH2 0xD80 PUSH2 0x1E91 JUMP JUMPDEST PUSH2 0xD88 PUSH2 0x1D3F JUMP JUMPDEST PUSH0 DUP3 DUP2 MSTORE PUSH1 0x9 PUSH1 0x20 MSTORE PUSH1 0x40 SWAP1 KECCAK256 DUP3 ISZERO DUP1 ISZERO SWAP1 PUSH2 0xDA6 JUMPI POP PUSH1 0x4 SLOAD DUP4 GT ISZERO JUMPDEST PUSH2 0xE0C JUMPI PUSH1 0x40 MLOAD PUSH32 0x8C379A000000000000000000000000000000000000000000000000000000000 DUP2 MSTORE PUSH1 0x20 PUSH1 0x4 DUP3 ADD MSTORE PUSH1 0x12 PUSH1 0x24 DUP3 ADD MSTORE PUSH32 0x6974656D20646F65736E27742065786973740000000000000000000000000000 PUSH1 0x44 DUP3 ADD MSTORE PUSH1 0x64 ADD PUSH2 0x6BA JUMP JUMPDEST PUSH1 0x4 DUP2 ADD SLOAD PUSH21 0x10000000000000000000000000000000000000000 SWAP1 DIV PUSH1 0xFF AND ISZERO ISZERO PUSH0 SUB PUSH2 0xE96 JUMPI PUSH1 0x40 MLOAD PUSH32 0x8C379A000000000000000000000000000000000000000000000000000000000 DUP2 MSTORE PUSH1 0x20 PUSH1 0x4 DUP3 ADD MSTORE PUSH1 0x14 PUSH1 0x24 DUP3 ADD MSTORE PUSH32 0x6974656D206973206E6F7420666F722073656C6C000000000000000000000000 PUSH1 0x44 DUP3 ADD MSTORE PUSH1 0x64 ADD PUSH2 0x6BA JUMP JUMPDEST PUSH1 0x4 DUP2 ADD SLOAD PUSH20 0xFFFFFFFFFFFFFFFFFFFFFFFFFFFFFFFFFFFFFFFF DUP1 DUP5 AND SWAP2 AND SUB PUSH2 0xF1C JUMPI PUSH1 0x40 MLOAD PUSH32 0x8C379A000000000000000000000000000000000000000000000000000000000 DUP2 MSTORE PUSH1 0x20 PUSH1 0x4 DUP3 ADD MSTORE PUSH1 0x1B PUSH1 0x24 DUP3 ADD MSTORE PUSH32 0x596F752063616E6E6F742062757920796F7572206F776E206E66740000000000 PUSH1 0x44 DUP3 ADD MSTORE PUSH1 0x64 ADD PUSH2 0x6BA JUMP JUMPDEST DUP1 SLOAD PUSH20 0xFFFFFFFFFFFFFFFFFFFFFFFFFFFFFFFFFFFFFFFF DUP6 DUP2 AND SWAP2 AND EQ PUSH2 0xFC5 JUMPI PUSH1 0x40 MLOAD PUSH32 0x8C379A000000000000000000000000000000000000000000000000000000000 DUP2 MSTORE PUSH1 0x20 PUSH1 0x4 DUP3 ADD MSTORE PUSH1 0x25 PUSH1 0x24 DUP3 ADD MSTORE PUSH32 0x6974656D206973206E6F74207468652073616D6520636F6E7472616374206164 PUSH1 0x44 DUP3 ADD MSTORE PUSH32 0x6472657373000000000000000000000000000000000000000000000000000000 PUSH1 0x64 DUP3 ADD MSTORE PUSH1 0x84 ADD PUSH2 0x6BA JUMP JUMPDEST PUSH1 0x4 DUP2 ADD DUP1 SLOAD PUSH32 0xFFFFFFFFFFFFFFFFFFFFFF000000000000000000000000000000000000000000 AND PUSH20 0xFFFFFFFFFFFFFFFFFFFFFFFFFFFFFFFFFFFFFFFF DUP5 AND SWAP1 DUP2 OR SWAP1 SWAP2 SSTORE PUSH1 0x1 DUP3 ADD SLOAD PUSH1 0x2 DUP4 ADD SLOAD PUSH1 0x40 DUP1 MLOAD SWAP4 DUP5 MSTORE PUSH1 0x20 DUP5 ADD SWAP3 SWAP1 SWAP3 MSTORE SWAP1 DUP3 ADD MSTORE PUSH32 0xFC2E01EC8C4C53E02EE1FA8816C1692687966E0DAEF195BE5B64C88D8E58E3EE SWAP1 PUSH1 0x60 ADD PUSH1 0x40 MLOAD DUP1 SWAP2 SUB SWAP1 LOG1 POP PUSH2 0x105E PUSH1 0x1 DUP1 SSTORE JUMP JUMPDEST POP POP POP JUMP JUMPDEST PUSH0 DUP2 DUP2 MSTORE PUSH1 0x9 PUSH1 0x20 MSTORE PUSH1 0x40 SWAP1 KECCAK256 PUSH1 0x4 ADD SLOAD DUP3 SWAP1 DUP3 SWAP1 PUSH20 0xFFFFFFFFFFFFFFFFFFFFFFFFFFFFFFFFFFFFFFFF AND CALLER EQ PUSH2 0x1098 JUMPI PUSH0 DUP1 REVERT JUMPDEST PUSH0 DUP2 DUP2 MSTORE PUSH1 0x9 PUSH1 0x20 MSTORE PUSH1 0x40 SWAP1 KECCAK256 SLOAD PUSH20 0xFFFFFFFFFFFFFFFFFFFFFFFFFFFFFFFFFFFFFFFF DUP4 DUP2 AND SWAP2 AND EQ PUSH2 0x10C9 JUMPI PUSH0 DUP1 REVERT JUMPDEST PUSH0 DUP4 DUP2 MSTORE PUSH1 0x9 PUSH1 0x20 MSTORE PUSH1 0x40 SWAP1 KECCAK256 PUSH1 0x4 DUP2 ADD SLOAD PUSH20 0xFFFFFFFFFFFFFFFFFFFFFFFFFFFFFFFFFFFFFFFF AND CALLER EQ PUSH2 0x1159 JUMPI PUSH1 0x40 MLOAD PUSH32 0x8C379A000000000000000000000000000000000000000000000000000000000 DUP2 MSTORE PUSH1 0x20 PUSH1 0x4 DUP3 ADD MSTORE PUSH1 0x11 PUSH1 0x24 DUP3 ADD MSTORE PUSH32 0x6973206E6F74207468652073656C6C6572000000000000000000000000000000 PUSH1 0x44 DUP3 ADD MSTORE PUSH1 0x64 ADD PUSH2 0x6BA JUMP JUMPDEST PUSH1 0x4 DUP2 ADD SLOAD PUSH21 0x10000000000000000000000000000000000000000 SWAP1 DIV PUSH1 0xFF AND ISZERO ISZERO PUSH1 0x1 EQ PUSH2 0x11E4 JUMPI PUSH1 0x40 MLOAD PUSH32 0x8C379A000000000000000000000000000000000000000000000000000000000 DUP2 MSTORE PUSH1 0x20 PUSH1 0x4 DUP3 ADD MSTORE PUSH1 0xF PUSH1 0x24 DUP3 ADD MSTORE PUSH32 0x6973206E6F74206C697374656E65640000000000000000000000000000000000 PUSH1 0x44 DUP3 ADD MSTORE PUSH1 0x64 ADD PUSH2 0x6BA JUMP JUMPDEST PUSH1 0x1 DUP2 ADD SLOAD PUSH1 0x40 MLOAD PUSH32 0x23B872DD00000000000000000000000000000000000000000000000000000000 DUP2 MSTORE ADDRESS PUSH1 0x4 DUP3 ADD MSTORE CALLER PUSH1 0x24 DUP3 ADD MSTORE PUSH1 0x44 DUP2 ADD SWAP2 SWAP1 SWAP2 MSTORE PUSH20 0xFFFFFFFFFFFFFFFFFFFFFFFFFFFFFFFFFFFFFFFF DUP7 AND SWAP1 PUSH4 0x23B872DD SWAP1 PUSH1 0x64 ADD PUSH0 PUSH1 0x40 MLOAD DUP1 DUP4 SUB DUP2 PUSH0 DUP8 DUP1 EXTCODESIZE ISZERO DUP1 ISZERO PUSH2 0x125B JUMPI PUSH0 DUP1 REVERT JUMPDEST POP GAS CALL ISZERO DUP1 ISZERO PUSH2 0x126D JUMPI RETURNDATASIZE PUSH0 DUP1 RETURNDATACOPY RETURNDATASIZE PUSH0 REVERT JUMPDEST POP POP POP POP PUSH1 0x4 ADD DUP1 SLOAD PUSH32 0xFFFFFFFFFFFFFFFFFFFFFF00FFFFFFFFFFFFFFFFFFFFFFFFFFFFFFFFFFFFFFFF AND SWAP1 SSTORE POP POP POP POP JUMP JUMPDEST PUSH2 0x12A8 PUSH2 0x1D3F JUMP JUMPDEST PUSH1 0x5 SSTORE JUMP JUMPDEST PUSH2 0x12B5 PUSH2 0x1E0D JUMP JUMPDEST PUSH2 0x12BD PUSH2 0x1E91 JUMP JUMPDEST PUSH0 DUP2 DUP2 MSTORE PUSH1 0x9 PUSH1 0x20 MSTORE PUSH1 0x40 SWAP1 KECCAK256 DUP2 ISZERO DUP1 ISZERO SWAP1 PUSH2 0x12DB JUMPI POP PUSH1 0x4 SLOAD DUP3 GT ISZERO JUMPDEST PUSH2 0x1341 JUMPI PUSH1 0x40 MLOAD PUSH32 0x8C379A000000000000000000000000000000000000000000000000000000000 DUP2 MSTORE PUSH1 0x20 PUSH1 0x4 DUP3 ADD MSTORE PUSH1 0x12 PUSH1 0x24 DUP3 ADD MSTORE PUSH32 0x6974656D20646F65736E27742065786973740000000000000000000000000000 PUSH1 0x44 DUP3 ADD MSTORE PUSH1 0x64 ADD PUSH2 0x6BA JUMP JUMPDEST PUSH1 0x4 DUP2 ADD SLOAD PUSH21 0x10000000000000000000000000000000000000000 SWAP1 DIV PUSH1 0xFF AND ISZERO ISZERO PUSH0 SUB PUSH2 0x13CB JUMPI PUSH1 0x40 MLOAD PUSH32 0x8C379A000000000000000000000000000000000000000000000000000000000 DUP2 MSTORE PUSH1 0x20 PUSH1 0x4 DUP3 ADD MSTORE PUSH1 0x14 PUSH1 0x24 DUP3 ADD MSTORE PUSH32 0x6974656D206973206E6F7420666F722073656C6C000000000000000000000000 PUSH1 0x44 DUP3 ADD MSTORE PUSH1 0x64 ADD PUSH2 0x6BA JUMP JUMPDEST PUSH1 0x4 DUP2 ADD SLOAD CALLER PUSH20 0xFFFFFFFFFFFFFFFFFFFFFFFFFFFFFFFFFFFFFFFF SWAP1 SWAP2 AND SUB PUSH2 0x1450 JUMPI PUSH1 0x40 MLOAD PUSH32 0x8C379A000000000000000000000000000000000000000000000000000000000 DUP2 MSTORE PUSH1 0x20 PUSH1 0x4 DUP3 ADD MSTORE PUSH1 0x1B PUSH1 0x24 DUP3 ADD MSTORE PUSH32 0x596F752063616E6E6F742062757920796F7572206F776E206E66740000000000 PUSH1 0x44 DUP3 ADD MSTORE PUSH1 0x64 ADD PUSH2 0x6BA JUMP JUMPDEST DUP1 SLOAD PUSH20 0xFFFFFFFFFFFFFFFFFFFFFFFFFFFFFFFFFFFFFFFF DUP5 DUP2 AND SWAP2 AND EQ PUSH2 0x14F9 JUMPI PUSH1 0x40 MLOAD PUSH32 0x8C379A000000000000000000000000000000000000000000000000000000000 DUP2 MSTORE PUSH1 0x20 PUSH1 0x4 DUP3 ADD MSTORE PUSH1 0x25 PUSH1 0x24 DUP3 ADD MSTORE PUSH32 0x6974656D206973206E6F74207468652073616D6520636F6E7472616374206164 PUSH1 0x44 DUP3 ADD MSTORE PUSH32 0x6472657373000000000000000000000000000000000000000000000000000000 PUSH1 0x64 DUP3 ADD MSTORE PUSH1 0x84 ADD PUSH2 0x6BA JUMP JUMPDEST DUP1 PUSH1 0x2 ADD SLOAD CALLVALUE LT ISZERO PUSH2 0x158D JUMPI PUSH1 0x40 MLOAD PUSH32 0x8C379A000000000000000000000000000000000000000000000000000000000 DUP2 MSTORE PUSH1 0x20 PUSH1 0x4 DUP3 ADD MSTORE PUSH1 0x27 PUSH1 0x24 DUP3 ADD MSTORE PUSH32 0x6E6F7420656E6F7567682062616C616E636520666F722074686973207472616E PUSH1 0x44 DUP3 ADD MSTORE PUSH32 0x73616374696F6E00000000000000000000000000000000000000000000000000 PUSH1 0x64 DUP3 ADD MSTORE PUSH1 0x84 ADD PUSH2 0x6BA JUMP JUMPDEST PUSH1 0x2 DUP2 ADD SLOAD PUSH1 0x8 DUP2 SWAP1 SSTORE PUSH1 0x5 SLOAD PUSH2 0x15AC SWAP2 PUSH2 0x2710 SWAP2 PUSH2 0x7F1 SWAP2 SWAP1 PUSH2 0x1F04 JUMP JUMPDEST PUSH1 0x6 DUP2 SWAP1 SSTORE PUSH1 0x8 SLOAD PUSH2 0x15BD SWAP2 PUSH2 0x1F21 JUMP JUMPDEST PUSH1 0x7 DUP2 SWAP1 SSTORE PUSH1 0x3 DUP3 ADD SLOAD PUSH1 0x2 DUP1 SLOAD PUSH32 0xFFFFFFFFFFFFFFFFFFFFFFFF0000000000000000000000000000000000000000 AND PUSH20 0xFFFFFFFFFFFFFFFFFFFFFFFFFFFFFFFFFFFFFFFF SWAP3 DUP4 AND SWAP1 DUP2 OR SWAP1 SWAP2 SSTORE PUSH1 0x4 DUP1 DUP6 ADD SLOAD PUSH1 0x40 MLOAD PUSH32 0xA9059CBB00000000000000000000000000000000000000000000000000000000 DUP2 MSTORE SWAP4 AND SWAP1 DUP4 ADD MSTORE PUSH1 0x24 DUP3 ADD SWAP3 SWAP1 SWAP3 MSTORE PUSH4 0xA9059CBB SWAP1 PUSH1 0x44 ADD PUSH1 0x20 PUSH1 0x40 MLOAD DUP1 DUP4 SUB DUP2 PUSH0 DUP8 GAS CALL ISZERO DUP1 ISZERO PUSH2 0x166A JUMPI RETURNDATASIZE PUSH0 DUP1 RETURNDATACOPY RETURNDATASIZE PUSH0 REVERT JUMPDEST POP POP POP POP PUSH1 0x40 MLOAD RETURNDATASIZE PUSH1 0x1F NOT PUSH1 0x1F DUP3 ADD AND DUP3 ADD DUP1 PUSH1 0x40 MSTORE POP DUP2 ADD SWAP1 PUSH2 0x168E SWAP2 SWAP1 PUSH2 0x21C2 JUMP JUMPDEST POP PUSH1 0x1 DUP2 ADD SLOAD PUSH1 0x40 MLOAD PUSH32 0x23B872DD00000000000000000000000000000000000000000000000000000000 DUP2 MSTORE ADDRESS PUSH1 0x4 DUP3 ADD MSTORE CALLER PUSH1 0x24 DUP3 ADD MSTORE PUSH1 0x44 DUP2 ADD SWAP2 SWAP1 SWAP2 MSTORE PUSH20 0xFFFFFFFFFFFFFFFFFFFFFFFFFFFFFFFFFFFFFFFF DUP5 AND SWAP1 PUSH4 0x23B872DD SWAP1 PUSH1 0x64 ADD PUSH0 PUSH1 0x40 MLOAD DUP1 DUP4 SUB DUP2 PUSH0 DUP8 DUP1 EXTCODESIZE ISZERO DUP1 ISZERO PUSH2 0x1706 JUMPI PUSH0 DUP1 REVERT JUMPDEST POP GAS CALL ISZERO DUP1 ISZERO PUSH2 0x1718 JUMPI RETURNDATASIZE PUSH0 DUP1 RETURNDATACOPY RETURNDATASIZE PUSH0 REVERT JUMPDEST POP POP POP POP PUSH1 0x4 DUP2 ADD DUP1 SLOAD PUSH32 0xFFFFFFFFFFFFFFFFFFFFFF000000000000000000000000000000000000000000 AND CALLER PUSH32 0xFFFFFFFFFFFFFFFFFFFFFF00FFFFFFFFFFFFFFFFFFFFFFFFFFFFFFFFFFFFFFFF DUP2 AND SWAP2 SWAP1 SWAP2 OR SWAP1 SWAP2 SSTORE PUSH1 0x1 DUP3 ADD SLOAD PUSH1 0x7 SLOAD PUSH1 0x40 DUP1 MLOAD SWAP4 DUP5 MSTORE PUSH1 0x20 DUP5 ADD SWAP3 SWAP1 SWAP3 MSTORE SWAP1 DUP3 ADD MSTORE PUSH32 0xC0790EB4899023169BE51DD7074A99A15959464F9A0E6B19767D8D61539B8726 SWAP1 PUSH1 0x60 ADD PUSH1 0x40 MLOAD DUP1 SWAP2 SUB SWAP1 LOG1 POP PUSH2 0xCEA PUSH1 0x1 DUP1 SSTORE JUMP JUMPDEST PUSH0 PUSH2 0x17CB PUSH1 0x4 SLOAD SWAP1 JUMP JUMPDEST SWAP1 POP SWAP1 JUMP JUMPDEST PUSH0 DUP1 PUSH1 0x1 JUMPDEST PUSH1 0x4 SLOAD DUP2 GT PUSH2 0x1876 JUMPI PUSH0 DUP2 DUP2 MSTORE PUSH1 0x9 PUSH1 0x20 MSTORE PUSH1 0x40 SWAP1 KECCAK256 SLOAD PUSH20 0xFFFFFFFFFFFFFFFFFFFFFFFFFFFFFFFFFFFFFFFF DUP7 DUP2 AND SWAP2 AND EQ DUP1 ISZERO PUSH2 0x1822 JUMPI POP PUSH0 DUP2 DUP2 MSTORE PUSH1 0x9 PUSH1 0x20 MSTORE PUSH1 0x40 SWAP1 KECCAK256 PUSH1 0x1 ADD SLOAD DUP5 EQ JUMPDEST DUP1 ISZERO PUSH2 0x1856 JUMPI POP PUSH0 DUP2 DUP2 MSTORE PUSH1 0x9 PUSH1 0x20 MSTORE PUSH1 0x40 SWAP1 KECCAK256 PUSH1 0x4 ADD SLOAD PUSH21 0x10000000000000000000000000000000000000000 SWAP1 DIV PUSH1 0xFF AND JUMPDEST ISZERO PUSH2 0x1864 JUMPI PUSH1 0x1 SWAP2 POP PUSH2 0x1876 JUMP JUMPDEST DUP1 PUSH2 0x186E DUP2 PUSH2 0x2225 JUMP JUMPDEST SWAP2 POP POP PUSH2 0x17D5 JUMP JUMPDEST DUP2 PUSH2 0x1885 JUMPI PUSH0 SWAP3 POP POP POP PUSH2 0xD6A JUMP JUMPDEST SWAP5 SWAP4 POP POP POP POP JUMP JUMPDEST PUSH1 0x40 MLOAD PUSH32 0x6352211E00000000000000000000000000000000000000000000000000000000 DUP2 MSTORE PUSH1 0x4 DUP2 ADD DUP5 SWAP1 MSTORE CALLER SWAP1 PUSH20 0xFFFFFFFFFFFFFFFFFFFFFFFFFFFFFFFFFFFFFFFF DUP7 AND SWAP1 PUSH4 0x6352211E SWAP1 PUSH1 0x24 ADD PUSH1 0x20 PUSH1 0x40 MLOAD DUP1 DUP4 SUB DUP2 DUP7 GAS STATICCALL ISZERO DUP1 ISZERO PUSH2 0x18F8 JUMPI RETURNDATASIZE PUSH0 DUP1 RETURNDATACOPY RETURNDATASIZE PUSH0 REVERT JUMPDEST POP POP POP POP PUSH1 0x40 MLOAD RETURNDATASIZE PUSH1 0x1F NOT PUSH1 0x1F DUP3 ADD AND DUP3 ADD DUP1 PUSH1 0x40 MSTORE POP DUP2 ADD SWAP1 PUSH2 0x191C SWAP2 SWAP1 PUSH2 0x225C JUMP JUMPDEST PUSH20 0xFFFFFFFFFFFFFFFFFFFFFFFFFFFFFFFFFFFFFFFF AND EQ PUSH2 0x1999 JUMPI PUSH1 0x40 MLOAD PUSH32 0x8C379A000000000000000000000000000000000000000000000000000000000 DUP2 MSTORE PUSH1 0x20 PUSH1 0x4 DUP3 ADD MSTORE PUSH1 0x15 PUSH1 0x24 DUP3 ADD MSTORE PUSH32 0x596F7520617265206E6F7420746865206F776E65720000000000000000000000 PUSH1 0x44 DUP3 ADD MSTORE PUSH1 0x64 ADD PUSH2 0x6BA JUMP JUMPDEST PUSH0 DUP3 GT PUSH2 0x1A28 JUMPI PUSH1 0x40 MLOAD PUSH32 0x8C379A000000000000000000000000000000000000000000000000000000000 DUP2 MSTORE PUSH1 0x20 PUSH1 0x4 DUP3 ADD MSTORE PUSH1 0x27 PUSH1 0x24 DUP3 ADD MSTORE PUSH32 0x4E46544D61726B65743A207072696365206D7573742062652067726561746572 PUSH1 0x44 DUP3 ADD MSTORE PUSH32 0x207468616E203000000000000000000000000000000000000000000000000000 PUSH1 0x64 DUP3 ADD MSTORE PUSH1 0x84 ADD PUSH2 0x6BA JUMP JUMPDEST PUSH2 0x1A36 PUSH1 0x4 DUP1 SLOAD PUSH1 0x1 ADD SWAP1 SSTORE JUMP JUMPDEST PUSH1 0x40 MLOAD DUP1 PUSH1 0xC0 ADD PUSH1 0x40 MSTORE DUP1 DUP6 PUSH20 0xFFFFFFFFFFFFFFFFFFFFFFFFFFFFFFFFFFFFFFFF AND DUP2 MSTORE PUSH1 0x20 ADD DUP5 DUP2 MSTORE PUSH1 0x20 ADD DUP4 DUP2 MSTORE PUSH1 0x20 ADD DUP3 PUSH20 0xFFFFFFFFFFFFFFFFFFFFFFFFFFFFFFFFFFFFFFFF AND DUP2 MSTORE PUSH1 0x20 ADD CALLER PUSH20 0xFFFFFFFFFFFFFFFFFFFFFFFFFFFFFFFFFFFFFFFF AND DUP2 MSTORE PUSH1 0x20 ADD PUSH0 ISZERO ISZERO DUP2 MSTORE POP PUSH1 0x9 PUSH0 PUSH2 0x1AB3 PUSH1 0x4 SLOAD SWAP1 JUMP JUMPDEST DUP2 MSTORE PUSH1 0x20 DUP1 DUP3 ADD SWAP3 SWAP1 SWAP3 MSTORE PUSH1 0x40 SWAP1 DUP2 ADD PUSH0 SWAP1 DUP2 KECCAK256 DUP5 MLOAD DUP2 SLOAD PUSH20 0xFFFFFFFFFFFFFFFFFFFFFFFFFFFFFFFFFFFFFFFF SWAP2 DUP3 AND PUSH32 0xFFFFFFFFFFFFFFFFFFFFFFFF0000000000000000000000000000000000000000 SWAP2 DUP3 AND OR DUP4 SSTORE SWAP5 DUP7 ADD MLOAD PUSH1 0x1 DUP4 ADD SSTORE SWAP3 DUP6 ADD MLOAD PUSH1 0x2 DUP3 ADD SSTORE PUSH1 0x60 DUP6 ADD MLOAD PUSH1 0x3 DUP3 ADD DUP1 SLOAD SWAP2 DUP6 AND SWAP2 SWAP1 SWAP6 AND OR SWAP1 SWAP4 SSTORE PUSH1 0x80 DUP5 ADD MLOAD PUSH1 0x4 SWAP4 DUP5 ADD DUP1 SLOAD PUSH1 0xA0 SWAP1 SWAP7 ADD MLOAD ISZERO ISZERO PUSH21 0x10000000000000000000000000000000000000000 MUL PUSH32 0xFFFFFFFFFFFFFFFFFFFFFF000000000000000000000000000000000000000000 SWAP1 SWAP7 AND SWAP2 SWAP1 SWAP4 AND OR SWAP4 SWAP1 SWAP4 OR SWAP1 SSTORE PUSH1 0x9 SWAP1 DUP3 SWAP1 PUSH2 0x1B99 SWAP1 SLOAD SWAP1 JUMP JUMPDEST DUP2 MSTORE PUSH1 0x20 DUP2 ADD SWAP2 SWAP1 SWAP2 MSTORE PUSH1 0x40 SWAP1 DUP2 ADD PUSH0 KECCAK256 SWAP1 MLOAD PUSH32 0x23B872DD00000000000000000000000000000000000000000000000000000000 DUP2 MSTORE CALLER PUSH1 0x4 DUP3 ADD MSTORE ADDRESS PUSH1 0x24 DUP3 ADD MSTORE PUSH1 0x44 DUP2 ADD DUP7 SWAP1 MSTORE SWAP1 SWAP2 POP PUSH20 0xFFFFFFFFFFFFFFFFFFFFFFFFFFFFFFFFFFFFFFFF DUP7 AND SWAP1 PUSH4 0x23B872DD SWAP1 PUSH1 0x64 ADD PUSH0 PUSH1 0x40 MLOAD DUP1 DUP4 SUB DUP2 PUSH0 DUP8 DUP1 EXTCODESIZE ISZERO DUP1 ISZERO PUSH2 0x1C1D JUMPI PUSH0 DUP1 REVERT JUMPDEST POP GAS CALL ISZERO DUP1 ISZERO PUSH2 0x1C2F JUMPI RETURNDATASIZE PUSH0 DUP1 RETURNDATACOPY RETURNDATASIZE PUSH0 REVERT JUMPDEST POP POP POP PUSH1 0x4 DUP1 DUP4 ADD DUP1 SLOAD PUSH32 0xFFFFFFFFFFFFFFFFFFFFFF00FFFFFFFFFFFFFFFFFFFFFFFFFFFFFFFFFFFFFFFF AND PUSH21 0x10000000000000000000000000000000000000000 OR SWAP1 SSTORE PUSH32 0x21149A5778DDC1AFCA837B00FD70C0FC0A6D1D25D1BD15BFF4A84BAB1EEB9A92 SWAP2 POP CALLER SWAP1 DUP7 SWAP1 PUSH2 0x1CA3 SWAP1 SLOAD SWAP1 JUMP JUMPDEST PUSH1 0x40 DUP1 MLOAD PUSH20 0xFFFFFFFFFFFFFFFFFFFFFFFFFFFFFFFFFFFFFFFF SWAP1 SWAP5 AND DUP5 MSTORE PUSH1 0x20 DUP5 ADD SWAP3 SWAP1 SWAP3 MSTORE SWAP1 DUP3 ADD MSTORE PUSH1 0x60 ADD PUSH1 0x40 MLOAD DUP1 SWAP2 SUB SWAP1 LOG1 POP POP POP POP POP JUMP JUMPDEST PUSH2 0x1CE7 PUSH2 0x1D3F JUMP JUMPDEST PUSH20 0xFFFFFFFFFFFFFFFFFFFFFFFFFFFFFFFFFFFFFFFF DUP2 AND PUSH2 0x1D36 JUMPI PUSH1 0x40 MLOAD PUSH32 0x1E4FBDF700000000000000000000000000000000000000000000000000000000 DUP2 MSTORE PUSH0 PUSH1 0x4 DUP3 ADD MSTORE PUSH1 0x24 ADD PUSH2 0x6BA JUMP JUMPDEST PUSH2 0x9F2 DUP2 PUSH2 0x1F9A JUMP JUMPDEST PUSH0 SLOAD PUSH20 0xFFFFFFFFFFFFFFFFFFFFFFFFFFFFFFFFFFFFFFFF AND CALLER EQ PUSH2 0x628 JUMPI PUSH1 0x40 MLOAD PUSH32 0x118CDAA700000000000000000000000000000000000000000000000000000000 DUP2 MSTORE CALLER PUSH1 0x4 DUP3 ADD MSTORE PUSH1 0x24 ADD PUSH2 0x6BA JUMP JUMPDEST PUSH2 0x1D99 PUSH2 0x200E JUMP JUMPDEST PUSH0 DUP1 SLOAD PUSH32 0xFFFFFFFFFFFFFFFFFFFFFF00FFFFFFFFFFFFFFFFFFFFFFFFFFFFFFFFFFFFFFFF AND SWAP1 SSTORE PUSH32 0x5DB9EE0A495BF2E6FF9C91A7834C1BA4FDD244A5E8AA4E537BD38AEAE4B073AA CALLER JUMPDEST PUSH1 0x40 MLOAD PUSH20 0xFFFFFFFFFFFFFFFFFFFFFFFFFFFFFFFFFFFFFFFF SWAP1 SWAP2 AND DUP2 MSTORE PUSH1 0x20 ADD PUSH1 0x40 MLOAD DUP1 SWAP2 SUB SWAP1 LOG1 JUMP JUMPDEST PUSH0 SLOAD PUSH21 0x10000000000000000000000000000000000000000 SWAP1 DIV PUSH1 0xFF AND ISZERO PUSH2 0x628 JUMPI PUSH1 0x40 MLOAD PUSH32 0x8C379A000000000000000000000000000000000000000000000000000000000 DUP2 MSTORE PUSH1 0x20 PUSH1 0x4 DUP3 ADD MSTORE PUSH1 0x10 PUSH1 0x24 DUP3 ADD MSTORE PUSH32 0x5061757361626C653A2070617573656400000000000000000000000000000000 PUSH1 0x44 DUP3 ADD MSTORE PUSH1 0x64 ADD PUSH2 0x6BA JUMP JUMPDEST PUSH1 0x2 PUSH1 0x1 SLOAD SUB PUSH2 0x1EFD JUMPI PUSH1 0x40 MLOAD PUSH32 0x8C379A000000000000000000000000000000000000000000000000000000000 DUP2 MSTORE PUSH1 0x20 PUSH1 0x4 DUP3 ADD MSTORE PUSH1 0x1F PUSH1 0x24 DUP3 ADD MSTORE PUSH32 0x5265656E7472616E637947756172643A207265656E7472616E742063616C6C00 PUSH1 0x44 DUP3 ADD MSTORE PUSH1 0x64 ADD PUSH2 0x6BA JUMP JUMPDEST PUSH1 0x2 PUSH1 0x1 SSTORE JUMP JUMPDEST PUSH0 PUSH2 0x1F0F DUP3 DUP5 PUSH2 0x2277 JUMP JUMPDEST SWAP4 SWAP3 POP POP POP JUMP JUMPDEST PUSH0 PUSH2 0x1F0F DUP3 DUP5 PUSH2 0x228E JUMP JUMPDEST PUSH0 PUSH2 0x1F0F DUP3 DUP5 PUSH2 0x22C6 JUMP JUMPDEST PUSH2 0x1F34 PUSH2 0x1E0D JUMP JUMPDEST PUSH0 DUP1 SLOAD PUSH32 0xFFFFFFFFFFFFFFFFFFFFFF00FFFFFFFFFFFFFFFFFFFFFFFFFFFFFFFFFFFFFFFF AND PUSH21 0x10000000000000000000000000000000000000000 OR SWAP1 SSTORE PUSH32 0x62E78CEA01BEE320CD4E420270B5EA74000D11B0C9F74754EBDBFC544B05A258 PUSH2 0x1DE3 CALLER SWAP1 JUMP JUMPDEST PUSH0 DUP1 SLOAD PUSH20 0xFFFFFFFFFFFFFFFFFFFFFFFFFFFFFFFFFFFFFFFF DUP4 DUP2 AND PUSH32 0xFFFFFFFFFFFFFFFFFFFFFFFF0000000000000000000000000000000000000000 DUP4 AND DUP2 OR DUP5 SSTORE PUSH1 0x40 MLOAD SWAP2 SWAP1 SWAP3 AND SWAP3 DUP4 SWAP2 PUSH32 0x8BE0079C531659141344CD1FD0A4F28419497F9722A3DAAFE3B4186F6B6457E0 SWAP2 SWAP1 LOG3 POP POP JUMP JUMPDEST PUSH0 SLOAD PUSH21 0x10000000000000000000000000000000000000000 SWAP1 DIV PUSH1 0xFF AND PUSH2 0x628 JUMPI PUSH1 0x40 MLOAD PUSH32 0x8C379A000000000000000000000000000000000000000000000000000000000 DUP2 MSTORE PUSH1 0x20 PUSH1 0x4 DUP3 ADD MSTORE PUSH1 0x14 PUSH1 0x24 DUP3 ADD MSTORE PUSH32 0x5061757361626C653A206E6F7420706175736564000000000000000000000000 PUSH1 0x44 DUP3 ADD MSTORE PUSH1 0x64 ADD PUSH2 0x6BA JUMP JUMPDEST PUSH0 PUSH1 0x20 DUP3 DUP5 SUB SLT ISZERO PUSH2 0x20A1 JUMPI PUSH0 DUP1 REVERT JUMPDEST POP CALLDATALOAD SWAP2 SWAP1 POP JUMP JUMPDEST PUSH20 0xFFFFFFFFFFFFFFFFFFFFFFFFFFFFFFFFFFFFFFFF DUP2 AND DUP2 EQ PUSH2 0x9F2 JUMPI PUSH0 DUP1 REVERT JUMPDEST PUSH0 DUP1 PUSH1 0x40 DUP4 DUP6 SUB SLT ISZERO PUSH2 0x20DA JUMPI PUSH0 DUP1 REVERT JUMPDEST DUP3 CALLDATALOAD SWAP2 POP PUSH1 0x20 DUP4 ADD CALLDATALOAD PUSH2 0x20EC DUP2 PUSH2 0x20A8 JUMP JUMPDEST DUP1 SWAP2 POP POP SWAP3 POP SWAP3 SWAP1 POP JUMP JUMPDEST PUSH0 DUP1 PUSH1 0x40 DUP4 DUP6 SUB SLT ISZERO PUSH2 0x2108 JUMPI PUSH0 DUP1 REVERT JUMPDEST DUP3 CALLDATALOAD PUSH2 0x2113 DUP2 PUSH2 0x20A8 JUMP JUMPDEST SWAP5 PUSH1 0x20 SWAP4 SWAP1 SWAP4 ADD CALLDATALOAD SWAP4 POP POP POP JUMP JUMPDEST PUSH0 DUP1 PUSH0 PUSH1 0x60 DUP5 DUP7 SUB SLT ISZERO PUSH2 0x2133 JUMPI PUSH0 DUP1 REVERT JUMPDEST DUP4 CALLDATALOAD PUSH2 0x213E DUP2 PUSH2 0x20A8 JUMP JUMPDEST SWAP3 POP PUSH1 0x20 DUP5 ADD CALLDATALOAD SWAP2 POP PUSH1 0x40 DUP5 ADD CALLDATALOAD PUSH2 0x2155 DUP2 PUSH2 0x20A8 JUMP JUMPDEST DUP1 SWAP2 POP POP SWAP3 POP SWAP3 POP SWAP3 JUMP JUMPDEST PUSH0 DUP1 PUSH0 DUP1 PUSH1 0x80 DUP6 DUP8 SUB SLT ISZERO PUSH2 0x2173 JUMPI PUSH0 DUP1 REVERT JUMPDEST DUP5 CALLDATALOAD PUSH2 0x217E DUP2 PUSH2 0x20A8 JUMP JUMPDEST SWAP4 POP PUSH1 0x20 DUP6 ADD CALLDATALOAD SWAP3 POP PUSH1 0x40 DUP6 ADD CALLDATALOAD SWAP2 POP PUSH1 0x60 DUP6 ADD CALLDATALOAD PUSH2 0x219C DUP2 PUSH2 0x20A8 JUMP JUMPDEST SWAP4 SWAP7 SWAP3 SWAP6 POP SWAP1 SWAP4 POP POP JUMP JUMPDEST PUSH0 PUSH1 0x20 DUP3 DUP5 SUB SLT ISZERO PUSH2 0x21B7 JUMPI PUSH0 DUP1 REVERT JUMPDEST DUP2 CALLDATALOAD PUSH2 0x1F0F DUP2 PUSH2 0x20A8 JUMP JUMPDEST PUSH0 PUSH1 0x20 DUP3 DUP5 SUB SLT ISZERO PUSH2 0x21D2 JUMPI PUSH0 DUP1 REVERT JUMPDEST DUP2 MLOAD DUP1 ISZERO ISZERO DUP2 EQ PUSH2 0x1F0F JUMPI PUSH0 DUP1 REVERT JUMPDEST PUSH0 PUSH1 0x20 DUP3 DUP5 SUB SLT ISZERO PUSH2 0x21F1 JUMPI PUSH0 DUP1 REVERT JUMPDEST POP MLOAD SWAP2 SWAP1 POP JUMP JUMPDEST PUSH32 0x4E487B7100000000000000000000000000000000000000000000000000000000 PUSH0 MSTORE PUSH1 0x11 PUSH1 0x4 MSTORE PUSH1 0x24 PUSH0 REVERT JUMPDEST PUSH0 PUSH32 0xFFFFFFFFFFFFFFFFFFFFFFFFFFFFFFFFFFFFFFFFFFFFFFFFFFFFFFFFFFFFFFFF DUP3 SUB PUSH2 0x2255 JUMPI PUSH2 0x2255 PUSH2 0x21F8 JUMP JUMPDEST POP PUSH1 0x1 ADD SWAP1 JUMP JUMPDEST PUSH0 PUSH1 0x20 DUP3 DUP5 SUB SLT ISZERO PUSH2 0x226C JUMPI PUSH0 DUP1 REVERT JUMPDEST DUP2 MLOAD PUSH2 0x1F0F DUP2 PUSH2 0x20A8 JUMP JUMPDEST DUP1 DUP3 MUL DUP2 ISZERO DUP3 DUP3 DIV DUP5 EQ OR PUSH2 0xD6A JUMPI PUSH2 0xD6A PUSH2 0x21F8 JUMP JUMPDEST PUSH0 DUP3 PUSH2 0x22C1 JUMPI PUSH32 0x4E487B7100000000000000000000000000000000000000000000000000000000 PUSH0 MSTORE PUSH1 0x12 PUSH1 0x4 MSTORE PUSH1 0x24 PUSH0 REVERT JUMPDEST POP DIV SWAP1 JUMP JUMPDEST DUP2 DUP2 SUB DUP2 DUP2 GT ISZERO PUSH2 0xD6A JUMPI PUSH2 0xD6A PUSH2 0x21F8 JUMP INVALID LOG2 PUSH5 0x6970667358 0x22 SLT KECCAK256 0xF8 DUP16 CALLDATALOAD RETURN ISZERO 0x4E 0xAE 0x5D SWAP7 PUSH3 0x7D5A9 0x2C SWAP10 SLOAD DUP14 MUL 0xEC 0x4A DUP13 SDIV PUSH8 0x6B45199A3953DFA3 PUSH0 PUSH5 0x736F6C6343 STOP ADDMOD AND STOP CALLER "
				},
				"gasEstimates": {
					"creation": {
						"codeDepositCost": "1795000",
						"executionCost": "infinite",
						"totalCost": "infinite"
					},
					"external": {
						"ERC20()": "2357",
						"ERCNFT()": "2378",
						"buyNFT(address,uint256)": "infinite",
						"cancel(address,uint256)": "infinite",
						"getAllIdListed(address,uint256)": "infinite",
						"getComissionPercentage()": "2326",
						"getIdListed(address,uint256)": "infinite",
						"getListinglength()": "2417",
						"getNFTListing(uint256)": "11444",
						"listNFT(address,uint256,uint256,address)": "infinite",
						"listings(uint256)": "11112",
						"owner()": "2383",
						"pauseMarketplace()": "infinite",
						"paused()": "2391",
						"renounceOwnership()": "infinite",
						"transferNFT(uint256)": "infinite",
						"transferOrWithdraw(uint256,address)": "infinite",
						"transferOwnership(address)": "infinite",
						"unpauseMarketplace()": "infinite",
						"updateComissionPercentage(uint256)": "24518",
						"updateNFT(address,uint256,address)": "infinite"
					}
				},
				"methodIdentifiers": {
					"ERC20()": "cc4aa204",
					"ERCNFT()": "df706cbc",
					"buyNFT(address,uint256)": "a82ba76f",
					"cancel(address,uint256)": "98590ef9",
					"getAllIdListed(address,uint256)": "8699fdf4",
					"getComissionPercentage()": "65a19c20",
					"getIdListed(address,uint256)": "cf02976f",
					"getListinglength()": "c85d5262",
					"getNFTListing(uint256)": "0ea59c4b",
					"listNFT(address,uint256,uint256,address)": "d68cdc52",
					"listings(uint256)": "de74e57b",
					"owner()": "8da5cb5b",
					"pauseMarketplace()": "3ec62279",
					"paused()": "5c975abb",
					"renounceOwnership()": "715018a6",
					"transferNFT(uint256)": "249e10c5",
					"transferOrWithdraw(uint256,address)": "6ee4c120",
					"transferOwnership(address)": "f2fde38b",
					"unpauseMarketplace()": "21f67fbb",
					"updateComissionPercentage(uint256)": "9cefe029",
					"updateNFT(address,uint256,address)": "925a9953"
				}
			},
			"storageLayout": {
				"storage": [
					{
						"astId": 8,
						"contract": "contracts/Marketplace.sol:GBMarketplace",
						"label": "_owner",
						"offset": 0,
						"slot": "0",
						"type": "t_address"
					},
					{
						"astId": 302,
						"contract": "contracts/Marketplace.sol:GBMarketplace",
						"label": "_paused",
						"offset": 20,
						"slot": "0",
						"type": "t_bool"
					},
					{
						"astId": 403,
						"contract": "contracts/Marketplace.sol:GBMarketplace",
						"label": "_status",
						"offset": 0,
						"slot": "1",
						"type": "t_uint256"
					},
					{
						"astId": 4162,
						"contract": "contracts/Marketplace.sol:GBMarketplace",
						"label": "ERC20",
						"offset": 0,
						"slot": "2",
						"type": "t_contract(IERC20)535"
					},
					{
						"astId": 4165,
						"contract": "contracts/Marketplace.sol:GBMarketplace",
						"label": "ERCNFT",
						"offset": 0,
						"slot": "3",
						"type": "t_contract(IERC721)1987"
					},
					{
						"astId": 4172,
						"contract": "contracts/Marketplace.sol:GBMarketplace",
						"label": "numOfListing",
						"offset": 0,
						"slot": "4",
						"type": "t_struct(Counter)2314_storage"
					},
					{
						"astId": 4178,
						"contract": "contracts/Marketplace.sol:GBMarketplace",
						"label": "commissionPercentage",
						"offset": 0,
						"slot": "5",
						"type": "t_uint256"
					},
					{
						"astId": 4180,
						"contract": "contracts/Marketplace.sol:GBMarketplace",
						"label": "comissionAmount",
						"offset": 0,
						"slot": "6",
						"type": "t_uint256"
					},
					{
						"astId": 4182,
						"contract": "contracts/Marketplace.sol:GBMarketplace",
						"label": "sellerAmount",
						"offset": 0,
						"slot": "7",
						"type": "t_uint256"
					},
					{
						"astId": 4184,
						"contract": "contracts/Marketplace.sol:GBMarketplace",
						"label": "amountListed",
						"offset": 0,
						"slot": "8",
						"type": "t_uint256"
					},
					{
						"astId": 4241,
						"contract": "contracts/Marketplace.sol:GBMarketplace",
						"label": "listings",
						"offset": 0,
						"slot": "9",
						"type": "t_mapping(t_uint256,t_struct(NFTListing)4198_storage)"
					}
				],
				"types": {
					"t_address": {
						"encoding": "inplace",
						"label": "address",
						"numberOfBytes": "20"
					},
					"t_bool": {
						"encoding": "inplace",
						"label": "bool",
						"numberOfBytes": "1"
					},
					"t_contract(ERC721)1870": {
						"encoding": "inplace",
						"label": "contract ERC721",
						"numberOfBytes": "20"
					},
					"t_contract(IERC20)535": {
						"encoding": "inplace",
						"label": "contract IERC20",
						"numberOfBytes": "20"
					},
					"t_contract(IERC721)1987": {
						"encoding": "inplace",
						"label": "contract IERC721",
						"numberOfBytes": "20"
					},
					"t_mapping(t_uint256,t_struct(NFTListing)4198_storage)": {
						"encoding": "mapping",
						"key": "t_uint256",
						"label": "mapping(uint256 => struct GBMarketplace.NFTListing)",
						"numberOfBytes": "32",
						"value": "t_struct(NFTListing)4198_storage"
					},
					"t_struct(Counter)2314_storage": {
						"encoding": "inplace",
						"label": "struct Counters.Counter",
						"members": [
							{
								"astId": 2313,
								"contract": "contracts/Marketplace.sol:GBMarketplace",
								"label": "_value",
								"offset": 0,
								"slot": "0",
								"type": "t_uint256"
							}
						],
						"numberOfBytes": "32"
					},
					"t_struct(NFTListing)4198_storage": {
						"encoding": "inplace",
						"label": "struct GBMarketplace.NFTListing",
						"members": [
							{
								"astId": 4187,
								"contract": "contracts/Marketplace.sol:GBMarketplace",
								"label": "nft",
								"offset": 0,
								"slot": "0",
								"type": "t_contract(ERC721)1870"
							},
							{
								"astId": 4189,
								"contract": "contracts/Marketplace.sol:GBMarketplace",
								"label": "tokenId",
								"offset": 0,
								"slot": "1",
								"type": "t_uint256"
							},
							{
								"astId": 4191,
								"contract": "contracts/Marketplace.sol:GBMarketplace",
								"label": "price",
								"offset": 0,
								"slot": "2",
								"type": "t_uint256"
							},
							{
								"astId": 4193,
								"contract": "contracts/Marketplace.sol:GBMarketplace",
								"label": "coin",
								"offset": 0,
								"slot": "3",
								"type": "t_address"
							},
							{
								"astId": 4195,
								"contract": "contracts/Marketplace.sol:GBMarketplace",
								"label": "seller",
								"offset": 0,
								"slot": "4",
								"type": "t_address"
							},
							{
								"astId": 4197,
								"contract": "contracts/Marketplace.sol:GBMarketplace",
								"label": "forSale",
								"offset": 20,
								"slot": "4",
								"type": "t_bool"
							}
						],
						"numberOfBytes": "160"
					},
					"t_uint256": {
						"encoding": "inplace",
						"label": "uint256",
						"numberOfBytes": "32"
					}
				}
			},
			"userdoc": {
				"kind": "user",
				"methods": {},
				"version": 1
			}
		}
	}
}