{
	"data": {
		"bytecode": {
			"linkReferences": {},
			"object": "608060405261015e600555348015610015575f80fd5b50604051620019ec380380620019ec833981016040819052610036916100d3565b806001600160a01b03811661006457604051631e4fbdf760e01b81525f600482015260240160405180910390fd5b61006d81610084565b50505f805460ff60a01b1916905560018055610100565b5f80546001600160a01b038381166001600160a01b0319831681178455604051919092169283917f8be0079c531659141344cd1fd0a4f28419497f9722a3daafe3b4186f6b6457e09190a35050565b5f602082840312156100e3575f80fd5b81516001600160a01b03811681146100f9575f80fd5b9392505050565b6118de806200010e5f395ff3fe6080604052600436106100fc575f3560e01c80630ea59c4b1461014057806321f67fbb1461025a578063249e10c5146102705780633ec622791461028f5780635c975abb146102a357806365a19c20146102c75780636ee4c120146102e5578063715018a6146103045780638699fdf4146103185780638da5cb5b14610337578063925a99531461035857806398590ef9146103775780639cefe0291461038a578063a82ba76f146103a9578063c85d5262146103bc578063cc4aa204146103d0578063cf02976f146103ef578063d68cdc521461040e578063de74e57b14610421578063df706cbc146104c1578063f2fde38b146104e0575f80fd5b3661013c577fe1fffcc4923d04b559f4d29a8bfc6cda04eb5b0d3c460751c2402c5c5cc9109c3334604051610132929190611558565b60405180910390a1005b5f80fd5b34801561014b575f80fd5b506101f861015a366004611571565b6040805160c0810182525f80825260208201819052918101829052606081018290526080810182905260a0810191909152505f90815260096020908152604091829020825160c08101845281546001600160a01b039081168252600183015493820193909352600282015493810193909352600381015482166060840152600401549081166080830152600160a01b900460ff16151560a082015290565b604051610251919081516001600160a01b03908116825260208084015190830152604080840151908301526060808401518216908301526080808401519091169082015260a09182015115159181019190915260c00190565b60405180910390f35b348015610265575f80fd5b5061026e6104ff565b005b34801561027b575f80fd5b5061026e61028a366004611571565b610511565b34801561029a575f80fd5b5061026e610749565b3480156102ae575f80fd5b506102b7610759565b6040519015158152602001610251565b3480156102d2575f80fd5b506005545b604051908152602001610251565b3480156102f0575f80fd5b5061026e6102ff36600461159c565b610768565b34801561030f575f80fd5b5061026e61096c565b348015610323575f80fd5b506102d76103323660046115ca565b61097d565b348015610342575f80fd5b5061034b6109e1565b60405161025191906115f4565b348015610363575f80fd5b5061026e610372366004611608565b6109ef565b61026e6103853660046115ca565b610b39565b348015610395575f80fd5b5061026e6103a4366004611571565b610ca9565b61026e6103b73660046115ca565b610cb6565b3480156103c7575f80fd5b506102d7610f6b565b3480156103db575f80fd5b5060025461034b906001600160a01b031681565b3480156103fa575f80fd5b506102d76104093660046115ca565b610f7a565b61026e61041c366004611647565b611019565b34801561042c575f80fd5b5061048261043b366004611571565b60096020525f9081526040902080546001820154600283015460038401546004909401546001600160a01b039384169492939192821691811690600160a01b900460ff1686565b604080516001600160a01b03978816815260208101969096528501939093529084166060840152909216608082015290151560a082015260c001610251565b3480156104cc575f80fd5b5060035461034b906001600160a01b031681565b3480156104eb575f80fd5b5061026e6104fa36600461168e565b6112f9565b610507611333565b61050f611365565b565b6105196113b3565b6105216113fb565b5f818152600960205260409020811580159061053f57506004548211155b6105645760405162461bcd60e51b815260040161055b906116a9565b60405180910390fd5b6004810154600160a01b900460ff1615155f036105935760405162461bcd60e51b815260040161055b906116d5565b6004810154336001600160a01b03909116036105c15760405162461bcd60e51b815260040161055b90611703565b600281015460088190556005546105e691612710916105e09190611454565b90611466565b60068190556008546105f791611471565b60078190556003820154600280546001600160a01b0319166001600160a01b0392831690811790915560048085015460405163a9059cbb60e01b8152929463a9059cbb9461064a94921692909101611558565b6020604051808303815f875af1158015610666573d5f803e3d5ffd5b505050506040513d601f19601f8201168201806040525081019061068a9190611738565b5060025460075460405163a9059cbb60e01b81526001600160a01b039092169163a9059cbb916106bf91339190600401611558565b6020604051808303815f875af11580156106db573d5f803e3d5ffd5b505050506040513d601f19601f820116820180604052508101906106ff9190611738565b5060048101805460ff60a01b1916905560018101546007546040515f8051602061188983398151915292610734923392611757565b60405180910390a15061074660018055565b50565b610751611333565b61050f61147c565b5f54600160a01b900460ff1690565b6107706113b3565b6107786113fb565b610780611333565b815f036107c75760405162461bcd60e51b8152602060048201526015602482015274416d6f756e742063616e6e6f74206265207a65726f60581b604482015260640161055b565b6001600160a01b0381166108295760405162461bcd60e51b8152602060048201526024808201527f455243323020616464726573732063616e6e6f74206265207a65726f206164646044820152637265737360e01b606482015260840161055b565b600280546001600160a01b0319166001600160a01b0383169081179091556040516370a0823160e01b81526370a08231906108689030906004016115f4565b602060405180830381865afa158015610883573d5f803e3d5ffd5b505050506040513d601f19601f820116820180604052508101906108a79190611778565b8211156108ec5760405162461bcd60e51b815260206004820152601360248201527224b739bab33334b1b4b2b73a10333ab732399760691b604482015260640161055b565b60025460405163a9059cbb60e01b81526001600160a01b039091169063a9059cbb9061091e9033908690600401611558565b6020604051808303815f875af115801561093a573d5f803e3d5ffd5b505050506040513d601f19601f8201168201806040525081019061095e9190611738565b5061096860018055565b5050565b610974611333565b61050f5f6114be565b5f60015b60045481116109d6575f81815260096020526040902080546001600160a01b0386811691161480156109b65750838160010154145b156109c3575090506109db565b50806109ce816117a3565b915050610981565b505f90505b92915050565b5f546001600160a01b031690565b6109f76113b3565b6109ff6113fb565b610a07611333565b5f8281526009602052604090208215801590610a2557506004548311155b610a415760405162461bcd60e51b815260040161055b906116a9565b6004810154600160a01b900460ff1615155f03610a705760405162461bcd60e51b815260040161055b906116d5565b60048101546001600160a01b03808416911603610a9f5760405162461bcd60e51b815260040161055b90611703565b80546001600160a01b03858116911614610acb5760405162461bcd60e51b815260040161055b906117bb565b6004810180546001600160a81b0319166001600160a01b038416179055600181015460028201546040517ffc2e01ec8c4c53e02ee1fa8816c1692687966e0daef195be5b64c88d8e58e3ee92610b22928692611757565b60405180910390a150610b3460018055565b505050565b5f81815260096020526040902060040154829082906001600160a01b03163314610b61575f80fd5b5f818152600960205260409020546001600160a01b03838116911614610b85575f80fd5b5f83815260096020526040902060048101546001600160a01b03163314610be25760405162461bcd60e51b815260206004820152601160248201527034b9903737ba103a34329039b2b63632b960791b604482015260640161055b565b6004810154600160a01b900460ff161515600114610c345760405162461bcd60e51b815260206004820152600f60248201526e1a5cc81b9bdd081b1a5cdd195b9959608a1b604482015260640161055b565b60018101546040516323b872dd60e01b81526001600160a01b038716916323b872dd91610c68913091339190600401611800565b5f604051808303815f87803b158015610c7f575f80fd5b505af1158015610c91573d5f803e3d5ffd5b50505050600401805460ff60a01b1916905550505050565b610cb1611333565b600555565b610cbe6113b3565b610cc66113fb565b5f8181526009602052604090208115801590610ce457506004548211155b610d005760405162461bcd60e51b815260040161055b906116a9565b6004810154600160a01b900460ff1615155f03610d2f5760405162461bcd60e51b815260040161055b906116d5565b6004810154336001600160a01b0390911603610d5d5760405162461bcd60e51b815260040161055b90611703565b80546001600160a01b03848116911614610d895760405162461bcd60e51b815260040161055b906117bb565b8060020154341015610ded5760405162461bcd60e51b815260206004820152602760248201527f6e6f7420656e6f7567682062616c616e636520666f722074686973207472616e60448201526639b0b1ba34b7b760c91b606482015260840161055b565b60028101546008819055600554610e0c91612710916105e09190611454565b6006819055600854610e1d91611471565b60078190556003820154600280546001600160a01b0319166001600160a01b0392831690811790915560048085015460405163a9059cbb60e01b8152929463a9059cbb94610e7094921692909101611558565b6020604051808303815f875af1158015610e8c573d5f803e3d5ffd5b505050506040513d601f19601f82011682018060405250810190610eb09190611738565b5060018101546040516323b872dd60e01b81526001600160a01b038516916323b872dd91610ee5913091339190600401611800565b5f604051808303815f87803b158015610efc575f80fd5b505af1158015610f0e573d5f803e3d5ffd5b505050506004810180546001600160a81b0319163360ff60a01b1981169190911790915560018201546007546040515f8051602061188983398151915293610f599390929091611757565b60405180910390a15061096860018055565b5f610f7560045490565b905090565b5f8060015b6004548111611002575f818152600960205260409020546001600160a01b038681169116148015610fbf57505f8181526009602052604090206001015484145b8015610fe257505f81815260096020526040902060040154600160a01b900460ff165b15610ff05760019150611002565b80610ffa816117a3565b915050610f7f565b81611011575f925050506109db565b949350505050565b6040516331a9108f60e11b81526004810184905233906001600160a01b03861690636352211e90602401602060405180830381865afa15801561105e573d5f803e3d5ffd5b505050506040513d601f19601f820116820180604052508101906110829190611824565b6001600160a01b0316146110d05760405162461bcd60e51b81526020600482015260156024820152742cb7ba9030b932903737ba103a34329037bbb732b960591b604482015260640161055b565b5f821161112f5760405162461bcd60e51b815260206004820152602760248201527f4e46544d61726b65743a207072696365206d75737420626520677265617465726044820152660207468616e20360cc1b606482015260840161055b565b61113d600480546001019055565b6040518060c00160405280856001600160a01b03168152602001848152602001838152602001826001600160a01b03168152602001336001600160a01b031681526020015f151581525060095f61119360045490565b815260208082019290925260409081015f908120845181546001600160a01b039182166001600160a01b03199182161783559486015160018301559285015160028201556060850151600382018054918516919095161790935560808401516004938401805460a0909601511515600160a01b026001600160a81b03199096169190931617939093179055600990829061122b905490565b81526020019081526020015f209050846001600160a01b03166323b872dd3330876040518463ffffffff1660e01b815260040161126a93929190611800565b5f604051808303815f87803b158015611281575f80fd5b505af1158015611293573d5f803e3d5ffd5b5050506004808301805460ff60a01b1916600160a01b1790557f21149a5778ddc1afca837b00fd70c0fc0a6d1d25d1bd15bff4a84bab1eeb9a929150339086906112db905490565b6040516112ea93929190611757565b60405180910390a15050505050565b611301611333565b6001600160a01b03811661132a575f604051631e4fbdf760e01b815260040161055b91906115f4565b610746816114be565b3361133c6109e1565b6001600160a01b03161461050f573360405163118cdaa760e01b815260040161055b91906115f4565b61136d61150d565b5f805460ff60a01b191690557f5db9ee0a495bf2e6ff9c91a7834c1ba4fdd244a5e8aa4e537bd38aeae4b073aa335b6040516113a991906115f4565b60405180910390a1565b6113bb610759565b1561050f5760405162461bcd60e51b815260206004820152601060248201526f14185d5cd8589b194e881c185d5cd95960821b604482015260640161055b565b60026001540361144d5760405162461bcd60e51b815260206004820152601f60248201527f5265656e7472616e637947756172643a207265656e7472616e742063616c6c00604482015260640161055b565b6002600155565b5f61145f828461183f565b9392505050565b5f61145f8284611856565b5f61145f8284611875565b6114846113b3565b5f805460ff60a01b1916600160a01b1790557f62e78cea01bee320cd4e420270b5ea74000d11b0c9f74754ebdbfc544b05a25861139c3390565b5f80546001600160a01b038381166001600160a01b0319831681178455604051919092169283917f8be0079c531659141344cd1fd0a4f28419497f9722a3daafe3b4186f6b6457e09190a35050565b611515610759565b61050f5760405162461bcd60e51b815260206004820152601460248201527314185d5cd8589b194e881b9bdd081c185d5cd95960621b604482015260640161055b565b6001600160a01b03929092168252602082015260400190565b5f60208284031215611581575f80fd5b5035919050565b6001600160a01b0381168114610746575f80fd5b5f80604083850312156115ad575f80fd5b8235915060208301356115bf81611588565b809150509250929050565b5f80604083850312156115db575f80fd5b82356115e681611588565b946020939093013593505050565b6001600160a01b0391909116815260200190565b5f805f6060848603121561161a575f80fd5b833561162581611588565b925060208401359150604084013561163c81611588565b809150509250925092565b5f805f806080858703121561165a575f80fd5b843561166581611588565b93506020850135925060408501359150606085013561168381611588565b939692955090935050565b5f6020828403121561169e575f80fd5b813561145f81611588565b6020808252601290820152711a5d195b48191bd95cdb89dd08195e1a5cdd60721b604082015260600190565b6020808252601490820152731a5d195b481a5cc81b9bdd08199bdc881cd95b1b60621b604082015260600190565b6020808252601b908201527a165bdd4818d85b9b9bdd08189d5e481e5bdd5c881bdddb881b999d602a1b604082015260600190565b5f60208284031215611748575f80fd5b8151801515811461145f575f80fd5b6001600160a01b039390931683526020830191909152604082015260600190565b5f60208284031215611788575f80fd5b5051919050565b634e487b7160e01b5f52601160045260245ffd5b5f600182016117b4576117b461178f565b5060010190565b60208082526025908201527f6974656d206973206e6f74207468652073616d6520636f6e7472616374206164604082015264647265737360d81b606082015260800190565b6001600160a01b039384168152919092166020820152604081019190915260600190565b5f60208284031215611834575f80fd5b815161145f81611588565b80820281158282048414176109db576109db61178f565b5f8261187057634e487b7160e01b5f52601260045260245ffd5b500490565b818103818111156109db576109db61178f56fec0790eb4899023169be51dd7074a99a15959464f9a0e6b19767d8d61539b8726a264697066735822122027f33e3f5d92613e775dd3c40a953879ec884c2fb06e222ff5dfa9036032143e64736f6c63430008160033",
			"opcodes": "PUSH1 0x80 PUSH1 0x40 MSTORE PUSH2 0x15E PUSH1 0x5 SSTORE CALLVALUE DUP1 ISZERO PUSH2 0x15 JUMPI PUSH0 DUP1 REVERT JUMPDEST POP PUSH1 0x40 MLOAD PUSH3 0x19EC CODESIZE SUB DUP1 PUSH3 0x19EC DUP4 CODECOPY DUP2 ADD PUSH1 0x40 DUP2 SWAP1 MSTORE PUSH2 0x36 SWAP2 PUSH2 0xD3 JUMP JUMPDEST DUP1 PUSH1 0x1 PUSH1 0x1 PUSH1 0xA0 SHL SUB DUP2 AND PUSH2 0x64 JUMPI PUSH1 0x40 MLOAD PUSH4 0x1E4FBDF7 PUSH1 0xE0 SHL DUP2 MSTORE PUSH0 PUSH1 0x4 DUP3 ADD MSTORE PUSH1 0x24 ADD PUSH1 0x40 MLOAD DUP1 SWAP2 SUB SWAP1 REVERT JUMPDEST PUSH2 0x6D DUP2 PUSH2 0x84 JUMP JUMPDEST POP POP PUSH0 DUP1 SLOAD PUSH1 0xFF PUSH1 0xA0 SHL NOT AND SWAP1 SSTORE PUSH1 0x1 DUP1 SSTORE PUSH2 0x100 JUMP JUMPDEST PUSH0 DUP1 SLOAD PUSH1 0x1 PUSH1 0x1 PUSH1 0xA0 SHL SUB DUP4 DUP2 AND PUSH1 0x1 PUSH1 0x1 PUSH1 0xA0 SHL SUB NOT DUP4 AND DUP2 OR DUP5 SSTORE PUSH1 0x40 MLOAD SWAP2 SWAP1 SWAP3 AND SWAP3 DUP4 SWAP2 PUSH32 0x8BE0079C531659141344CD1FD0A4F28419497F9722A3DAAFE3B4186F6B6457E0 SWAP2 SWAP1 LOG3 POP POP JUMP JUMPDEST PUSH0 PUSH1 0x20 DUP3 DUP5 SUB SLT ISZERO PUSH2 0xE3 JUMPI PUSH0 DUP1 REVERT JUMPDEST DUP2 MLOAD PUSH1 0x1 PUSH1 0x1 PUSH1 0xA0 SHL SUB DUP2 AND DUP2 EQ PUSH2 0xF9 JUMPI PUSH0 DUP1 REVERT JUMPDEST SWAP4 SWAP3 POP POP POP JUMP JUMPDEST PUSH2 0x18DE DUP1 PUSH3 0x10E PUSH0 CODECOPY PUSH0 RETURN INVALID PUSH1 0x80 PUSH1 0x40 MSTORE PUSH1 0x4 CALLDATASIZE LT PUSH2 0xFC JUMPI PUSH0 CALLDATALOAD PUSH1 0xE0 SHR DUP1 PUSH4 0xEA59C4B EQ PUSH2 0x140 JUMPI DUP1 PUSH4 0x21F67FBB EQ PUSH2 0x25A JUMPI DUP1 PUSH4 0x249E10C5 EQ PUSH2 0x270 JUMPI DUP1 PUSH4 0x3EC62279 EQ PUSH2 0x28F JUMPI DUP1 PUSH4 0x5C975ABB EQ PUSH2 0x2A3 JUMPI DUP1 PUSH4 0x65A19C20 EQ PUSH2 0x2C7 JUMPI DUP1 PUSH4 0x6EE4C120 EQ PUSH2 0x2E5 JUMPI DUP1 PUSH4 0x715018A6 EQ PUSH2 0x304 JUMPI DUP1 PUSH4 0x8699FDF4 EQ PUSH2 0x318 JUMPI DUP1 PUSH4 0x8DA5CB5B EQ PUSH2 0x337 JUMPI DUP1 PUSH4 0x925A9953 EQ PUSH2 0x358 JUMPI DUP1 PUSH4 0x98590EF9 EQ PUSH2 0x377 JUMPI DUP1 PUSH4 0x9CEFE029 EQ PUSH2 0x38A JUMPI DUP1 PUSH4 0xA82BA76F EQ PUSH2 0x3A9 JUMPI DUP1 PUSH4 0xC85D5262 EQ PUSH2 0x3BC JUMPI DUP1 PUSH4 0xCC4AA204 EQ PUSH2 0x3D0 JUMPI DUP1 PUSH4 0xCF02976F EQ PUSH2 0x3EF JUMPI DUP1 PUSH4 0xD68CDC52 EQ PUSH2 0x40E JUMPI DUP1 PUSH4 0xDE74E57B EQ PUSH2 0x421 JUMPI DUP1 PUSH4 0xDF706CBC EQ PUSH2 0x4C1 JUMPI DUP1 PUSH4 0xF2FDE38B EQ PUSH2 0x4E0 JUMPI PUSH0 DUP1 REVERT JUMPDEST CALLDATASIZE PUSH2 0x13C JUMPI PUSH32 0xE1FFFCC4923D04B559F4D29A8BFC6CDA04EB5B0D3C460751C2402C5C5CC9109C CALLER CALLVALUE PUSH1 0x40 MLOAD PUSH2 0x132 SWAP3 SWAP2 SWAP1 PUSH2 0x1558 JUMP JUMPDEST PUSH1 0x40 MLOAD DUP1 SWAP2 SUB SWAP1 LOG1 STOP JUMPDEST PUSH0 DUP1 REVERT JUMPDEST CALLVALUE DUP1 ISZERO PUSH2 0x14B JUMPI PUSH0 DUP1 REVERT JUMPDEST POP PUSH2 0x1F8 PUSH2 0x15A CALLDATASIZE PUSH1 0x4 PUSH2 0x1571 JUMP JUMPDEST PUSH1 0x40 DUP1 MLOAD PUSH1 0xC0 DUP2 ADD DUP3 MSTORE PUSH0 DUP1 DUP3 MSTORE PUSH1 0x20 DUP3 ADD DUP2 SWAP1 MSTORE SWAP2 DUP2 ADD DUP3 SWAP1 MSTORE PUSH1 0x60 DUP2 ADD DUP3 SWAP1 MSTORE PUSH1 0x80 DUP2 ADD DUP3 SWAP1 MSTORE PUSH1 0xA0 DUP2 ADD SWAP2 SWAP1 SWAP2 MSTORE POP PUSH0 SWAP1 DUP2 MSTORE PUSH1 0x9 PUSH1 0x20 SWAP1 DUP2 MSTORE PUSH1 0x40 SWAP2 DUP3 SWAP1 KECCAK256 DUP3 MLOAD PUSH1 0xC0 DUP2 ADD DUP5 MSTORE DUP2 SLOAD PUSH1 0x1 PUSH1 0x1 PUSH1 0xA0 SHL SUB SWAP1 DUP2 AND DUP3 MSTORE PUSH1 0x1 DUP4 ADD SLOAD SWAP4 DUP3 ADD SWAP4 SWAP1 SWAP4 MSTORE PUSH1 0x2 DUP3 ADD SLOAD SWAP4 DUP2 ADD SWAP4 SWAP1 SWAP4 MSTORE PUSH1 0x3 DUP2 ADD SLOAD DUP3 AND PUSH1 0x60 DUP5 ADD MSTORE PUSH1 0x4 ADD SLOAD SWAP1 DUP2 AND PUSH1 0x80 DUP4 ADD MSTORE PUSH1 0x1 PUSH1 0xA0 SHL SWAP1 DIV PUSH1 0xFF AND ISZERO ISZERO PUSH1 0xA0 DUP3 ADD MSTORE SWAP1 JUMP JUMPDEST PUSH1 0x40 MLOAD PUSH2 0x251 SWAP2 SWAP1 DUP2 MLOAD PUSH1 0x1 PUSH1 0x1 PUSH1 0xA0 SHL SUB SWAP1 DUP2 AND DUP3 MSTORE PUSH1 0x20 DUP1 DUP5 ADD MLOAD SWAP1 DUP4 ADD MSTORE PUSH1 0x40 DUP1 DUP5 ADD MLOAD SWAP1 DUP4 ADD MSTORE PUSH1 0x60 DUP1 DUP5 ADD MLOAD DUP3 AND SWAP1 DUP4 ADD MSTORE PUSH1 0x80 DUP1 DUP5 ADD MLOAD SWAP1 SWAP2 AND SWAP1 DUP3 ADD MSTORE PUSH1 0xA0 SWAP2 DUP3 ADD MLOAD ISZERO ISZERO SWAP2 DUP2 ADD SWAP2 SWAP1 SWAP2 MSTORE PUSH1 0xC0 ADD SWAP1 JUMP JUMPDEST PUSH1 0x40 MLOAD DUP1 SWAP2 SUB SWAP1 RETURN JUMPDEST CALLVALUE DUP1 ISZERO PUSH2 0x265 JUMPI PUSH0 DUP1 REVERT JUMPDEST POP PUSH2 0x26E PUSH2 0x4FF JUMP JUMPDEST STOP JUMPDEST CALLVALUE DUP1 ISZERO PUSH2 0x27B JUMPI PUSH0 DUP1 REVERT JUMPDEST POP PUSH2 0x26E PUSH2 0x28A CALLDATASIZE PUSH1 0x4 PUSH2 0x1571 JUMP JUMPDEST PUSH2 0x511 JUMP JUMPDEST CALLVALUE DUP1 ISZERO PUSH2 0x29A JUMPI PUSH0 DUP1 REVERT JUMPDEST POP PUSH2 0x26E PUSH2 0x749 JUMP JUMPDEST CALLVALUE DUP1 ISZERO PUSH2 0x2AE JUMPI PUSH0 DUP1 REVERT JUMPDEST POP PUSH2 0x2B7 PUSH2 0x759 JUMP JUMPDEST PUSH1 0x40 MLOAD SWAP1 ISZERO ISZERO DUP2 MSTORE PUSH1 0x20 ADD PUSH2 0x251 JUMP JUMPDEST CALLVALUE DUP1 ISZERO PUSH2 0x2D2 JUMPI PUSH0 DUP1 REVERT JUMPDEST POP PUSH1 0x5 SLOAD JUMPDEST PUSH1 0x40 MLOAD SWAP1 DUP2 MSTORE PUSH1 0x20 ADD PUSH2 0x251 JUMP JUMPDEST CALLVALUE DUP1 ISZERO PUSH2 0x2F0 JUMPI PUSH0 DUP1 REVERT JUMPDEST POP PUSH2 0x26E PUSH2 0x2FF CALLDATASIZE PUSH1 0x4 PUSH2 0x159C JUMP JUMPDEST PUSH2 0x768 JUMP JUMPDEST CALLVALUE DUP1 ISZERO PUSH2 0x30F JUMPI PUSH0 DUP1 REVERT JUMPDEST POP PUSH2 0x26E PUSH2 0x96C JUMP JUMPDEST CALLVALUE DUP1 ISZERO PUSH2 0x323 JUMPI PUSH0 DUP1 REVERT JUMPDEST POP PUSH2 0x2D7 PUSH2 0x332 CALLDATASIZE PUSH1 0x4 PUSH2 0x15CA JUMP JUMPDEST PUSH2 0x97D JUMP JUMPDEST CALLVALUE DUP1 ISZERO PUSH2 0x342 JUMPI PUSH0 DUP1 REVERT JUMPDEST POP PUSH2 0x34B PUSH2 0x9E1 JUMP JUMPDEST PUSH1 0x40 MLOAD PUSH2 0x251 SWAP2 SWAP1 PUSH2 0x15F4 JUMP JUMPDEST CALLVALUE DUP1 ISZERO PUSH2 0x363 JUMPI PUSH0 DUP1 REVERT JUMPDEST POP PUSH2 0x26E PUSH2 0x372 CALLDATASIZE PUSH1 0x4 PUSH2 0x1608 JUMP JUMPDEST PUSH2 0x9EF JUMP JUMPDEST PUSH2 0x26E PUSH2 0x385 CALLDATASIZE PUSH1 0x4 PUSH2 0x15CA JUMP JUMPDEST PUSH2 0xB39 JUMP JUMPDEST CALLVALUE DUP1 ISZERO PUSH2 0x395 JUMPI PUSH0 DUP1 REVERT JUMPDEST POP PUSH2 0x26E PUSH2 0x3A4 CALLDATASIZE PUSH1 0x4 PUSH2 0x1571 JUMP JUMPDEST PUSH2 0xCA9 JUMP JUMPDEST PUSH2 0x26E PUSH2 0x3B7 CALLDATASIZE PUSH1 0x4 PUSH2 0x15CA JUMP JUMPDEST PUSH2 0xCB6 JUMP JUMPDEST CALLVALUE DUP1 ISZERO PUSH2 0x3C7 JUMPI PUSH0 DUP1 REVERT JUMPDEST POP PUSH2 0x2D7 PUSH2 0xF6B JUMP JUMPDEST CALLVALUE DUP1 ISZERO PUSH2 0x3DB JUMPI PUSH0 DUP1 REVERT JUMPDEST POP PUSH1 0x2 SLOAD PUSH2 0x34B SWAP1 PUSH1 0x1 PUSH1 0x1 PUSH1 0xA0 SHL SUB AND DUP2 JUMP JUMPDEST CALLVALUE DUP1 ISZERO PUSH2 0x3FA JUMPI PUSH0 DUP1 REVERT JUMPDEST POP PUSH2 0x2D7 PUSH2 0x409 CALLDATASIZE PUSH1 0x4 PUSH2 0x15CA JUMP JUMPDEST PUSH2 0xF7A JUMP JUMPDEST PUSH2 0x26E PUSH2 0x41C CALLDATASIZE PUSH1 0x4 PUSH2 0x1647 JUMP JUMPDEST PUSH2 0x1019 JUMP JUMPDEST CALLVALUE DUP1 ISZERO PUSH2 0x42C JUMPI PUSH0 DUP1 REVERT JUMPDEST POP PUSH2 0x482 PUSH2 0x43B CALLDATASIZE PUSH1 0x4 PUSH2 0x1571 JUMP JUMPDEST PUSH1 0x9 PUSH1 0x20 MSTORE PUSH0 SWAP1 DUP2 MSTORE PUSH1 0x40 SWAP1 KECCAK256 DUP1 SLOAD PUSH1 0x1 DUP3 ADD SLOAD PUSH1 0x2 DUP4 ADD SLOAD PUSH1 0x3 DUP5 ADD SLOAD PUSH1 0x4 SWAP1 SWAP5 ADD SLOAD PUSH1 0x1 PUSH1 0x1 PUSH1 0xA0 SHL SUB SWAP4 DUP5 AND SWAP5 SWAP3 SWAP4 SWAP2 SWAP3 DUP3 AND SWAP2 DUP2 AND SWAP1 PUSH1 0x1 PUSH1 0xA0 SHL SWAP1 DIV PUSH1 0xFF AND DUP7 JUMP JUMPDEST PUSH1 0x40 DUP1 MLOAD PUSH1 0x1 PUSH1 0x1 PUSH1 0xA0 SHL SUB SWAP8 DUP9 AND DUP2 MSTORE PUSH1 0x20 DUP2 ADD SWAP7 SWAP1 SWAP7 MSTORE DUP6 ADD SWAP4 SWAP1 SWAP4 MSTORE SWAP1 DUP5 AND PUSH1 0x60 DUP5 ADD MSTORE SWAP1 SWAP3 AND PUSH1 0x80 DUP3 ADD MSTORE SWAP1 ISZERO ISZERO PUSH1 0xA0 DUP3 ADD MSTORE PUSH1 0xC0 ADD PUSH2 0x251 JUMP JUMPDEST CALLVALUE DUP1 ISZERO PUSH2 0x4CC JUMPI PUSH0 DUP1 REVERT JUMPDEST POP PUSH1 0x3 SLOAD PUSH2 0x34B SWAP1 PUSH1 0x1 PUSH1 0x1 PUSH1 0xA0 SHL SUB AND DUP2 JUMP JUMPDEST CALLVALUE DUP1 ISZERO PUSH2 0x4EB JUMPI PUSH0 DUP1 REVERT JUMPDEST POP PUSH2 0x26E PUSH2 0x4FA CALLDATASIZE PUSH1 0x4 PUSH2 0x168E JUMP JUMPDEST PUSH2 0x12F9 JUMP JUMPDEST PUSH2 0x507 PUSH2 0x1333 JUMP JUMPDEST PUSH2 0x50F PUSH2 0x1365 JUMP JUMPDEST JUMP JUMPDEST PUSH2 0x519 PUSH2 0x13B3 JUMP JUMPDEST PUSH2 0x521 PUSH2 0x13FB JUMP JUMPDEST PUSH0 DUP2 DUP2 MSTORE PUSH1 0x9 PUSH1 0x20 MSTORE PUSH1 0x40 SWAP1 KECCAK256 DUP2 ISZERO DUP1 ISZERO SWAP1 PUSH2 0x53F JUMPI POP PUSH1 0x4 SLOAD DUP3 GT ISZERO JUMPDEST PUSH2 0x564 JUMPI PUSH1 0x40 MLOAD PUSH3 0x461BCD PUSH1 0xE5 SHL DUP2 MSTORE PUSH1 0x4 ADD PUSH2 0x55B SWAP1 PUSH2 0x16A9 JUMP JUMPDEST PUSH1 0x40 MLOAD DUP1 SWAP2 SUB SWAP1 REVERT JUMPDEST PUSH1 0x4 DUP2 ADD SLOAD PUSH1 0x1 PUSH1 0xA0 SHL SWAP1 DIV PUSH1 0xFF AND ISZERO ISZERO PUSH0 SUB PUSH2 0x593 JUMPI PUSH1 0x40 MLOAD PUSH3 0x461BCD PUSH1 0xE5 SHL DUP2 MSTORE PUSH1 0x4 ADD PUSH2 0x55B SWAP1 PUSH2 0x16D5 JUMP JUMPDEST PUSH1 0x4 DUP2 ADD SLOAD CALLER PUSH1 0x1 PUSH1 0x1 PUSH1 0xA0 SHL SUB SWAP1 SWAP2 AND SUB PUSH2 0x5C1 JUMPI PUSH1 0x40 MLOAD PUSH3 0x461BCD PUSH1 0xE5 SHL DUP2 MSTORE PUSH1 0x4 ADD PUSH2 0x55B SWAP1 PUSH2 0x1703 JUMP JUMPDEST PUSH1 0x2 DUP2 ADD SLOAD PUSH1 0x8 DUP2 SWAP1 SSTORE PUSH1 0x5 SLOAD PUSH2 0x5E6 SWAP2 PUSH2 0x2710 SWAP2 PUSH2 0x5E0 SWAP2 SWAP1 PUSH2 0x1454 JUMP JUMPDEST SWAP1 PUSH2 0x1466 JUMP JUMPDEST PUSH1 0x6 DUP2 SWAP1 SSTORE PUSH1 0x8 SLOAD PUSH2 0x5F7 SWAP2 PUSH2 0x1471 JUMP JUMPDEST PUSH1 0x7 DUP2 SWAP1 SSTORE PUSH1 0x3 DUP3 ADD SLOAD PUSH1 0x2 DUP1 SLOAD PUSH1 0x1 PUSH1 0x1 PUSH1 0xA0 SHL SUB NOT AND PUSH1 0x1 PUSH1 0x1 PUSH1 0xA0 SHL SUB SWAP3 DUP4 AND SWAP1 DUP2 OR SWAP1 SWAP2 SSTORE PUSH1 0x4 DUP1 DUP6 ADD SLOAD PUSH1 0x40 MLOAD PUSH4 0xA9059CBB PUSH1 0xE0 SHL DUP2 MSTORE SWAP3 SWAP5 PUSH4 0xA9059CBB SWAP5 PUSH2 0x64A SWAP5 SWAP3 AND SWAP3 SWAP1 SWAP2 ADD PUSH2 0x1558 JUMP JUMPDEST PUSH1 0x20 PUSH1 0x40 MLOAD DUP1 DUP4 SUB DUP2 PUSH0 DUP8 GAS CALL ISZERO DUP1 ISZERO PUSH2 0x666 JUMPI RETURNDATASIZE PUSH0 DUP1 RETURNDATACOPY RETURNDATASIZE PUSH0 REVERT JUMPDEST POP POP POP POP PUSH1 0x40 MLOAD RETURNDATASIZE PUSH1 0x1F NOT PUSH1 0x1F DUP3 ADD AND DUP3 ADD DUP1 PUSH1 0x40 MSTORE POP DUP2 ADD SWAP1 PUSH2 0x68A SWAP2 SWAP1 PUSH2 0x1738 JUMP JUMPDEST POP PUSH1 0x2 SLOAD PUSH1 0x7 SLOAD PUSH1 0x40 MLOAD PUSH4 0xA9059CBB PUSH1 0xE0 SHL DUP2 MSTORE PUSH1 0x1 PUSH1 0x1 PUSH1 0xA0 SHL SUB SWAP1 SWAP3 AND SWAP2 PUSH4 0xA9059CBB SWAP2 PUSH2 0x6BF SWAP2 CALLER SWAP2 SWAP1 PUSH1 0x4 ADD PUSH2 0x1558 JUMP JUMPDEST PUSH1 0x20 PUSH1 0x40 MLOAD DUP1 DUP4 SUB DUP2 PUSH0 DUP8 GAS CALL ISZERO DUP1 ISZERO PUSH2 0x6DB JUMPI RETURNDATASIZE PUSH0 DUP1 RETURNDATACOPY RETURNDATASIZE PUSH0 REVERT JUMPDEST POP POP POP POP PUSH1 0x40 MLOAD RETURNDATASIZE PUSH1 0x1F NOT PUSH1 0x1F DUP3 ADD AND DUP3 ADD DUP1 PUSH1 0x40 MSTORE POP DUP2 ADD SWAP1 PUSH2 0x6FF SWAP2 SWAP1 PUSH2 0x1738 JUMP JUMPDEST POP PUSH1 0x4 DUP2 ADD DUP1 SLOAD PUSH1 0xFF PUSH1 0xA0 SHL NOT AND SWAP1 SSTORE PUSH1 0x1 DUP2 ADD SLOAD PUSH1 0x7 SLOAD PUSH1 0x40 MLOAD PUSH0 DUP1 MLOAD PUSH1 0x20 PUSH2 0x1889 DUP4 CODECOPY DUP2 MLOAD SWAP2 MSTORE SWAP3 PUSH2 0x734 SWAP3 CALLER SWAP3 PUSH2 0x1757 JUMP JUMPDEST PUSH1 0x40 MLOAD DUP1 SWAP2 SUB SWAP1 LOG1 POP PUSH2 0x746 PUSH1 0x1 DUP1 SSTORE JUMP JUMPDEST POP JUMP JUMPDEST PUSH2 0x751 PUSH2 0x1333 JUMP JUMPDEST PUSH2 0x50F PUSH2 0x147C JUMP JUMPDEST PUSH0 SLOAD PUSH1 0x1 PUSH1 0xA0 SHL SWAP1 DIV PUSH1 0xFF AND SWAP1 JUMP JUMPDEST PUSH2 0x770 PUSH2 0x13B3 JUMP JUMPDEST PUSH2 0x778 PUSH2 0x13FB JUMP JUMPDEST PUSH2 0x780 PUSH2 0x1333 JUMP JUMPDEST DUP2 PUSH0 SUB PUSH2 0x7C7 JUMPI PUSH1 0x40 MLOAD PUSH3 0x461BCD PUSH1 0xE5 SHL DUP2 MSTORE PUSH1 0x20 PUSH1 0x4 DUP3 ADD MSTORE PUSH1 0x15 PUSH1 0x24 DUP3 ADD MSTORE PUSH21 0x416D6F756E742063616E6E6F74206265207A65726F PUSH1 0x58 SHL PUSH1 0x44 DUP3 ADD MSTORE PUSH1 0x64 ADD PUSH2 0x55B JUMP JUMPDEST PUSH1 0x1 PUSH1 0x1 PUSH1 0xA0 SHL SUB DUP2 AND PUSH2 0x829 JUMPI PUSH1 0x40 MLOAD PUSH3 0x461BCD PUSH1 0xE5 SHL DUP2 MSTORE PUSH1 0x20 PUSH1 0x4 DUP3 ADD MSTORE PUSH1 0x24 DUP1 DUP3 ADD MSTORE PUSH32 0x455243323020616464726573732063616E6E6F74206265207A65726F20616464 PUSH1 0x44 DUP3 ADD MSTORE PUSH4 0x72657373 PUSH1 0xE0 SHL PUSH1 0x64 DUP3 ADD MSTORE PUSH1 0x84 ADD PUSH2 0x55B JUMP JUMPDEST PUSH1 0x2 DUP1 SLOAD PUSH1 0x1 PUSH1 0x1 PUSH1 0xA0 SHL SUB NOT AND PUSH1 0x1 PUSH1 0x1 PUSH1 0xA0 SHL SUB DUP4 AND SWAP1 DUP2 OR SWAP1 SWAP2 SSTORE PUSH1 0x40 MLOAD PUSH4 0x70A08231 PUSH1 0xE0 SHL DUP2 MSTORE PUSH4 0x70A08231 SWAP1 PUSH2 0x868 SWAP1 ADDRESS SWAP1 PUSH1 0x4 ADD PUSH2 0x15F4 JUMP JUMPDEST PUSH1 0x20 PUSH1 0x40 MLOAD DUP1 DUP4 SUB DUP2 DUP7 GAS STATICCALL ISZERO DUP1 ISZERO PUSH2 0x883 JUMPI RETURNDATASIZE PUSH0 DUP1 RETURNDATACOPY RETURNDATASIZE PUSH0 REVERT JUMPDEST POP POP POP POP PUSH1 0x40 MLOAD RETURNDATASIZE PUSH1 0x1F NOT PUSH1 0x1F DUP3 ADD AND DUP3 ADD DUP1 PUSH1 0x40 MSTORE POP DUP2 ADD SWAP1 PUSH2 0x8A7 SWAP2 SWAP1 PUSH2 0x1778 JUMP JUMPDEST DUP3 GT ISZERO PUSH2 0x8EC JUMPI PUSH1 0x40 MLOAD PUSH3 0x461BCD PUSH1 0xE5 SHL DUP2 MSTORE PUSH1 0x20 PUSH1 0x4 DUP3 ADD MSTORE PUSH1 0x13 PUSH1 0x24 DUP3 ADD MSTORE PUSH19 0x24B739BAB33334B1B4B2B73A10333AB7323997 PUSH1 0x69 SHL PUSH1 0x44 DUP3 ADD MSTORE PUSH1 0x64 ADD PUSH2 0x55B JUMP JUMPDEST PUSH1 0x2 SLOAD PUSH1 0x40 MLOAD PUSH4 0xA9059CBB PUSH1 0xE0 SHL DUP2 MSTORE PUSH1 0x1 PUSH1 0x1 PUSH1 0xA0 SHL SUB SWAP1 SWAP2 AND SWAP1 PUSH4 0xA9059CBB SWAP1 PUSH2 0x91E SWAP1 CALLER SWAP1 DUP7 SWAP1 PUSH1 0x4 ADD PUSH2 0x1558 JUMP JUMPDEST PUSH1 0x20 PUSH1 0x40 MLOAD DUP1 DUP4 SUB DUP2 PUSH0 DUP8 GAS CALL ISZERO DUP1 ISZERO PUSH2 0x93A JUMPI RETURNDATASIZE PUSH0 DUP1 RETURNDATACOPY RETURNDATASIZE PUSH0 REVERT JUMPDEST POP POP POP POP PUSH1 0x40 MLOAD RETURNDATASIZE PUSH1 0x1F NOT PUSH1 0x1F DUP3 ADD AND DUP3 ADD DUP1 PUSH1 0x40 MSTORE POP DUP2 ADD SWAP1 PUSH2 0x95E SWAP2 SWAP1 PUSH2 0x1738 JUMP JUMPDEST POP PUSH2 0x968 PUSH1 0x1 DUP1 SSTORE JUMP JUMPDEST POP POP JUMP JUMPDEST PUSH2 0x974 PUSH2 0x1333 JUMP JUMPDEST PUSH2 0x50F PUSH0 PUSH2 0x14BE JUMP JUMPDEST PUSH0 PUSH1 0x1 JUMPDEST PUSH1 0x4 SLOAD DUP2 GT PUSH2 0x9D6 JUMPI PUSH0 DUP2 DUP2 MSTORE PUSH1 0x9 PUSH1 0x20 MSTORE PUSH1 0x40 SWAP1 KECCAK256 DUP1 SLOAD PUSH1 0x1 PUSH1 0x1 PUSH1 0xA0 SHL SUB DUP7 DUP2 AND SWAP2 AND EQ DUP1 ISZERO PUSH2 0x9B6 JUMPI POP DUP4 DUP2 PUSH1 0x1 ADD SLOAD EQ JUMPDEST ISZERO PUSH2 0x9C3 JUMPI POP SWAP1 POP PUSH2 0x9DB JUMP JUMPDEST POP DUP1 PUSH2 0x9CE DUP2 PUSH2 0x17A3 JUMP JUMPDEST SWAP2 POP POP PUSH2 0x981 JUMP JUMPDEST POP PUSH0 SWAP1 POP JUMPDEST SWAP3 SWAP2 POP POP JUMP JUMPDEST PUSH0 SLOAD PUSH1 0x1 PUSH1 0x1 PUSH1 0xA0 SHL SUB AND SWAP1 JUMP JUMPDEST PUSH2 0x9F7 PUSH2 0x13B3 JUMP JUMPDEST PUSH2 0x9FF PUSH2 0x13FB JUMP JUMPDEST PUSH2 0xA07 PUSH2 0x1333 JUMP JUMPDEST PUSH0 DUP3 DUP2 MSTORE PUSH1 0x9 PUSH1 0x20 MSTORE PUSH1 0x40 SWAP1 KECCAK256 DUP3 ISZERO DUP1 ISZERO SWAP1 PUSH2 0xA25 JUMPI POP PUSH1 0x4 SLOAD DUP4 GT ISZERO JUMPDEST PUSH2 0xA41 JUMPI PUSH1 0x40 MLOAD PUSH3 0x461BCD PUSH1 0xE5 SHL DUP2 MSTORE PUSH1 0x4 ADD PUSH2 0x55B SWAP1 PUSH2 0x16A9 JUMP JUMPDEST PUSH1 0x4 DUP2 ADD SLOAD PUSH1 0x1 PUSH1 0xA0 SHL SWAP1 DIV PUSH1 0xFF AND ISZERO ISZERO PUSH0 SUB PUSH2 0xA70 JUMPI PUSH1 0x40 MLOAD PUSH3 0x461BCD PUSH1 0xE5 SHL DUP2 MSTORE PUSH1 0x4 ADD PUSH2 0x55B SWAP1 PUSH2 0x16D5 JUMP JUMPDEST PUSH1 0x4 DUP2 ADD SLOAD PUSH1 0x1 PUSH1 0x1 PUSH1 0xA0 SHL SUB DUP1 DUP5 AND SWAP2 AND SUB PUSH2 0xA9F JUMPI PUSH1 0x40 MLOAD PUSH3 0x461BCD PUSH1 0xE5 SHL DUP2 MSTORE PUSH1 0x4 ADD PUSH2 0x55B SWAP1 PUSH2 0x1703 JUMP JUMPDEST DUP1 SLOAD PUSH1 0x1 PUSH1 0x1 PUSH1 0xA0 SHL SUB DUP6 DUP2 AND SWAP2 AND EQ PUSH2 0xACB JUMPI PUSH1 0x40 MLOAD PUSH3 0x461BCD PUSH1 0xE5 SHL DUP2 MSTORE PUSH1 0x4 ADD PUSH2 0x55B SWAP1 PUSH2 0x17BB JUMP JUMPDEST PUSH1 0x4 DUP2 ADD DUP1 SLOAD PUSH1 0x1 PUSH1 0x1 PUSH1 0xA8 SHL SUB NOT AND PUSH1 0x1 PUSH1 0x1 PUSH1 0xA0 SHL SUB DUP5 AND OR SWAP1 SSTORE PUSH1 0x1 DUP2 ADD SLOAD PUSH1 0x2 DUP3 ADD SLOAD PUSH1 0x40 MLOAD PUSH32 0xFC2E01EC8C4C53E02EE1FA8816C1692687966E0DAEF195BE5B64C88D8E58E3EE SWAP3 PUSH2 0xB22 SWAP3 DUP7 SWAP3 PUSH2 0x1757 JUMP JUMPDEST PUSH1 0x40 MLOAD DUP1 SWAP2 SUB SWAP1 LOG1 POP PUSH2 0xB34 PUSH1 0x1 DUP1 SSTORE JUMP JUMPDEST POP POP POP JUMP JUMPDEST PUSH0 DUP2 DUP2 MSTORE PUSH1 0x9 PUSH1 0x20 MSTORE PUSH1 0x40 SWAP1 KECCAK256 PUSH1 0x4 ADD SLOAD DUP3 SWAP1 DUP3 SWAP1 PUSH1 0x1 PUSH1 0x1 PUSH1 0xA0 SHL SUB AND CALLER EQ PUSH2 0xB61 JUMPI PUSH0 DUP1 REVERT JUMPDEST PUSH0 DUP2 DUP2 MSTORE PUSH1 0x9 PUSH1 0x20 MSTORE PUSH1 0x40 SWAP1 KECCAK256 SLOAD PUSH1 0x1 PUSH1 0x1 PUSH1 0xA0 SHL SUB DUP4 DUP2 AND SWAP2 AND EQ PUSH2 0xB85 JUMPI PUSH0 DUP1 REVERT JUMPDEST PUSH0 DUP4 DUP2 MSTORE PUSH1 0x9 PUSH1 0x20 MSTORE PUSH1 0x40 SWAP1 KECCAK256 PUSH1 0x4 DUP2 ADD SLOAD PUSH1 0x1 PUSH1 0x1 PUSH1 0xA0 SHL SUB AND CALLER EQ PUSH2 0xBE2 JUMPI PUSH1 0x40 MLOAD PUSH3 0x461BCD PUSH1 0xE5 SHL DUP2 MSTORE PUSH1 0x20 PUSH1 0x4 DUP3 ADD MSTORE PUSH1 0x11 PUSH1 0x24 DUP3 ADD MSTORE PUSH17 0x34B9903737BA103A34329039B2B63632B9 PUSH1 0x79 SHL PUSH1 0x44 DUP3 ADD MSTORE PUSH1 0x64 ADD PUSH2 0x55B JUMP JUMPDEST PUSH1 0x4 DUP2 ADD SLOAD PUSH1 0x1 PUSH1 0xA0 SHL SWAP1 DIV PUSH1 0xFF AND ISZERO ISZERO PUSH1 0x1 EQ PUSH2 0xC34 JUMPI PUSH1 0x40 MLOAD PUSH3 0x461BCD PUSH1 0xE5 SHL DUP2 MSTORE PUSH1 0x20 PUSH1 0x4 DUP3 ADD MSTORE PUSH1 0xF PUSH1 0x24 DUP3 ADD MSTORE PUSH15 0x1A5CC81B9BDD081B1A5CDD195B9959 PUSH1 0x8A SHL PUSH1 0x44 DUP3 ADD MSTORE PUSH1 0x64 ADD PUSH2 0x55B JUMP JUMPDEST PUSH1 0x1 DUP2 ADD SLOAD PUSH1 0x40 MLOAD PUSH4 0x23B872DD PUSH1 0xE0 SHL DUP2 MSTORE PUSH1 0x1 PUSH1 0x1 PUSH1 0xA0 SHL SUB DUP8 AND SWAP2 PUSH4 0x23B872DD SWAP2 PUSH2 0xC68 SWAP2 ADDRESS SWAP2 CALLER SWAP2 SWAP1 PUSH1 0x4 ADD PUSH2 0x1800 JUMP JUMPDEST PUSH0 PUSH1 0x40 MLOAD DUP1 DUP4 SUB DUP2 PUSH0 DUP8 DUP1 EXTCODESIZE ISZERO DUP1 ISZERO PUSH2 0xC7F JUMPI PUSH0 DUP1 REVERT JUMPDEST POP GAS CALL ISZERO DUP1 ISZERO PUSH2 0xC91 JUMPI RETURNDATASIZE PUSH0 DUP1 RETURNDATACOPY RETURNDATASIZE PUSH0 REVERT JUMPDEST POP POP POP POP PUSH1 0x4 ADD DUP1 SLOAD PUSH1 0xFF PUSH1 0xA0 SHL NOT AND SWAP1 SSTORE POP POP POP POP JUMP JUMPDEST PUSH2 0xCB1 PUSH2 0x1333 JUMP JUMPDEST PUSH1 0x5 SSTORE JUMP JUMPDEST PUSH2 0xCBE PUSH2 0x13B3 JUMP JUMPDEST PUSH2 0xCC6 PUSH2 0x13FB JUMP JUMPDEST PUSH0 DUP2 DUP2 MSTORE PUSH1 0x9 PUSH1 0x20 MSTORE PUSH1 0x40 SWAP1 KECCAK256 DUP2 ISZERO DUP1 ISZERO SWAP1 PUSH2 0xCE4 JUMPI POP PUSH1 0x4 SLOAD DUP3 GT ISZERO JUMPDEST PUSH2 0xD00 JUMPI PUSH1 0x40 MLOAD PUSH3 0x461BCD PUSH1 0xE5 SHL DUP2 MSTORE PUSH1 0x4 ADD PUSH2 0x55B SWAP1 PUSH2 0x16A9 JUMP JUMPDEST PUSH1 0x4 DUP2 ADD SLOAD PUSH1 0x1 PUSH1 0xA0 SHL SWAP1 DIV PUSH1 0xFF AND ISZERO ISZERO PUSH0 SUB PUSH2 0xD2F JUMPI PUSH1 0x40 MLOAD PUSH3 0x461BCD PUSH1 0xE5 SHL DUP2 MSTORE PUSH1 0x4 ADD PUSH2 0x55B SWAP1 PUSH2 0x16D5 JUMP JUMPDEST PUSH1 0x4 DUP2 ADD SLOAD CALLER PUSH1 0x1 PUSH1 0x1 PUSH1 0xA0 SHL SUB SWAP1 SWAP2 AND SUB PUSH2 0xD5D JUMPI PUSH1 0x40 MLOAD PUSH3 0x461BCD PUSH1 0xE5 SHL DUP2 MSTORE PUSH1 0x4 ADD PUSH2 0x55B SWAP1 PUSH2 0x1703 JUMP JUMPDEST DUP1 SLOAD PUSH1 0x1 PUSH1 0x1 PUSH1 0xA0 SHL SUB DUP5 DUP2 AND SWAP2 AND EQ PUSH2 0xD89 JUMPI PUSH1 0x40 MLOAD PUSH3 0x461BCD PUSH1 0xE5 SHL DUP2 MSTORE PUSH1 0x4 ADD PUSH2 0x55B SWAP1 PUSH2 0x17BB JUMP JUMPDEST DUP1 PUSH1 0x2 ADD SLOAD CALLVALUE LT ISZERO PUSH2 0xDED JUMPI PUSH1 0x40 MLOAD PUSH3 0x461BCD PUSH1 0xE5 SHL DUP2 MSTORE PUSH1 0x20 PUSH1 0x4 DUP3 ADD MSTORE PUSH1 0x27 PUSH1 0x24 DUP3 ADD MSTORE PUSH32 0x6E6F7420656E6F7567682062616C616E636520666F722074686973207472616E PUSH1 0x44 DUP3 ADD MSTORE PUSH7 0x39B0B1BA34B7B7 PUSH1 0xC9 SHL PUSH1 0x64 DUP3 ADD MSTORE PUSH1 0x84 ADD PUSH2 0x55B JUMP JUMPDEST PUSH1 0x2 DUP2 ADD SLOAD PUSH1 0x8 DUP2 SWAP1 SSTORE PUSH1 0x5 SLOAD PUSH2 0xE0C SWAP2 PUSH2 0x2710 SWAP2 PUSH2 0x5E0 SWAP2 SWAP1 PUSH2 0x1454 JUMP JUMPDEST PUSH1 0x6 DUP2 SWAP1 SSTORE PUSH1 0x8 SLOAD PUSH2 0xE1D SWAP2 PUSH2 0x1471 JUMP JUMPDEST PUSH1 0x7 DUP2 SWAP1 SSTORE PUSH1 0x3 DUP3 ADD SLOAD PUSH1 0x2 DUP1 SLOAD PUSH1 0x1 PUSH1 0x1 PUSH1 0xA0 SHL SUB NOT AND PUSH1 0x1 PUSH1 0x1 PUSH1 0xA0 SHL SUB SWAP3 DUP4 AND SWAP1 DUP2 OR SWAP1 SWAP2 SSTORE PUSH1 0x4 DUP1 DUP6 ADD SLOAD PUSH1 0x40 MLOAD PUSH4 0xA9059CBB PUSH1 0xE0 SHL DUP2 MSTORE SWAP3 SWAP5 PUSH4 0xA9059CBB SWAP5 PUSH2 0xE70 SWAP5 SWAP3 AND SWAP3 SWAP1 SWAP2 ADD PUSH2 0x1558 JUMP JUMPDEST PUSH1 0x20 PUSH1 0x40 MLOAD DUP1 DUP4 SUB DUP2 PUSH0 DUP8 GAS CALL ISZERO DUP1 ISZERO PUSH2 0xE8C JUMPI RETURNDATASIZE PUSH0 DUP1 RETURNDATACOPY RETURNDATASIZE PUSH0 REVERT JUMPDEST POP POP POP POP PUSH1 0x40 MLOAD RETURNDATASIZE PUSH1 0x1F NOT PUSH1 0x1F DUP3 ADD AND DUP3 ADD DUP1 PUSH1 0x40 MSTORE POP DUP2 ADD SWAP1 PUSH2 0xEB0 SWAP2 SWAP1 PUSH2 0x1738 JUMP JUMPDEST POP PUSH1 0x1 DUP2 ADD SLOAD PUSH1 0x40 MLOAD PUSH4 0x23B872DD PUSH1 0xE0 SHL DUP2 MSTORE PUSH1 0x1 PUSH1 0x1 PUSH1 0xA0 SHL SUB DUP6 AND SWAP2 PUSH4 0x23B872DD SWAP2 PUSH2 0xEE5 SWAP2 ADDRESS SWAP2 CALLER SWAP2 SWAP1 PUSH1 0x4 ADD PUSH2 0x1800 JUMP JUMPDEST PUSH0 PUSH1 0x40 MLOAD DUP1 DUP4 SUB DUP2 PUSH0 DUP8 DUP1 EXTCODESIZE ISZERO DUP1 ISZERO PUSH2 0xEFC JUMPI PUSH0 DUP1 REVERT JUMPDEST POP GAS CALL ISZERO DUP1 ISZERO PUSH2 0xF0E JUMPI RETURNDATASIZE PUSH0 DUP1 RETURNDATACOPY RETURNDATASIZE PUSH0 REVERT JUMPDEST POP POP POP POP PUSH1 0x4 DUP2 ADD DUP1 SLOAD PUSH1 0x1 PUSH1 0x1 PUSH1 0xA8 SHL SUB NOT AND CALLER PUSH1 0xFF PUSH1 0xA0 SHL NOT DUP2 AND SWAP2 SWAP1 SWAP2 OR SWAP1 SWAP2 SSTORE PUSH1 0x1 DUP3 ADD SLOAD PUSH1 0x7 SLOAD PUSH1 0x40 MLOAD PUSH0 DUP1 MLOAD PUSH1 0x20 PUSH2 0x1889 DUP4 CODECOPY DUP2 MLOAD SWAP2 MSTORE SWAP4 PUSH2 0xF59 SWAP4 SWAP1 SWAP3 SWAP1 SWAP2 PUSH2 0x1757 JUMP JUMPDEST PUSH1 0x40 MLOAD DUP1 SWAP2 SUB SWAP1 LOG1 POP PUSH2 0x968 PUSH1 0x1 DUP1 SSTORE JUMP JUMPDEST PUSH0 PUSH2 0xF75 PUSH1 0x4 SLOAD SWAP1 JUMP JUMPDEST SWAP1 POP SWAP1 JUMP JUMPDEST PUSH0 DUP1 PUSH1 0x1 JUMPDEST PUSH1 0x4 SLOAD DUP2 GT PUSH2 0x1002 JUMPI PUSH0 DUP2 DUP2 MSTORE PUSH1 0x9 PUSH1 0x20 MSTORE PUSH1 0x40 SWAP1 KECCAK256 SLOAD PUSH1 0x1 PUSH1 0x1 PUSH1 0xA0 SHL SUB DUP7 DUP2 AND SWAP2 AND EQ DUP1 ISZERO PUSH2 0xFBF JUMPI POP PUSH0 DUP2 DUP2 MSTORE PUSH1 0x9 PUSH1 0x20 MSTORE PUSH1 0x40 SWAP1 KECCAK256 PUSH1 0x1 ADD SLOAD DUP5 EQ JUMPDEST DUP1 ISZERO PUSH2 0xFE2 JUMPI POP PUSH0 DUP2 DUP2 MSTORE PUSH1 0x9 PUSH1 0x20 MSTORE PUSH1 0x40 SWAP1 KECCAK256 PUSH1 0x4 ADD SLOAD PUSH1 0x1 PUSH1 0xA0 SHL SWAP1 DIV PUSH1 0xFF AND JUMPDEST ISZERO PUSH2 0xFF0 JUMPI PUSH1 0x1 SWAP2 POP PUSH2 0x1002 JUMP JUMPDEST DUP1 PUSH2 0xFFA DUP2 PUSH2 0x17A3 JUMP JUMPDEST SWAP2 POP POP PUSH2 0xF7F JUMP JUMPDEST DUP2 PUSH2 0x1011 JUMPI PUSH0 SWAP3 POP POP POP PUSH2 0x9DB JUMP JUMPDEST SWAP5 SWAP4 POP POP POP POP JUMP JUMPDEST PUSH1 0x40 MLOAD PUSH4 0x31A9108F PUSH1 0xE1 SHL DUP2 MSTORE PUSH1 0x4 DUP2 ADD DUP5 SWAP1 MSTORE CALLER SWAP1 PUSH1 0x1 PUSH1 0x1 PUSH1 0xA0 SHL SUB DUP7 AND SWAP1 PUSH4 0x6352211E SWAP1 PUSH1 0x24 ADD PUSH1 0x20 PUSH1 0x40 MLOAD DUP1 DUP4 SUB DUP2 DUP7 GAS STATICCALL ISZERO DUP1 ISZERO PUSH2 0x105E JUMPI RETURNDATASIZE PUSH0 DUP1 RETURNDATACOPY RETURNDATASIZE PUSH0 REVERT JUMPDEST POP POP POP POP PUSH1 0x40 MLOAD RETURNDATASIZE PUSH1 0x1F NOT PUSH1 0x1F DUP3 ADD AND DUP3 ADD DUP1 PUSH1 0x40 MSTORE POP DUP2 ADD SWAP1 PUSH2 0x1082 SWAP2 SWAP1 PUSH2 0x1824 JUMP JUMPDEST PUSH1 0x1 PUSH1 0x1 PUSH1 0xA0 SHL SUB AND EQ PUSH2 0x10D0 JUMPI PUSH1 0x40 MLOAD PUSH3 0x461BCD PUSH1 0xE5 SHL DUP2 MSTORE PUSH1 0x20 PUSH1 0x4 DUP3 ADD MSTORE PUSH1 0x15 PUSH1 0x24 DUP3 ADD MSTORE PUSH21 0x2CB7BA9030B932903737BA103A34329037BBB732B9 PUSH1 0x59 SHL PUSH1 0x44 DUP3 ADD MSTORE PUSH1 0x64 ADD PUSH2 0x55B JUMP JUMPDEST PUSH0 DUP3 GT PUSH2 0x112F JUMPI PUSH1 0x40 MLOAD PUSH3 0x461BCD PUSH1 0xE5 SHL DUP2 MSTORE PUSH1 0x20 PUSH1 0x4 DUP3 ADD MSTORE PUSH1 0x27 PUSH1 0x24 DUP3 ADD MSTORE PUSH32 0x4E46544D61726B65743A207072696365206D7573742062652067726561746572 PUSH1 0x44 DUP3 ADD MSTORE PUSH7 0x207468616E203 PUSH1 0xCC SHL PUSH1 0x64 DUP3 ADD MSTORE PUSH1 0x84 ADD PUSH2 0x55B JUMP JUMPDEST PUSH2 0x113D PUSH1 0x4 DUP1 SLOAD PUSH1 0x1 ADD SWAP1 SSTORE JUMP JUMPDEST PUSH1 0x40 MLOAD DUP1 PUSH1 0xC0 ADD PUSH1 0x40 MSTORE DUP1 DUP6 PUSH1 0x1 PUSH1 0x1 PUSH1 0xA0 SHL SUB AND DUP2 MSTORE PUSH1 0x20 ADD DUP5 DUP2 MSTORE PUSH1 0x20 ADD DUP4 DUP2 MSTORE PUSH1 0x20 ADD DUP3 PUSH1 0x1 PUSH1 0x1 PUSH1 0xA0 SHL SUB AND DUP2 MSTORE PUSH1 0x20 ADD CALLER PUSH1 0x1 PUSH1 0x1 PUSH1 0xA0 SHL SUB AND DUP2 MSTORE PUSH1 0x20 ADD PUSH0 ISZERO ISZERO DUP2 MSTORE POP PUSH1 0x9 PUSH0 PUSH2 0x1193 PUSH1 0x4 SLOAD SWAP1 JUMP JUMPDEST DUP2 MSTORE PUSH1 0x20 DUP1 DUP3 ADD SWAP3 SWAP1 SWAP3 MSTORE PUSH1 0x40 SWAP1 DUP2 ADD PUSH0 SWAP1 DUP2 KECCAK256 DUP5 MLOAD DUP2 SLOAD PUSH1 0x1 PUSH1 0x1 PUSH1 0xA0 SHL SUB SWAP2 DUP3 AND PUSH1 0x1 PUSH1 0x1 PUSH1 0xA0 SHL SUB NOT SWAP2 DUP3 AND OR DUP4 SSTORE SWAP5 DUP7 ADD MLOAD PUSH1 0x1 DUP4 ADD SSTORE SWAP3 DUP6 ADD MLOAD PUSH1 0x2 DUP3 ADD SSTORE PUSH1 0x60 DUP6 ADD MLOAD PUSH1 0x3 DUP3 ADD DUP1 SLOAD SWAP2 DUP6 AND SWAP2 SWAP1 SWAP6 AND OR SWAP1 SWAP4 SSTORE PUSH1 0x80 DUP5 ADD MLOAD PUSH1 0x4 SWAP4 DUP5 ADD DUP1 SLOAD PUSH1 0xA0 SWAP1 SWAP7 ADD MLOAD ISZERO ISZERO PUSH1 0x1 PUSH1 0xA0 SHL MUL PUSH1 0x1 PUSH1 0x1 PUSH1 0xA8 SHL SUB NOT SWAP1 SWAP7 AND SWAP2 SWAP1 SWAP4 AND OR SWAP4 SWAP1 SWAP4 OR SWAP1 SSTORE PUSH1 0x9 SWAP1 DUP3 SWAP1 PUSH2 0x122B SWAP1 SLOAD SWAP1 JUMP JUMPDEST DUP2 MSTORE PUSH1 0x20 ADD SWAP1 DUP2 MSTORE PUSH1 0x20 ADD PUSH0 KECCAK256 SWAP1 POP DUP5 PUSH1 0x1 PUSH1 0x1 PUSH1 0xA0 SHL SUB AND PUSH4 0x23B872DD CALLER ADDRESS DUP8 PUSH1 0x40 MLOAD DUP5 PUSH4 0xFFFFFFFF AND PUSH1 0xE0 SHL DUP2 MSTORE PUSH1 0x4 ADD PUSH2 0x126A SWAP4 SWAP3 SWAP2 SWAP1 PUSH2 0x1800 JUMP JUMPDEST PUSH0 PUSH1 0x40 MLOAD DUP1 DUP4 SUB DUP2 PUSH0 DUP8 DUP1 EXTCODESIZE ISZERO DUP1 ISZERO PUSH2 0x1281 JUMPI PUSH0 DUP1 REVERT JUMPDEST POP GAS CALL ISZERO DUP1 ISZERO PUSH2 0x1293 JUMPI RETURNDATASIZE PUSH0 DUP1 RETURNDATACOPY RETURNDATASIZE PUSH0 REVERT JUMPDEST POP POP POP PUSH1 0x4 DUP1 DUP4 ADD DUP1 SLOAD PUSH1 0xFF PUSH1 0xA0 SHL NOT AND PUSH1 0x1 PUSH1 0xA0 SHL OR SWAP1 SSTORE PUSH32 0x21149A5778DDC1AFCA837B00FD70C0FC0A6D1D25D1BD15BFF4A84BAB1EEB9A92 SWAP2 POP CALLER SWAP1 DUP7 SWAP1 PUSH2 0x12DB SWAP1 SLOAD SWAP1 JUMP JUMPDEST PUSH1 0x40 MLOAD PUSH2 0x12EA SWAP4 SWAP3 SWAP2 SWAP1 PUSH2 0x1757 JUMP JUMPDEST PUSH1 0x40 MLOAD DUP1 SWAP2 SUB SWAP1 LOG1 POP POP POP POP POP JUMP JUMPDEST PUSH2 0x1301 PUSH2 0x1333 JUMP JUMPDEST PUSH1 0x1 PUSH1 0x1 PUSH1 0xA0 SHL SUB DUP2 AND PUSH2 0x132A JUMPI PUSH0 PUSH1 0x40 MLOAD PUSH4 0x1E4FBDF7 PUSH1 0xE0 SHL DUP2 MSTORE PUSH1 0x4 ADD PUSH2 0x55B SWAP2 SWAP1 PUSH2 0x15F4 JUMP JUMPDEST PUSH2 0x746 DUP2 PUSH2 0x14BE JUMP JUMPDEST CALLER PUSH2 0x133C PUSH2 0x9E1 JUMP JUMPDEST PUSH1 0x1 PUSH1 0x1 PUSH1 0xA0 SHL SUB AND EQ PUSH2 0x50F JUMPI CALLER PUSH1 0x40 MLOAD PUSH4 0x118CDAA7 PUSH1 0xE0 SHL DUP2 MSTORE PUSH1 0x4 ADD PUSH2 0x55B SWAP2 SWAP1 PUSH2 0x15F4 JUMP JUMPDEST PUSH2 0x136D PUSH2 0x150D JUMP JUMPDEST PUSH0 DUP1 SLOAD PUSH1 0xFF PUSH1 0xA0 SHL NOT AND SWAP1 SSTORE PUSH32 0x5DB9EE0A495BF2E6FF9C91A7834C1BA4FDD244A5E8AA4E537BD38AEAE4B073AA CALLER JUMPDEST PUSH1 0x40 MLOAD PUSH2 0x13A9 SWAP2 SWAP1 PUSH2 0x15F4 JUMP JUMPDEST PUSH1 0x40 MLOAD DUP1 SWAP2 SUB SWAP1 LOG1 JUMP JUMPDEST PUSH2 0x13BB PUSH2 0x759 JUMP JUMPDEST ISZERO PUSH2 0x50F JUMPI PUSH1 0x40 MLOAD PUSH3 0x461BCD PUSH1 0xE5 SHL DUP2 MSTORE PUSH1 0x20 PUSH1 0x4 DUP3 ADD MSTORE PUSH1 0x10 PUSH1 0x24 DUP3 ADD MSTORE PUSH16 0x14185D5CD8589B194E881C185D5CD959 PUSH1 0x82 SHL PUSH1 0x44 DUP3 ADD MSTORE PUSH1 0x64 ADD PUSH2 0x55B JUMP JUMPDEST PUSH1 0x2 PUSH1 0x1 SLOAD SUB PUSH2 0x144D JUMPI PUSH1 0x40 MLOAD PUSH3 0x461BCD PUSH1 0xE5 SHL DUP2 MSTORE PUSH1 0x20 PUSH1 0x4 DUP3 ADD MSTORE PUSH1 0x1F PUSH1 0x24 DUP3 ADD MSTORE PUSH32 0x5265656E7472616E637947756172643A207265656E7472616E742063616C6C00 PUSH1 0x44 DUP3 ADD MSTORE PUSH1 0x64 ADD PUSH2 0x55B JUMP JUMPDEST PUSH1 0x2 PUSH1 0x1 SSTORE JUMP JUMPDEST PUSH0 PUSH2 0x145F DUP3 DUP5 PUSH2 0x183F JUMP JUMPDEST SWAP4 SWAP3 POP POP POP JUMP JUMPDEST PUSH0 PUSH2 0x145F DUP3 DUP5 PUSH2 0x1856 JUMP JUMPDEST PUSH0 PUSH2 0x145F DUP3 DUP5 PUSH2 0x1875 JUMP JUMPDEST PUSH2 0x1484 PUSH2 0x13B3 JUMP JUMPDEST PUSH0 DUP1 SLOAD PUSH1 0xFF PUSH1 0xA0 SHL NOT AND PUSH1 0x1 PUSH1 0xA0 SHL OR SWAP1 SSTORE PUSH32 0x62E78CEA01BEE320CD4E420270B5EA74000D11B0C9F74754EBDBFC544B05A258 PUSH2 0x139C CALLER SWAP1 JUMP JUMPDEST PUSH0 DUP1 SLOAD PUSH1 0x1 PUSH1 0x1 PUSH1 0xA0 SHL SUB DUP4 DUP2 AND PUSH1 0x1 PUSH1 0x1 PUSH1 0xA0 SHL SUB NOT DUP4 AND DUP2 OR DUP5 SSTORE PUSH1 0x40 MLOAD SWAP2 SWAP1 SWAP3 AND SWAP3 DUP4 SWAP2 PUSH32 0x8BE0079C531659141344CD1FD0A4F28419497F9722A3DAAFE3B4186F6B6457E0 SWAP2 SWAP1 LOG3 POP POP JUMP JUMPDEST PUSH2 0x1515 PUSH2 0x759 JUMP JUMPDEST PUSH2 0x50F JUMPI PUSH1 0x40 MLOAD PUSH3 0x461BCD PUSH1 0xE5 SHL DUP2 MSTORE PUSH1 0x20 PUSH1 0x4 DUP3 ADD MSTORE PUSH1 0x14 PUSH1 0x24 DUP3 ADD MSTORE PUSH20 0x14185D5CD8589B194E881B9BDD081C185D5CD959 PUSH1 0x62 SHL PUSH1 0x44 DUP3 ADD MSTORE PUSH1 0x64 ADD PUSH2 0x55B JUMP JUMPDEST PUSH1 0x1 PUSH1 0x1 PUSH1 0xA0 SHL SUB SWAP3 SWAP1 SWAP3 AND DUP3 MSTORE PUSH1 0x20 DUP3 ADD MSTORE PUSH1 0x40 ADD SWAP1 JUMP JUMPDEST PUSH0 PUSH1 0x20 DUP3 DUP5 SUB SLT ISZERO PUSH2 0x1581 JUMPI PUSH0 DUP1 REVERT JUMPDEST POP CALLDATALOAD SWAP2 SWAP1 POP JUMP JUMPDEST PUSH1 0x1 PUSH1 0x1 PUSH1 0xA0 SHL SUB DUP2 AND DUP2 EQ PUSH2 0x746 JUMPI PUSH0 DUP1 REVERT JUMPDEST PUSH0 DUP1 PUSH1 0x40 DUP4 DUP6 SUB SLT ISZERO PUSH2 0x15AD JUMPI PUSH0 DUP1 REVERT JUMPDEST DUP3 CALLDATALOAD SWAP2 POP PUSH1 0x20 DUP4 ADD CALLDATALOAD PUSH2 0x15BF DUP2 PUSH2 0x1588 JUMP JUMPDEST DUP1 SWAP2 POP POP SWAP3 POP SWAP3 SWAP1 POP JUMP JUMPDEST PUSH0 DUP1 PUSH1 0x40 DUP4 DUP6 SUB SLT ISZERO PUSH2 0x15DB JUMPI PUSH0 DUP1 REVERT JUMPDEST DUP3 CALLDATALOAD PUSH2 0x15E6 DUP2 PUSH2 0x1588 JUMP JUMPDEST SWAP5 PUSH1 0x20 SWAP4 SWAP1 SWAP4 ADD CALLDATALOAD SWAP4 POP POP POP JUMP JUMPDEST PUSH1 0x1 PUSH1 0x1 PUSH1 0xA0 SHL SUB SWAP2 SWAP1 SWAP2 AND DUP2 MSTORE PUSH1 0x20 ADD SWAP1 JUMP JUMPDEST PUSH0 DUP1 PUSH0 PUSH1 0x60 DUP5 DUP7 SUB SLT ISZERO PUSH2 0x161A JUMPI PUSH0 DUP1 REVERT JUMPDEST DUP4 CALLDATALOAD PUSH2 0x1625 DUP2 PUSH2 0x1588 JUMP JUMPDEST SWAP3 POP PUSH1 0x20 DUP5 ADD CALLDATALOAD SWAP2 POP PUSH1 0x40 DUP5 ADD CALLDATALOAD PUSH2 0x163C DUP2 PUSH2 0x1588 JUMP JUMPDEST DUP1 SWAP2 POP POP SWAP3 POP SWAP3 POP SWAP3 JUMP JUMPDEST PUSH0 DUP1 PUSH0 DUP1 PUSH1 0x80 DUP6 DUP8 SUB SLT ISZERO PUSH2 0x165A JUMPI PUSH0 DUP1 REVERT JUMPDEST DUP5 CALLDATALOAD PUSH2 0x1665 DUP2 PUSH2 0x1588 JUMP JUMPDEST SWAP4 POP PUSH1 0x20 DUP6 ADD CALLDATALOAD SWAP3 POP PUSH1 0x40 DUP6 ADD CALLDATALOAD SWAP2 POP PUSH1 0x60 DUP6 ADD CALLDATALOAD PUSH2 0x1683 DUP2 PUSH2 0x1588 JUMP JUMPDEST SWAP4 SWAP7 SWAP3 SWAP6 POP SWAP1 SWAP4 POP POP JUMP JUMPDEST PUSH0 PUSH1 0x20 DUP3 DUP5 SUB SLT ISZERO PUSH2 0x169E JUMPI PUSH0 DUP1 REVERT JUMPDEST DUP2 CALLDATALOAD PUSH2 0x145F DUP2 PUSH2 0x1588 JUMP JUMPDEST PUSH1 0x20 DUP1 DUP3 MSTORE PUSH1 0x12 SWAP1 DUP3 ADD MSTORE PUSH18 0x1A5D195B48191BD95CDB89DD08195E1A5CDD PUSH1 0x72 SHL PUSH1 0x40 DUP3 ADD MSTORE PUSH1 0x60 ADD SWAP1 JUMP JUMPDEST PUSH1 0x20 DUP1 DUP3 MSTORE PUSH1 0x14 SWAP1 DUP3 ADD MSTORE PUSH20 0x1A5D195B481A5CC81B9BDD08199BDC881CD95B1B PUSH1 0x62 SHL PUSH1 0x40 DUP3 ADD MSTORE PUSH1 0x60 ADD SWAP1 JUMP JUMPDEST PUSH1 0x20 DUP1 DUP3 MSTORE PUSH1 0x1B SWAP1 DUP3 ADD MSTORE PUSH27 0x165BDD4818D85B9B9BDD08189D5E481E5BDD5C881BDDDB881B999D PUSH1 0x2A SHL PUSH1 0x40 DUP3 ADD MSTORE PUSH1 0x60 ADD SWAP1 JUMP JUMPDEST PUSH0 PUSH1 0x20 DUP3 DUP5 SUB SLT ISZERO PUSH2 0x1748 JUMPI PUSH0 DUP1 REVERT JUMPDEST DUP2 MLOAD DUP1 ISZERO ISZERO DUP2 EQ PUSH2 0x145F JUMPI PUSH0 DUP1 REVERT JUMPDEST PUSH1 0x1 PUSH1 0x1 PUSH1 0xA0 SHL SUB SWAP4 SWAP1 SWAP4 AND DUP4 MSTORE PUSH1 0x20 DUP4 ADD SWAP2 SWAP1 SWAP2 MSTORE PUSH1 0x40 DUP3 ADD MSTORE PUSH1 0x60 ADD SWAP1 JUMP JUMPDEST PUSH0 PUSH1 0x20 DUP3 DUP5 SUB SLT ISZERO PUSH2 0x1788 JUMPI PUSH0 DUP1 REVERT JUMPDEST POP MLOAD SWAP2 SWAP1 POP JUMP JUMPDEST PUSH4 0x4E487B71 PUSH1 0xE0 SHL PUSH0 MSTORE PUSH1 0x11 PUSH1 0x4 MSTORE PUSH1 0x24 PUSH0 REVERT JUMPDEST PUSH0 PUSH1 0x1 DUP3 ADD PUSH2 0x17B4 JUMPI PUSH2 0x17B4 PUSH2 0x178F JUMP JUMPDEST POP PUSH1 0x1 ADD SWAP1 JUMP JUMPDEST PUSH1 0x20 DUP1 DUP3 MSTORE PUSH1 0x25 SWAP1 DUP3 ADD MSTORE PUSH32 0x6974656D206973206E6F74207468652073616D6520636F6E7472616374206164 PUSH1 0x40 DUP3 ADD MSTORE PUSH5 0x6472657373 PUSH1 0xD8 SHL PUSH1 0x60 DUP3 ADD MSTORE PUSH1 0x80 ADD SWAP1 JUMP JUMPDEST PUSH1 0x1 PUSH1 0x1 PUSH1 0xA0 SHL SUB SWAP4 DUP5 AND DUP2 MSTORE SWAP2 SWAP1 SWAP3 AND PUSH1 0x20 DUP3 ADD MSTORE PUSH1 0x40 DUP2 ADD SWAP2 SWAP1 SWAP2 MSTORE PUSH1 0x60 ADD SWAP1 JUMP JUMPDEST PUSH0 PUSH1 0x20 DUP3 DUP5 SUB SLT ISZERO PUSH2 0x1834 JUMPI PUSH0 DUP1 REVERT JUMPDEST DUP2 MLOAD PUSH2 0x145F DUP2 PUSH2 0x1588 JUMP JUMPDEST DUP1 DUP3 MUL DUP2 ISZERO DUP3 DUP3 DIV DUP5 EQ OR PUSH2 0x9DB JUMPI PUSH2 0x9DB PUSH2 0x178F JUMP JUMPDEST PUSH0 DUP3 PUSH2 0x1870 JUMPI PUSH4 0x4E487B71 PUSH1 0xE0 SHL PUSH0 MSTORE PUSH1 0x12 PUSH1 0x4 MSTORE PUSH1 0x24 PUSH0 REVERT JUMPDEST POP DIV SWAP1 JUMP JUMPDEST DUP2 DUP2 SUB DUP2 DUP2 GT ISZERO PUSH2 0x9DB JUMPI PUSH2 0x9DB PUSH2 0x178F JUMP INVALID 0xC0 PUSH26 0xEB4899023169BE51DD7074A99A15959464F9A0E6B19767D8D61 MSTORE8 SWAP12 DUP8 0x26 LOG2 PUSH5 0x6970667358 0x22 SLT KECCAK256 0x27 RETURN RETURNDATACOPY EXTCODEHASH 0x5D SWAP3 PUSH2 0x3E77 0x5D 0xD3 0xC4 EXP SWAP6 CODESIZE PUSH26 0xEC884C2FB06E222FF5DFA9036032143E64736F6C634300081600 CALLER "
		},
		"gasEstimates": {
			"creation": {
				"codeDepositCost": "1273200",
				"executionCost": "infinite",
				"totalCost": "infinite"
			},
			"external": {
				"ERC20()": "2668",
				"ERCNFT()": "2756",
				"buyNFT(address,uint256)": "infinite",
				"cancel(address,uint256)": "infinite",
				"getAllIdListed(address,uint256)": "infinite",
				"getComissionPercentage()": "2368",
				"getIdListed(address,uint256)": "infinite",
				"getListinglength()": "2614",
				"getNFTListing(uint256)": "11416",
				"listNFT(address,uint256,uint256,address)": "infinite",
				"listings(uint256)": "11472",
				"owner()": "2544",
				"pauseMarketplace()": "infinite",
				"paused()": "2400",
				"renounceOwnership()": "infinite",
				"transferNFT(uint256)": "infinite",
				"transferOrWithdraw(uint256,address)": "infinite",
				"transferOwnership(address)": "infinite",
				"unpauseMarketplace()": "infinite",
				"updateComissionPercentage(uint256)": "24772",
				"updateNFT(address,uint256,address)": "infinite"
			}
		},
		"methodIdentifiers": {
			"ERC20()": "cc4aa204",
			"ERCNFT()": "df706cbc",
			"buyNFT(address,uint256)": "a82ba76f",
			"cancel(address,uint256)": "98590ef9",
			"getAllIdListed(address,uint256)": "8699fdf4",
			"getComissionPercentage()": "65a19c20",
			"getIdListed(address,uint256)": "cf02976f",
			"getListinglength()": "c85d5262",
			"getNFTListing(uint256)": "0ea59c4b",
			"listNFT(address,uint256,uint256,address)": "d68cdc52",
			"listings(uint256)": "de74e57b",
			"owner()": "8da5cb5b",
			"pauseMarketplace()": "3ec62279",
			"paused()": "5c975abb",
			"renounceOwnership()": "715018a6",
			"transferNFT(uint256)": "249e10c5",
			"transferOrWithdraw(uint256,address)": "6ee4c120",
			"transferOwnership(address)": "f2fde38b",
			"unpauseMarketplace()": "21f67fbb",
			"updateComissionPercentage(uint256)": "9cefe029",
			"updateNFT(address,uint256,address)": "925a9953"
		}
	},
	"abi": [
		{
			"inputs": [
				{
					"internalType": "address",
					"name": "initialOwner",
					"type": "address"
				}
			],
			"stateMutability": "nonpayable",
			"type": "constructor"
		},
		{
			"inputs": [
				{
					"internalType": "address",
					"name": "owner",
					"type": "address"
				}
			],
			"name": "OwnableInvalidOwner",
			"type": "error"
		},
		{
			"inputs": [
				{
					"internalType": "address",
					"name": "account",
					"type": "address"
				}
			],
			"name": "OwnableUnauthorizedAccount",
			"type": "error"
		},
		{
			"anonymous": false,
			"inputs": [
				{
					"indexed": false,
					"internalType": "address",
					"name": "sender",
					"type": "address"
				},
				{
					"indexed": false,
					"internalType": "uint256",
					"name": "amount",
					"type": "uint256"
				}
			],
			"name": "Deposit",
			"type": "event"
		},
		{
			"anonymous": false,
			"inputs": [
				{
					"indexed": false,
					"internalType": "address",
					"name": "_buyer",
					"type": "address"
				},
				{
					"indexed": false,
					"internalType": "uint256",
					"name": "_tokenId",
					"type": "uint256"
				},
				{
					"indexed": false,
					"internalType": "uint256",
					"name": "_price",
					"type": "uint256"
				}
			],
			"name": "NftBuy",
			"type": "event"
		},
		{
			"anonymous": false,
			"inputs": [
				{
					"indexed": false,
					"internalType": "address",
					"name": "_seller",
					"type": "address"
				},
				{
					"indexed": false,
					"internalType": "uint256",
					"name": "_tokenId",
					"type": "uint256"
				},
				{
					"indexed": false,
					"internalType": "uint256",
					"name": "_id",
					"type": "uint256"
				}
			],
			"name": "NftList",
			"type": "event"
		},
		{
			"anonymous": false,
			"inputs": [
				{
					"indexed": true,
					"internalType": "address",
					"name": "previousOwner",
					"type": "address"
				},
				{
					"indexed": true,
					"internalType": "address",
					"name": "newOwner",
					"type": "address"
				}
			],
			"name": "OwnershipTransferred",
			"type": "event"
		},
		{
			"anonymous": false,
			"inputs": [
				{
					"indexed": false,
					"internalType": "address",
					"name": "account",
					"type": "address"
				}
			],
			"name": "Paused",
			"type": "event"
		},
		{
			"anonymous": false,
			"inputs": [
				{
					"indexed": false,
					"internalType": "address",
					"name": "account",
					"type": "address"
				}
			],
			"name": "Unpaused",
			"type": "event"
		},
		{
			"anonymous": false,
			"inputs": [
				{
					"indexed": false,
					"internalType": "address",
					"name": "_buyer",
					"type": "address"
				},
				{
					"indexed": false,
					"internalType": "uint256",
					"name": "_tokenId",
					"type": "uint256"
				},
				{
					"indexed": false,
					"internalType": "uint256",
					"name": "_price",
					"type": "uint256"
				}
			],
			"name": "transferToBuyer",
			"type": "event"
		},
		{
			"anonymous": false,
			"inputs": [
				{
					"indexed": false,
					"internalType": "address",
					"name": "_buyer",
					"type": "address"
				},
				{
					"indexed": false,
					"internalType": "uint256",
					"name": "_tokenId",
					"type": "uint256"
				},
				{
					"indexed": false,
					"internalType": "uint256",
					"name": "_price",
					"type": "uint256"
				}
			],
			"name": "updateToBuyer",
			"type": "event"
		},
		{
			"inputs": [],
			"name": "ERC20",
			"outputs": [
				{
					"internalType": "contract IERC20",
					"name": "",
					"type": "address"
				}
			],
			"stateMutability": "view",
			"type": "function"
		},
		{
			"inputs": [],
			"name": "ERCNFT",
			"outputs": [
				{
					"internalType": "contract IERC721",
					"name": "",
					"type": "address"
				}
			],
			"stateMutability": "view",
			"type": "function"
		},
		{
			"inputs": [
				{
					"internalType": "contract ERC721",
					"name": "_nft",
					"type": "address"
				},
				{
					"internalType": "uint256",
					"name": "_Id",
					"type": "uint256"
				}
			],
			"name": "buyNFT",
			"outputs": [],
			"stateMutability": "payable",
			"type": "function"
		},
		{
			"inputs": [
				{
					"internalType": "contract ERC721",
					"name": "_nft",
					"type": "address"
				},
				{
					"internalType": "uint256",
					"name": "_Id",
					"type": "uint256"
				}
			],
			"name": "cancel",
			"outputs": [],
			"stateMutability": "payable",
			"type": "function"
		},
		{
			"inputs": [
				{
					"internalType": "contract ERC721",
					"name": "_nft",
					"type": "address"
				},
				{
					"internalType": "uint256",
					"name": "_tokenId",
					"type": "uint256"
				}
			],
			"name": "getAllIdListed",
			"outputs": [
				{
					"internalType": "uint256",
					"name": "",
					"type": "uint256"
				}
			],
			"stateMutability": "view",
			"type": "function"
		},
		{
			"inputs": [],
			"name": "getComissionPercentage",
			"outputs": [
				{
					"internalType": "uint256",
					"name": "",
					"type": "uint256"
				}
			],
			"stateMutability": "view",
			"type": "function"
		},
		{
			"inputs": [
				{
					"internalType": "contract ERC721",
					"name": "_nft",
					"type": "address"
				},
				{
					"internalType": "uint256",
					"name": "_tokenId",
					"type": "uint256"
				}
			],
			"name": "getIdListed",
			"outputs": [
				{
					"internalType": "uint256",
					"name": "",
					"type": "uint256"
				}
			],
			"stateMutability": "view",
			"type": "function"
		},
		{
			"inputs": [],
			"name": "getListinglength",
			"outputs": [
				{
					"internalType": "uint256",
					"name": "",
					"type": "uint256"
				}
			],
			"stateMutability": "view",
			"type": "function"
		},
		{
			"inputs": [
				{
					"internalType": "uint256",
					"name": "_Id",
					"type": "uint256"
				}
			],
			"name": "getNFTListing",
			"outputs": [
				{
					"components": [
						{
							"internalType": "contract ERC721",
							"name": "nft",
							"type": "address"
						},
						{
							"internalType": "uint256",
							"name": "tokenId",
							"type": "uint256"
						},
						{
							"internalType": "uint256",
							"name": "price",
							"type": "uint256"
						},
						{
							"internalType": "address",
							"name": "coin",
							"type": "address"
						},
						{
							"internalType": "address",
							"name": "seller",
							"type": "address"
						},
						{
							"internalType": "bool",
							"name": "forSale",
							"type": "bool"
						}
					],
					"internalType": "struct GBMarketplace.NFTListing",
					"name": "",
					"type": "tuple"
				}
			],
			"stateMutability": "view",
			"type": "function"
		},
		{
			"inputs": [
				{
					"internalType": "contract ERC721",
					"name": "_nft",
					"type": "address"
				},
				{
					"internalType": "uint256",
					"name": "_tokenId",
					"type": "uint256"
				},
				{
					"internalType": "uint256",
					"name": "_price",
					"type": "uint256"
				},
				{
					"internalType": "address",
					"name": "_coin",
					"type": "address"
				}
			],
			"name": "listNFT",
			"outputs": [],
			"stateMutability": "payable",
			"type": "function"
		},
		{
			"inputs": [
				{
					"internalType": "uint256",
					"name": "",
					"type": "uint256"
				}
			],
			"name": "listings",
			"outputs": [
				{
					"internalType": "contract ERC721",
					"name": "nft",
					"type": "address"
				},
				{
					"internalType": "uint256",
					"name": "tokenId",
					"type": "uint256"
				},
				{
					"internalType": "uint256",
					"name": "price",
					"type": "uint256"
				},
				{
					"internalType": "address",
					"name": "coin",
					"type": "address"
				},
				{
					"internalType": "address",
					"name": "seller",
					"type": "address"
				},
				{
					"internalType": "bool",
					"name": "forSale",
					"type": "bool"
				}
			],
			"stateMutability": "view",
			"type": "function"
		},
		{
			"inputs": [],
			"name": "owner",
			"outputs": [
				{
					"internalType": "address",
					"name": "",
					"type": "address"
				}
			],
			"stateMutability": "view",
			"type": "function"
		},
		{
			"inputs": [],
			"name": "pauseMarketplace",
			"outputs": [],
			"stateMutability": "nonpayable",
			"type": "function"
		},
		{
			"inputs": [],
			"name": "paused",
			"outputs": [
				{
					"internalType": "bool",
					"name": "",
					"type": "bool"
				}
			],
			"stateMutability": "view",
			"type": "function"
		},
		{
			"inputs": [],
			"name": "renounceOwnership",
			"outputs": [],
			"stateMutability": "nonpayable",
			"type": "function"
		},
		{
			"inputs": [
				{
					"internalType": "uint256",
					"name": "_listingId",
					"type": "uint256"
				}
			],
			"name": "transferNFT",
			"outputs": [],
			"stateMutability": "nonpayable",
			"type": "function"
		},
		{
			"inputs": [
				{
					"internalType": "uint256",
					"name": "_amount",
					"type": "uint256"
				},
				{
					"internalType": "address",
					"name": "_ERC20Address",
					"type": "address"
				}
			],
			"name": "transferOrWithdraw",
			"outputs": [],
			"stateMutability": "nonpayable",
			"type": "function"
		},
		{
			"inputs": [
				{
					"internalType": "address",
					"name": "newOwner",
					"type": "address"
				}
			],
			"name": "transferOwnership",
			"outputs": [],
			"stateMutability": "nonpayable",
			"type": "function"
		},
		{
			"inputs": [],
			"name": "unpauseMarketplace",
			"outputs": [],
			"stateMutability": "nonpayable",
			"type": "function"
		},
		{
			"inputs": [
				{
					"internalType": "uint256",
					"name": "_value",
					"type": "uint256"
				}
			],
			"name": "updateComissionPercentage",
			"outputs": [],
			"stateMutability": "nonpayable",
			"type": "function"
		},
		{
			"inputs": [
				{
					"internalType": "contract ERC721",
					"name": "_nft",
					"type": "address"
				},
				{
					"internalType": "uint256",
					"name": "_Id",
					"type": "uint256"
				},
				{
					"internalType": "address",
					"name": "_sender",
					"type": "address"
				}
			],
			"name": "updateNFT",
			"outputs": [],
			"stateMutability": "nonpayable",
			"type": "function"
		},
		{
			"stateMutability": "payable",
			"type": "receive"
		}
	]
}